{
	"Require_In_Blockchain/requireBlockchain.sol": {
		"requireBlockchain": {
			"abi": [
				{
					"inputs": [
						{
							"internalType": "uint256",
							"name": "_x",
							"type": "uint256"
						}
					],
					"name": "CheckRequire",
					"outputs": [],
					"stateMutability": "nonpayable",
					"type": "function"
				},
				{
					"inputs": [],
					"name": "age",
					"outputs": [
						{
							"internalType": "uint256",
							"name": "",
							"type": "uint256"
						}
					],
					"stateMutability": "view",
					"type": "function"
				},
				{
					"inputs": [],
					"name": "onlyOwner",
					"outputs": [],
					"stateMutability": "nonpayable",
					"type": "function"
				},
				{
					"inputs": [],
					"name": "owner",
					"outputs": [
						{
							"internalType": "address",
							"name": "",
							"type": "address"
						}
					],
					"stateMutability": "view",
					"type": "function"
				}
			],
			"devdoc": {
				"kind": "dev",
				"methods": {},
				"version": 1
			},
			"evm": {
				"assembly": "    /* \"Require_In_Blockchain/requireBlockchain.sol\":62:776  contract requireBlockchain{... */\n  mstore(0x40, 0x80)\n    /* \"Require_In_Blockchain/requireBlockchain.sol\":264:274  msg.sender */\n  caller\n    /* \"Require_In_Blockchain/requireBlockchain.sol\":241:274  address public owner = msg.sender */\n  0x00\n  dup1\n  0x0100\n  exp\n  dup2\n  sload\n  dup2\n  0xffffffffffffffffffffffffffffffffffffffff\n  mul\n  not\n  and\n  swap1\n  dup4\n  0xffffffffffffffffffffffffffffffffffffffff\n  and\n  mul\n  or\n  swap1\n  sstore\n  pop\n    /* \"Require_In_Blockchain/requireBlockchain.sol\":299:301  25 */\n  0x19\n    /* \"Require_In_Blockchain/requireBlockchain.sol\":281:301  uint public age = 25 */\n  0x01\n  sstore\n    /* \"Require_In_Blockchain/requireBlockchain.sol\":62:776  contract requireBlockchain{... */\n  callvalue\n  dup1\n  iszero\n  tag_1\n  jumpi\n  0x00\n  dup1\n  revert\ntag_1:\n  pop\n  dataSize(sub_0)\n  dup1\n  dataOffset(sub_0)\n  0x00\n  codecopy\n  0x00\n  return\nstop\n\nsub_0: assembly {\n        /* \"Require_In_Blockchain/requireBlockchain.sol\":62:776  contract requireBlockchain{... */\n      mstore(0x40, 0x80)\n      callvalue\n      dup1\n      iszero\n      tag_1\n      jumpi\n      0x00\n      dup1\n      revert\n    tag_1:\n      pop\n      jumpi(tag_2, lt(calldatasize, 0x04))\n      shr(0xe0, calldataload(0x00))\n      dup1\n      0x1036e0a8\n      eq\n      tag_3\n      jumpi\n      dup1\n      0x262a9dff\n      eq\n      tag_4\n      jumpi\n      dup1\n      0x8da5cb5b\n      eq\n      tag_5\n      jumpi\n      dup1\n      0xbf949bbf\n      eq\n      tag_6\n      jumpi\n    tag_2:\n      0x00\n      dup1\n      revert\n        /* \"Require_In_Blockchain/requireBlockchain.sol\":650:771  function onlyOwner() public{... */\n    tag_3:\n      tag_7\n      tag_8\n      jump\t// in\n    tag_7:\n      stop\n        /* \"Require_In_Blockchain/requireBlockchain.sol\":281:301  uint public age = 25 */\n    tag_4:\n      tag_9\n      tag_10\n      jump\t// in\n    tag_9:\n      mload(0x40)\n      tag_11\n      swap2\n      swap1\n      tag_12\n      jump\t// in\n    tag_11:\n      mload(0x40)\n      dup1\n      swap2\n      sub\n      swap1\n      return\n        /* \"Require_In_Blockchain/requireBlockchain.sol\":241:274  address public owner = msg.sender */\n    tag_5:\n      tag_13\n      tag_14\n      jump\t// in\n    tag_13:\n      mload(0x40)\n      tag_15\n      swap2\n      swap1\n      tag_16\n      jump\t// in\n    tag_15:\n      mload(0x40)\n      dup1\n      swap2\n      sub\n      swap1\n      return\n        /* \"Require_In_Blockchain/requireBlockchain.sol\":310:644  function CheckRequire(uint _x) public{... */\n    tag_6:\n      tag_17\n      0x04\n      dup1\n      calldatasize\n      sub\n      dup2\n      add\n      swap1\n      tag_18\n      swap2\n      swap1\n      tag_19\n      jump\t// in\n    tag_18:\n      tag_20\n      jump\t// in\n    tag_17:\n      stop\n        /* \"Require_In_Blockchain/requireBlockchain.sol\":650:771  function onlyOwner() public{... */\n    tag_8:\n        /* \"Require_In_Blockchain/requireBlockchain.sol\":705:715  msg.sender */\n      caller\n        /* \"Require_In_Blockchain/requireBlockchain.sol\":696:715  owner == msg.sender */\n      0xffffffffffffffffffffffffffffffffffffffff\n      and\n        /* \"Require_In_Blockchain/requireBlockchain.sol\":696:701  owner */\n      0x00\n      dup1\n      sload\n      swap1\n      0x0100\n      exp\n      swap1\n      div\n      0xffffffffffffffffffffffffffffffffffffffff\n      and\n        /* \"Require_In_Blockchain/requireBlockchain.sol\":696:715  owner == msg.sender */\n      0xffffffffffffffffffffffffffffffffffffffff\n      and\n      eq\n        /* \"Require_In_Blockchain/requireBlockchain.sol\":688:741  require(owner == msg.sender,\"You are note the owner\") */\n      tag_22\n      jumpi\n      mload(0x40)\n      0x08c379a000000000000000000000000000000000000000000000000000000000\n      dup2\n      mstore\n      0x04\n      add\n      tag_23\n      swap1\n      tag_24\n      jump\t// in\n    tag_23:\n      mload(0x40)\n      dup1\n      swap2\n      sub\n      swap1\n      revert\n    tag_22:\n        /* \"Require_In_Blockchain/requireBlockchain.sol\":762:763  2 */\n      0x02\n        /* \"Require_In_Blockchain/requireBlockchain.sol\":758:761  age */\n      sload(0x01)\n        /* \"Require_In_Blockchain/requireBlockchain.sol\":758:763  age-2 */\n      tag_25\n      swap2\n      swap1\n      tag_26\n      jump\t// in\n    tag_25:\n        /* \"Require_In_Blockchain/requireBlockchain.sol\":752:755  age */\n      0x01\n        /* \"Require_In_Blockchain/requireBlockchain.sol\":752:763  age = age-2 */\n      dup2\n      swap1\n      sstore\n      pop\n        /* \"Require_In_Blockchain/requireBlockchain.sol\":650:771  function onlyOwner() public{... */\n      jump\t// out\n        /* \"Require_In_Blockchain/requireBlockchain.sol\":281:301  uint public age = 25 */\n    tag_10:\n      sload(0x01)\n      dup2\n      jump\t// out\n        /* \"Require_In_Blockchain/requireBlockchain.sol\":241:274  address public owner = msg.sender */\n    tag_14:\n      0x00\n      dup1\n      sload\n      swap1\n      0x0100\n      exp\n      swap1\n      div\n      0xffffffffffffffffffffffffffffffffffffffff\n      and\n      dup2\n      jump\t// out\n        /* \"Require_In_Blockchain/requireBlockchain.sol\":310:644  function CheckRequire(uint _x) public{... */\n    tag_20:\n        /* \"Require_In_Blockchain/requireBlockchain.sol\":370:371  5 */\n      0x05\n        /* \"Require_In_Blockchain/requireBlockchain.sol\":364:367  age */\n      sload(0x01)\n        /* \"Require_In_Blockchain/requireBlockchain.sol\":364:371  age + 5 */\n      tag_28\n      swap2\n      swap1\n      tag_29\n      jump\t// in\n    tag_28:\n        /* \"Require_In_Blockchain/requireBlockchain.sol\":358:361  age */\n      0x01\n        /* \"Require_In_Blockchain/requireBlockchain.sol\":358:371  age = age + 5 */\n      dup2\n      swap1\n      sstore\n      pop\n        /* \"Require_In_Blockchain/requireBlockchain.sol\":484:485  2 */\n      0x02\n        /* \"Require_In_Blockchain/requireBlockchain.sol\":481:483  _x */\n      dup2\n        /* \"Require_In_Blockchain/requireBlockchain.sol\":481:485  _x>2 */\n      gt\n        /* \"Require_In_Blockchain/requireBlockchain.sol\":473:514  require(_x>2,\"Value of x is less than 2\") */\n      tag_30\n      jumpi\n      mload(0x40)\n      0x08c379a000000000000000000000000000000000000000000000000000000000\n      dup2\n      mstore\n      0x04\n      add\n      tag_31\n      swap1\n      tag_32\n      jump\t// in\n    tag_31:\n      mload(0x40)\n      dup1\n      swap2\n      sub\n      swap1\n      revert\n    tag_30:\n        /* \"Require_In_Blockchain/requireBlockchain.sol\":310:644  function CheckRequire(uint _x) public{... */\n      pop\n      jump\t// out\n        /* \"#utility.yul\":7:84   */\n    tag_33:\n        /* \"#utility.yul\":44:51   */\n      0x00\n        /* \"#utility.yul\":73:78   */\n      dup2\n        /* \"#utility.yul\":62:78   */\n      swap1\n      pop\n        /* \"#utility.yul\":7:84   */\n      swap2\n      swap1\n      pop\n      jump\t// out\n        /* \"#utility.yul\":90:208   */\n    tag_34:\n        /* \"#utility.yul\":177:201   */\n      tag_52\n        /* \"#utility.yul\":195:200   */\n      dup2\n        /* \"#utility.yul\":177:201   */\n      tag_33\n      jump\t// in\n    tag_52:\n        /* \"#utility.yul\":172:175   */\n      dup3\n        /* \"#utility.yul\":165:202   */\n      mstore\n        /* \"#utility.yul\":90:208   */\n      pop\n      pop\n      jump\t// out\n        /* \"#utility.yul\":214:436   */\n    tag_12:\n        /* \"#utility.yul\":307:311   */\n      0x00\n        /* \"#utility.yul\":345:347   */\n      0x20\n        /* \"#utility.yul\":334:343   */\n      dup3\n        /* \"#utility.yul\":330:348   */\n      add\n        /* \"#utility.yul\":322:348   */\n      swap1\n      pop\n        /* \"#utility.yul\":358:429   */\n      tag_54\n        /* \"#utility.yul\":426:427   */\n      0x00\n        /* \"#utility.yul\":415:424   */\n      dup4\n        /* \"#utility.yul\":411:428   */\n      add\n        /* \"#utility.yul\":402:408   */\n      dup5\n        /* \"#utility.yul\":358:429   */\n      tag_34\n      jump\t// in\n    tag_54:\n        /* \"#utility.yul\":214:436   */\n      swap3\n      swap2\n      pop\n      pop\n      jump\t// out\n        /* \"#utility.yul\":442:568   */\n    tag_35:\n        /* \"#utility.yul\":479:486   */\n      0x00\n        /* \"#utility.yul\":519:561   */\n      0xffffffffffffffffffffffffffffffffffffffff\n        /* \"#utility.yul\":512:517   */\n      dup3\n        /* \"#utility.yul\":508:562   */\n      and\n        /* \"#utility.yul\":497:562   */\n      swap1\n      pop\n        /* \"#utility.yul\":442:568   */\n      swap2\n      swap1\n      pop\n      jump\t// out\n        /* \"#utility.yul\":574:670   */\n    tag_36:\n        /* \"#utility.yul\":611:618   */\n      0x00\n        /* \"#utility.yul\":640:664   */\n      tag_57\n        /* \"#utility.yul\":658:663   */\n      dup3\n        /* \"#utility.yul\":640:664   */\n      tag_35\n      jump\t// in\n    tag_57:\n        /* \"#utility.yul\":629:664   */\n      swap1\n      pop\n        /* \"#utility.yul\":574:670   */\n      swap2\n      swap1\n      pop\n      jump\t// out\n        /* \"#utility.yul\":676:794   */\n    tag_37:\n        /* \"#utility.yul\":763:787   */\n      tag_59\n        /* \"#utility.yul\":781:786   */\n      dup2\n        /* \"#utility.yul\":763:787   */\n      tag_36\n      jump\t// in\n    tag_59:\n        /* \"#utility.yul\":758:761   */\n      dup3\n        /* \"#utility.yul\":751:788   */\n      mstore\n        /* \"#utility.yul\":676:794   */\n      pop\n      pop\n      jump\t// out\n        /* \"#utility.yul\":800:1022   */\n    tag_16:\n        /* \"#utility.yul\":893:897   */\n      0x00\n        /* \"#utility.yul\":931:933   */\n      0x20\n        /* \"#utility.yul\":920:929   */\n      dup3\n        /* \"#utility.yul\":916:934   */\n      add\n        /* \"#utility.yul\":908:934   */\n      swap1\n      pop\n        /* \"#utility.yul\":944:1015   */\n      tag_61\n        /* \"#utility.yul\":1012:1013   */\n      0x00\n        /* \"#utility.yul\":1001:1010   */\n      dup4\n        /* \"#utility.yul\":997:1014   */\n      add\n        /* \"#utility.yul\":988:994   */\n      dup5\n        /* \"#utility.yul\":944:1015   */\n      tag_37\n      jump\t// in\n    tag_61:\n        /* \"#utility.yul\":800:1022   */\n      swap3\n      swap2\n      pop\n      pop\n      jump\t// out\n        /* \"#utility.yul\":1109:1226   */\n    tag_39:\n        /* \"#utility.yul\":1218:1219   */\n      0x00\n        /* \"#utility.yul\":1215:1216   */\n      dup1\n        /* \"#utility.yul\":1208:1220   */\n      revert\n        /* \"#utility.yul\":1355:1477   */\n    tag_41:\n        /* \"#utility.yul\":1428:1452   */\n      tag_66\n        /* \"#utility.yul\":1446:1451   */\n      dup2\n        /* \"#utility.yul\":1428:1452   */\n      tag_33\n      jump\t// in\n    tag_66:\n        /* \"#utility.yul\":1421:1426   */\n      dup2\n        /* \"#utility.yul\":1418:1453   */\n      eq\n        /* \"#utility.yul\":1408:1471   */\n      tag_67\n      jumpi\n        /* \"#utility.yul\":1467:1468   */\n      0x00\n        /* \"#utility.yul\":1464:1465   */\n      dup1\n        /* \"#utility.yul\":1457:1469   */\n      revert\n        /* \"#utility.yul\":1408:1471   */\n    tag_67:\n        /* \"#utility.yul\":1355:1477   */\n      pop\n      jump\t// out\n        /* \"#utility.yul\":1483:1622   */\n    tag_42:\n        /* \"#utility.yul\":1529:1534   */\n      0x00\n        /* \"#utility.yul\":1567:1573   */\n      dup2\n        /* \"#utility.yul\":1554:1574   */\n      calldataload\n        /* \"#utility.yul\":1545:1574   */\n      swap1\n      pop\n        /* \"#utility.yul\":1583:1616   */\n      tag_69\n        /* \"#utility.yul\":1610:1615   */\n      dup2\n        /* \"#utility.yul\":1583:1616   */\n      tag_41\n      jump\t// in\n    tag_69:\n        /* \"#utility.yul\":1483:1622   */\n      swap3\n      swap2\n      pop\n      pop\n      jump\t// out\n        /* \"#utility.yul\":1628:1957   */\n    tag_19:\n        /* \"#utility.yul\":1687:1693   */\n      0x00\n        /* \"#utility.yul\":1736:1738   */\n      0x20\n        /* \"#utility.yul\":1724:1733   */\n      dup3\n        /* \"#utility.yul\":1715:1722   */\n      dup5\n        /* \"#utility.yul\":1711:1734   */\n      sub\n        /* \"#utility.yul\":1707:1739   */\n      slt\n        /* \"#utility.yul\":1704:1823   */\n      iszero\n      tag_71\n      jumpi\n        /* \"#utility.yul\":1742:1821   */\n      tag_72\n      tag_39\n      jump\t// in\n    tag_72:\n        /* \"#utility.yul\":1704:1823   */\n    tag_71:\n        /* \"#utility.yul\":1862:1863   */\n      0x00\n        /* \"#utility.yul\":1887:1940   */\n      tag_73\n        /* \"#utility.yul\":1932:1939   */\n      dup5\n        /* \"#utility.yul\":1923:1929   */\n      dup3\n        /* \"#utility.yul\":1912:1921   */\n      dup6\n        /* \"#utility.yul\":1908:1930   */\n      add\n        /* \"#utility.yul\":1887:1940   */\n      tag_42\n      jump\t// in\n    tag_73:\n        /* \"#utility.yul\":1877:1940   */\n      swap2\n      pop\n        /* \"#utility.yul\":1833:1950   */\n      pop\n        /* \"#utility.yul\":1628:1957   */\n      swap3\n      swap2\n      pop\n      pop\n      jump\t// out\n        /* \"#utility.yul\":1963:2132   */\n    tag_43:\n        /* \"#utility.yul\":2047:2058   */\n      0x00\n        /* \"#utility.yul\":2081:2087   */\n      dup3\n        /* \"#utility.yul\":2076:2079   */\n      dup3\n        /* \"#utility.yul\":2069:2088   */\n      mstore\n        /* \"#utility.yul\":2121:2125   */\n      0x20\n        /* \"#utility.yul\":2116:2119   */\n      dup3\n        /* \"#utility.yul\":2112:2126   */\n      add\n        /* \"#utility.yul\":2097:2126   */\n      swap1\n      pop\n        /* \"#utility.yul\":1963:2132   */\n      swap3\n      swap2\n      pop\n      pop\n      jump\t// out\n        /* \"#utility.yul\":2138:2310   */\n    tag_44:\n        /* \"#utility.yul\":2278:2302   */\n      0x596f7520617265206e6f746520746865206f776e657200000000000000000000\n        /* \"#utility.yul\":2274:2275   */\n      0x00\n        /* \"#utility.yul\":2266:2272   */\n      dup3\n        /* \"#utility.yul\":2262:2276   */\n      add\n        /* \"#utility.yul\":2255:2303   */\n      mstore\n        /* \"#utility.yul\":2138:2310   */\n      pop\n      jump\t// out\n        /* \"#utility.yul\":2316:2682   */\n    tag_45:\n        /* \"#utility.yul\":2458:2461   */\n      0x00\n        /* \"#utility.yul\":2479:2546   */\n      tag_77\n        /* \"#utility.yul\":2543:2545   */\n      0x16\n        /* \"#utility.yul\":2538:2541   */\n      dup4\n        /* \"#utility.yul\":2479:2546   */\n      tag_43\n      jump\t// in\n    tag_77:\n        /* \"#utility.yul\":2472:2546   */\n      swap2\n      pop\n        /* \"#utility.yul\":2555:2648   */\n      tag_78\n        /* \"#utility.yul\":2644:2647   */\n      dup3\n        /* \"#utility.yul\":2555:2648   */\n      tag_44\n      jump\t// in\n    tag_78:\n        /* \"#utility.yul\":2673:2675   */\n      0x20\n        /* \"#utility.yul\":2668:2671   */\n      dup3\n        /* \"#utility.yul\":2664:2676   */\n      add\n        /* \"#utility.yul\":2657:2676   */\n      swap1\n      pop\n        /* \"#utility.yul\":2316:2682   */\n      swap2\n      swap1\n      pop\n      jump\t// out\n        /* \"#utility.yul\":2688:3107   */\n    tag_24:\n        /* \"#utility.yul\":2854:2858   */\n      0x00\n        /* \"#utility.yul\":2892:2894   */\n      0x20\n        /* \"#utility.yul\":2881:2890   */\n      dup3\n        /* \"#utility.yul\":2877:2895   */\n      add\n        /* \"#utility.yul\":2869:2895   */\n      swap1\n      pop\n        /* \"#utility.yul\":2941:2950   */\n      dup2\n        /* \"#utility.yul\":2935:2939   */\n      dup2\n        /* \"#utility.yul\":2931:2951   */\n      sub\n        /* \"#utility.yul\":2927:2928   */\n      0x00\n        /* \"#utility.yul\":2916:2925   */\n      dup4\n        /* \"#utility.yul\":2912:2929   */\n      add\n        /* \"#utility.yul\":2905:2952   */\n      mstore\n        /* \"#utility.yul\":2969:3100   */\n      tag_80\n        /* \"#utility.yul\":3095:3099   */\n      dup2\n        /* \"#utility.yul\":2969:3100   */\n      tag_45\n      jump\t// in\n    tag_80:\n        /* \"#utility.yul\":2961:3100   */\n      swap1\n      pop\n        /* \"#utility.yul\":2688:3107   */\n      swap2\n      swap1\n      pop\n      jump\t// out\n        /* \"#utility.yul\":3113:3293   */\n    tag_46:\n        /* \"#utility.yul\":3161:3238   */\n      0x4e487b7100000000000000000000000000000000000000000000000000000000\n        /* \"#utility.yul\":3158:3159   */\n      0x00\n        /* \"#utility.yul\":3151:3239   */\n      mstore\n        /* \"#utility.yul\":3258:3262   */\n      0x11\n        /* \"#utility.yul\":3255:3256   */\n      0x04\n        /* \"#utility.yul\":3248:3263   */\n      mstore\n        /* \"#utility.yul\":3282:3286   */\n      0x24\n        /* \"#utility.yul\":3279:3280   */\n      0x00\n        /* \"#utility.yul\":3272:3287   */\n      revert\n        /* \"#utility.yul\":3299:3493   */\n    tag_26:\n        /* \"#utility.yul\":3339:3343   */\n      0x00\n        /* \"#utility.yul\":3359:3379   */\n      tag_83\n        /* \"#utility.yul\":3377:3378   */\n      dup3\n        /* \"#utility.yul\":3359:3379   */\n      tag_33\n      jump\t// in\n    tag_83:\n        /* \"#utility.yul\":3354:3379   */\n      swap2\n      pop\n        /* \"#utility.yul\":3393:3413   */\n      tag_84\n        /* \"#utility.yul\":3411:3412   */\n      dup4\n        /* \"#utility.yul\":3393:3413   */\n      tag_33\n      jump\t// in\n    tag_84:\n        /* \"#utility.yul\":3388:3413   */\n      swap3\n      pop\n        /* \"#utility.yul\":3437:3438   */\n      dup3\n        /* \"#utility.yul\":3434:3435   */\n      dup3\n        /* \"#utility.yul\":3430:3439   */\n      sub\n        /* \"#utility.yul\":3422:3439   */\n      swap1\n      pop\n        /* \"#utility.yul\":3461:3462   */\n      dup2\n        /* \"#utility.yul\":3455:3459   */\n      dup2\n        /* \"#utility.yul\":3452:3463   */\n      gt\n        /* \"#utility.yul\":3449:3486   */\n      iszero\n      tag_85\n      jumpi\n        /* \"#utility.yul\":3466:3484   */\n      tag_86\n      tag_46\n      jump\t// in\n    tag_86:\n        /* \"#utility.yul\":3449:3486   */\n    tag_85:\n        /* \"#utility.yul\":3299:3493   */\n      swap3\n      swap2\n      pop\n      pop\n      jump\t// out\n        /* \"#utility.yul\":3499:3690   */\n    tag_29:\n        /* \"#utility.yul\":3539:3542   */\n      0x00\n        /* \"#utility.yul\":3558:3578   */\n      tag_88\n        /* \"#utility.yul\":3576:3577   */\n      dup3\n        /* \"#utility.yul\":3558:3578   */\n      tag_33\n      jump\t// in\n    tag_88:\n        /* \"#utility.yul\":3553:3578   */\n      swap2\n      pop\n        /* \"#utility.yul\":3592:3612   */\n      tag_89\n        /* \"#utility.yul\":3610:3611   */\n      dup4\n        /* \"#utility.yul\":3592:3612   */\n      tag_33\n      jump\t// in\n    tag_89:\n        /* \"#utility.yul\":3587:3612   */\n      swap3\n      pop\n        /* \"#utility.yul\":3635:3636   */\n      dup3\n        /* \"#utility.yul\":3632:3633   */\n      dup3\n        /* \"#utility.yul\":3628:3637   */\n      add\n        /* \"#utility.yul\":3621:3637   */\n      swap1\n      pop\n        /* \"#utility.yul\":3656:3659   */\n      dup1\n        /* \"#utility.yul\":3653:3654   */\n      dup3\n        /* \"#utility.yul\":3650:3660   */\n      gt\n        /* \"#utility.yul\":3647:3683   */\n      iszero\n      tag_90\n      jumpi\n        /* \"#utility.yul\":3663:3681   */\n      tag_91\n      tag_46\n      jump\t// in\n    tag_91:\n        /* \"#utility.yul\":3647:3683   */\n    tag_90:\n        /* \"#utility.yul\":3499:3690   */\n      swap3\n      swap2\n      pop\n      pop\n      jump\t// out\n        /* \"#utility.yul\":3696:3871   */\n    tag_47:\n        /* \"#utility.yul\":3836:3863   */\n      0x56616c7565206f662078206973206c657373207468616e203200000000000000\n        /* \"#utility.yul\":3832:3833   */\n      0x00\n        /* \"#utility.yul\":3824:3830   */\n      dup3\n        /* \"#utility.yul\":3820:3834   */\n      add\n        /* \"#utility.yul\":3813:3864   */\n      mstore\n        /* \"#utility.yul\":3696:3871   */\n      pop\n      jump\t// out\n        /* \"#utility.yul\":3877:4243   */\n    tag_48:\n        /* \"#utility.yul\":4019:4022   */\n      0x00\n        /* \"#utility.yul\":4040:4107   */\n      tag_94\n        /* \"#utility.yul\":4104:4106   */\n      0x19\n        /* \"#utility.yul\":4099:4102   */\n      dup4\n        /* \"#utility.yul\":4040:4107   */\n      tag_43\n      jump\t// in\n    tag_94:\n        /* \"#utility.yul\":4033:4107   */\n      swap2\n      pop\n        /* \"#utility.yul\":4116:4209   */\n      tag_95\n        /* \"#utility.yul\":4205:4208   */\n      dup3\n        /* \"#utility.yul\":4116:4209   */\n      tag_47\n      jump\t// in\n    tag_95:\n        /* \"#utility.yul\":4234:4236   */\n      0x20\n        /* \"#utility.yul\":4229:4232   */\n      dup3\n        /* \"#utility.yul\":4225:4237   */\n      add\n        /* \"#utility.yul\":4218:4237   */\n      swap1\n      pop\n        /* \"#utility.yul\":3877:4243   */\n      swap2\n      swap1\n      pop\n      jump\t// out\n        /* \"#utility.yul\":4249:4668   */\n    tag_32:\n        /* \"#utility.yul\":4415:4419   */\n      0x00\n        /* \"#utility.yul\":4453:4455   */\n      0x20\n        /* \"#utility.yul\":4442:4451   */\n      dup3\n        /* \"#utility.yul\":4438:4456   */\n      add\n        /* \"#utility.yul\":4430:4456   */\n      swap1\n      pop\n        /* \"#utility.yul\":4502:4511   */\n      dup2\n        /* \"#utility.yul\":4496:4500   */\n      dup2\n        /* \"#utility.yul\":4492:4512   */\n      sub\n        /* \"#utility.yul\":4488:4489   */\n      0x00\n        /* \"#utility.yul\":4477:4486   */\n      dup4\n        /* \"#utility.yul\":4473:4490   */\n      add\n        /* \"#utility.yul\":4466:4513   */\n      mstore\n        /* \"#utility.yul\":4530:4661   */\n      tag_97\n        /* \"#utility.yul\":4656:4660   */\n      dup2\n        /* \"#utility.yul\":4530:4661   */\n      tag_48\n      jump\t// in\n    tag_97:\n        /* \"#utility.yul\":4522:4661   */\n      swap1\n      pop\n        /* \"#utility.yul\":4249:4668   */\n      swap2\n      swap1\n      pop\n      jump\t// out\n\n    auxdata: 0xa26469706673582212201c509559a74f7fa2084ef2dde0201964aeae2f6f0194912e8c1220be288f947f64736f6c63430008120033\n}\n",
				"bytecode": {
					"linkReferences": {},
					"object": "6080604052336000806101000a81548173ffffffffffffffffffffffffffffffffffffffff021916908373ffffffffffffffffffffffffffffffffffffffff160217905550601960015534801561005557600080fd5b50610481806100656000396000f3fe608060405234801561001057600080fd5b506004361061004c5760003560e01c80631036e0a814610051578063262a9dff1461005b5780638da5cb5b14610079578063bf949bbf14610097575b600080fd5b6100596100b3565b005b610063610158565b60405161007091906101f6565b60405180910390f35b61008161015e565b60405161008e9190610252565b60405180910390f35b6100b160048036038101906100ac919061029e565b610182565b005b3373ffffffffffffffffffffffffffffffffffffffff1660008054906101000a900473ffffffffffffffffffffffffffffffffffffffff1673ffffffffffffffffffffffffffffffffffffffff1614610141576040517f08c379a000000000000000000000000000000000000000000000000000000000815260040161013890610328565b60405180910390fd5b60026001546101509190610377565b600181905550565b60015481565b60008054906101000a900473ffffffffffffffffffffffffffffffffffffffff1681565b600560015461019191906103ab565b600181905550600281116101da576040517f08c379a00000000000000000000000000000000000000000000000000000000081526004016101d19061042b565b60405180910390fd5b50565b6000819050919050565b6101f0816101dd565b82525050565b600060208201905061020b60008301846101e7565b92915050565b600073ffffffffffffffffffffffffffffffffffffffff82169050919050565b600061023c82610211565b9050919050565b61024c81610231565b82525050565b60006020820190506102676000830184610243565b92915050565b600080fd5b61027b816101dd565b811461028657600080fd5b50565b60008135905061029881610272565b92915050565b6000602082840312156102b4576102b361026d565b5b60006102c284828501610289565b91505092915050565b600082825260208201905092915050565b7f596f7520617265206e6f746520746865206f776e657200000000000000000000600082015250565b60006103126016836102cb565b915061031d826102dc565b602082019050919050565b6000602082019050818103600083015261034181610305565b9050919050565b7f4e487b7100000000000000000000000000000000000000000000000000000000600052601160045260246000fd5b6000610382826101dd565b915061038d836101dd565b92508282039050818111156103a5576103a4610348565b5b92915050565b60006103b6826101dd565b91506103c1836101dd565b92508282019050808211156103d9576103d8610348565b5b92915050565b7f56616c7565206f662078206973206c657373207468616e203200000000000000600082015250565b60006104156019836102cb565b9150610420826103df565b602082019050919050565b6000602082019050818103600083015261044481610408565b905091905056fea26469706673582212201c509559a74f7fa2084ef2dde0201964aeae2f6f0194912e8c1220be288f947f64736f6c63430008120033",
					"opcodes": "PUSH1 0x80 PUSH1 0x40 MSTORE CALLER PUSH1 0x0 DUP1 PUSH2 0x100 EXP DUP2 SLOAD DUP2 PUSH20 0xFFFFFFFFFFFFFFFFFFFFFFFFFFFFFFFFFFFFFFFF MUL NOT AND SWAP1 DUP4 PUSH20 0xFFFFFFFFFFFFFFFFFFFFFFFFFFFFFFFFFFFFFFFF AND MUL OR SWAP1 SSTORE POP PUSH1 0x19 PUSH1 0x1 SSTORE CALLVALUE DUP1 ISZERO PUSH2 0x55 JUMPI PUSH1 0x0 DUP1 REVERT JUMPDEST POP PUSH2 0x481 DUP1 PUSH2 0x65 PUSH1 0x0 CODECOPY PUSH1 0x0 RETURN INVALID PUSH1 0x80 PUSH1 0x40 MSTORE CALLVALUE DUP1 ISZERO PUSH2 0x10 JUMPI PUSH1 0x0 DUP1 REVERT JUMPDEST POP PUSH1 0x4 CALLDATASIZE LT PUSH2 0x4C JUMPI PUSH1 0x0 CALLDATALOAD PUSH1 0xE0 SHR DUP1 PUSH4 0x1036E0A8 EQ PUSH2 0x51 JUMPI DUP1 PUSH4 0x262A9DFF EQ PUSH2 0x5B JUMPI DUP1 PUSH4 0x8DA5CB5B EQ PUSH2 0x79 JUMPI DUP1 PUSH4 0xBF949BBF EQ PUSH2 0x97 JUMPI JUMPDEST PUSH1 0x0 DUP1 REVERT JUMPDEST PUSH2 0x59 PUSH2 0xB3 JUMP JUMPDEST STOP JUMPDEST PUSH2 0x63 PUSH2 0x158 JUMP JUMPDEST PUSH1 0x40 MLOAD PUSH2 0x70 SWAP2 SWAP1 PUSH2 0x1F6 JUMP JUMPDEST PUSH1 0x40 MLOAD DUP1 SWAP2 SUB SWAP1 RETURN JUMPDEST PUSH2 0x81 PUSH2 0x15E JUMP JUMPDEST PUSH1 0x40 MLOAD PUSH2 0x8E SWAP2 SWAP1 PUSH2 0x252 JUMP JUMPDEST PUSH1 0x40 MLOAD DUP1 SWAP2 SUB SWAP1 RETURN JUMPDEST PUSH2 0xB1 PUSH1 0x4 DUP1 CALLDATASIZE SUB DUP2 ADD SWAP1 PUSH2 0xAC SWAP2 SWAP1 PUSH2 0x29E JUMP JUMPDEST PUSH2 0x182 JUMP JUMPDEST STOP JUMPDEST CALLER PUSH20 0xFFFFFFFFFFFFFFFFFFFFFFFFFFFFFFFFFFFFFFFF AND PUSH1 0x0 DUP1 SLOAD SWAP1 PUSH2 0x100 EXP SWAP1 DIV PUSH20 0xFFFFFFFFFFFFFFFFFFFFFFFFFFFFFFFFFFFFFFFF AND PUSH20 0xFFFFFFFFFFFFFFFFFFFFFFFFFFFFFFFFFFFFFFFF AND EQ PUSH2 0x141 JUMPI PUSH1 0x40 MLOAD PUSH32 0x8C379A000000000000000000000000000000000000000000000000000000000 DUP2 MSTORE PUSH1 0x4 ADD PUSH2 0x138 SWAP1 PUSH2 0x328 JUMP JUMPDEST PUSH1 0x40 MLOAD DUP1 SWAP2 SUB SWAP1 REVERT JUMPDEST PUSH1 0x2 PUSH1 0x1 SLOAD PUSH2 0x150 SWAP2 SWAP1 PUSH2 0x377 JUMP JUMPDEST PUSH1 0x1 DUP2 SWAP1 SSTORE POP JUMP JUMPDEST PUSH1 0x1 SLOAD DUP2 JUMP JUMPDEST PUSH1 0x0 DUP1 SLOAD SWAP1 PUSH2 0x100 EXP SWAP1 DIV PUSH20 0xFFFFFFFFFFFFFFFFFFFFFFFFFFFFFFFFFFFFFFFF AND DUP2 JUMP JUMPDEST PUSH1 0x5 PUSH1 0x1 SLOAD PUSH2 0x191 SWAP2 SWAP1 PUSH2 0x3AB JUMP JUMPDEST PUSH1 0x1 DUP2 SWAP1 SSTORE POP PUSH1 0x2 DUP2 GT PUSH2 0x1DA JUMPI PUSH1 0x40 MLOAD PUSH32 0x8C379A000000000000000000000000000000000000000000000000000000000 DUP2 MSTORE PUSH1 0x4 ADD PUSH2 0x1D1 SWAP1 PUSH2 0x42B JUMP JUMPDEST PUSH1 0x40 MLOAD DUP1 SWAP2 SUB SWAP1 REVERT JUMPDEST POP JUMP JUMPDEST PUSH1 0x0 DUP2 SWAP1 POP SWAP2 SWAP1 POP JUMP JUMPDEST PUSH2 0x1F0 DUP2 PUSH2 0x1DD JUMP JUMPDEST DUP3 MSTORE POP POP JUMP JUMPDEST PUSH1 0x0 PUSH1 0x20 DUP3 ADD SWAP1 POP PUSH2 0x20B PUSH1 0x0 DUP4 ADD DUP5 PUSH2 0x1E7 JUMP JUMPDEST SWAP3 SWAP2 POP POP JUMP JUMPDEST PUSH1 0x0 PUSH20 0xFFFFFFFFFFFFFFFFFFFFFFFFFFFFFFFFFFFFFFFF DUP3 AND SWAP1 POP SWAP2 SWAP1 POP JUMP JUMPDEST PUSH1 0x0 PUSH2 0x23C DUP3 PUSH2 0x211 JUMP JUMPDEST SWAP1 POP SWAP2 SWAP1 POP JUMP JUMPDEST PUSH2 0x24C DUP2 PUSH2 0x231 JUMP JUMPDEST DUP3 MSTORE POP POP JUMP JUMPDEST PUSH1 0x0 PUSH1 0x20 DUP3 ADD SWAP1 POP PUSH2 0x267 PUSH1 0x0 DUP4 ADD DUP5 PUSH2 0x243 JUMP JUMPDEST SWAP3 SWAP2 POP POP JUMP JUMPDEST PUSH1 0x0 DUP1 REVERT JUMPDEST PUSH2 0x27B DUP2 PUSH2 0x1DD JUMP JUMPDEST DUP2 EQ PUSH2 0x286 JUMPI PUSH1 0x0 DUP1 REVERT JUMPDEST POP JUMP JUMPDEST PUSH1 0x0 DUP2 CALLDATALOAD SWAP1 POP PUSH2 0x298 DUP2 PUSH2 0x272 JUMP JUMPDEST SWAP3 SWAP2 POP POP JUMP JUMPDEST PUSH1 0x0 PUSH1 0x20 DUP3 DUP5 SUB SLT ISZERO PUSH2 0x2B4 JUMPI PUSH2 0x2B3 PUSH2 0x26D JUMP JUMPDEST JUMPDEST PUSH1 0x0 PUSH2 0x2C2 DUP5 DUP3 DUP6 ADD PUSH2 0x289 JUMP JUMPDEST SWAP2 POP POP SWAP3 SWAP2 POP POP JUMP JUMPDEST PUSH1 0x0 DUP3 DUP3 MSTORE PUSH1 0x20 DUP3 ADD SWAP1 POP SWAP3 SWAP2 POP POP JUMP JUMPDEST PUSH32 0x596F7520617265206E6F746520746865206F776E657200000000000000000000 PUSH1 0x0 DUP3 ADD MSTORE POP JUMP JUMPDEST PUSH1 0x0 PUSH2 0x312 PUSH1 0x16 DUP4 PUSH2 0x2CB JUMP JUMPDEST SWAP2 POP PUSH2 0x31D DUP3 PUSH2 0x2DC JUMP JUMPDEST PUSH1 0x20 DUP3 ADD SWAP1 POP SWAP2 SWAP1 POP JUMP JUMPDEST PUSH1 0x0 PUSH1 0x20 DUP3 ADD SWAP1 POP DUP2 DUP2 SUB PUSH1 0x0 DUP4 ADD MSTORE PUSH2 0x341 DUP2 PUSH2 0x305 JUMP JUMPDEST SWAP1 POP SWAP2 SWAP1 POP JUMP JUMPDEST PUSH32 0x4E487B7100000000000000000000000000000000000000000000000000000000 PUSH1 0x0 MSTORE PUSH1 0x11 PUSH1 0x4 MSTORE PUSH1 0x24 PUSH1 0x0 REVERT JUMPDEST PUSH1 0x0 PUSH2 0x382 DUP3 PUSH2 0x1DD JUMP JUMPDEST SWAP2 POP PUSH2 0x38D DUP4 PUSH2 0x1DD JUMP JUMPDEST SWAP3 POP DUP3 DUP3 SUB SWAP1 POP DUP2 DUP2 GT ISZERO PUSH2 0x3A5 JUMPI PUSH2 0x3A4 PUSH2 0x348 JUMP JUMPDEST JUMPDEST SWAP3 SWAP2 POP POP JUMP JUMPDEST PUSH1 0x0 PUSH2 0x3B6 DUP3 PUSH2 0x1DD JUMP JUMPDEST SWAP2 POP PUSH2 0x3C1 DUP4 PUSH2 0x1DD JUMP JUMPDEST SWAP3 POP DUP3 DUP3 ADD SWAP1 POP DUP1 DUP3 GT ISZERO PUSH2 0x3D9 JUMPI PUSH2 0x3D8 PUSH2 0x348 JUMP JUMPDEST JUMPDEST SWAP3 SWAP2 POP POP JUMP JUMPDEST PUSH32 0x56616C7565206F662078206973206C657373207468616E203200000000000000 PUSH1 0x0 DUP3 ADD MSTORE POP JUMP JUMPDEST PUSH1 0x0 PUSH2 0x415 PUSH1 0x19 DUP4 PUSH2 0x2CB JUMP JUMPDEST SWAP2 POP PUSH2 0x420 DUP3 PUSH2 0x3DF JUMP JUMPDEST PUSH1 0x20 DUP3 ADD SWAP1 POP SWAP2 SWAP1 POP JUMP JUMPDEST PUSH1 0x0 PUSH1 0x20 DUP3 ADD SWAP1 POP DUP2 DUP2 SUB PUSH1 0x0 DUP4 ADD MSTORE PUSH2 0x444 DUP2 PUSH2 0x408 JUMP JUMPDEST SWAP1 POP SWAP2 SWAP1 POP JUMP INVALID LOG2 PUSH5 0x6970667358 0x22 SLT KECCAK256 SHR POP SWAP6 MSIZE 0xA7 0x4F PUSH32 0xA2084EF2DDE0201964AEAE2F6F0194912E8C1220BE288F947F64736F6C634300 ADDMOD SLT STOP CALLER "
				},
				"gasEstimates": {
					"creation": {
						"codeDepositCost": "230600",
						"executionCost": "46647",
						"totalCost": "277247"
					},
					"external": {
						"CheckRequire(uint256)": "infinite",
						"age()": "2429",
						"onlyOwner()": "infinite",
						"owner()": "2533"
					}
				},
				"methodIdentifiers": {
					"CheckRequire(uint256)": "bf949bbf",
					"age()": "262a9dff",
					"onlyOwner()": "1036e0a8",
					"owner()": "8da5cb5b"
				}
			},
			"storageLayout": {
				"storage": [
					{
						"astId": 5,
						"contract": "Require_In_Blockchain/requireBlockchain.sol:requireBlockchain",
						"label": "owner",
						"offset": 0,
						"slot": "0",
						"type": "t_address"
					},
					{
						"astId": 8,
						"contract": "Require_In_Blockchain/requireBlockchain.sol:requireBlockchain",
						"label": "age",
						"offset": 0,
						"slot": "1",
						"type": "t_uint256"
					}
				],
				"types": {
					"t_address": {
						"encoding": "inplace",
						"label": "address",
						"numberOfBytes": "20"
					},
					"t_uint256": {
						"encoding": "inplace",
						"label": "uint256",
						"numberOfBytes": "32"
					}
				}
			},
			"userdoc": {
				"kind": "user",
				"methods": {},
				"version": 1
			}
		}
	}
}