{
	"Continue_Break_in_loop/continueBreakKeyword.sol": {
		"continueBreakKeyword": {
			"abi": [
				{
					"inputs": [],
					"name": "loop",
					"outputs": [
						{
							"internalType": "uint256",
							"name": "",
							"type": "uint256"
						}
					],
					"stateMutability": "pure",
					"type": "function"
				}
			],
			"devdoc": {
				"kind": "dev",
				"methods": {},
				"version": 1
			},
			"evm": {
				"assembly": "    /* \"Continue_Break_in_loop/continueBreakKeyword.sol\":62:561  contract continueBreakKeyword{... */\n  mstore(0x40, 0x80)\n  callvalue\n  dup1\n  iszero\n  tag_1\n  jumpi\n  0x00\n  dup1\n  revert\ntag_1:\n  pop\n  dataSize(sub_0)\n  dup1\n  dataOffset(sub_0)\n  0x00\n  codecopy\n  0x00\n  return\nstop\n\nsub_0: assembly {\n        /* \"Continue_Break_in_loop/continueBreakKeyword.sol\":62:561  contract continueBreakKeyword{... */\n      mstore(0x40, 0x80)\n      callvalue\n      dup1\n      iszero\n      tag_1\n      jumpi\n      0x00\n      dup1\n      revert\n    tag_1:\n      pop\n      jumpi(tag_2, lt(calldatasize, 0x04))\n      shr(0xe0, calldataload(0x00))\n      dup1\n      0xa92100cb\n      eq\n      tag_3\n      jumpi\n    tag_2:\n      0x00\n      dup1\n      revert\n        /* \"Continue_Break_in_loop/continueBreakKeyword.sol\":98:558  function loop() public pure returns(uint){... */\n    tag_3:\n      tag_4\n      tag_5\n      jump\t// in\n    tag_4:\n      mload(0x40)\n      tag_6\n      swap2\n      swap1\n      tag_7\n      jump\t// in\n    tag_6:\n      mload(0x40)\n      dup1\n      swap2\n      sub\n      swap1\n      return\n    tag_5:\n        /* \"Continue_Break_in_loop/continueBreakKeyword.sol\":134:138  uint */\n      0x00\n        /* \"Continue_Break_in_loop/continueBreakKeyword.sol\":150:160  uint count */\n      dup1\n        /* \"Continue_Break_in_loop/continueBreakKeyword.sol\":163:164  0 */\n      0x00\n        /* \"Continue_Break_in_loop/continueBreakKeyword.sol\":150:164  uint count = 0 */\n      swap1\n      pop\n        /* \"Continue_Break_in_loop/continueBreakKeyword.sol\":257:263  uint i */\n      0x00\n        /* \"Continue_Break_in_loop/continueBreakKeyword.sol\":253:384  for(uint i=0; i<10; i++){... */\n    tag_9:\n        /* \"Continue_Break_in_loop/continueBreakKeyword.sol\":269:271  10 */\n      0x0a\n        /* \"Continue_Break_in_loop/continueBreakKeyword.sol\":267:268  i */\n      dup2\n        /* \"Continue_Break_in_loop/continueBreakKeyword.sol\":267:271  i<10 */\n      lt\n        /* \"Continue_Break_in_loop/continueBreakKeyword.sol\":253:384  for(uint i=0; i<10; i++){... */\n      iszero\n      tag_10\n      jumpi\n        /* \"Continue_Break_in_loop/continueBreakKeyword.sol\":298:299  8 */\n      0x08\n        /* \"Continue_Break_in_loop/continueBreakKeyword.sol\":295:296  i */\n      dup2\n        /* \"Continue_Break_in_loop/continueBreakKeyword.sol\":295:299  i==8 */\n      sub\n        /* \"Continue_Break_in_loop/continueBreakKeyword.sol\":292:343  if(i==8){... */\n      iszero\n        /* \"Continue_Break_in_loop/continueBreakKeyword.sol\":319:327  continue */\n      tag_11\n        /* \"Continue_Break_in_loop/continueBreakKeyword.sol\":292:343  if(i==8){... */\n      jumpi\n        /* \"Continue_Break_in_loop/continueBreakKeyword.sol\":371:372  5 */\n      0x05\n        /* \"Continue_Break_in_loop/continueBreakKeyword.sol\":365:370  count */\n      dup3\n        /* \"Continue_Break_in_loop/continueBreakKeyword.sol\":365:372  count+5 */\n      tag_13\n      swap2\n      swap1\n      tag_14\n      jump\t// in\n    tag_13:\n        /* \"Continue_Break_in_loop/continueBreakKeyword.sol\":357:372  count = count+5 */\n      swap2\n      pop\n        /* \"Continue_Break_in_loop/continueBreakKeyword.sol\":253:384  for(uint i=0; i<10; i++){... */\n    tag_11:\n        /* \"Continue_Break_in_loop/continueBreakKeyword.sol\":273:276  i++ */\n      dup1\n      dup1\n      tag_15\n      swap1\n      tag_16\n      jump\t// in\n    tag_15:\n      swap2\n      pop\n      pop\n        /* \"Continue_Break_in_loop/continueBreakKeyword.sol\":253:384  for(uint i=0; i<10; i++){... */\n      jump(tag_9)\n    tag_10:\n      pop\n        /* \"Continue_Break_in_loop/continueBreakKeyword.sol\":400:406  uint i */\n      0x00\n        /* \"Continue_Break_in_loop/continueBreakKeyword.sol\":396:524  for(uint i=0; i<10; i++){... */\n    tag_17:\n        /* \"Continue_Break_in_loop/continueBreakKeyword.sol\":412:414  10 */\n      0x0a\n        /* \"Continue_Break_in_loop/continueBreakKeyword.sol\":410:411  i */\n      dup2\n        /* \"Continue_Break_in_loop/continueBreakKeyword.sol\":410:414  i<10 */\n      lt\n        /* \"Continue_Break_in_loop/continueBreakKeyword.sol\":396:524  for(uint i=0; i<10; i++){... */\n      iszero\n      tag_18\n      jumpi\n        /* \"Continue_Break_in_loop/continueBreakKeyword.sol\":441:442  6 */\n      0x06\n        /* \"Continue_Break_in_loop/continueBreakKeyword.sol\":438:439  i */\n      dup2\n        /* \"Continue_Break_in_loop/continueBreakKeyword.sol\":438:442  i==6 */\n      sub\n        /* \"Continue_Break_in_loop/continueBreakKeyword.sol\":435:483  if(i==6){... */\n      iszero\n        /* \"Continue_Break_in_loop/continueBreakKeyword.sol\":462:467  break */\n      tag_18\n        /* \"Continue_Break_in_loop/continueBreakKeyword.sol\":435:483  if(i==6){... */\n      jumpi\n        /* \"Continue_Break_in_loop/continueBreakKeyword.sol\":511:512  5 */\n      0x05\n        /* \"Continue_Break_in_loop/continueBreakKeyword.sol\":505:510  count */\n      dup3\n        /* \"Continue_Break_in_loop/continueBreakKeyword.sol\":505:512  count+5 */\n      tag_21\n      swap2\n      swap1\n      tag_14\n      jump\t// in\n    tag_21:\n        /* \"Continue_Break_in_loop/continueBreakKeyword.sol\":497:512  count = count+5 */\n      swap2\n      pop\n        /* \"Continue_Break_in_loop/continueBreakKeyword.sol\":416:419  i++ */\n      dup1\n      dup1\n      tag_22\n      swap1\n      tag_16\n      jump\t// in\n    tag_22:\n      swap2\n      pop\n      pop\n        /* \"Continue_Break_in_loop/continueBreakKeyword.sol\":396:524  for(uint i=0; i<10; i++){... */\n      jump(tag_17)\n    tag_18:\n      pop\n        /* \"Continue_Break_in_loop/continueBreakKeyword.sol\":545:550  count */\n      dup1\n        /* \"Continue_Break_in_loop/continueBreakKeyword.sol\":538:550  return count */\n      swap2\n      pop\n      pop\n        /* \"Continue_Break_in_loop/continueBreakKeyword.sol\":98:558  function loop() public pure returns(uint){... */\n      swap1\n      jump\t// out\n        /* \"#utility.yul\":7:84   */\n    tag_23:\n        /* \"#utility.yul\":44:51   */\n      0x00\n        /* \"#utility.yul\":73:78   */\n      dup2\n        /* \"#utility.yul\":62:78   */\n      swap1\n      pop\n        /* \"#utility.yul\":7:84   */\n      swap2\n      swap1\n      pop\n      jump\t// out\n        /* \"#utility.yul\":90:208   */\n    tag_24:\n        /* \"#utility.yul\":177:201   */\n      tag_29\n        /* \"#utility.yul\":195:200   */\n      dup2\n        /* \"#utility.yul\":177:201   */\n      tag_23\n      jump\t// in\n    tag_29:\n        /* \"#utility.yul\":172:175   */\n      dup3\n        /* \"#utility.yul\":165:202   */\n      mstore\n        /* \"#utility.yul\":90:208   */\n      pop\n      pop\n      jump\t// out\n        /* \"#utility.yul\":214:436   */\n    tag_7:\n        /* \"#utility.yul\":307:311   */\n      0x00\n        /* \"#utility.yul\":345:347   */\n      0x20\n        /* \"#utility.yul\":334:343   */\n      dup3\n        /* \"#utility.yul\":330:348   */\n      add\n        /* \"#utility.yul\":322:348   */\n      swap1\n      pop\n        /* \"#utility.yul\":358:429   */\n      tag_31\n        /* \"#utility.yul\":426:427   */\n      0x00\n        /* \"#utility.yul\":415:424   */\n      dup4\n        /* \"#utility.yul\":411:428   */\n      add\n        /* \"#utility.yul\":402:408   */\n      dup5\n        /* \"#utility.yul\":358:429   */\n      tag_24\n      jump\t// in\n    tag_31:\n        /* \"#utility.yul\":214:436   */\n      swap3\n      swap2\n      pop\n      pop\n      jump\t// out\n        /* \"#utility.yul\":442:622   */\n    tag_25:\n        /* \"#utility.yul\":490:567   */\n      0x4e487b7100000000000000000000000000000000000000000000000000000000\n        /* \"#utility.yul\":487:488   */\n      0x00\n        /* \"#utility.yul\":480:568   */\n      mstore\n        /* \"#utility.yul\":587:591   */\n      0x11\n        /* \"#utility.yul\":584:585   */\n      0x04\n        /* \"#utility.yul\":577:592   */\n      mstore\n        /* \"#utility.yul\":611:615   */\n      0x24\n        /* \"#utility.yul\":608:609   */\n      0x00\n        /* \"#utility.yul\":601:616   */\n      revert\n        /* \"#utility.yul\":628:819   */\n    tag_14:\n        /* \"#utility.yul\":668:671   */\n      0x00\n        /* \"#utility.yul\":687:707   */\n      tag_34\n        /* \"#utility.yul\":705:706   */\n      dup3\n        /* \"#utility.yul\":687:707   */\n      tag_23\n      jump\t// in\n    tag_34:\n        /* \"#utility.yul\":682:707   */\n      swap2\n      pop\n        /* \"#utility.yul\":721:741   */\n      tag_35\n        /* \"#utility.yul\":739:740   */\n      dup4\n        /* \"#utility.yul\":721:741   */\n      tag_23\n      jump\t// in\n    tag_35:\n        /* \"#utility.yul\":716:741   */\n      swap3\n      pop\n        /* \"#utility.yul\":764:765   */\n      dup3\n        /* \"#utility.yul\":761:762   */\n      dup3\n        /* \"#utility.yul\":757:766   */\n      add\n        /* \"#utility.yul\":750:766   */\n      swap1\n      pop\n        /* \"#utility.yul\":785:788   */\n      dup1\n        /* \"#utility.yul\":782:783   */\n      dup3\n        /* \"#utility.yul\":779:789   */\n      gt\n        /* \"#utility.yul\":776:812   */\n      iszero\n      tag_36\n      jumpi\n        /* \"#utility.yul\":792:810   */\n      tag_37\n      tag_25\n      jump\t// in\n    tag_37:\n        /* \"#utility.yul\":776:812   */\n    tag_36:\n        /* \"#utility.yul\":628:819   */\n      swap3\n      swap2\n      pop\n      pop\n      jump\t// out\n        /* \"#utility.yul\":825:1058   */\n    tag_16:\n        /* \"#utility.yul\":864:867   */\n      0x00\n        /* \"#utility.yul\":887:911   */\n      tag_39\n        /* \"#utility.yul\":905:910   */\n      dup3\n        /* \"#utility.yul\":887:911   */\n      tag_23\n      jump\t// in\n    tag_39:\n        /* \"#utility.yul\":878:911   */\n      swap2\n      pop\n        /* \"#utility.yul\":933:999   */\n      0xffffffffffffffffffffffffffffffffffffffffffffffffffffffffffffffff\n        /* \"#utility.yul\":926:931   */\n      dup3\n        /* \"#utility.yul\":923:1000   */\n      sub\n        /* \"#utility.yul\":920:1023   */\n      tag_40\n      jumpi\n        /* \"#utility.yul\":1003:1021   */\n      tag_41\n      tag_25\n      jump\t// in\n    tag_41:\n        /* \"#utility.yul\":920:1023   */\n    tag_40:\n        /* \"#utility.yul\":1050:1051   */\n      0x01\n        /* \"#utility.yul\":1043:1048   */\n      dup3\n        /* \"#utility.yul\":1039:1052   */\n      add\n        /* \"#utility.yul\":1032:1052   */\n      swap1\n      pop\n        /* \"#utility.yul\":825:1058   */\n      swap2\n      swap1\n      pop\n      jump\t// out\n\n    auxdata: 0xa2646970667358221220e2c1f0b3fbbc147289a2cdd4f82af30a1f20f7ad084b836bf9a7bebb45ad594c64736f6c63430008120033\n}\n",
				"bytecode": {
					"linkReferences": {},
					"object": "608060405234801561001057600080fd5b506101e2806100206000396000f3fe608060405234801561001057600080fd5b506004361061002b5760003560e01c8063a92100cb14610030575b600080fd5b61003861004e565b60405161004591906100e6565b60405180910390f35b6000806000905060005b600a81101561008d57600881031561007a576005826100779190610130565b91505b808061008590610164565b915050610058565b5060005b600a8110156100c55760068103156100c5576005826100b09190610130565b915080806100bd90610164565b915050610091565b508091505090565b6000819050919050565b6100e0816100cd565b82525050565b60006020820190506100fb60008301846100d7565b92915050565b7f4e487b7100000000000000000000000000000000000000000000000000000000600052601160045260246000fd5b600061013b826100cd565b9150610146836100cd565b925082820190508082111561015e5761015d610101565b5b92915050565b600061016f826100cd565b91507fffffffffffffffffffffffffffffffffffffffffffffffffffffffffffffffff82036101a1576101a0610101565b5b60018201905091905056fea2646970667358221220e2c1f0b3fbbc147289a2cdd4f82af30a1f20f7ad084b836bf9a7bebb45ad594c64736f6c63430008120033",
					"opcodes": "PUSH1 0x80 PUSH1 0x40 MSTORE CALLVALUE DUP1 ISZERO PUSH2 0x10 JUMPI PUSH1 0x0 DUP1 REVERT JUMPDEST POP PUSH2 0x1E2 DUP1 PUSH2 0x20 PUSH1 0x0 CODECOPY PUSH1 0x0 RETURN INVALID PUSH1 0x80 PUSH1 0x40 MSTORE CALLVALUE DUP1 ISZERO PUSH2 0x10 JUMPI PUSH1 0x0 DUP1 REVERT JUMPDEST POP PUSH1 0x4 CALLDATASIZE LT PUSH2 0x2B JUMPI PUSH1 0x0 CALLDATALOAD PUSH1 0xE0 SHR DUP1 PUSH4 0xA92100CB EQ PUSH2 0x30 JUMPI JUMPDEST PUSH1 0x0 DUP1 REVERT JUMPDEST PUSH2 0x38 PUSH2 0x4E JUMP JUMPDEST PUSH1 0x40 MLOAD PUSH2 0x45 SWAP2 SWAP1 PUSH2 0xE6 JUMP JUMPDEST PUSH1 0x40 MLOAD DUP1 SWAP2 SUB SWAP1 RETURN JUMPDEST PUSH1 0x0 DUP1 PUSH1 0x0 SWAP1 POP PUSH1 0x0 JUMPDEST PUSH1 0xA DUP2 LT ISZERO PUSH2 0x8D JUMPI PUSH1 0x8 DUP2 SUB ISZERO PUSH2 0x7A JUMPI PUSH1 0x5 DUP3 PUSH2 0x77 SWAP2 SWAP1 PUSH2 0x130 JUMP JUMPDEST SWAP2 POP JUMPDEST DUP1 DUP1 PUSH2 0x85 SWAP1 PUSH2 0x164 JUMP JUMPDEST SWAP2 POP POP PUSH2 0x58 JUMP JUMPDEST POP PUSH1 0x0 JUMPDEST PUSH1 0xA DUP2 LT ISZERO PUSH2 0xC5 JUMPI PUSH1 0x6 DUP2 SUB ISZERO PUSH2 0xC5 JUMPI PUSH1 0x5 DUP3 PUSH2 0xB0 SWAP2 SWAP1 PUSH2 0x130 JUMP JUMPDEST SWAP2 POP DUP1 DUP1 PUSH2 0xBD SWAP1 PUSH2 0x164 JUMP JUMPDEST SWAP2 POP POP PUSH2 0x91 JUMP JUMPDEST POP DUP1 SWAP2 POP POP SWAP1 JUMP JUMPDEST PUSH1 0x0 DUP2 SWAP1 POP SWAP2 SWAP1 POP JUMP JUMPDEST PUSH2 0xE0 DUP2 PUSH2 0xCD JUMP JUMPDEST DUP3 MSTORE POP POP JUMP JUMPDEST PUSH1 0x0 PUSH1 0x20 DUP3 ADD SWAP1 POP PUSH2 0xFB PUSH1 0x0 DUP4 ADD DUP5 PUSH2 0xD7 JUMP JUMPDEST SWAP3 SWAP2 POP POP JUMP JUMPDEST PUSH32 0x4E487B7100000000000000000000000000000000000000000000000000000000 PUSH1 0x0 MSTORE PUSH1 0x11 PUSH1 0x4 MSTORE PUSH1 0x24 PUSH1 0x0 REVERT JUMPDEST PUSH1 0x0 PUSH2 0x13B DUP3 PUSH2 0xCD JUMP JUMPDEST SWAP2 POP PUSH2 0x146 DUP4 PUSH2 0xCD JUMP JUMPDEST SWAP3 POP DUP3 DUP3 ADD SWAP1 POP DUP1 DUP3 GT ISZERO PUSH2 0x15E JUMPI PUSH2 0x15D PUSH2 0x101 JUMP JUMPDEST JUMPDEST SWAP3 SWAP2 POP POP JUMP JUMPDEST PUSH1 0x0 PUSH2 0x16F DUP3 PUSH2 0xCD JUMP JUMPDEST SWAP2 POP PUSH32 0xFFFFFFFFFFFFFFFFFFFFFFFFFFFFFFFFFFFFFFFFFFFFFFFFFFFFFFFFFFFFFFFF DUP3 SUB PUSH2 0x1A1 JUMPI PUSH2 0x1A0 PUSH2 0x101 JUMP JUMPDEST JUMPDEST PUSH1 0x1 DUP3 ADD SWAP1 POP SWAP2 SWAP1 POP JUMP INVALID LOG2 PUSH5 0x6970667358 0x22 SLT KECCAK256 0xE2 0xC1 CREATE 0xB3 0xFB 0xBC EQ PUSH19 0x89A2CDD4F82AF30A1F20F7AD084B836BF9A7BE 0xBB GASLIMIT 0xAD MSIZE 0x4C PUSH5 0x736F6C6343 STOP ADDMOD SLT STOP CALLER "
				},
				"gasEstimates": {
					"creation": {
						"codeDepositCost": "96400",
						"executionCost": "147",
						"totalCost": "96547"
					},
					"external": {
						"loop()": "infinite"
					}
				},
				"methodIdentifiers": {
					"loop()": "a92100cb"
				}
			},
			"storageLayout": {
				"storage": [],
				"types": null
			},
			"userdoc": {
				"kind": "user",
				"methods": {},
				"version": 1
			}
		}
	}
}