{
	"Events_In_Blockchain/eventsBlockchain.sol": {
		"chatApp": {
			"abi": [
				{
					"anonymous": false,
					"inputs": [
						{
							"indexed": true,
							"internalType": "address",
							"name": "_from",
							"type": "address"
						},
						{
							"indexed": false,
							"internalType": "address",
							"name": "_to",
							"type": "address"
						},
						{
							"indexed": false,
							"internalType": "string",
							"name": "message",
							"type": "string"
						}
					],
					"name": "chat",
					"type": "event"
				},
				{
					"inputs": [
						{
							"internalType": "address",
							"name": "to_",
							"type": "address"
						},
						{
							"internalType": "string",
							"name": "message_",
							"type": "string"
						}
					],
					"name": "sendMess",
					"outputs": [],
					"stateMutability": "nonpayable",
					"type": "function"
				}
			],
			"devdoc": {
				"kind": "dev",
				"methods": {},
				"version": 1
			},
			"evm": {
				"assembly": "    /* \"Events_In_Blockchain/eventsBlockchain.sol\":675:888  contract chatApp{... */\n  mstore(0x40, 0x80)\n  callvalue\n  dup1\n  iszero\n  tag_1\n  jumpi\n  0x00\n  dup1\n  revert\ntag_1:\n  pop\n  dataSize(sub_0)\n  dup1\n  dataOffset(sub_0)\n  0x00\n  codecopy\n  0x00\n  return\nstop\n\nsub_0: assembly {\n        /* \"Events_In_Blockchain/eventsBlockchain.sol\":675:888  contract chatApp{... */\n      mstore(0x40, 0x80)\n      callvalue\n      dup1\n      iszero\n      tag_1\n      jumpi\n      0x00\n      dup1\n      revert\n    tag_1:\n      pop\n      jumpi(tag_2, lt(calldatasize, 0x04))\n      shr(0xe0, calldataload(0x00))\n      dup1\n      0xeab1f71e\n      eq\n      tag_3\n      jumpi\n    tag_2:\n      0x00\n      dup1\n      revert\n        /* \"Events_In_Blockchain/eventsBlockchain.sol\":770:885  function sendMess(address to_, string memory message_) public{... */\n    tag_3:\n      tag_4\n      0x04\n      dup1\n      calldatasize\n      sub\n      dup2\n      add\n      swap1\n      tag_5\n      swap2\n      swap1\n      tag_6\n      jump\t// in\n    tag_5:\n      tag_7\n      jump\t// in\n    tag_4:\n      stop\n    tag_7:\n        /* \"Events_In_Blockchain/eventsBlockchain.sol\":852:862  msg.sender */\n      caller\n        /* \"Events_In_Blockchain/eventsBlockchain.sol\":847:877  chat(msg.sender,to_, message_) */\n      0xffffffffffffffffffffffffffffffffffffffff\n      and\n      0x2f6ff1dea5e6d5466e44de328c6f4518b6da78f98b2b55273306901a3f0b346c\n        /* \"Events_In_Blockchain/eventsBlockchain.sol\":863:866  to_ */\n      dup4\n        /* \"Events_In_Blockchain/eventsBlockchain.sol\":868:876  message_ */\n      dup4\n        /* \"Events_In_Blockchain/eventsBlockchain.sol\":847:877  chat(msg.sender,to_, message_) */\n      mload(0x40)\n      tag_9\n      swap3\n      swap2\n      swap1\n      tag_10\n      jump\t// in\n    tag_9:\n      mload(0x40)\n      dup1\n      swap2\n      sub\n      swap1\n      log2\n        /* \"Events_In_Blockchain/eventsBlockchain.sol\":770:885  function sendMess(address to_, string memory message_) public{... */\n      pop\n      pop\n      jump\t// out\n        /* \"#utility.yul\":7:82   */\n    tag_11:\n        /* \"#utility.yul\":40:46   */\n      0x00\n        /* \"#utility.yul\":73:75   */\n      0x40\n        /* \"#utility.yul\":67:76   */\n      mload\n        /* \"#utility.yul\":57:76   */\n      swap1\n      pop\n        /* \"#utility.yul\":7:82   */\n      swap1\n      jump\t// out\n        /* \"#utility.yul\":88:205   */\n    tag_12:\n        /* \"#utility.yul\":197:198   */\n      0x00\n        /* \"#utility.yul\":194:195   */\n      dup1\n        /* \"#utility.yul\":187:199   */\n      revert\n        /* \"#utility.yul\":211:328   */\n    tag_13:\n        /* \"#utility.yul\":320:321   */\n      0x00\n        /* \"#utility.yul\":317:318   */\n      dup1\n        /* \"#utility.yul\":310:322   */\n      revert\n        /* \"#utility.yul\":334:460   */\n    tag_14:\n        /* \"#utility.yul\":371:378   */\n      0x00\n        /* \"#utility.yul\":411:453   */\n      0xffffffffffffffffffffffffffffffffffffffff\n        /* \"#utility.yul\":404:409   */\n      dup3\n        /* \"#utility.yul\":400:454   */\n      and\n        /* \"#utility.yul\":389:454   */\n      swap1\n      pop\n        /* \"#utility.yul\":334:460   */\n      swap2\n      swap1\n      pop\n      jump\t// out\n        /* \"#utility.yul\":466:562   */\n    tag_15:\n        /* \"#utility.yul\":503:510   */\n      0x00\n        /* \"#utility.yul\":532:556   */\n      tag_39\n        /* \"#utility.yul\":550:555   */\n      dup3\n        /* \"#utility.yul\":532:556   */\n      tag_14\n      jump\t// in\n    tag_39:\n        /* \"#utility.yul\":521:556   */\n      swap1\n      pop\n        /* \"#utility.yul\":466:562   */\n      swap2\n      swap1\n      pop\n      jump\t// out\n        /* \"#utility.yul\":568:690   */\n    tag_16:\n        /* \"#utility.yul\":641:665   */\n      tag_41\n        /* \"#utility.yul\":659:664   */\n      dup2\n        /* \"#utility.yul\":641:665   */\n      tag_15\n      jump\t// in\n    tag_41:\n        /* \"#utility.yul\":634:639   */\n      dup2\n        /* \"#utility.yul\":631:666   */\n      eq\n        /* \"#utility.yul\":621:684   */\n      tag_42\n      jumpi\n        /* \"#utility.yul\":680:681   */\n      0x00\n        /* \"#utility.yul\":677:678   */\n      dup1\n        /* \"#utility.yul\":670:682   */\n      revert\n        /* \"#utility.yul\":621:684   */\n    tag_42:\n        /* \"#utility.yul\":568:690   */\n      pop\n      jump\t// out\n        /* \"#utility.yul\":696:835   */\n    tag_17:\n        /* \"#utility.yul\":742:747   */\n      0x00\n        /* \"#utility.yul\":780:786   */\n      dup2\n        /* \"#utility.yul\":767:787   */\n      calldataload\n        /* \"#utility.yul\":758:787   */\n      swap1\n      pop\n        /* \"#utility.yul\":796:829   */\n      tag_44\n        /* \"#utility.yul\":823:828   */\n      dup2\n        /* \"#utility.yul\":796:829   */\n      tag_16\n      jump\t// in\n    tag_44:\n        /* \"#utility.yul\":696:835   */\n      swap3\n      swap2\n      pop\n      pop\n      jump\t// out\n        /* \"#utility.yul\":841:958   */\n    tag_18:\n        /* \"#utility.yul\":950:951   */\n      0x00\n        /* \"#utility.yul\":947:948   */\n      dup1\n        /* \"#utility.yul\":940:952   */\n      revert\n        /* \"#utility.yul\":964:1081   */\n    tag_19:\n        /* \"#utility.yul\":1073:1074   */\n      0x00\n        /* \"#utility.yul\":1070:1071   */\n      dup1\n        /* \"#utility.yul\":1063:1075   */\n      revert\n        /* \"#utility.yul\":1087:1189   */\n    tag_20:\n        /* \"#utility.yul\":1128:1134   */\n      0x00\n        /* \"#utility.yul\":1179:1181   */\n      0x1f\n        /* \"#utility.yul\":1175:1182   */\n      not\n        /* \"#utility.yul\":1170:1172   */\n      0x1f\n        /* \"#utility.yul\":1163:1168   */\n      dup4\n        /* \"#utility.yul\":1159:1173   */\n      add\n        /* \"#utility.yul\":1155:1183   */\n      and\n        /* \"#utility.yul\":1145:1183   */\n      swap1\n      pop\n        /* \"#utility.yul\":1087:1189   */\n      swap2\n      swap1\n      pop\n      jump\t// out\n        /* \"#utility.yul\":1195:1375   */\n    tag_21:\n        /* \"#utility.yul\":1243:1320   */\n      0x4e487b7100000000000000000000000000000000000000000000000000000000\n        /* \"#utility.yul\":1240:1241   */\n      0x00\n        /* \"#utility.yul\":1233:1321   */\n      mstore\n        /* \"#utility.yul\":1340:1344   */\n      0x41\n        /* \"#utility.yul\":1337:1338   */\n      0x04\n        /* \"#utility.yul\":1330:1345   */\n      mstore\n        /* \"#utility.yul\":1364:1368   */\n      0x24\n        /* \"#utility.yul\":1361:1362   */\n      0x00\n        /* \"#utility.yul\":1354:1369   */\n      revert\n        /* \"#utility.yul\":1381:1662   */\n    tag_22:\n        /* \"#utility.yul\":1464:1491   */\n      tag_50\n        /* \"#utility.yul\":1486:1490   */\n      dup3\n        /* \"#utility.yul\":1464:1491   */\n      tag_20\n      jump\t// in\n    tag_50:\n        /* \"#utility.yul\":1456:1462   */\n      dup2\n        /* \"#utility.yul\":1452:1492   */\n      add\n        /* \"#utility.yul\":1594:1600   */\n      dup2\n        /* \"#utility.yul\":1582:1592   */\n      dup2\n        /* \"#utility.yul\":1579:1601   */\n      lt\n        /* \"#utility.yul\":1558:1576   */\n      0xffffffffffffffff\n        /* \"#utility.yul\":1546:1556   */\n      dup3\n        /* \"#utility.yul\":1543:1577   */\n      gt\n        /* \"#utility.yul\":1540:1602   */\n      or\n        /* \"#utility.yul\":1537:1625   */\n      iszero\n      tag_51\n      jumpi\n        /* \"#utility.yul\":1605:1623   */\n      tag_52\n      tag_21\n      jump\t// in\n    tag_52:\n        /* \"#utility.yul\":1537:1625   */\n    tag_51:\n        /* \"#utility.yul\":1645:1655   */\n      dup1\n        /* \"#utility.yul\":1641:1643   */\n      0x40\n        /* \"#utility.yul\":1634:1656   */\n      mstore\n        /* \"#utility.yul\":1424:1662   */\n      pop\n        /* \"#utility.yul\":1381:1662   */\n      pop\n      pop\n      jump\t// out\n        /* \"#utility.yul\":1668:1797   */\n    tag_23:\n        /* \"#utility.yul\":1702:1708   */\n      0x00\n        /* \"#utility.yul\":1729:1749   */\n      tag_54\n      tag_11\n      jump\t// in\n    tag_54:\n        /* \"#utility.yul\":1719:1749   */\n      swap1\n      pop\n        /* \"#utility.yul\":1758:1791   */\n      tag_55\n        /* \"#utility.yul\":1786:1790   */\n      dup3\n        /* \"#utility.yul\":1778:1784   */\n      dup3\n        /* \"#utility.yul\":1758:1791   */\n      tag_22\n      jump\t// in\n    tag_55:\n        /* \"#utility.yul\":1668:1797   */\n      swap2\n      swap1\n      pop\n      jump\t// out\n        /* \"#utility.yul\":1803:2111   */\n    tag_24:\n        /* \"#utility.yul\":1865:1869   */\n      0x00\n        /* \"#utility.yul\":1955:1973   */\n      0xffffffffffffffff\n        /* \"#utility.yul\":1947:1953   */\n      dup3\n        /* \"#utility.yul\":1944:1974   */\n      gt\n        /* \"#utility.yul\":1941:1997   */\n      iszero\n      tag_57\n      jumpi\n        /* \"#utility.yul\":1977:1995   */\n      tag_58\n      tag_21\n      jump\t// in\n    tag_58:\n        /* \"#utility.yul\":1941:1997   */\n    tag_57:\n        /* \"#utility.yul\":2015:2044   */\n      tag_59\n        /* \"#utility.yul\":2037:2043   */\n      dup3\n        /* \"#utility.yul\":2015:2044   */\n      tag_20\n      jump\t// in\n    tag_59:\n        /* \"#utility.yul\":2007:2044   */\n      swap1\n      pop\n        /* \"#utility.yul\":2099:2103   */\n      0x20\n        /* \"#utility.yul\":2093:2097   */\n      dup2\n        /* \"#utility.yul\":2089:2104   */\n      add\n        /* \"#utility.yul\":2081:2104   */\n      swap1\n      pop\n        /* \"#utility.yul\":1803:2111   */\n      swap2\n      swap1\n      pop\n      jump\t// out\n        /* \"#utility.yul\":2117:2263   */\n    tag_25:\n        /* \"#utility.yul\":2214:2220   */\n      dup3\n        /* \"#utility.yul\":2209:2212   */\n      dup2\n        /* \"#utility.yul\":2204:2207   */\n      dup4\n        /* \"#utility.yul\":2191:2221   */\n      calldatacopy\n        /* \"#utility.yul\":2255:2256   */\n      0x00\n        /* \"#utility.yul\":2246:2252   */\n      dup4\n        /* \"#utility.yul\":2241:2244   */\n      dup4\n        /* \"#utility.yul\":2237:2253   */\n      add\n        /* \"#utility.yul\":2230:2257   */\n      mstore\n        /* \"#utility.yul\":2117:2263   */\n      pop\n      pop\n      pop\n      jump\t// out\n        /* \"#utility.yul\":2269:2694   */\n    tag_26:\n        /* \"#utility.yul\":2347:2352   */\n      0x00\n        /* \"#utility.yul\":2372:2438   */\n      tag_62\n        /* \"#utility.yul\":2388:2437   */\n      tag_63\n        /* \"#utility.yul\":2430:2436   */\n      dup5\n        /* \"#utility.yul\":2388:2437   */\n      tag_24\n      jump\t// in\n    tag_63:\n        /* \"#utility.yul\":2372:2438   */\n      tag_23\n      jump\t// in\n    tag_62:\n        /* \"#utility.yul\":2363:2438   */\n      swap1\n      pop\n        /* \"#utility.yul\":2461:2467   */\n      dup3\n        /* \"#utility.yul\":2454:2459   */\n      dup2\n        /* \"#utility.yul\":2447:2468   */\n      mstore\n        /* \"#utility.yul\":2499:2503   */\n      0x20\n        /* \"#utility.yul\":2492:2497   */\n      dup2\n        /* \"#utility.yul\":2488:2504   */\n      add\n        /* \"#utility.yul\":2537:2540   */\n      dup5\n        /* \"#utility.yul\":2528:2534   */\n      dup5\n        /* \"#utility.yul\":2523:2526   */\n      dup5\n        /* \"#utility.yul\":2519:2535   */\n      add\n        /* \"#utility.yul\":2516:2541   */\n      gt\n        /* \"#utility.yul\":2513:2625   */\n      iszero\n      tag_64\n      jumpi\n        /* \"#utility.yul\":2544:2623   */\n      tag_65\n      tag_19\n      jump\t// in\n    tag_65:\n        /* \"#utility.yul\":2513:2625   */\n    tag_64:\n        /* \"#utility.yul\":2634:2688   */\n      tag_66\n        /* \"#utility.yul\":2681:2687   */\n      dup5\n        /* \"#utility.yul\":2676:2679   */\n      dup3\n        /* \"#utility.yul\":2671:2674   */\n      dup6\n        /* \"#utility.yul\":2634:2688   */\n      tag_25\n      jump\t// in\n    tag_66:\n        /* \"#utility.yul\":2353:2694   */\n      pop\n        /* \"#utility.yul\":2269:2694   */\n      swap4\n      swap3\n      pop\n      pop\n      pop\n      jump\t// out\n        /* \"#utility.yul\":2714:3054   */\n    tag_27:\n        /* \"#utility.yul\":2770:2775   */\n      0x00\n        /* \"#utility.yul\":2819:2822   */\n      dup3\n        /* \"#utility.yul\":2812:2816   */\n      0x1f\n        /* \"#utility.yul\":2804:2810   */\n      dup4\n        /* \"#utility.yul\":2800:2817   */\n      add\n        /* \"#utility.yul\":2796:2823   */\n      slt\n        /* \"#utility.yul\":2786:2908   */\n      tag_68\n      jumpi\n        /* \"#utility.yul\":2827:2906   */\n      tag_69\n      tag_18\n      jump\t// in\n    tag_69:\n        /* \"#utility.yul\":2786:2908   */\n    tag_68:\n        /* \"#utility.yul\":2944:2950   */\n      dup2\n        /* \"#utility.yul\":2931:2951   */\n      calldataload\n        /* \"#utility.yul\":2969:3048   */\n      tag_70\n        /* \"#utility.yul\":3044:3047   */\n      dup5\n        /* \"#utility.yul\":3036:3042   */\n      dup3\n        /* \"#utility.yul\":3029:3033   */\n      0x20\n        /* \"#utility.yul\":3021:3027   */\n      dup7\n        /* \"#utility.yul\":3017:3034   */\n      add\n        /* \"#utility.yul\":2969:3048   */\n      tag_26\n      jump\t// in\n    tag_70:\n        /* \"#utility.yul\":2960:3048   */\n      swap2\n      pop\n        /* \"#utility.yul\":2776:3054   */\n      pop\n        /* \"#utility.yul\":2714:3054   */\n      swap3\n      swap2\n      pop\n      pop\n      jump\t// out\n        /* \"#utility.yul\":3060:3714   */\n    tag_6:\n        /* \"#utility.yul\":3138:3144   */\n      0x00\n        /* \"#utility.yul\":3146:3152   */\n      dup1\n        /* \"#utility.yul\":3195:3197   */\n      0x40\n        /* \"#utility.yul\":3183:3192   */\n      dup4\n        /* \"#utility.yul\":3174:3181   */\n      dup6\n        /* \"#utility.yul\":3170:3193   */\n      sub\n        /* \"#utility.yul\":3166:3198   */\n      slt\n        /* \"#utility.yul\":3163:3282   */\n      iszero\n      tag_72\n      jumpi\n        /* \"#utility.yul\":3201:3280   */\n      tag_73\n      tag_12\n      jump\t// in\n    tag_73:\n        /* \"#utility.yul\":3163:3282   */\n    tag_72:\n        /* \"#utility.yul\":3321:3322   */\n      0x00\n        /* \"#utility.yul\":3346:3399   */\n      tag_74\n        /* \"#utility.yul\":3391:3398   */\n      dup6\n        /* \"#utility.yul\":3382:3388   */\n      dup3\n        /* \"#utility.yul\":3371:3380   */\n      dup7\n        /* \"#utility.yul\":3367:3389   */\n      add\n        /* \"#utility.yul\":3346:3399   */\n      tag_17\n      jump\t// in\n    tag_74:\n        /* \"#utility.yul\":3336:3399   */\n      swap3\n      pop\n        /* \"#utility.yul\":3292:3409   */\n      pop\n        /* \"#utility.yul\":3476:3478   */\n      0x20\n        /* \"#utility.yul\":3465:3474   */\n      dup4\n        /* \"#utility.yul\":3461:3479   */\n      add\n        /* \"#utility.yul\":3448:3480   */\n      calldataload\n        /* \"#utility.yul\":3507:3525   */\n      0xffffffffffffffff\n        /* \"#utility.yul\":3499:3505   */\n      dup2\n        /* \"#utility.yul\":3496:3526   */\n      gt\n        /* \"#utility.yul\":3493:3610   */\n      iszero\n      tag_75\n      jumpi\n        /* \"#utility.yul\":3529:3608   */\n      tag_76\n      tag_13\n      jump\t// in\n    tag_76:\n        /* \"#utility.yul\":3493:3610   */\n    tag_75:\n        /* \"#utility.yul\":3634:3697   */\n      tag_77\n        /* \"#utility.yul\":3689:3696   */\n      dup6\n        /* \"#utility.yul\":3680:3686   */\n      dup3\n        /* \"#utility.yul\":3669:3678   */\n      dup7\n        /* \"#utility.yul\":3665:3687   */\n      add\n        /* \"#utility.yul\":3634:3697   */\n      tag_27\n      jump\t// in\n    tag_77:\n        /* \"#utility.yul\":3624:3697   */\n      swap2\n      pop\n        /* \"#utility.yul\":3419:3707   */\n      pop\n        /* \"#utility.yul\":3060:3714   */\n      swap3\n      pop\n      swap3\n      swap1\n      pop\n      jump\t// out\n        /* \"#utility.yul\":3720:3838   */\n    tag_28:\n        /* \"#utility.yul\":3807:3831   */\n      tag_79\n        /* \"#utility.yul\":3825:3830   */\n      dup2\n        /* \"#utility.yul\":3807:3831   */\n      tag_15\n      jump\t// in\n    tag_79:\n        /* \"#utility.yul\":3802:3805   */\n      dup3\n        /* \"#utility.yul\":3795:3832   */\n      mstore\n        /* \"#utility.yul\":3720:3838   */\n      pop\n      pop\n      jump\t// out\n        /* \"#utility.yul\":3844:3943   */\n    tag_29:\n        /* \"#utility.yul\":3896:3902   */\n      0x00\n        /* \"#utility.yul\":3930:3935   */\n      dup2\n        /* \"#utility.yul\":3924:3936   */\n      mload\n        /* \"#utility.yul\":3914:3936   */\n      swap1\n      pop\n        /* \"#utility.yul\":3844:3943   */\n      swap2\n      swap1\n      pop\n      jump\t// out\n        /* \"#utility.yul\":3949:4118   */\n    tag_30:\n        /* \"#utility.yul\":4033:4044   */\n      0x00\n        /* \"#utility.yul\":4067:4073   */\n      dup3\n        /* \"#utility.yul\":4062:4065   */\n      dup3\n        /* \"#utility.yul\":4055:4074   */\n      mstore\n        /* \"#utility.yul\":4107:4111   */\n      0x20\n        /* \"#utility.yul\":4102:4105   */\n      dup3\n        /* \"#utility.yul\":4098:4112   */\n      add\n        /* \"#utility.yul\":4083:4112   */\n      swap1\n      pop\n        /* \"#utility.yul\":3949:4118   */\n      swap3\n      swap2\n      pop\n      pop\n      jump\t// out\n        /* \"#utility.yul\":4124:4370   */\n    tag_31:\n        /* \"#utility.yul\":4205:4206   */\n      0x00\n        /* \"#utility.yul\":4215:4328   */\n    tag_83:\n        /* \"#utility.yul\":4229:4235   */\n      dup4\n        /* \"#utility.yul\":4226:4227   */\n      dup2\n        /* \"#utility.yul\":4223:4236   */\n      lt\n        /* \"#utility.yul\":4215:4328   */\n      iszero\n      tag_85\n      jumpi\n        /* \"#utility.yul\":4314:4315   */\n      dup1\n        /* \"#utility.yul\":4309:4312   */\n      dup3\n        /* \"#utility.yul\":4305:4316   */\n      add\n        /* \"#utility.yul\":4299:4317   */\n      mload\n        /* \"#utility.yul\":4295:4296   */\n      dup2\n        /* \"#utility.yul\":4290:4293   */\n      dup5\n        /* \"#utility.yul\":4286:4297   */\n      add\n        /* \"#utility.yul\":4279:4318   */\n      mstore\n        /* \"#utility.yul\":4251:4253   */\n      0x20\n        /* \"#utility.yul\":4248:4249   */\n      dup2\n        /* \"#utility.yul\":4244:4254   */\n      add\n        /* \"#utility.yul\":4239:4254   */\n      swap1\n      pop\n        /* \"#utility.yul\":4215:4328   */\n      jump(tag_83)\n    tag_85:\n        /* \"#utility.yul\":4362:4363   */\n      0x00\n        /* \"#utility.yul\":4353:4359   */\n      dup5\n        /* \"#utility.yul\":4348:4351   */\n      dup5\n        /* \"#utility.yul\":4344:4360   */\n      add\n        /* \"#utility.yul\":4337:4364   */\n      mstore\n        /* \"#utility.yul\":4186:4370   */\n      pop\n        /* \"#utility.yul\":4124:4370   */\n      pop\n      pop\n      pop\n      jump\t// out\n        /* \"#utility.yul\":4376:4753   */\n    tag_32:\n        /* \"#utility.yul\":4464:4467   */\n      0x00\n        /* \"#utility.yul\":4492:4531   */\n      tag_87\n        /* \"#utility.yul\":4525:4530   */\n      dup3\n        /* \"#utility.yul\":4492:4531   */\n      tag_29\n      jump\t// in\n    tag_87:\n        /* \"#utility.yul\":4547:4618   */\n      tag_88\n        /* \"#utility.yul\":4611:4617   */\n      dup2\n        /* \"#utility.yul\":4606:4609   */\n      dup6\n        /* \"#utility.yul\":4547:4618   */\n      tag_30\n      jump\t// in\n    tag_88:\n        /* \"#utility.yul\":4540:4618   */\n      swap4\n      pop\n        /* \"#utility.yul\":4627:4692   */\n      tag_89\n        /* \"#utility.yul\":4685:4691   */\n      dup2\n        /* \"#utility.yul\":4680:4683   */\n      dup6\n        /* \"#utility.yul\":4673:4677   */\n      0x20\n        /* \"#utility.yul\":4666:4671   */\n      dup7\n        /* \"#utility.yul\":4662:4678   */\n      add\n        /* \"#utility.yul\":4627:4692   */\n      tag_31\n      jump\t// in\n    tag_89:\n        /* \"#utility.yul\":4717:4746   */\n      tag_90\n        /* \"#utility.yul\":4739:4745   */\n      dup2\n        /* \"#utility.yul\":4717:4746   */\n      tag_20\n      jump\t// in\n    tag_90:\n        /* \"#utility.yul\":4712:4715   */\n      dup5\n        /* \"#utility.yul\":4708:4747   */\n      add\n        /* \"#utility.yul\":4701:4747   */\n      swap2\n      pop\n        /* \"#utility.yul\":4468:4753   */\n      pop\n        /* \"#utility.yul\":4376:4753   */\n      swap3\n      swap2\n      pop\n      pop\n      jump\t// out\n        /* \"#utility.yul\":4759:5182   */\n    tag_10:\n        /* \"#utility.yul\":4900:4904   */\n      0x00\n        /* \"#utility.yul\":4938:4940   */\n      0x40\n        /* \"#utility.yul\":4927:4936   */\n      dup3\n        /* \"#utility.yul\":4923:4941   */\n      add\n        /* \"#utility.yul\":4915:4941   */\n      swap1\n      pop\n        /* \"#utility.yul\":4951:5022   */\n      tag_92\n        /* \"#utility.yul\":5019:5020   */\n      0x00\n        /* \"#utility.yul\":5008:5017   */\n      dup4\n        /* \"#utility.yul\":5004:5021   */\n      add\n        /* \"#utility.yul\":4995:5001   */\n      dup6\n        /* \"#utility.yul\":4951:5022   */\n      tag_28\n      jump\t// in\n    tag_92:\n        /* \"#utility.yul\":5069:5078   */\n      dup2\n        /* \"#utility.yul\":5063:5067   */\n      dup2\n        /* \"#utility.yul\":5059:5079   */\n      sub\n        /* \"#utility.yul\":5054:5056   */\n      0x20\n        /* \"#utility.yul\":5043:5052   */\n      dup4\n        /* \"#utility.yul\":5039:5057   */\n      add\n        /* \"#utility.yul\":5032:5080   */\n      mstore\n        /* \"#utility.yul\":5097:5175   */\n      tag_93\n        /* \"#utility.yul\":5170:5174   */\n      dup2\n        /* \"#utility.yul\":5161:5167   */\n      dup5\n        /* \"#utility.yul\":5097:5175   */\n      tag_32\n      jump\t// in\n    tag_93:\n        /* \"#utility.yul\":5089:5175   */\n      swap1\n      pop\n        /* \"#utility.yul\":4759:5182   */\n      swap4\n      swap3\n      pop\n      pop\n      pop\n      jump\t// out\n\n    auxdata: 0xa2646970667358221220aa98cb9097f2f249d156f034292be255cd76a75fbe0445367850237baa565db264736f6c63430008120033\n}\n",
				"bytecode": {
					"linkReferences": {},
					"object": "608060405234801561001057600080fd5b506103a8806100206000396000f3fe608060405234801561001057600080fd5b506004361061002b5760003560e01c8063eab1f71e14610030575b600080fd5b61004a60048036038101906100459190610258565b61004c565b005b3373ffffffffffffffffffffffffffffffffffffffff167f2f6ff1dea5e6d5466e44de328c6f4518b6da78f98b2b55273306901a3f0b346c8383604051610094929190610342565b60405180910390a25050565b6000604051905090565b600080fd5b600080fd5b600073ffffffffffffffffffffffffffffffffffffffff82169050919050565b60006100df826100b4565b9050919050565b6100ef816100d4565b81146100fa57600080fd5b50565b60008135905061010c816100e6565b92915050565b600080fd5b600080fd5b6000601f19601f8301169050919050565b7f4e487b7100000000000000000000000000000000000000000000000000000000600052604160045260246000fd5b6101658261011c565b810181811067ffffffffffffffff821117156101845761018361012d565b5b80604052505050565b60006101976100a0565b90506101a3828261015c565b919050565b600067ffffffffffffffff8211156101c3576101c261012d565b5b6101cc8261011c565b9050602081019050919050565b82818337600083830152505050565b60006101fb6101f6846101a8565b61018d565b90508281526020810184848401111561021757610216610117565b5b6102228482856101d9565b509392505050565b600082601f83011261023f5761023e610112565b5b813561024f8482602086016101e8565b91505092915050565b6000806040838503121561026f5761026e6100aa565b5b600061027d858286016100fd565b925050602083013567ffffffffffffffff81111561029e5761029d6100af565b5b6102aa8582860161022a565b9150509250929050565b6102bd816100d4565b82525050565b600081519050919050565b600082825260208201905092915050565b60005b838110156102fd5780820151818401526020810190506102e2565b60008484015250505050565b6000610314826102c3565b61031e81856102ce565b935061032e8185602086016102df565b6103378161011c565b840191505092915050565b600060408201905061035760008301856102b4565b81810360208301526103698184610309565b9050939250505056fea2646970667358221220aa98cb9097f2f249d156f034292be255cd76a75fbe0445367850237baa565db264736f6c63430008120033",
					"opcodes": "PUSH1 0x80 PUSH1 0x40 MSTORE CALLVALUE DUP1 ISZERO PUSH2 0x10 JUMPI PUSH1 0x0 DUP1 REVERT JUMPDEST POP PUSH2 0x3A8 DUP1 PUSH2 0x20 PUSH1 0x0 CODECOPY PUSH1 0x0 RETURN INVALID PUSH1 0x80 PUSH1 0x40 MSTORE CALLVALUE DUP1 ISZERO PUSH2 0x10 JUMPI PUSH1 0x0 DUP1 REVERT JUMPDEST POP PUSH1 0x4 CALLDATASIZE LT PUSH2 0x2B JUMPI PUSH1 0x0 CALLDATALOAD PUSH1 0xE0 SHR DUP1 PUSH4 0xEAB1F71E EQ PUSH2 0x30 JUMPI JUMPDEST PUSH1 0x0 DUP1 REVERT JUMPDEST PUSH2 0x4A PUSH1 0x4 DUP1 CALLDATASIZE SUB DUP2 ADD SWAP1 PUSH2 0x45 SWAP2 SWAP1 PUSH2 0x258 JUMP JUMPDEST PUSH2 0x4C JUMP JUMPDEST STOP JUMPDEST CALLER PUSH20 0xFFFFFFFFFFFFFFFFFFFFFFFFFFFFFFFFFFFFFFFF AND PUSH32 0x2F6FF1DEA5E6D5466E44DE328C6F4518B6DA78F98B2B55273306901A3F0B346C DUP4 DUP4 PUSH1 0x40 MLOAD PUSH2 0x94 SWAP3 SWAP2 SWAP1 PUSH2 0x342 JUMP JUMPDEST PUSH1 0x40 MLOAD DUP1 SWAP2 SUB SWAP1 LOG2 POP POP JUMP JUMPDEST PUSH1 0x0 PUSH1 0x40 MLOAD SWAP1 POP SWAP1 JUMP JUMPDEST PUSH1 0x0 DUP1 REVERT JUMPDEST PUSH1 0x0 DUP1 REVERT JUMPDEST PUSH1 0x0 PUSH20 0xFFFFFFFFFFFFFFFFFFFFFFFFFFFFFFFFFFFFFFFF DUP3 AND SWAP1 POP SWAP2 SWAP1 POP JUMP JUMPDEST PUSH1 0x0 PUSH2 0xDF DUP3 PUSH2 0xB4 JUMP JUMPDEST SWAP1 POP SWAP2 SWAP1 POP JUMP JUMPDEST PUSH2 0xEF DUP2 PUSH2 0xD4 JUMP JUMPDEST DUP2 EQ PUSH2 0xFA JUMPI PUSH1 0x0 DUP1 REVERT JUMPDEST POP JUMP JUMPDEST PUSH1 0x0 DUP2 CALLDATALOAD SWAP1 POP PUSH2 0x10C DUP2 PUSH2 0xE6 JUMP JUMPDEST SWAP3 SWAP2 POP POP JUMP JUMPDEST PUSH1 0x0 DUP1 REVERT JUMPDEST PUSH1 0x0 DUP1 REVERT JUMPDEST PUSH1 0x0 PUSH1 0x1F NOT PUSH1 0x1F DUP4 ADD AND SWAP1 POP SWAP2 SWAP1 POP JUMP JUMPDEST PUSH32 0x4E487B7100000000000000000000000000000000000000000000000000000000 PUSH1 0x0 MSTORE PUSH1 0x41 PUSH1 0x4 MSTORE PUSH1 0x24 PUSH1 0x0 REVERT JUMPDEST PUSH2 0x165 DUP3 PUSH2 0x11C JUMP JUMPDEST DUP2 ADD DUP2 DUP2 LT PUSH8 0xFFFFFFFFFFFFFFFF DUP3 GT OR ISZERO PUSH2 0x184 JUMPI PUSH2 0x183 PUSH2 0x12D JUMP JUMPDEST JUMPDEST DUP1 PUSH1 0x40 MSTORE POP POP POP JUMP JUMPDEST PUSH1 0x0 PUSH2 0x197 PUSH2 0xA0 JUMP JUMPDEST SWAP1 POP PUSH2 0x1A3 DUP3 DUP3 PUSH2 0x15C JUMP JUMPDEST SWAP2 SWAP1 POP JUMP JUMPDEST PUSH1 0x0 PUSH8 0xFFFFFFFFFFFFFFFF DUP3 GT ISZERO PUSH2 0x1C3 JUMPI PUSH2 0x1C2 PUSH2 0x12D JUMP JUMPDEST JUMPDEST PUSH2 0x1CC DUP3 PUSH2 0x11C JUMP JUMPDEST SWAP1 POP PUSH1 0x20 DUP2 ADD SWAP1 POP SWAP2 SWAP1 POP JUMP JUMPDEST DUP3 DUP2 DUP4 CALLDATACOPY PUSH1 0x0 DUP4 DUP4 ADD MSTORE POP POP POP JUMP JUMPDEST PUSH1 0x0 PUSH2 0x1FB PUSH2 0x1F6 DUP5 PUSH2 0x1A8 JUMP JUMPDEST PUSH2 0x18D JUMP JUMPDEST SWAP1 POP DUP3 DUP2 MSTORE PUSH1 0x20 DUP2 ADD DUP5 DUP5 DUP5 ADD GT ISZERO PUSH2 0x217 JUMPI PUSH2 0x216 PUSH2 0x117 JUMP JUMPDEST JUMPDEST PUSH2 0x222 DUP5 DUP3 DUP6 PUSH2 0x1D9 JUMP JUMPDEST POP SWAP4 SWAP3 POP POP POP JUMP JUMPDEST PUSH1 0x0 DUP3 PUSH1 0x1F DUP4 ADD SLT PUSH2 0x23F JUMPI PUSH2 0x23E PUSH2 0x112 JUMP JUMPDEST JUMPDEST DUP2 CALLDATALOAD PUSH2 0x24F DUP5 DUP3 PUSH1 0x20 DUP7 ADD PUSH2 0x1E8 JUMP JUMPDEST SWAP2 POP POP SWAP3 SWAP2 POP POP JUMP JUMPDEST PUSH1 0x0 DUP1 PUSH1 0x40 DUP4 DUP6 SUB SLT ISZERO PUSH2 0x26F JUMPI PUSH2 0x26E PUSH2 0xAA JUMP JUMPDEST JUMPDEST PUSH1 0x0 PUSH2 0x27D DUP6 DUP3 DUP7 ADD PUSH2 0xFD JUMP JUMPDEST SWAP3 POP POP PUSH1 0x20 DUP4 ADD CALLDATALOAD PUSH8 0xFFFFFFFFFFFFFFFF DUP2 GT ISZERO PUSH2 0x29E JUMPI PUSH2 0x29D PUSH2 0xAF JUMP JUMPDEST JUMPDEST PUSH2 0x2AA DUP6 DUP3 DUP7 ADD PUSH2 0x22A JUMP JUMPDEST SWAP2 POP POP SWAP3 POP SWAP3 SWAP1 POP JUMP JUMPDEST PUSH2 0x2BD DUP2 PUSH2 0xD4 JUMP JUMPDEST DUP3 MSTORE POP POP JUMP JUMPDEST PUSH1 0x0 DUP2 MLOAD SWAP1 POP SWAP2 SWAP1 POP JUMP JUMPDEST PUSH1 0x0 DUP3 DUP3 MSTORE PUSH1 0x20 DUP3 ADD SWAP1 POP SWAP3 SWAP2 POP POP JUMP JUMPDEST PUSH1 0x0 JUMPDEST DUP4 DUP2 LT ISZERO PUSH2 0x2FD JUMPI DUP1 DUP3 ADD MLOAD DUP2 DUP5 ADD MSTORE PUSH1 0x20 DUP2 ADD SWAP1 POP PUSH2 0x2E2 JUMP JUMPDEST PUSH1 0x0 DUP5 DUP5 ADD MSTORE POP POP POP POP JUMP JUMPDEST PUSH1 0x0 PUSH2 0x314 DUP3 PUSH2 0x2C3 JUMP JUMPDEST PUSH2 0x31E DUP2 DUP6 PUSH2 0x2CE JUMP JUMPDEST SWAP4 POP PUSH2 0x32E DUP2 DUP6 PUSH1 0x20 DUP7 ADD PUSH2 0x2DF JUMP JUMPDEST PUSH2 0x337 DUP2 PUSH2 0x11C JUMP JUMPDEST DUP5 ADD SWAP2 POP POP SWAP3 SWAP2 POP POP JUMP JUMPDEST PUSH1 0x0 PUSH1 0x40 DUP3 ADD SWAP1 POP PUSH2 0x357 PUSH1 0x0 DUP4 ADD DUP6 PUSH2 0x2B4 JUMP JUMPDEST DUP2 DUP2 SUB PUSH1 0x20 DUP4 ADD MSTORE PUSH2 0x369 DUP2 DUP5 PUSH2 0x309 JUMP JUMPDEST SWAP1 POP SWAP4 SWAP3 POP POP POP JUMP INVALID LOG2 PUSH5 0x6970667358 0x22 SLT KECCAK256 0xAA SWAP9 0xCB SWAP1 SWAP8 CALLCODE CALLCODE 0x49 0xD1 JUMP CREATE CALLVALUE 0x29 0x2B 0xE2 SSTORE 0xCD PUSH23 0xA75FBE0445367850237BAA565DB264736F6C6343000812 STOP CALLER "
				},
				"gasEstimates": {
					"creation": {
						"codeDepositCost": "187200",
						"executionCost": "232",
						"totalCost": "187432"
					},
					"external": {
						"sendMess(address,string)": "infinite"
					}
				},
				"methodIdentifiers": {
					"sendMess(address,string)": "eab1f71e"
				}
			},
			"storageLayout": {
				"storage": [],
				"types": null
			},
			"userdoc": {
				"kind": "user",
				"methods": {},
				"version": 1
			}
		}
	}
}