{
	"Data_Location_In_Blockchain_2/storageMemoryCalldata.sol": {
		"storageMemoryCalldata": {
			"abi": [
				{
					"inputs": [
						{
							"internalType": "string",
							"name": "str",
							"type": "string"
						},
						{
							"internalType": "uint256[]",
							"name": "arr",
							"type": "uint256[]"
						}
					],
					"name": "Calldata",
					"outputs": [],
					"stateMutability": "nonpayable",
					"type": "function"
				},
				{
					"inputs": [
						{
							"internalType": "string",
							"name": "str",
							"type": "string"
						},
						{
							"internalType": "uint256[]",
							"name": "arr",
							"type": "uint256[]"
						}
					],
					"name": "Memory",
					"outputs": [],
					"stateMutability": "nonpayable",
					"type": "function"
				},
				{
					"inputs": [
						{
							"internalType": "uint256[]",
							"name": "arr",
							"type": "uint256[]"
						}
					],
					"name": "getInCall",
					"outputs": [],
					"stateMutability": "nonpayable",
					"type": "function"
				},
				{
					"inputs": [
						{
							"internalType": "uint256[]",
							"name": "arr",
							"type": "uint256[]"
						}
					],
					"name": "getInMem",
					"outputs": [],
					"stateMutability": "nonpayable",
					"type": "function"
				}
			],
			"devdoc": {
				"kind": "dev",
				"methods": {},
				"version": 1
			},
			"evm": {
				"assembly": "    /* \"Data_Location_In_Blockchain_2/storageMemoryCalldata.sol\":62:1054  contract storageMemoryCalldata{... */\n  mstore(0x40, 0x80)\n  callvalue\n  dup1\n  iszero\n  tag_1\n  jumpi\n  0x00\n  dup1\n  revert\ntag_1:\n  pop\n  dataSize(sub_0)\n  dup1\n  dataOffset(sub_0)\n  0x00\n  codecopy\n  0x00\n  return\nstop\n\nsub_0: assembly {\n        /* \"Data_Location_In_Blockchain_2/storageMemoryCalldata.sol\":62:1054  contract storageMemoryCalldata{... */\n      mstore(0x40, 0x80)\n      callvalue\n      dup1\n      iszero\n      tag_1\n      jumpi\n      0x00\n      dup1\n      revert\n    tag_1:\n      pop\n      jumpi(tag_2, lt(calldatasize, 0x04))\n      shr(0xe0, calldataload(0x00))\n      dup1\n      0x24724c51\n      eq\n      tag_3\n      jumpi\n      dup1\n      0x9a516758\n      eq\n      tag_4\n      jumpi\n      dup1\n      0xa8fc48fa\n      eq\n      tag_5\n      jumpi\n      dup1\n      0xfae9407f\n      eq\n      tag_6\n      jumpi\n    tag_2:\n      0x00\n      dup1\n      revert\n        /* \"Data_Location_In_Blockchain_2/storageMemoryCalldata.sol\":934:987  function getInMem(uint[] memory arr) public{... */\n    tag_3:\n      tag_7\n      0x04\n      dup1\n      calldatasize\n      sub\n      dup2\n      add\n      swap1\n      tag_8\n      swap2\n      swap1\n      tag_9\n      jump\t// in\n    tag_8:\n      tag_10\n      jump\t// in\n    tag_7:\n      stop\n        /* \"Data_Location_In_Blockchain_2/storageMemoryCalldata.sol\":995:1051  function getInCall(uint[] calldata arr) public{... */\n    tag_4:\n      tag_11\n      0x04\n      dup1\n      calldatasize\n      sub\n      dup2\n      add\n      swap1\n      tag_12\n      swap2\n      swap1\n      tag_13\n      jump\t// in\n    tag_12:\n      tag_14\n      jump\t// in\n    tag_11:\n      stop\n        /* \"Data_Location_In_Blockchain_2/storageMemoryCalldata.sol\":99:232  function Memory(string memory str,uint[] memory arr) public{... */\n    tag_5:\n      tag_15\n      0x04\n      dup1\n      calldatasize\n      sub\n      dup2\n      add\n      swap1\n      tag_16\n      swap2\n      swap1\n      tag_17\n      jump\t// in\n    tag_16:\n      tag_18\n      jump\t// in\n    tag_15:\n      stop\n        /* \"Data_Location_In_Blockchain_2/storageMemoryCalldata.sol\":240:926  function Calldata(string calldata str, uint[] calldata arr) public{... */\n    tag_6:\n      tag_19\n      0x04\n      dup1\n      calldatasize\n      sub\n      dup2\n      add\n      swap1\n      tag_20\n      swap2\n      swap1\n      tag_21\n      jump\t// in\n    tag_20:\n      tag_22\n      jump\t// in\n    tag_19:\n      stop\n        /* \"Data_Location_In_Blockchain_2/storageMemoryCalldata.sol\":934:987  function getInMem(uint[] memory arr) public{... */\n    tag_10:\n      pop\n      jump\t// out\n        /* \"Data_Location_In_Blockchain_2/storageMemoryCalldata.sol\":995:1051  function getInCall(uint[] calldata arr) public{... */\n    tag_14:\n      pop\n      pop\n      jump\t// out\n        /* \"Data_Location_In_Blockchain_2/storageMemoryCalldata.sol\":99:232  function Memory(string memory str,uint[] memory arr) public{... */\n    tag_18:\n        /* \"Data_Location_In_Blockchain_2/storageMemoryCalldata.sol\":169:182  getInMem(arr) */\n      tag_26\n        /* \"Data_Location_In_Blockchain_2/storageMemoryCalldata.sol\":178:181  arr */\n      dup2\n        /* \"Data_Location_In_Blockchain_2/storageMemoryCalldata.sol\":169:177  getInMem */\n      tag_10\n        /* \"Data_Location_In_Blockchain_2/storageMemoryCalldata.sol\":169:182  getInMem(arr) */\n      jump\t// in\n    tag_26:\n        /* \"Data_Location_In_Blockchain_2/storageMemoryCalldata.sol\":99:232  function Memory(string memory str,uint[] memory arr) public{... */\n      pop\n      pop\n      jump\t// out\n        /* \"Data_Location_In_Blockchain_2/storageMemoryCalldata.sol\":240:926  function Calldata(string calldata str, uint[] calldata arr) public{... */\n    tag_22:\n        /* \"Data_Location_In_Blockchain_2/storageMemoryCalldata.sol\":317:330  getInMem(arr) */\n      tag_28\n        /* \"Data_Location_In_Blockchain_2/storageMemoryCalldata.sol\":326:329  arr */\n      dup3\n      dup3\n        /* \"Data_Location_In_Blockchain_2/storageMemoryCalldata.sol\":317:330  getInMem(arr) */\n      dup1\n      dup1\n      0x20\n      mul\n      0x20\n      add\n      mload(0x40)\n      swap1\n      dup2\n      add\n      0x40\n      mstore\n      dup1\n      swap4\n      swap3\n      swap2\n      swap1\n      dup2\n      dup2\n      mstore\n      0x20\n      add\n      dup4\n      dup4\n      0x20\n      mul\n      dup1\n      dup3\n      dup5\n      calldatacopy\n      0x00\n      dup2\n      dup5\n      add\n      mstore\n      not(0x1f)\n      0x1f\n      dup3\n      add\n      and\n      swap1\n      pop\n      dup1\n      dup4\n      add\n      swap3\n      pop\n      pop\n      pop\n      pop\n      pop\n      pop\n      pop\n        /* \"Data_Location_In_Blockchain_2/storageMemoryCalldata.sol\":317:325  getInMem */\n      tag_10\n        /* \"Data_Location_In_Blockchain_2/storageMemoryCalldata.sol\":317:330  getInMem(arr) */\n      jump\t// in\n    tag_28:\n        /* \"Data_Location_In_Blockchain_2/storageMemoryCalldata.sol\":341:355  getInCall(arr) */\n      tag_29\n        /* \"Data_Location_In_Blockchain_2/storageMemoryCalldata.sol\":351:354  arr */\n      dup3\n      dup3\n        /* \"Data_Location_In_Blockchain_2/storageMemoryCalldata.sol\":341:350  getInCall */\n      tag_14\n        /* \"Data_Location_In_Blockchain_2/storageMemoryCalldata.sol\":341:355  getInCall(arr) */\n      jump\t// in\n    tag_29:\n        /* \"Data_Location_In_Blockchain_2/storageMemoryCalldata.sol\":240:926  function Calldata(string calldata str, uint[] calldata arr) public{... */\n      pop\n      pop\n      pop\n      pop\n      jump\t// out\n        /* \"#utility.yul\":7:82   */\n    tag_30:\n        /* \"#utility.yul\":40:46   */\n      0x00\n        /* \"#utility.yul\":73:75   */\n      0x40\n        /* \"#utility.yul\":67:76   */\n      mload\n        /* \"#utility.yul\":57:76   */\n      swap1\n      pop\n        /* \"#utility.yul\":7:82   */\n      swap1\n      jump\t// out\n        /* \"#utility.yul\":88:205   */\n    tag_31:\n        /* \"#utility.yul\":197:198   */\n      0x00\n        /* \"#utility.yul\":194:195   */\n      dup1\n        /* \"#utility.yul\":187:199   */\n      revert\n        /* \"#utility.yul\":211:328   */\n    tag_32:\n        /* \"#utility.yul\":320:321   */\n      0x00\n        /* \"#utility.yul\":317:318   */\n      dup1\n        /* \"#utility.yul\":310:322   */\n      revert\n        /* \"#utility.yul\":334:451   */\n    tag_33:\n        /* \"#utility.yul\":443:444   */\n      0x00\n        /* \"#utility.yul\":440:441   */\n      dup1\n        /* \"#utility.yul\":433:445   */\n      revert\n        /* \"#utility.yul\":457:559   */\n    tag_34:\n        /* \"#utility.yul\":498:504   */\n      0x00\n        /* \"#utility.yul\":549:551   */\n      0x1f\n        /* \"#utility.yul\":545:552   */\n      not\n        /* \"#utility.yul\":540:542   */\n      0x1f\n        /* \"#utility.yul\":533:538   */\n      dup4\n        /* \"#utility.yul\":529:543   */\n      add\n        /* \"#utility.yul\":525:553   */\n      and\n        /* \"#utility.yul\":515:553   */\n      swap1\n      pop\n        /* \"#utility.yul\":457:559   */\n      swap2\n      swap1\n      pop\n      jump\t// out\n        /* \"#utility.yul\":565:745   */\n    tag_35:\n        /* \"#utility.yul\":613:690   */\n      0x4e487b7100000000000000000000000000000000000000000000000000000000\n        /* \"#utility.yul\":610:611   */\n      0x00\n        /* \"#utility.yul\":603:691   */\n      mstore\n        /* \"#utility.yul\":710:714   */\n      0x41\n        /* \"#utility.yul\":707:708   */\n      0x04\n        /* \"#utility.yul\":700:715   */\n      mstore\n        /* \"#utility.yul\":734:738   */\n      0x24\n        /* \"#utility.yul\":731:732   */\n      0x00\n        /* \"#utility.yul\":724:739   */\n      revert\n        /* \"#utility.yul\":751:1032   */\n    tag_36:\n        /* \"#utility.yul\":834:861   */\n      tag_61\n        /* \"#utility.yul\":856:860   */\n      dup3\n        /* \"#utility.yul\":834:861   */\n      tag_34\n      jump\t// in\n    tag_61:\n        /* \"#utility.yul\":826:832   */\n      dup2\n        /* \"#utility.yul\":822:862   */\n      add\n        /* \"#utility.yul\":964:970   */\n      dup2\n        /* \"#utility.yul\":952:962   */\n      dup2\n        /* \"#utility.yul\":949:971   */\n      lt\n        /* \"#utility.yul\":928:946   */\n      0xffffffffffffffff\n        /* \"#utility.yul\":916:926   */\n      dup3\n        /* \"#utility.yul\":913:947   */\n      gt\n        /* \"#utility.yul\":910:972   */\n      or\n        /* \"#utility.yul\":907:995   */\n      iszero\n      tag_62\n      jumpi\n        /* \"#utility.yul\":975:993   */\n      tag_63\n      tag_35\n      jump\t// in\n    tag_63:\n        /* \"#utility.yul\":907:995   */\n    tag_62:\n        /* \"#utility.yul\":1015:1025   */\n      dup1\n        /* \"#utility.yul\":1011:1013   */\n      0x40\n        /* \"#utility.yul\":1004:1026   */\n      mstore\n        /* \"#utility.yul\":794:1032   */\n      pop\n        /* \"#utility.yul\":751:1032   */\n      pop\n      pop\n      jump\t// out\n        /* \"#utility.yul\":1038:1167   */\n    tag_37:\n        /* \"#utility.yul\":1072:1078   */\n      0x00\n        /* \"#utility.yul\":1099:1119   */\n      tag_65\n      tag_30\n      jump\t// in\n    tag_65:\n        /* \"#utility.yul\":1089:1119   */\n      swap1\n      pop\n        /* \"#utility.yul\":1128:1161   */\n      tag_66\n        /* \"#utility.yul\":1156:1160   */\n      dup3\n        /* \"#utility.yul\":1148:1154   */\n      dup3\n        /* \"#utility.yul\":1128:1161   */\n      tag_36\n      jump\t// in\n    tag_66:\n        /* \"#utility.yul\":1038:1167   */\n      swap2\n      swap1\n      pop\n      jump\t// out\n        /* \"#utility.yul\":1173:1484   */\n    tag_38:\n        /* \"#utility.yul\":1250:1254   */\n      0x00\n        /* \"#utility.yul\":1340:1358   */\n      0xffffffffffffffff\n        /* \"#utility.yul\":1332:1338   */\n      dup3\n        /* \"#utility.yul\":1329:1359   */\n      gt\n        /* \"#utility.yul\":1326:1382   */\n      iszero\n      tag_68\n      jumpi\n        /* \"#utility.yul\":1362:1380   */\n      tag_69\n      tag_35\n      jump\t// in\n    tag_69:\n        /* \"#utility.yul\":1326:1382   */\n    tag_68:\n        /* \"#utility.yul\":1412:1416   */\n      0x20\n        /* \"#utility.yul\":1404:1410   */\n      dup3\n        /* \"#utility.yul\":1400:1417   */\n      mul\n        /* \"#utility.yul\":1392:1417   */\n      swap1\n      pop\n        /* \"#utility.yul\":1472:1476   */\n      0x20\n        /* \"#utility.yul\":1466:1470   */\n      dup2\n        /* \"#utility.yul\":1462:1477   */\n      add\n        /* \"#utility.yul\":1454:1477   */\n      swap1\n      pop\n        /* \"#utility.yul\":1173:1484   */\n      swap2\n      swap1\n      pop\n      jump\t// out\n        /* \"#utility.yul\":1490:1607   */\n    tag_39:\n        /* \"#utility.yul\":1599:1600   */\n      0x00\n        /* \"#utility.yul\":1596:1597   */\n      dup1\n        /* \"#utility.yul\":1589:1601   */\n      revert\n        /* \"#utility.yul\":1613:1690   */\n    tag_40:\n        /* \"#utility.yul\":1650:1657   */\n      0x00\n        /* \"#utility.yul\":1679:1684   */\n      dup2\n        /* \"#utility.yul\":1668:1684   */\n      swap1\n      pop\n        /* \"#utility.yul\":1613:1690   */\n      swap2\n      swap1\n      pop\n      jump\t// out\n        /* \"#utility.yul\":1696:1818   */\n    tag_41:\n        /* \"#utility.yul\":1769:1793   */\n      tag_73\n        /* \"#utility.yul\":1787:1792   */\n      dup2\n        /* \"#utility.yul\":1769:1793   */\n      tag_40\n      jump\t// in\n    tag_73:\n        /* \"#utility.yul\":1762:1767   */\n      dup2\n        /* \"#utility.yul\":1759:1794   */\n      eq\n        /* \"#utility.yul\":1749:1812   */\n      tag_74\n      jumpi\n        /* \"#utility.yul\":1808:1809   */\n      0x00\n        /* \"#utility.yul\":1805:1806   */\n      dup1\n        /* \"#utility.yul\":1798:1810   */\n      revert\n        /* \"#utility.yul\":1749:1812   */\n    tag_74:\n        /* \"#utility.yul\":1696:1818   */\n      pop\n      jump\t// out\n        /* \"#utility.yul\":1824:1963   */\n    tag_42:\n        /* \"#utility.yul\":1870:1875   */\n      0x00\n        /* \"#utility.yul\":1908:1914   */\n      dup2\n        /* \"#utility.yul\":1895:1915   */\n      calldataload\n        /* \"#utility.yul\":1886:1915   */\n      swap1\n      pop\n        /* \"#utility.yul\":1924:1957   */\n      tag_76\n        /* \"#utility.yul\":1951:1956   */\n      dup2\n        /* \"#utility.yul\":1924:1957   */\n      tag_41\n      jump\t// in\n    tag_76:\n        /* \"#utility.yul\":1824:1963   */\n      swap3\n      swap2\n      pop\n      pop\n      jump\t// out\n        /* \"#utility.yul\":1986:2696   */\n    tag_43:\n        /* \"#utility.yul\":2082:2087   */\n      0x00\n        /* \"#utility.yul\":2107:2188   */\n      tag_78\n        /* \"#utility.yul\":2123:2187   */\n      tag_79\n        /* \"#utility.yul\":2180:2186   */\n      dup5\n        /* \"#utility.yul\":2123:2187   */\n      tag_38\n      jump\t// in\n    tag_79:\n        /* \"#utility.yul\":2107:2188   */\n      tag_37\n      jump\t// in\n    tag_78:\n        /* \"#utility.yul\":2098:2188   */\n      swap1\n      pop\n        /* \"#utility.yul\":2208:2213   */\n      dup1\n        /* \"#utility.yul\":2237:2243   */\n      dup4\n        /* \"#utility.yul\":2230:2235   */\n      dup3\n        /* \"#utility.yul\":2223:2244   */\n      mstore\n        /* \"#utility.yul\":2271:2275   */\n      0x20\n        /* \"#utility.yul\":2264:2269   */\n      dup3\n        /* \"#utility.yul\":2260:2276   */\n      add\n        /* \"#utility.yul\":2253:2276   */\n      swap1\n      pop\n        /* \"#utility.yul\":2324:2328   */\n      0x20\n        /* \"#utility.yul\":2316:2322   */\n      dup5\n        /* \"#utility.yul\":2312:2329   */\n      mul\n        /* \"#utility.yul\":2304:2310   */\n      dup4\n        /* \"#utility.yul\":2300:2330   */\n      add\n        /* \"#utility.yul\":2353:2356   */\n      dup6\n        /* \"#utility.yul\":2345:2351   */\n      dup2\n        /* \"#utility.yul\":2342:2357   */\n      gt\n        /* \"#utility.yul\":2339:2461   */\n      iszero\n      tag_80\n      jumpi\n        /* \"#utility.yul\":2372:2451   */\n      tag_81\n      tag_39\n      jump\t// in\n    tag_81:\n        /* \"#utility.yul\":2339:2461   */\n    tag_80:\n        /* \"#utility.yul\":2487:2493   */\n      dup4\n        /* \"#utility.yul\":2470:2690   */\n    tag_82:\n        /* \"#utility.yul\":2504:2510   */\n      dup2\n        /* \"#utility.yul\":2499:2502   */\n      dup2\n        /* \"#utility.yul\":2496:2511   */\n      lt\n        /* \"#utility.yul\":2470:2690   */\n      iszero\n      tag_84\n      jumpi\n        /* \"#utility.yul\":2579:2582   */\n      dup1\n        /* \"#utility.yul\":2608:2645   */\n      tag_85\n        /* \"#utility.yul\":2641:2644   */\n      dup9\n        /* \"#utility.yul\":2629:2639   */\n      dup3\n        /* \"#utility.yul\":2608:2645   */\n      tag_42\n      jump\t// in\n    tag_85:\n        /* \"#utility.yul\":2603:2606   */\n      dup5\n        /* \"#utility.yul\":2596:2646   */\n      mstore\n        /* \"#utility.yul\":2675:2679   */\n      0x20\n        /* \"#utility.yul\":2670:2673   */\n      dup5\n        /* \"#utility.yul\":2666:2680   */\n      add\n        /* \"#utility.yul\":2659:2680   */\n      swap4\n      pop\n        /* \"#utility.yul\":2546:2690   */\n      pop\n        /* \"#utility.yul\":2530:2534   */\n      0x20\n        /* \"#utility.yul\":2525:2528   */\n      dup2\n        /* \"#utility.yul\":2521:2535   */\n      add\n        /* \"#utility.yul\":2514:2535   */\n      swap1\n      pop\n        /* \"#utility.yul\":2470:2690   */\n      jump(tag_82)\n    tag_84:\n        /* \"#utility.yul\":2474:2495   */\n      pop\n        /* \"#utility.yul\":2088:2696   */\n      pop\n      pop\n        /* \"#utility.yul\":1986:2696   */\n      swap4\n      swap3\n      pop\n      pop\n      pop\n      jump\t// out\n        /* \"#utility.yul\":2719:3089   */\n    tag_44:\n        /* \"#utility.yul\":2790:2795   */\n      0x00\n        /* \"#utility.yul\":2839:2842   */\n      dup3\n        /* \"#utility.yul\":2832:2836   */\n      0x1f\n        /* \"#utility.yul\":2824:2830   */\n      dup4\n        /* \"#utility.yul\":2820:2837   */\n      add\n        /* \"#utility.yul\":2816:2843   */\n      slt\n        /* \"#utility.yul\":2806:2928   */\n      tag_87\n      jumpi\n        /* \"#utility.yul\":2847:2926   */\n      tag_88\n      tag_33\n      jump\t// in\n    tag_88:\n        /* \"#utility.yul\":2806:2928   */\n    tag_87:\n        /* \"#utility.yul\":2964:2970   */\n      dup2\n        /* \"#utility.yul\":2951:2971   */\n      calldataload\n        /* \"#utility.yul\":2989:3083   */\n      tag_89\n        /* \"#utility.yul\":3079:3082   */\n      dup5\n        /* \"#utility.yul\":3071:3077   */\n      dup3\n        /* \"#utility.yul\":3064:3068   */\n      0x20\n        /* \"#utility.yul\":3056:3062   */\n      dup7\n        /* \"#utility.yul\":3052:3069   */\n      add\n        /* \"#utility.yul\":2989:3083   */\n      tag_43\n      jump\t// in\n    tag_89:\n        /* \"#utility.yul\":2980:3083   */\n      swap2\n      pop\n        /* \"#utility.yul\":2796:3089   */\n      pop\n        /* \"#utility.yul\":2719:3089   */\n      swap3\n      swap2\n      pop\n      pop\n      jump\t// out\n        /* \"#utility.yul\":3095:3634   */\n    tag_9:\n        /* \"#utility.yul\":3179:3185   */\n      0x00\n        /* \"#utility.yul\":3228:3230   */\n      0x20\n        /* \"#utility.yul\":3216:3225   */\n      dup3\n        /* \"#utility.yul\":3207:3214   */\n      dup5\n        /* \"#utility.yul\":3203:3226   */\n      sub\n        /* \"#utility.yul\":3199:3231   */\n      slt\n        /* \"#utility.yul\":3196:3315   */\n      iszero\n      tag_91\n      jumpi\n        /* \"#utility.yul\":3234:3313   */\n      tag_92\n      tag_31\n      jump\t// in\n    tag_92:\n        /* \"#utility.yul\":3196:3315   */\n    tag_91:\n        /* \"#utility.yul\":3382:3383   */\n      0x00\n        /* \"#utility.yul\":3371:3380   */\n      dup3\n        /* \"#utility.yul\":3367:3384   */\n      add\n        /* \"#utility.yul\":3354:3385   */\n      calldataload\n        /* \"#utility.yul\":3412:3430   */\n      0xffffffffffffffff\n        /* \"#utility.yul\":3404:3410   */\n      dup2\n        /* \"#utility.yul\":3401:3431   */\n      gt\n        /* \"#utility.yul\":3398:3515   */\n      iszero\n      tag_93\n      jumpi\n        /* \"#utility.yul\":3434:3513   */\n      tag_94\n      tag_32\n      jump\t// in\n    tag_94:\n        /* \"#utility.yul\":3398:3515   */\n    tag_93:\n        /* \"#utility.yul\":3539:3617   */\n      tag_95\n        /* \"#utility.yul\":3609:3616   */\n      dup5\n        /* \"#utility.yul\":3600:3606   */\n      dup3\n        /* \"#utility.yul\":3589:3598   */\n      dup6\n        /* \"#utility.yul\":3585:3607   */\n      add\n        /* \"#utility.yul\":3539:3617   */\n      tag_44\n      jump\t// in\n    tag_95:\n        /* \"#utility.yul\":3529:3617   */\n      swap2\n      pop\n        /* \"#utility.yul\":3325:3627   */\n      pop\n        /* \"#utility.yul\":3095:3634   */\n      swap3\n      swap2\n      pop\n      pop\n      jump\t// out\n        /* \"#utility.yul\":3640:3757   */\n    tag_45:\n        /* \"#utility.yul\":3749:3750   */\n      0x00\n        /* \"#utility.yul\":3746:3747   */\n      dup1\n        /* \"#utility.yul\":3739:3751   */\n      revert\n        /* \"#utility.yul\":3780:4348   */\n    tag_46:\n        /* \"#utility.yul\":3853:3861   */\n      0x00\n        /* \"#utility.yul\":3863:3869   */\n      dup1\n        /* \"#utility.yul\":3913:3916   */\n      dup4\n        /* \"#utility.yul\":3906:3910   */\n      0x1f\n        /* \"#utility.yul\":3898:3904   */\n      dup5\n        /* \"#utility.yul\":3894:3911   */\n      add\n        /* \"#utility.yul\":3890:3917   */\n      slt\n        /* \"#utility.yul\":3880:4002   */\n      tag_98\n      jumpi\n        /* \"#utility.yul\":3921:4000   */\n      tag_99\n      tag_33\n      jump\t// in\n    tag_99:\n        /* \"#utility.yul\":3880:4002   */\n    tag_98:\n        /* \"#utility.yul\":4034:4040   */\n      dup3\n        /* \"#utility.yul\":4021:4041   */\n      calldataload\n        /* \"#utility.yul\":4011:4041   */\n      swap1\n      pop\n        /* \"#utility.yul\":4064:4082   */\n      0xffffffffffffffff\n        /* \"#utility.yul\":4056:4062   */\n      dup2\n        /* \"#utility.yul\":4053:4083   */\n      gt\n        /* \"#utility.yul\":4050:4167   */\n      iszero\n      tag_100\n      jumpi\n        /* \"#utility.yul\":4086:4165   */\n      tag_101\n      tag_45\n      jump\t// in\n    tag_101:\n        /* \"#utility.yul\":4050:4167   */\n    tag_100:\n        /* \"#utility.yul\":4200:4204   */\n      0x20\n        /* \"#utility.yul\":4192:4198   */\n      dup4\n        /* \"#utility.yul\":4188:4205   */\n      add\n        /* \"#utility.yul\":4176:4205   */\n      swap2\n      pop\n        /* \"#utility.yul\":4254:4257   */\n      dup4\n        /* \"#utility.yul\":4246:4250   */\n      0x20\n        /* \"#utility.yul\":4238:4244   */\n      dup3\n        /* \"#utility.yul\":4234:4251   */\n      mul\n        /* \"#utility.yul\":4224:4232   */\n      dup4\n        /* \"#utility.yul\":4220:4252   */\n      add\n        /* \"#utility.yul\":4217:4258   */\n      gt\n        /* \"#utility.yul\":4214:4342   */\n      iszero\n      tag_102\n      jumpi\n        /* \"#utility.yul\":4261:4340   */\n      tag_103\n      tag_39\n      jump\t// in\n    tag_103:\n        /* \"#utility.yul\":4214:4342   */\n    tag_102:\n        /* \"#utility.yul\":3780:4348   */\n      swap3\n      pop\n      swap3\n      swap1\n      pop\n      jump\t// out\n        /* \"#utility.yul\":4354:4913   */\n    tag_13:\n        /* \"#utility.yul\":4440:4446   */\n      0x00\n        /* \"#utility.yul\":4448:4454   */\n      dup1\n        /* \"#utility.yul\":4497:4499   */\n      0x20\n        /* \"#utility.yul\":4485:4494   */\n      dup4\n        /* \"#utility.yul\":4476:4483   */\n      dup6\n        /* \"#utility.yul\":4472:4495   */\n      sub\n        /* \"#utility.yul\":4468:4500   */\n      slt\n        /* \"#utility.yul\":4465:4584   */\n      iszero\n      tag_105\n      jumpi\n        /* \"#utility.yul\":4503:4582   */\n      tag_106\n      tag_31\n      jump\t// in\n    tag_106:\n        /* \"#utility.yul\":4465:4584   */\n    tag_105:\n        /* \"#utility.yul\":4651:4652   */\n      0x00\n        /* \"#utility.yul\":4640:4649   */\n      dup4\n        /* \"#utility.yul\":4636:4653   */\n      add\n        /* \"#utility.yul\":4623:4654   */\n      calldataload\n        /* \"#utility.yul\":4681:4699   */\n      0xffffffffffffffff\n        /* \"#utility.yul\":4673:4679   */\n      dup2\n        /* \"#utility.yul\":4670:4700   */\n      gt\n        /* \"#utility.yul\":4667:4784   */\n      iszero\n      tag_107\n      jumpi\n        /* \"#utility.yul\":4703:4782   */\n      tag_108\n      tag_32\n      jump\t// in\n    tag_108:\n        /* \"#utility.yul\":4667:4784   */\n    tag_107:\n        /* \"#utility.yul\":4816:4896   */\n      tag_109\n        /* \"#utility.yul\":4888:4895   */\n      dup6\n        /* \"#utility.yul\":4879:4885   */\n      dup3\n        /* \"#utility.yul\":4868:4877   */\n      dup7\n        /* \"#utility.yul\":4864:4886   */\n      add\n        /* \"#utility.yul\":4816:4896   */\n      tag_46\n      jump\t// in\n    tag_109:\n        /* \"#utility.yul\":4798:4896   */\n      swap3\n      pop\n      swap3\n      pop\n        /* \"#utility.yul\":4594:4906   */\n      pop\n        /* \"#utility.yul\":4354:4913   */\n      swap3\n      pop\n      swap3\n      swap1\n      pop\n      jump\t// out\n        /* \"#utility.yul\":4919:5036   */\n    tag_47:\n        /* \"#utility.yul\":5028:5029   */\n      0x00\n        /* \"#utility.yul\":5025:5026   */\n      dup1\n        /* \"#utility.yul\":5018:5030   */\n      revert\n        /* \"#utility.yul\":5042:5350   */\n    tag_48:\n        /* \"#utility.yul\":5104:5108   */\n      0x00\n        /* \"#utility.yul\":5194:5212   */\n      0xffffffffffffffff\n        /* \"#utility.yul\":5186:5192   */\n      dup3\n        /* \"#utility.yul\":5183:5213   */\n      gt\n        /* \"#utility.yul\":5180:5236   */\n      iszero\n      tag_112\n      jumpi\n        /* \"#utility.yul\":5216:5234   */\n      tag_113\n      tag_35\n      jump\t// in\n    tag_113:\n        /* \"#utility.yul\":5180:5236   */\n    tag_112:\n        /* \"#utility.yul\":5254:5283   */\n      tag_114\n        /* \"#utility.yul\":5276:5282   */\n      dup3\n        /* \"#utility.yul\":5254:5283   */\n      tag_34\n      jump\t// in\n    tag_114:\n        /* \"#utility.yul\":5246:5283   */\n      swap1\n      pop\n        /* \"#utility.yul\":5338:5342   */\n      0x20\n        /* \"#utility.yul\":5332:5336   */\n      dup2\n        /* \"#utility.yul\":5328:5343   */\n      add\n        /* \"#utility.yul\":5320:5343   */\n      swap1\n      pop\n        /* \"#utility.yul\":5042:5350   */\n      swap2\n      swap1\n      pop\n      jump\t// out\n        /* \"#utility.yul\":5356:5502   */\n    tag_49:\n        /* \"#utility.yul\":5453:5459   */\n      dup3\n        /* \"#utility.yul\":5448:5451   */\n      dup2\n        /* \"#utility.yul\":5443:5446   */\n      dup4\n        /* \"#utility.yul\":5430:5460   */\n      calldatacopy\n        /* \"#utility.yul\":5494:5495   */\n      0x00\n        /* \"#utility.yul\":5485:5491   */\n      dup4\n        /* \"#utility.yul\":5480:5483   */\n      dup4\n        /* \"#utility.yul\":5476:5492   */\n      add\n        /* \"#utility.yul\":5469:5496   */\n      mstore\n        /* \"#utility.yul\":5356:5502   */\n      pop\n      pop\n      pop\n      jump\t// out\n        /* \"#utility.yul\":5508:5933   */\n    tag_50:\n        /* \"#utility.yul\":5586:5591   */\n      0x00\n        /* \"#utility.yul\":5611:5677   */\n      tag_117\n        /* \"#utility.yul\":5627:5676   */\n      tag_118\n        /* \"#utility.yul\":5669:5675   */\n      dup5\n        /* \"#utility.yul\":5627:5676   */\n      tag_48\n      jump\t// in\n    tag_118:\n        /* \"#utility.yul\":5611:5677   */\n      tag_37\n      jump\t// in\n    tag_117:\n        /* \"#utility.yul\":5602:5677   */\n      swap1\n      pop\n        /* \"#utility.yul\":5700:5706   */\n      dup3\n        /* \"#utility.yul\":5693:5698   */\n      dup2\n        /* \"#utility.yul\":5686:5707   */\n      mstore\n        /* \"#utility.yul\":5738:5742   */\n      0x20\n        /* \"#utility.yul\":5731:5736   */\n      dup2\n        /* \"#utility.yul\":5727:5743   */\n      add\n        /* \"#utility.yul\":5776:5779   */\n      dup5\n        /* \"#utility.yul\":5767:5773   */\n      dup5\n        /* \"#utility.yul\":5762:5765   */\n      dup5\n        /* \"#utility.yul\":5758:5774   */\n      add\n        /* \"#utility.yul\":5755:5780   */\n      gt\n        /* \"#utility.yul\":5752:5864   */\n      iszero\n      tag_119\n      jumpi\n        /* \"#utility.yul\":5783:5862   */\n      tag_120\n      tag_47\n      jump\t// in\n    tag_120:\n        /* \"#utility.yul\":5752:5864   */\n    tag_119:\n        /* \"#utility.yul\":5873:5927   */\n      tag_121\n        /* \"#utility.yul\":5920:5926   */\n      dup5\n        /* \"#utility.yul\":5915:5918   */\n      dup3\n        /* \"#utility.yul\":5910:5913   */\n      dup6\n        /* \"#utility.yul\":5873:5927   */\n      tag_49\n      jump\t// in\n    tag_121:\n        /* \"#utility.yul\":5592:5933   */\n      pop\n        /* \"#utility.yul\":5508:5933   */\n      swap4\n      swap3\n      pop\n      pop\n      pop\n      jump\t// out\n        /* \"#utility.yul\":5953:6293   */\n    tag_51:\n        /* \"#utility.yul\":6009:6014   */\n      0x00\n        /* \"#utility.yul\":6058:6061   */\n      dup3\n        /* \"#utility.yul\":6051:6055   */\n      0x1f\n        /* \"#utility.yul\":6043:6049   */\n      dup4\n        /* \"#utility.yul\":6039:6056   */\n      add\n        /* \"#utility.yul\":6035:6062   */\n      slt\n        /* \"#utility.yul\":6025:6147   */\n      tag_123\n      jumpi\n        /* \"#utility.yul\":6066:6145   */\n      tag_124\n      tag_33\n      jump\t// in\n    tag_124:\n        /* \"#utility.yul\":6025:6147   */\n    tag_123:\n        /* \"#utility.yul\":6183:6189   */\n      dup2\n        /* \"#utility.yul\":6170:6190   */\n      calldataload\n        /* \"#utility.yul\":6208:6287   */\n      tag_125\n        /* \"#utility.yul\":6283:6286   */\n      dup5\n        /* \"#utility.yul\":6275:6281   */\n      dup3\n        /* \"#utility.yul\":6268:6272   */\n      0x20\n        /* \"#utility.yul\":6260:6266   */\n      dup7\n        /* \"#utility.yul\":6256:6273   */\n      add\n        /* \"#utility.yul\":6208:6287   */\n      tag_50\n      jump\t// in\n    tag_125:\n        /* \"#utility.yul\":6199:6287   */\n      swap2\n      pop\n        /* \"#utility.yul\":6015:6293   */\n      pop\n        /* \"#utility.yul\":5953:6293   */\n      swap3\n      swap2\n      pop\n      pop\n      jump\t// out\n        /* \"#utility.yul\":6299:7163   */\n    tag_17:\n        /* \"#utility.yul\":6402:6408   */\n      0x00\n        /* \"#utility.yul\":6410:6416   */\n      dup1\n        /* \"#utility.yul\":6459:6461   */\n      0x40\n        /* \"#utility.yul\":6447:6456   */\n      dup4\n        /* \"#utility.yul\":6438:6445   */\n      dup6\n        /* \"#utility.yul\":6434:6457   */\n      sub\n        /* \"#utility.yul\":6430:6462   */\n      slt\n        /* \"#utility.yul\":6427:6546   */\n      iszero\n      tag_127\n      jumpi\n        /* \"#utility.yul\":6465:6544   */\n      tag_128\n      tag_31\n      jump\t// in\n    tag_128:\n        /* \"#utility.yul\":6427:6546   */\n    tag_127:\n        /* \"#utility.yul\":6613:6614   */\n      0x00\n        /* \"#utility.yul\":6602:6611   */\n      dup4\n        /* \"#utility.yul\":6598:6615   */\n      add\n        /* \"#utility.yul\":6585:6616   */\n      calldataload\n        /* \"#utility.yul\":6643:6661   */\n      0xffffffffffffffff\n        /* \"#utility.yul\":6635:6641   */\n      dup2\n        /* \"#utility.yul\":6632:6662   */\n      gt\n        /* \"#utility.yul\":6629:6746   */\n      iszero\n      tag_129\n      jumpi\n        /* \"#utility.yul\":6665:6744   */\n      tag_130\n      tag_32\n      jump\t// in\n    tag_130:\n        /* \"#utility.yul\":6629:6746   */\n    tag_129:\n        /* \"#utility.yul\":6770:6833   */\n      tag_131\n        /* \"#utility.yul\":6825:6832   */\n      dup6\n        /* \"#utility.yul\":6816:6822   */\n      dup3\n        /* \"#utility.yul\":6805:6814   */\n      dup7\n        /* \"#utility.yul\":6801:6823   */\n      add\n        /* \"#utility.yul\":6770:6833   */\n      tag_51\n      jump\t// in\n    tag_131:\n        /* \"#utility.yul\":6760:6833   */\n      swap3\n      pop\n        /* \"#utility.yul\":6556:6843   */\n      pop\n        /* \"#utility.yul\":6910:6912   */\n      0x20\n        /* \"#utility.yul\":6899:6908   */\n      dup4\n        /* \"#utility.yul\":6895:6913   */\n      add\n        /* \"#utility.yul\":6882:6914   */\n      calldataload\n        /* \"#utility.yul\":6941:6959   */\n      0xffffffffffffffff\n        /* \"#utility.yul\":6933:6939   */\n      dup2\n        /* \"#utility.yul\":6930:6960   */\n      gt\n        /* \"#utility.yul\":6927:7044   */\n      iszero\n      tag_132\n      jumpi\n        /* \"#utility.yul\":6963:7042   */\n      tag_133\n      tag_32\n      jump\t// in\n    tag_133:\n        /* \"#utility.yul\":6927:7044   */\n    tag_132:\n        /* \"#utility.yul\":7068:7146   */\n      tag_134\n        /* \"#utility.yul\":7138:7145   */\n      dup6\n        /* \"#utility.yul\":7129:7135   */\n      dup3\n        /* \"#utility.yul\":7118:7127   */\n      dup7\n        /* \"#utility.yul\":7114:7136   */\n      add\n        /* \"#utility.yul\":7068:7146   */\n      tag_44\n      jump\t// in\n    tag_134:\n        /* \"#utility.yul\":7058:7146   */\n      swap2\n      pop\n        /* \"#utility.yul\":6853:7156   */\n      pop\n        /* \"#utility.yul\":6299:7163   */\n      swap3\n      pop\n      swap3\n      swap1\n      pop\n      jump\t// out\n        /* \"#utility.yul\":7183:7736   */\n    tag_52:\n        /* \"#utility.yul\":7241:7249   */\n      0x00\n        /* \"#utility.yul\":7251:7257   */\n      dup1\n        /* \"#utility.yul\":7301:7304   */\n      dup4\n        /* \"#utility.yul\":7294:7298   */\n      0x1f\n        /* \"#utility.yul\":7286:7292   */\n      dup5\n        /* \"#utility.yul\":7282:7299   */\n      add\n        /* \"#utility.yul\":7278:7305   */\n      slt\n        /* \"#utility.yul\":7268:7390   */\n      tag_136\n      jumpi\n        /* \"#utility.yul\":7309:7388   */\n      tag_137\n      tag_33\n      jump\t// in\n    tag_137:\n        /* \"#utility.yul\":7268:7390   */\n    tag_136:\n        /* \"#utility.yul\":7422:7428   */\n      dup3\n        /* \"#utility.yul\":7409:7429   */\n      calldataload\n        /* \"#utility.yul\":7399:7429   */\n      swap1\n      pop\n        /* \"#utility.yul\":7452:7470   */\n      0xffffffffffffffff\n        /* \"#utility.yul\":7444:7450   */\n      dup2\n        /* \"#utility.yul\":7441:7471   */\n      gt\n        /* \"#utility.yul\":7438:7555   */\n      iszero\n      tag_138\n      jumpi\n        /* \"#utility.yul\":7474:7553   */\n      tag_139\n      tag_45\n      jump\t// in\n    tag_139:\n        /* \"#utility.yul\":7438:7555   */\n    tag_138:\n        /* \"#utility.yul\":7588:7592   */\n      0x20\n        /* \"#utility.yul\":7580:7586   */\n      dup4\n        /* \"#utility.yul\":7576:7593   */\n      add\n        /* \"#utility.yul\":7564:7593   */\n      swap2\n      pop\n        /* \"#utility.yul\":7642:7645   */\n      dup4\n        /* \"#utility.yul\":7634:7638   */\n      0x01\n        /* \"#utility.yul\":7626:7632   */\n      dup3\n        /* \"#utility.yul\":7622:7639   */\n      mul\n        /* \"#utility.yul\":7612:7620   */\n      dup4\n        /* \"#utility.yul\":7608:7640   */\n      add\n        /* \"#utility.yul\":7605:7646   */\n      gt\n        /* \"#utility.yul\":7602:7730   */\n      iszero\n      tag_140\n      jumpi\n        /* \"#utility.yul\":7649:7728   */\n      tag_141\n      tag_39\n      jump\t// in\n    tag_141:\n        /* \"#utility.yul\":7602:7730   */\n    tag_140:\n        /* \"#utility.yul\":7183:7736   */\n      swap3\n      pop\n      swap3\n      swap1\n      pop\n      jump\t// out\n        /* \"#utility.yul\":7742:8646   */\n    tag_21:\n        /* \"#utility.yul\":7849:7855   */\n      0x00\n        /* \"#utility.yul\":7857:7863   */\n      dup1\n        /* \"#utility.yul\":7865:7871   */\n      0x00\n        /* \"#utility.yul\":7873:7879   */\n      dup1\n        /* \"#utility.yul\":7922:7924   */\n      0x40\n        /* \"#utility.yul\":7910:7919   */\n      dup6\n        /* \"#utility.yul\":7901:7908   */\n      dup8\n        /* \"#utility.yul\":7897:7920   */\n      sub\n        /* \"#utility.yul\":7893:7925   */\n      slt\n        /* \"#utility.yul\":7890:8009   */\n      iszero\n      tag_143\n      jumpi\n        /* \"#utility.yul\":7928:8007   */\n      tag_144\n      tag_31\n      jump\t// in\n    tag_144:\n        /* \"#utility.yul\":7890:8009   */\n    tag_143:\n        /* \"#utility.yul\":8076:8077   */\n      0x00\n        /* \"#utility.yul\":8065:8074   */\n      dup6\n        /* \"#utility.yul\":8061:8078   */\n      add\n        /* \"#utility.yul\":8048:8079   */\n      calldataload\n        /* \"#utility.yul\":8106:8124   */\n      0xffffffffffffffff\n        /* \"#utility.yul\":8098:8104   */\n      dup2\n        /* \"#utility.yul\":8095:8125   */\n      gt\n        /* \"#utility.yul\":8092:8209   */\n      iszero\n      tag_145\n      jumpi\n        /* \"#utility.yul\":8128:8207   */\n      tag_146\n      tag_32\n      jump\t// in\n    tag_146:\n        /* \"#utility.yul\":8092:8209   */\n    tag_145:\n        /* \"#utility.yul\":8241:8306   */\n      tag_147\n        /* \"#utility.yul\":8298:8305   */\n      dup8\n        /* \"#utility.yul\":8289:8295   */\n      dup3\n        /* \"#utility.yul\":8278:8287   */\n      dup9\n        /* \"#utility.yul\":8274:8296   */\n      add\n        /* \"#utility.yul\":8241:8306   */\n      tag_52\n      jump\t// in\n    tag_147:\n        /* \"#utility.yul\":8223:8306   */\n      swap5\n      pop\n      swap5\n      pop\n        /* \"#utility.yul\":8019:8316   */\n      pop\n        /* \"#utility.yul\":8383:8385   */\n      0x20\n        /* \"#utility.yul\":8372:8381   */\n      dup6\n        /* \"#utility.yul\":8368:8386   */\n      add\n        /* \"#utility.yul\":8355:8387   */\n      calldataload\n        /* \"#utility.yul\":8414:8432   */\n      0xffffffffffffffff\n        /* \"#utility.yul\":8406:8412   */\n      dup2\n        /* \"#utility.yul\":8403:8433   */\n      gt\n        /* \"#utility.yul\":8400:8517   */\n      iszero\n      tag_148\n      jumpi\n        /* \"#utility.yul\":8436:8515   */\n      tag_149\n      tag_32\n      jump\t// in\n    tag_149:\n        /* \"#utility.yul\":8400:8517   */\n    tag_148:\n        /* \"#utility.yul\":8549:8629   */\n      tag_150\n        /* \"#utility.yul\":8621:8628   */\n      dup8\n        /* \"#utility.yul\":8612:8618   */\n      dup3\n        /* \"#utility.yul\":8601:8610   */\n      dup9\n        /* \"#utility.yul\":8597:8619   */\n      add\n        /* \"#utility.yul\":8549:8629   */\n      tag_46\n      jump\t// in\n    tag_150:\n        /* \"#utility.yul\":8531:8629   */\n      swap3\n      pop\n      swap3\n      pop\n        /* \"#utility.yul\":8326:8639   */\n      pop\n        /* \"#utility.yul\":7742:8646   */\n      swap3\n      swap6\n      swap2\n      swap5\n      pop\n      swap3\n      pop\n      jump\t// out\n\n    auxdata: 0xa2646970667358221220b1577a3bb58fef6572d039e3baa06b1e528e5366d816b75962ce1afa6be94aeb64736f6c63430008120033\n}\n",
				"bytecode": {
					"linkReferences": {},
					"object": "608060405234801561001057600080fd5b506105fd806100206000396000f3fe608060405234801561001057600080fd5b506004361061004c5760003560e01c806324724c51146100515780639a5167581461006d578063a8fc48fa14610089578063fae9407f146100a5575b600080fd5b61006b600480360381019061006691906102d2565b6100c1565b005b61008760048036038101906100829190610376565b6100c4565b005b6100a3600480360381019061009e9190610478565b6100c8565b005b6100bf60048036038101906100ba9190610546565b6100d5565b005b50565b5050565b6100d1816100c1565b5050565b61011f828280806020026020016040519081016040528093929190818152602001838360200280828437600081840152601f19601f820116905080830192505050505050506100c1565b61012982826100c4565b50505050565b6000604051905090565b600080fd5b600080fd5b600080fd5b6000601f19601f8301169050919050565b7f4e487b7100000000000000000000000000000000000000000000000000000000600052604160045260246000fd5b61019182610148565b810181811067ffffffffffffffff821117156101b0576101af610159565b5b80604052505050565b60006101c361012f565b90506101cf8282610188565b919050565b600067ffffffffffffffff8211156101ef576101ee610159565b5b602082029050602081019050919050565b600080fd5b6000819050919050565b61021881610205565b811461022357600080fd5b50565b6000813590506102358161020f565b92915050565b600061024e610249846101d4565b6101b9565b9050808382526020820190506020840283018581111561027157610270610200565b5b835b8181101561029a57806102868882610226565b845260208401935050602081019050610273565b5050509392505050565b600082601f8301126102b9576102b8610143565b5b81356102c984826020860161023b565b91505092915050565b6000602082840312156102e8576102e7610139565b5b600082013567ffffffffffffffff8111156103065761030561013e565b5b610312848285016102a4565b91505092915050565b600080fd5b60008083601f84011261033657610335610143565b5b8235905067ffffffffffffffff8111156103535761035261031b565b5b60208301915083602082028301111561036f5761036e610200565b5b9250929050565b6000806020838503121561038d5761038c610139565b5b600083013567ffffffffffffffff8111156103ab576103aa61013e565b5b6103b785828601610320565b92509250509250929050565b600080fd5b600067ffffffffffffffff8211156103e3576103e2610159565b5b6103ec82610148565b9050602081019050919050565b82818337600083830152505050565b600061041b610416846103c8565b6101b9565b905082815260208101848484011115610437576104366103c3565b5b6104428482856103f9565b509392505050565b600082601f83011261045f5761045e610143565b5b813561046f848260208601610408565b91505092915050565b6000806040838503121561048f5761048e610139565b5b600083013567ffffffffffffffff8111156104ad576104ac61013e565b5b6104b98582860161044a565b925050602083013567ffffffffffffffff8111156104da576104d961013e565b5b6104e6858286016102a4565b9150509250929050565b60008083601f84011261050657610505610143565b5b8235905067ffffffffffffffff8111156105235761052261031b565b5b60208301915083600182028301111561053f5761053e610200565b5b9250929050565b600080600080604085870312156105605761055f610139565b5b600085013567ffffffffffffffff81111561057e5761057d61013e565b5b61058a878288016104f0565b9450945050602085013567ffffffffffffffff8111156105ad576105ac61013e565b5b6105b987828801610320565b92509250509295919450925056fea2646970667358221220b1577a3bb58fef6572d039e3baa06b1e528e5366d816b75962ce1afa6be94aeb64736f6c63430008120033",
					"opcodes": "PUSH1 0x80 PUSH1 0x40 MSTORE CALLVALUE DUP1 ISZERO PUSH2 0x10 JUMPI PUSH1 0x0 DUP1 REVERT JUMPDEST POP PUSH2 0x5FD DUP1 PUSH2 0x20 PUSH1 0x0 CODECOPY PUSH1 0x0 RETURN INVALID PUSH1 0x80 PUSH1 0x40 MSTORE CALLVALUE DUP1 ISZERO PUSH2 0x10 JUMPI PUSH1 0x0 DUP1 REVERT JUMPDEST POP PUSH1 0x4 CALLDATASIZE LT PUSH2 0x4C JUMPI PUSH1 0x0 CALLDATALOAD PUSH1 0xE0 SHR DUP1 PUSH4 0x24724C51 EQ PUSH2 0x51 JUMPI DUP1 PUSH4 0x9A516758 EQ PUSH2 0x6D JUMPI DUP1 PUSH4 0xA8FC48FA EQ PUSH2 0x89 JUMPI DUP1 PUSH4 0xFAE9407F EQ PUSH2 0xA5 JUMPI JUMPDEST PUSH1 0x0 DUP1 REVERT JUMPDEST PUSH2 0x6B PUSH1 0x4 DUP1 CALLDATASIZE SUB DUP2 ADD SWAP1 PUSH2 0x66 SWAP2 SWAP1 PUSH2 0x2D2 JUMP JUMPDEST PUSH2 0xC1 JUMP JUMPDEST STOP JUMPDEST PUSH2 0x87 PUSH1 0x4 DUP1 CALLDATASIZE SUB DUP2 ADD SWAP1 PUSH2 0x82 SWAP2 SWAP1 PUSH2 0x376 JUMP JUMPDEST PUSH2 0xC4 JUMP JUMPDEST STOP JUMPDEST PUSH2 0xA3 PUSH1 0x4 DUP1 CALLDATASIZE SUB DUP2 ADD SWAP1 PUSH2 0x9E SWAP2 SWAP1 PUSH2 0x478 JUMP JUMPDEST PUSH2 0xC8 JUMP JUMPDEST STOP JUMPDEST PUSH2 0xBF PUSH1 0x4 DUP1 CALLDATASIZE SUB DUP2 ADD SWAP1 PUSH2 0xBA SWAP2 SWAP1 PUSH2 0x546 JUMP JUMPDEST PUSH2 0xD5 JUMP JUMPDEST STOP JUMPDEST POP JUMP JUMPDEST POP POP JUMP JUMPDEST PUSH2 0xD1 DUP2 PUSH2 0xC1 JUMP JUMPDEST POP POP JUMP JUMPDEST PUSH2 0x11F DUP3 DUP3 DUP1 DUP1 PUSH1 0x20 MUL PUSH1 0x20 ADD PUSH1 0x40 MLOAD SWAP1 DUP2 ADD PUSH1 0x40 MSTORE DUP1 SWAP4 SWAP3 SWAP2 SWAP1 DUP2 DUP2 MSTORE PUSH1 0x20 ADD DUP4 DUP4 PUSH1 0x20 MUL DUP1 DUP3 DUP5 CALLDATACOPY PUSH1 0x0 DUP2 DUP5 ADD MSTORE PUSH1 0x1F NOT PUSH1 0x1F DUP3 ADD AND SWAP1 POP DUP1 DUP4 ADD SWAP3 POP POP POP POP POP POP POP PUSH2 0xC1 JUMP JUMPDEST PUSH2 0x129 DUP3 DUP3 PUSH2 0xC4 JUMP JUMPDEST POP POP POP POP JUMP JUMPDEST PUSH1 0x0 PUSH1 0x40 MLOAD SWAP1 POP SWAP1 JUMP JUMPDEST PUSH1 0x0 DUP1 REVERT JUMPDEST PUSH1 0x0 DUP1 REVERT JUMPDEST PUSH1 0x0 DUP1 REVERT JUMPDEST PUSH1 0x0 PUSH1 0x1F NOT PUSH1 0x1F DUP4 ADD AND SWAP1 POP SWAP2 SWAP1 POP JUMP JUMPDEST PUSH32 0x4E487B7100000000000000000000000000000000000000000000000000000000 PUSH1 0x0 MSTORE PUSH1 0x41 PUSH1 0x4 MSTORE PUSH1 0x24 PUSH1 0x0 REVERT JUMPDEST PUSH2 0x191 DUP3 PUSH2 0x148 JUMP JUMPDEST DUP2 ADD DUP2 DUP2 LT PUSH8 0xFFFFFFFFFFFFFFFF DUP3 GT OR ISZERO PUSH2 0x1B0 JUMPI PUSH2 0x1AF PUSH2 0x159 JUMP JUMPDEST JUMPDEST DUP1 PUSH1 0x40 MSTORE POP POP POP JUMP JUMPDEST PUSH1 0x0 PUSH2 0x1C3 PUSH2 0x12F JUMP JUMPDEST SWAP1 POP PUSH2 0x1CF DUP3 DUP3 PUSH2 0x188 JUMP JUMPDEST SWAP2 SWAP1 POP JUMP JUMPDEST PUSH1 0x0 PUSH8 0xFFFFFFFFFFFFFFFF DUP3 GT ISZERO PUSH2 0x1EF JUMPI PUSH2 0x1EE PUSH2 0x159 JUMP JUMPDEST JUMPDEST PUSH1 0x20 DUP3 MUL SWAP1 POP PUSH1 0x20 DUP2 ADD SWAP1 POP SWAP2 SWAP1 POP JUMP JUMPDEST PUSH1 0x0 DUP1 REVERT JUMPDEST PUSH1 0x0 DUP2 SWAP1 POP SWAP2 SWAP1 POP JUMP JUMPDEST PUSH2 0x218 DUP2 PUSH2 0x205 JUMP JUMPDEST DUP2 EQ PUSH2 0x223 JUMPI PUSH1 0x0 DUP1 REVERT JUMPDEST POP JUMP JUMPDEST PUSH1 0x0 DUP2 CALLDATALOAD SWAP1 POP PUSH2 0x235 DUP2 PUSH2 0x20F JUMP JUMPDEST SWAP3 SWAP2 POP POP JUMP JUMPDEST PUSH1 0x0 PUSH2 0x24E PUSH2 0x249 DUP5 PUSH2 0x1D4 JUMP JUMPDEST PUSH2 0x1B9 JUMP JUMPDEST SWAP1 POP DUP1 DUP4 DUP3 MSTORE PUSH1 0x20 DUP3 ADD SWAP1 POP PUSH1 0x20 DUP5 MUL DUP4 ADD DUP6 DUP2 GT ISZERO PUSH2 0x271 JUMPI PUSH2 0x270 PUSH2 0x200 JUMP JUMPDEST JUMPDEST DUP4 JUMPDEST DUP2 DUP2 LT ISZERO PUSH2 0x29A JUMPI DUP1 PUSH2 0x286 DUP9 DUP3 PUSH2 0x226 JUMP JUMPDEST DUP5 MSTORE PUSH1 0x20 DUP5 ADD SWAP4 POP POP PUSH1 0x20 DUP2 ADD SWAP1 POP PUSH2 0x273 JUMP JUMPDEST POP POP POP SWAP4 SWAP3 POP POP POP JUMP JUMPDEST PUSH1 0x0 DUP3 PUSH1 0x1F DUP4 ADD SLT PUSH2 0x2B9 JUMPI PUSH2 0x2B8 PUSH2 0x143 JUMP JUMPDEST JUMPDEST DUP2 CALLDATALOAD PUSH2 0x2C9 DUP5 DUP3 PUSH1 0x20 DUP7 ADD PUSH2 0x23B JUMP JUMPDEST SWAP2 POP POP SWAP3 SWAP2 POP POP JUMP JUMPDEST PUSH1 0x0 PUSH1 0x20 DUP3 DUP5 SUB SLT ISZERO PUSH2 0x2E8 JUMPI PUSH2 0x2E7 PUSH2 0x139 JUMP JUMPDEST JUMPDEST PUSH1 0x0 DUP3 ADD CALLDATALOAD PUSH8 0xFFFFFFFFFFFFFFFF DUP2 GT ISZERO PUSH2 0x306 JUMPI PUSH2 0x305 PUSH2 0x13E JUMP JUMPDEST JUMPDEST PUSH2 0x312 DUP5 DUP3 DUP6 ADD PUSH2 0x2A4 JUMP JUMPDEST SWAP2 POP POP SWAP3 SWAP2 POP POP JUMP JUMPDEST PUSH1 0x0 DUP1 REVERT JUMPDEST PUSH1 0x0 DUP1 DUP4 PUSH1 0x1F DUP5 ADD SLT PUSH2 0x336 JUMPI PUSH2 0x335 PUSH2 0x143 JUMP JUMPDEST JUMPDEST DUP3 CALLDATALOAD SWAP1 POP PUSH8 0xFFFFFFFFFFFFFFFF DUP2 GT ISZERO PUSH2 0x353 JUMPI PUSH2 0x352 PUSH2 0x31B JUMP JUMPDEST JUMPDEST PUSH1 0x20 DUP4 ADD SWAP2 POP DUP4 PUSH1 0x20 DUP3 MUL DUP4 ADD GT ISZERO PUSH2 0x36F JUMPI PUSH2 0x36E PUSH2 0x200 JUMP JUMPDEST JUMPDEST SWAP3 POP SWAP3 SWAP1 POP JUMP JUMPDEST PUSH1 0x0 DUP1 PUSH1 0x20 DUP4 DUP6 SUB SLT ISZERO PUSH2 0x38D JUMPI PUSH2 0x38C PUSH2 0x139 JUMP JUMPDEST JUMPDEST PUSH1 0x0 DUP4 ADD CALLDATALOAD PUSH8 0xFFFFFFFFFFFFFFFF DUP2 GT ISZERO PUSH2 0x3AB JUMPI PUSH2 0x3AA PUSH2 0x13E JUMP JUMPDEST JUMPDEST PUSH2 0x3B7 DUP6 DUP3 DUP7 ADD PUSH2 0x320 JUMP JUMPDEST SWAP3 POP SWAP3 POP POP SWAP3 POP SWAP3 SWAP1 POP JUMP JUMPDEST PUSH1 0x0 DUP1 REVERT JUMPDEST PUSH1 0x0 PUSH8 0xFFFFFFFFFFFFFFFF DUP3 GT ISZERO PUSH2 0x3E3 JUMPI PUSH2 0x3E2 PUSH2 0x159 JUMP JUMPDEST JUMPDEST PUSH2 0x3EC DUP3 PUSH2 0x148 JUMP JUMPDEST SWAP1 POP PUSH1 0x20 DUP2 ADD SWAP1 POP SWAP2 SWAP1 POP JUMP JUMPDEST DUP3 DUP2 DUP4 CALLDATACOPY PUSH1 0x0 DUP4 DUP4 ADD MSTORE POP POP POP JUMP JUMPDEST PUSH1 0x0 PUSH2 0x41B PUSH2 0x416 DUP5 PUSH2 0x3C8 JUMP JUMPDEST PUSH2 0x1B9 JUMP JUMPDEST SWAP1 POP DUP3 DUP2 MSTORE PUSH1 0x20 DUP2 ADD DUP5 DUP5 DUP5 ADD GT ISZERO PUSH2 0x437 JUMPI PUSH2 0x436 PUSH2 0x3C3 JUMP JUMPDEST JUMPDEST PUSH2 0x442 DUP5 DUP3 DUP6 PUSH2 0x3F9 JUMP JUMPDEST POP SWAP4 SWAP3 POP POP POP JUMP JUMPDEST PUSH1 0x0 DUP3 PUSH1 0x1F DUP4 ADD SLT PUSH2 0x45F JUMPI PUSH2 0x45E PUSH2 0x143 JUMP JUMPDEST JUMPDEST DUP2 CALLDATALOAD PUSH2 0x46F DUP5 DUP3 PUSH1 0x20 DUP7 ADD PUSH2 0x408 JUMP JUMPDEST SWAP2 POP POP SWAP3 SWAP2 POP POP JUMP JUMPDEST PUSH1 0x0 DUP1 PUSH1 0x40 DUP4 DUP6 SUB SLT ISZERO PUSH2 0x48F JUMPI PUSH2 0x48E PUSH2 0x139 JUMP JUMPDEST JUMPDEST PUSH1 0x0 DUP4 ADD CALLDATALOAD PUSH8 0xFFFFFFFFFFFFFFFF DUP2 GT ISZERO PUSH2 0x4AD JUMPI PUSH2 0x4AC PUSH2 0x13E JUMP JUMPDEST JUMPDEST PUSH2 0x4B9 DUP6 DUP3 DUP7 ADD PUSH2 0x44A JUMP JUMPDEST SWAP3 POP POP PUSH1 0x20 DUP4 ADD CALLDATALOAD PUSH8 0xFFFFFFFFFFFFFFFF DUP2 GT ISZERO PUSH2 0x4DA JUMPI PUSH2 0x4D9 PUSH2 0x13E JUMP JUMPDEST JUMPDEST PUSH2 0x4E6 DUP6 DUP3 DUP7 ADD PUSH2 0x2A4 JUMP JUMPDEST SWAP2 POP POP SWAP3 POP SWAP3 SWAP1 POP JUMP JUMPDEST PUSH1 0x0 DUP1 DUP4 PUSH1 0x1F DUP5 ADD SLT PUSH2 0x506 JUMPI PUSH2 0x505 PUSH2 0x143 JUMP JUMPDEST JUMPDEST DUP3 CALLDATALOAD SWAP1 POP PUSH8 0xFFFFFFFFFFFFFFFF DUP2 GT ISZERO PUSH2 0x523 JUMPI PUSH2 0x522 PUSH2 0x31B JUMP JUMPDEST JUMPDEST PUSH1 0x20 DUP4 ADD SWAP2 POP DUP4 PUSH1 0x1 DUP3 MUL DUP4 ADD GT ISZERO PUSH2 0x53F JUMPI PUSH2 0x53E PUSH2 0x200 JUMP JUMPDEST JUMPDEST SWAP3 POP SWAP3 SWAP1 POP JUMP JUMPDEST PUSH1 0x0 DUP1 PUSH1 0x0 DUP1 PUSH1 0x40 DUP6 DUP8 SUB SLT ISZERO PUSH2 0x560 JUMPI PUSH2 0x55F PUSH2 0x139 JUMP JUMPDEST JUMPDEST PUSH1 0x0 DUP6 ADD CALLDATALOAD PUSH8 0xFFFFFFFFFFFFFFFF DUP2 GT ISZERO PUSH2 0x57E JUMPI PUSH2 0x57D PUSH2 0x13E JUMP JUMPDEST JUMPDEST PUSH2 0x58A DUP8 DUP3 DUP9 ADD PUSH2 0x4F0 JUMP JUMPDEST SWAP5 POP SWAP5 POP POP PUSH1 0x20 DUP6 ADD CALLDATALOAD PUSH8 0xFFFFFFFFFFFFFFFF DUP2 GT ISZERO PUSH2 0x5AD JUMPI PUSH2 0x5AC PUSH2 0x13E JUMP JUMPDEST JUMPDEST PUSH2 0x5B9 DUP8 DUP3 DUP9 ADD PUSH2 0x320 JUMP JUMPDEST SWAP3 POP SWAP3 POP POP SWAP3 SWAP6 SWAP2 SWAP5 POP SWAP3 POP JUMP INVALID LOG2 PUSH5 0x6970667358 0x22 SLT KECCAK256 0xB1 JUMPI PUSH27 0x3BB58FEF6572D039E3BAA06B1E528E5366D816B75962CE1AFA6BE9 0x4A 0xEB PUSH5 0x736F6C6343 STOP ADDMOD SLT STOP CALLER "
				},
				"gasEstimates": {
					"creation": {
						"codeDepositCost": "306600",
						"executionCost": "343",
						"totalCost": "306943"
					},
					"external": {
						"Calldata(string,uint256[])": "infinite",
						"Memory(string,uint256[])": "infinite",
						"getInCall(uint256[])": "474",
						"getInMem(uint256[])": "infinite"
					}
				},
				"methodIdentifiers": {
					"Calldata(string,uint256[])": "fae9407f",
					"Memory(string,uint256[])": "a8fc48fa",
					"getInCall(uint256[])": "9a516758",
					"getInMem(uint256[])": "24724c51"
				}
			},
			"storageLayout": {
				"storage": [],
				"types": null
			},
			"userdoc": {
				"kind": "user",
				"methods": {},
				"version": 1
			}
		}
	}
}