{
	"Send_Transfer_Call_in_Blockchain_2/sendTransferCallBlockchain.sol": {
		"sendTransferCall": {
			"abi": [
				{
					"inputs": [
						{
							"internalType": "address payable",
							"name": "getter",
							"type": "address"
						}
					],
					"name": "CALL",
					"outputs": [],
					"stateMutability": "nonpayable",
					"type": "function"
				},
				{
					"inputs": [
						{
							"internalType": "address payable",
							"name": "getter",
							"type": "address"
						}
					],
					"name": "SEND",
					"outputs": [],
					"stateMutability": "nonpayable",
					"type": "function"
				},
				{
					"inputs": [
						{
							"internalType": "address payable",
							"name": "getter",
							"type": "address"
						}
					],
					"name": "TRANSFER",
					"outputs": [],
					"stateMutability": "nonpayable",
					"type": "function"
				},
				{
					"inputs": [],
					"name": "checkBal",
					"outputs": [
						{
							"internalType": "uint256",
							"name": "",
							"type": "uint256"
						}
					],
					"stateMutability": "view",
					"type": "function"
				},
				{
					"stateMutability": "payable",
					"type": "receive"
				}
			],
			"devdoc": {
				"kind": "dev",
				"methods": {},
				"version": 1
			},
			"evm": {
				"assembly": "    /* \"Send_Transfer_Call_in_Blockchain_2/sendTransferCallBlockchain.sol\":64:759  contract sendTransferCall{... */\n  mstore(0x40, 0x80)\n  callvalue\n  dup1\n  iszero\n  tag_1\n  jumpi\n  0x00\n  dup1\n  revert\ntag_1:\n  pop\n  dataSize(sub_0)\n  dup1\n  dataOffset(sub_0)\n  0x00\n  codecopy\n  0x00\n  return\nstop\n\nsub_0: assembly {\n        /* \"Send_Transfer_Call_in_Blockchain_2/sendTransferCallBlockchain.sol\":64:759  contract sendTransferCall{... */\n      mstore(0x40, 0x80)\n      jumpi(tag_1, lt(calldatasize, 0x04))\n      shr(0xe0, calldataload(0x00))\n      dup1\n      0x2058ad6b\n      eq\n      tag_3\n      jumpi\n      dup1\n      0x9cb4ddd0\n      eq\n      tag_4\n      jumpi\n      dup1\n      0xaf075e0c\n      eq\n      tag_5\n      jumpi\n      dup1\n      0xb206494b\n      eq\n      tag_6\n      jumpi\n      jump(tag_2)\n    tag_1:\n      jumpi(tag_2, calldatasize)\n      stop\n    tag_2:\n      0x00\n      dup1\n      revert\n        /* \"Send_Transfer_Call_in_Blockchain_2/sendTransferCallBlockchain.sol\":227:319  function checkBal() public view returns(uint){... */\n    tag_3:\n      callvalue\n      dup1\n      iszero\n      tag_9\n      jumpi\n      0x00\n      dup1\n      revert\n    tag_9:\n      pop\n      tag_10\n      tag_11\n      jump\t// in\n    tag_10:\n      mload(0x40)\n      tag_12\n      swap2\n      swap1\n      tag_13\n      jump\t// in\n    tag_12:\n      mload(0x40)\n      dup1\n      swap2\n      sub\n      swap1\n      return\n        /* \"Send_Transfer_Call_in_Blockchain_2/sendTransferCallBlockchain.sol\":480:583  function TRANSFER(address payable getter) public{... */\n    tag_4:\n      callvalue\n      dup1\n      iszero\n      tag_14\n      jumpi\n      0x00\n      dup1\n      revert\n    tag_14:\n      pop\n      tag_15\n      0x04\n      dup1\n      calldatasize\n      sub\n      dup2\n      add\n      swap1\n      tag_16\n      swap2\n      swap1\n      tag_17\n      jump\t// in\n    tag_16:\n      tag_18\n      jump\t// in\n    tag_15:\n      stop\n        /* \"Send_Transfer_Call_in_Blockchain_2/sendTransferCallBlockchain.sol\":327:472  function SEND(address payable getter) public{... */\n    tag_5:\n      callvalue\n      dup1\n      iszero\n      tag_19\n      jumpi\n      0x00\n      dup1\n      revert\n    tag_19:\n      pop\n      tag_20\n      0x04\n      dup1\n      calldatasize\n      sub\n      dup2\n      add\n      swap1\n      tag_21\n      swap2\n      swap1\n      tag_17\n      jump\t// in\n    tag_21:\n      tag_22\n      jump\t// in\n    tag_20:\n      stop\n        /* \"Send_Transfer_Call_in_Blockchain_2/sendTransferCallBlockchain.sol\":591:756  function CALL(address payable getter) public {... */\n    tag_6:\n      callvalue\n      dup1\n      iszero\n      tag_23\n      jumpi\n      0x00\n      dup1\n      revert\n    tag_23:\n      pop\n      tag_24\n      0x04\n      dup1\n      calldatasize\n      sub\n      dup2\n      add\n      swap1\n      tag_25\n      swap2\n      swap1\n      tag_17\n      jump\t// in\n    tag_25:\n      tag_26\n      jump\t// in\n    tag_24:\n      stop\n        /* \"Send_Transfer_Call_in_Blockchain_2/sendTransferCallBlockchain.sol\":227:319  function checkBal() public view returns(uint){... */\n    tag_11:\n        /* \"Send_Transfer_Call_in_Blockchain_2/sendTransferCallBlockchain.sol\":267:271  uint */\n      0x00\n        /* \"Send_Transfer_Call_in_Blockchain_2/sendTransferCallBlockchain.sol\":290:311  address(this).balance */\n      selfbalance\n        /* \"Send_Transfer_Call_in_Blockchain_2/sendTransferCallBlockchain.sol\":283:311  return address(this).balance */\n      swap1\n      pop\n        /* \"Send_Transfer_Call_in_Blockchain_2/sendTransferCallBlockchain.sol\":227:319  function checkBal() public view returns(uint){... */\n      swap1\n      jump\t// out\n        /* \"Send_Transfer_Call_in_Blockchain_2/sendTransferCallBlockchain.sol\":480:583  function TRANSFER(address payable getter) public{... */\n    tag_18:\n        /* \"Send_Transfer_Call_in_Blockchain_2/sendTransferCallBlockchain.sol\":539:545  getter */\n      dup1\n        /* \"Send_Transfer_Call_in_Blockchain_2/sendTransferCallBlockchain.sol\":539:554  getter.transfer */\n      0xffffffffffffffffffffffffffffffffffffffff\n      and\n        /* \"Send_Transfer_Call_in_Blockchain_2/sendTransferCallBlockchain.sol\":539:575  getter.transfer(1000000000000000000) */\n      0x08fc\n        /* \"Send_Transfer_Call_in_Blockchain_2/sendTransferCallBlockchain.sol\":555:574  1000000000000000000 */\n      0x0de0b6b3a7640000\n        /* \"Send_Transfer_Call_in_Blockchain_2/sendTransferCallBlockchain.sol\":539:575  getter.transfer(1000000000000000000) */\n      swap1\n      dup2\n      iszero\n      mul\n      swap1\n      mload(0x40)\n      0x00\n      mload(0x40)\n      dup1\n      dup4\n      sub\n      dup2\n      dup6\n      dup9\n      dup9\n      call\n      swap4\n      pop\n      pop\n      pop\n      pop\n      iszero\n      dup1\n      iszero\n      tag_30\n      jumpi\n      returndatasize\n      0x00\n      dup1\n      returndatacopy\n      revert(0x00, returndatasize)\n    tag_30:\n      pop\n        /* \"Send_Transfer_Call_in_Blockchain_2/sendTransferCallBlockchain.sol\":480:583  function TRANSFER(address payable getter) public{... */\n      pop\n      jump\t// out\n        /* \"Send_Transfer_Call_in_Blockchain_2/sendTransferCallBlockchain.sol\":327:472  function SEND(address payable getter) public{... */\n    tag_22:\n        /* \"Send_Transfer_Call_in_Blockchain_2/sendTransferCallBlockchain.sol\":381:390  bool sent */\n      0x00\n        /* \"Send_Transfer_Call_in_Blockchain_2/sendTransferCallBlockchain.sol\":394:400  getter */\n      dup2\n        /* \"Send_Transfer_Call_in_Blockchain_2/sendTransferCallBlockchain.sol\":394:405  getter.send */\n      0xffffffffffffffffffffffffffffffffffffffff\n      and\n        /* \"Send_Transfer_Call_in_Blockchain_2/sendTransferCallBlockchain.sol\":394:426  getter.send(1000000000000000000) */\n      0x08fc\n        /* \"Send_Transfer_Call_in_Blockchain_2/sendTransferCallBlockchain.sol\":406:425  1000000000000000000 */\n      0x0de0b6b3a7640000\n        /* \"Send_Transfer_Call_in_Blockchain_2/sendTransferCallBlockchain.sol\":394:426  getter.send(1000000000000000000) */\n      swap1\n      dup2\n      iszero\n      mul\n      swap1\n      mload(0x40)\n      0x00\n      mload(0x40)\n      dup1\n      dup4\n      sub\n      dup2\n      dup6\n      dup9\n      dup9\n      call\n      swap4\n      pop\n      pop\n      pop\n      pop\n        /* \"Send_Transfer_Call_in_Blockchain_2/sendTransferCallBlockchain.sol\":381:426  bool sent =  getter.send(1000000000000000000) */\n      swap1\n      pop\n        /* \"Send_Transfer_Call_in_Blockchain_2/sendTransferCallBlockchain.sol\":444:448  sent */\n      dup1\n        /* \"Send_Transfer_Call_in_Blockchain_2/sendTransferCallBlockchain.sol\":436:464  require(sent,\"tran is fail\") */\n      tag_33\n      jumpi\n      mload(0x40)\n      0x08c379a000000000000000000000000000000000000000000000000000000000\n      dup2\n      mstore\n      0x04\n      add\n      tag_34\n      swap1\n      tag_35\n      jump\t// in\n    tag_34:\n      mload(0x40)\n      dup1\n      swap2\n      sub\n      swap1\n      revert\n    tag_33:\n        /* \"Send_Transfer_Call_in_Blockchain_2/sendTransferCallBlockchain.sol\":371:472  {... */\n      pop\n        /* \"Send_Transfer_Call_in_Blockchain_2/sendTransferCallBlockchain.sol\":327:472  function SEND(address payable getter) public{... */\n      pop\n      jump\t// out\n        /* \"Send_Transfer_Call_in_Blockchain_2/sendTransferCallBlockchain.sol\":591:756  function CALL(address payable getter) public {... */\n    tag_26:\n        /* \"Send_Transfer_Call_in_Blockchain_2/sendTransferCallBlockchain.sol\":648:657  bool sent */\n      0x00\n        /* \"Send_Transfer_Call_in_Blockchain_2/sendTransferCallBlockchain.sol\":663:669  getter */\n      dup2\n        /* \"Send_Transfer_Call_in_Blockchain_2/sendTransferCallBlockchain.sol\":663:674  getter.call */\n      0xffffffffffffffffffffffffffffffffffffffff\n      and\n        /* \"Send_Transfer_Call_in_Blockchain_2/sendTransferCallBlockchain.sol\":681:700  1000000000000000000 */\n      0x0de0b6b3a7640000\n        /* \"Send_Transfer_Call_in_Blockchain_2/sendTransferCallBlockchain.sol\":663:705  getter.call{value:1000000000000000000}(\"\") */\n      mload(0x40)\n      tag_37\n      swap1\n      tag_38\n      jump\t// in\n    tag_37:\n      0x00\n      mload(0x40)\n      dup1\n      dup4\n      sub\n      dup2\n      dup6\n      dup8\n      gas\n      call\n      swap3\n      pop\n      pop\n      pop\n      returndatasize\n      dup1\n      0x00\n      dup2\n      eq\n      tag_41\n      jumpi\n      mload(0x40)\n      swap2\n      pop\n      and(add(returndatasize, 0x3f), not(0x1f))\n      dup3\n      add\n      0x40\n      mstore\n      returndatasize\n      dup3\n      mstore\n      returndatasize\n      0x00\n      0x20\n      dup5\n      add\n      returndatacopy\n      jump(tag_40)\n    tag_41:\n      0x60\n      swap2\n      pop\n    tag_40:\n      pop\n        /* \"Send_Transfer_Call_in_Blockchain_2/sendTransferCallBlockchain.sol\":647:705  (bool sent, ) = getter.call{value:1000000000000000000}(\"\") */\n      pop\n      swap1\n      pop\n        /* \"Send_Transfer_Call_in_Blockchain_2/sendTransferCallBlockchain.sol\":726:730  sent */\n      dup1\n        /* \"Send_Transfer_Call_in_Blockchain_2/sendTransferCallBlockchain.sol\":718:748  require(sent,\"tran is failed\") */\n      tag_42\n      jumpi\n      mload(0x40)\n      0x08c379a000000000000000000000000000000000000000000000000000000000\n      dup2\n      mstore\n      0x04\n      add\n      tag_43\n      swap1\n      tag_44\n      jump\t// in\n    tag_43:\n      mload(0x40)\n      dup1\n      swap2\n      sub\n      swap1\n      revert\n    tag_42:\n        /* \"Send_Transfer_Call_in_Blockchain_2/sendTransferCallBlockchain.sol\":636:756  {... */\n      pop\n        /* \"Send_Transfer_Call_in_Blockchain_2/sendTransferCallBlockchain.sol\":591:756  function CALL(address payable getter) public {... */\n      pop\n      jump\t// out\n        /* \"#utility.yul\":7:84   */\n    tag_45:\n        /* \"#utility.yul\":44:51   */\n      0x00\n        /* \"#utility.yul\":73:78   */\n      dup2\n        /* \"#utility.yul\":62:78   */\n      swap1\n      pop\n        /* \"#utility.yul\":7:84   */\n      swap2\n      swap1\n      pop\n      jump\t// out\n        /* \"#utility.yul\":90:208   */\n    tag_46:\n        /* \"#utility.yul\":177:201   */\n      tag_65\n        /* \"#utility.yul\":195:200   */\n      dup2\n        /* \"#utility.yul\":177:201   */\n      tag_45\n      jump\t// in\n    tag_65:\n        /* \"#utility.yul\":172:175   */\n      dup3\n        /* \"#utility.yul\":165:202   */\n      mstore\n        /* \"#utility.yul\":90:208   */\n      pop\n      pop\n      jump\t// out\n        /* \"#utility.yul\":214:436   */\n    tag_13:\n        /* \"#utility.yul\":307:311   */\n      0x00\n        /* \"#utility.yul\":345:347   */\n      0x20\n        /* \"#utility.yul\":334:343   */\n      dup3\n        /* \"#utility.yul\":330:348   */\n      add\n        /* \"#utility.yul\":322:348   */\n      swap1\n      pop\n        /* \"#utility.yul\":358:429   */\n      tag_67\n        /* \"#utility.yul\":426:427   */\n      0x00\n        /* \"#utility.yul\":415:424   */\n      dup4\n        /* \"#utility.yul\":411:428   */\n      add\n        /* \"#utility.yul\":402:408   */\n      dup5\n        /* \"#utility.yul\":358:429   */\n      tag_46\n      jump\t// in\n    tag_67:\n        /* \"#utility.yul\":214:436   */\n      swap3\n      swap2\n      pop\n      pop\n      jump\t// out\n        /* \"#utility.yul\":523:640   */\n    tag_48:\n        /* \"#utility.yul\":632:633   */\n      0x00\n        /* \"#utility.yul\":629:630   */\n      dup1\n        /* \"#utility.yul\":622:634   */\n      revert\n        /* \"#utility.yul\":769:895   */\n    tag_50:\n        /* \"#utility.yul\":806:813   */\n      0x00\n        /* \"#utility.yul\":846:888   */\n      0xffffffffffffffffffffffffffffffffffffffff\n        /* \"#utility.yul\":839:844   */\n      dup3\n        /* \"#utility.yul\":835:889   */\n      and\n        /* \"#utility.yul\":824:889   */\n      swap1\n      pop\n        /* \"#utility.yul\":769:895   */\n      swap2\n      swap1\n      pop\n      jump\t// out\n        /* \"#utility.yul\":901:1005   */\n    tag_51:\n        /* \"#utility.yul\":946:953   */\n      0x00\n        /* \"#utility.yul\":975:999   */\n      tag_73\n        /* \"#utility.yul\":993:998   */\n      dup3\n        /* \"#utility.yul\":975:999   */\n      tag_50\n      jump\t// in\n    tag_73:\n        /* \"#utility.yul\":964:999   */\n      swap1\n      pop\n        /* \"#utility.yul\":901:1005   */\n      swap2\n      swap1\n      pop\n      jump\t// out\n        /* \"#utility.yul\":1011:1149   */\n    tag_52:\n        /* \"#utility.yul\":1092:1124   */\n      tag_75\n        /* \"#utility.yul\":1118:1123   */\n      dup2\n        /* \"#utility.yul\":1092:1124   */\n      tag_51\n      jump\t// in\n    tag_75:\n        /* \"#utility.yul\":1085:1090   */\n      dup2\n        /* \"#utility.yul\":1082:1125   */\n      eq\n        /* \"#utility.yul\":1072:1143   */\n      tag_76\n      jumpi\n        /* \"#utility.yul\":1139:1140   */\n      0x00\n        /* \"#utility.yul\":1136:1137   */\n      dup1\n        /* \"#utility.yul\":1129:1141   */\n      revert\n        /* \"#utility.yul\":1072:1143   */\n    tag_76:\n        /* \"#utility.yul\":1011:1149   */\n      pop\n      jump\t// out\n        /* \"#utility.yul\":1155:1310   */\n    tag_53:\n        /* \"#utility.yul\":1209:1214   */\n      0x00\n        /* \"#utility.yul\":1247:1253   */\n      dup2\n        /* \"#utility.yul\":1234:1254   */\n      calldataload\n        /* \"#utility.yul\":1225:1254   */\n      swap1\n      pop\n        /* \"#utility.yul\":1263:1304   */\n      tag_78\n        /* \"#utility.yul\":1298:1303   */\n      dup2\n        /* \"#utility.yul\":1263:1304   */\n      tag_52\n      jump\t// in\n    tag_78:\n        /* \"#utility.yul\":1155:1310   */\n      swap3\n      swap2\n      pop\n      pop\n      jump\t// out\n        /* \"#utility.yul\":1316:1661   */\n    tag_17:\n        /* \"#utility.yul\":1383:1389   */\n      0x00\n        /* \"#utility.yul\":1432:1434   */\n      0x20\n        /* \"#utility.yul\":1420:1429   */\n      dup3\n        /* \"#utility.yul\":1411:1418   */\n      dup5\n        /* \"#utility.yul\":1407:1430   */\n      sub\n        /* \"#utility.yul\":1403:1435   */\n      slt\n        /* \"#utility.yul\":1400:1519   */\n      iszero\n      tag_80\n      jumpi\n        /* \"#utility.yul\":1438:1517   */\n      tag_81\n      tag_48\n      jump\t// in\n    tag_81:\n        /* \"#utility.yul\":1400:1519   */\n    tag_80:\n        /* \"#utility.yul\":1558:1559   */\n      0x00\n        /* \"#utility.yul\":1583:1644   */\n      tag_82\n        /* \"#utility.yul\":1636:1643   */\n      dup5\n        /* \"#utility.yul\":1627:1633   */\n      dup3\n        /* \"#utility.yul\":1616:1625   */\n      dup6\n        /* \"#utility.yul\":1612:1634   */\n      add\n        /* \"#utility.yul\":1583:1644   */\n      tag_53\n      jump\t// in\n    tag_82:\n        /* \"#utility.yul\":1573:1644   */\n      swap2\n      pop\n        /* \"#utility.yul\":1529:1654   */\n      pop\n        /* \"#utility.yul\":1316:1661   */\n      swap3\n      swap2\n      pop\n      pop\n      jump\t// out\n        /* \"#utility.yul\":1667:1836   */\n    tag_54:\n        /* \"#utility.yul\":1751:1762   */\n      0x00\n        /* \"#utility.yul\":1785:1791   */\n      dup3\n        /* \"#utility.yul\":1780:1783   */\n      dup3\n        /* \"#utility.yul\":1773:1792   */\n      mstore\n        /* \"#utility.yul\":1825:1829   */\n      0x20\n        /* \"#utility.yul\":1820:1823   */\n      dup3\n        /* \"#utility.yul\":1816:1830   */\n      add\n        /* \"#utility.yul\":1801:1830   */\n      swap1\n      pop\n        /* \"#utility.yul\":1667:1836   */\n      swap3\n      swap2\n      pop\n      pop\n      jump\t// out\n        /* \"#utility.yul\":1842:2004   */\n    tag_55:\n        /* \"#utility.yul\":1982:1996   */\n      0x7472616e206973206661696c0000000000000000000000000000000000000000\n        /* \"#utility.yul\":1978:1979   */\n      0x00\n        /* \"#utility.yul\":1970:1976   */\n      dup3\n        /* \"#utility.yul\":1966:1980   */\n      add\n        /* \"#utility.yul\":1959:1997   */\n      mstore\n        /* \"#utility.yul\":1842:2004   */\n      pop\n      jump\t// out\n        /* \"#utility.yul\":2010:2376   */\n    tag_56:\n        /* \"#utility.yul\":2152:2155   */\n      0x00\n        /* \"#utility.yul\":2173:2240   */\n      tag_86\n        /* \"#utility.yul\":2237:2239   */\n      0x0c\n        /* \"#utility.yul\":2232:2235   */\n      dup4\n        /* \"#utility.yul\":2173:2240   */\n      tag_54\n      jump\t// in\n    tag_86:\n        /* \"#utility.yul\":2166:2240   */\n      swap2\n      pop\n        /* \"#utility.yul\":2249:2342   */\n      tag_87\n        /* \"#utility.yul\":2338:2341   */\n      dup3\n        /* \"#utility.yul\":2249:2342   */\n      tag_55\n      jump\t// in\n    tag_87:\n        /* \"#utility.yul\":2367:2369   */\n      0x20\n        /* \"#utility.yul\":2362:2365   */\n      dup3\n        /* \"#utility.yul\":2358:2370   */\n      add\n        /* \"#utility.yul\":2351:2370   */\n      swap1\n      pop\n        /* \"#utility.yul\":2010:2376   */\n      swap2\n      swap1\n      pop\n      jump\t// out\n        /* \"#utility.yul\":2382:2801   */\n    tag_35:\n        /* \"#utility.yul\":2548:2552   */\n      0x00\n        /* \"#utility.yul\":2586:2588   */\n      0x20\n        /* \"#utility.yul\":2575:2584   */\n      dup3\n        /* \"#utility.yul\":2571:2589   */\n      add\n        /* \"#utility.yul\":2563:2589   */\n      swap1\n      pop\n        /* \"#utility.yul\":2635:2644   */\n      dup2\n        /* \"#utility.yul\":2629:2633   */\n      dup2\n        /* \"#utility.yul\":2625:2645   */\n      sub\n        /* \"#utility.yul\":2621:2622   */\n      0x00\n        /* \"#utility.yul\":2610:2619   */\n      dup4\n        /* \"#utility.yul\":2606:2623   */\n      add\n        /* \"#utility.yul\":2599:2646   */\n      mstore\n        /* \"#utility.yul\":2663:2794   */\n      tag_89\n        /* \"#utility.yul\":2789:2793   */\n      dup2\n        /* \"#utility.yul\":2663:2794   */\n      tag_56\n      jump\t// in\n    tag_89:\n        /* \"#utility.yul\":2655:2794   */\n      swap1\n      pop\n        /* \"#utility.yul\":2382:2801   */\n      swap2\n      swap1\n      pop\n      jump\t// out\n        /* \"#utility.yul\":2807:2954   */\n    tag_57:\n        /* \"#utility.yul\":2908:2919   */\n      0x00\n        /* \"#utility.yul\":2945:2948   */\n      dup2\n        /* \"#utility.yul\":2930:2948   */\n      swap1\n      pop\n        /* \"#utility.yul\":2807:2954   */\n      swap3\n      swap2\n      pop\n      pop\n      jump\t// out\n        /* \"#utility.yul\":2960:3074   */\n    tag_58:\n      pop\n      jump\t// out\n        /* \"#utility.yul\":3080:3478   */\n    tag_59:\n        /* \"#utility.yul\":3239:3242   */\n      0x00\n        /* \"#utility.yul\":3260:3343   */\n      tag_93\n        /* \"#utility.yul\":3341:3342   */\n      0x00\n        /* \"#utility.yul\":3336:3339   */\n      dup4\n        /* \"#utility.yul\":3260:3343   */\n      tag_57\n      jump\t// in\n    tag_93:\n        /* \"#utility.yul\":3253:3343   */\n      swap2\n      pop\n        /* \"#utility.yul\":3352:3445   */\n      tag_94\n        /* \"#utility.yul\":3441:3444   */\n      dup3\n        /* \"#utility.yul\":3352:3445   */\n      tag_58\n      jump\t// in\n    tag_94:\n        /* \"#utility.yul\":3470:3471   */\n      0x00\n        /* \"#utility.yul\":3465:3468   */\n      dup3\n        /* \"#utility.yul\":3461:3472   */\n      add\n        /* \"#utility.yul\":3454:3472   */\n      swap1\n      pop\n        /* \"#utility.yul\":3080:3478   */\n      swap2\n      swap1\n      pop\n      jump\t// out\n        /* \"#utility.yul\":3484:3863   */\n    tag_38:\n        /* \"#utility.yul\":3668:3671   */\n      0x00\n        /* \"#utility.yul\":3690:3837   */\n      tag_96\n        /* \"#utility.yul\":3833:3836   */\n      dup3\n        /* \"#utility.yul\":3690:3837   */\n      tag_59\n      jump\t// in\n    tag_96:\n        /* \"#utility.yul\":3683:3837   */\n      swap2\n      pop\n        /* \"#utility.yul\":3854:3857   */\n      dup2\n        /* \"#utility.yul\":3847:3857   */\n      swap1\n      pop\n        /* \"#utility.yul\":3484:3863   */\n      swap2\n      swap1\n      pop\n      jump\t// out\n        /* \"#utility.yul\":3869:4033   */\n    tag_60:\n        /* \"#utility.yul\":4009:4025   */\n      0x7472616e206973206661696c6564000000000000000000000000000000000000\n        /* \"#utility.yul\":4005:4006   */\n      0x00\n        /* \"#utility.yul\":3997:4003   */\n      dup3\n        /* \"#utility.yul\":3993:4007   */\n      add\n        /* \"#utility.yul\":3986:4026   */\n      mstore\n        /* \"#utility.yul\":3869:4033   */\n      pop\n      jump\t// out\n        /* \"#utility.yul\":4039:4405   */\n    tag_61:\n        /* \"#utility.yul\":4181:4184   */\n      0x00\n        /* \"#utility.yul\":4202:4269   */\n      tag_99\n        /* \"#utility.yul\":4266:4268   */\n      0x0e\n        /* \"#utility.yul\":4261:4264   */\n      dup4\n        /* \"#utility.yul\":4202:4269   */\n      tag_54\n      jump\t// in\n    tag_99:\n        /* \"#utility.yul\":4195:4269   */\n      swap2\n      pop\n        /* \"#utility.yul\":4278:4371   */\n      tag_100\n        /* \"#utility.yul\":4367:4370   */\n      dup3\n        /* \"#utility.yul\":4278:4371   */\n      tag_60\n      jump\t// in\n    tag_100:\n        /* \"#utility.yul\":4396:4398   */\n      0x20\n        /* \"#utility.yul\":4391:4394   */\n      dup3\n        /* \"#utility.yul\":4387:4399   */\n      add\n        /* \"#utility.yul\":4380:4399   */\n      swap1\n      pop\n        /* \"#utility.yul\":4039:4405   */\n      swap2\n      swap1\n      pop\n      jump\t// out\n        /* \"#utility.yul\":4411:4830   */\n    tag_44:\n        /* \"#utility.yul\":4577:4581   */\n      0x00\n        /* \"#utility.yul\":4615:4617   */\n      0x20\n        /* \"#utility.yul\":4604:4613   */\n      dup3\n        /* \"#utility.yul\":4600:4618   */\n      add\n        /* \"#utility.yul\":4592:4618   */\n      swap1\n      pop\n        /* \"#utility.yul\":4664:4673   */\n      dup2\n        /* \"#utility.yul\":4658:4662   */\n      dup2\n        /* \"#utility.yul\":4654:4674   */\n      sub\n        /* \"#utility.yul\":4650:4651   */\n      0x00\n        /* \"#utility.yul\":4639:4648   */\n      dup4\n        /* \"#utility.yul\":4635:4652   */\n      add\n        /* \"#utility.yul\":4628:4675   */\n      mstore\n        /* \"#utility.yul\":4692:4823   */\n      tag_102\n        /* \"#utility.yul\":4818:4822   */\n      dup2\n        /* \"#utility.yul\":4692:4823   */\n      tag_61\n      jump\t// in\n    tag_102:\n        /* \"#utility.yul\":4684:4823   */\n      swap1\n      pop\n        /* \"#utility.yul\":4411:4830   */\n      swap2\n      swap1\n      pop\n      jump\t// out\n\n    auxdata: 0xa2646970667358221220a554d250741ec9580a04358a2b330be53aff142f09ab150470a153d943e06a4664736f6c63430008120033\n}\n",
				"bytecode": {
					"linkReferences": {},
					"object": "608060405234801561001057600080fd5b506104b5806100206000396000f3fe6080604052600436106100435760003560e01c80632058ad6b1461004f5780639cb4ddd01461007a578063af075e0c146100a3578063b206494b146100cc5761004a565b3661004a57005b600080fd5b34801561005b57600080fd5b506100646100f5565b60405161007191906102a5565b60405180910390f35b34801561008657600080fd5b506100a1600480360381019061009c9190610323565b6100fd565b005b3480156100af57600080fd5b506100ca60048036038101906100c59190610323565b61014f565b005b3480156100d857600080fd5b506100f360048036038101906100ee9190610323565b6101d4565b005b600047905090565b8073ffffffffffffffffffffffffffffffffffffffff166108fc670de0b6b3a76400009081150290604051600060405180830381858888f1935050505015801561014b573d6000803e3d6000fd5b5050565b60008173ffffffffffffffffffffffffffffffffffffffff166108fc670de0b6b3a76400009081150290604051600060405180830381858888f193505050509050806101d0576040517f08c379a00000000000000000000000000000000000000000000000000000000081526004016101c7906103ad565b60405180910390fd5b5050565b60008173ffffffffffffffffffffffffffffffffffffffff16670de0b6b3a7640000604051610202906103fe565b60006040518083038185875af1925050503d806000811461023f576040519150601f19603f3d011682016040523d82523d6000602084013e610244565b606091505b5050905080610288576040517f08c379a000000000000000000000000000000000000000000000000000000000815260040161027f9061045f565b60405180910390fd5b5050565b6000819050919050565b61029f8161028c565b82525050565b60006020820190506102ba6000830184610296565b92915050565b600080fd5b600073ffffffffffffffffffffffffffffffffffffffff82169050919050565b60006102f0826102c5565b9050919050565b610300816102e5565b811461030b57600080fd5b50565b60008135905061031d816102f7565b92915050565b600060208284031215610339576103386102c0565b5b60006103478482850161030e565b91505092915050565b600082825260208201905092915050565b7f7472616e206973206661696c0000000000000000000000000000000000000000600082015250565b6000610397600c83610350565b91506103a282610361565b602082019050919050565b600060208201905081810360008301526103c68161038a565b9050919050565b600081905092915050565b50565b60006103e86000836103cd565b91506103f3826103d8565b600082019050919050565b6000610409826103db565b9150819050919050565b7f7472616e206973206661696c6564000000000000000000000000000000000000600082015250565b6000610449600e83610350565b915061045482610413565b602082019050919050565b600060208201905081810360008301526104788161043c565b905091905056fea2646970667358221220a554d250741ec9580a04358a2b330be53aff142f09ab150470a153d943e06a4664736f6c63430008120033",
					"opcodes": "PUSH1 0x80 PUSH1 0x40 MSTORE CALLVALUE DUP1 ISZERO PUSH2 0x10 JUMPI PUSH1 0x0 DUP1 REVERT JUMPDEST POP PUSH2 0x4B5 DUP1 PUSH2 0x20 PUSH1 0x0 CODECOPY PUSH1 0x0 RETURN INVALID PUSH1 0x80 PUSH1 0x40 MSTORE PUSH1 0x4 CALLDATASIZE LT PUSH2 0x43 JUMPI PUSH1 0x0 CALLDATALOAD PUSH1 0xE0 SHR DUP1 PUSH4 0x2058AD6B EQ PUSH2 0x4F JUMPI DUP1 PUSH4 0x9CB4DDD0 EQ PUSH2 0x7A JUMPI DUP1 PUSH4 0xAF075E0C EQ PUSH2 0xA3 JUMPI DUP1 PUSH4 0xB206494B EQ PUSH2 0xCC JUMPI PUSH2 0x4A JUMP JUMPDEST CALLDATASIZE PUSH2 0x4A JUMPI STOP JUMPDEST PUSH1 0x0 DUP1 REVERT JUMPDEST CALLVALUE DUP1 ISZERO PUSH2 0x5B JUMPI PUSH1 0x0 DUP1 REVERT JUMPDEST POP PUSH2 0x64 PUSH2 0xF5 JUMP JUMPDEST PUSH1 0x40 MLOAD PUSH2 0x71 SWAP2 SWAP1 PUSH2 0x2A5 JUMP JUMPDEST PUSH1 0x40 MLOAD DUP1 SWAP2 SUB SWAP1 RETURN JUMPDEST CALLVALUE DUP1 ISZERO PUSH2 0x86 JUMPI PUSH1 0x0 DUP1 REVERT JUMPDEST POP PUSH2 0xA1 PUSH1 0x4 DUP1 CALLDATASIZE SUB DUP2 ADD SWAP1 PUSH2 0x9C SWAP2 SWAP1 PUSH2 0x323 JUMP JUMPDEST PUSH2 0xFD JUMP JUMPDEST STOP JUMPDEST CALLVALUE DUP1 ISZERO PUSH2 0xAF JUMPI PUSH1 0x0 DUP1 REVERT JUMPDEST POP PUSH2 0xCA PUSH1 0x4 DUP1 CALLDATASIZE SUB DUP2 ADD SWAP1 PUSH2 0xC5 SWAP2 SWAP1 PUSH2 0x323 JUMP JUMPDEST PUSH2 0x14F JUMP JUMPDEST STOP JUMPDEST CALLVALUE DUP1 ISZERO PUSH2 0xD8 JUMPI PUSH1 0x0 DUP1 REVERT JUMPDEST POP PUSH2 0xF3 PUSH1 0x4 DUP1 CALLDATASIZE SUB DUP2 ADD SWAP1 PUSH2 0xEE SWAP2 SWAP1 PUSH2 0x323 JUMP JUMPDEST PUSH2 0x1D4 JUMP JUMPDEST STOP JUMPDEST PUSH1 0x0 SELFBALANCE SWAP1 POP SWAP1 JUMP JUMPDEST DUP1 PUSH20 0xFFFFFFFFFFFFFFFFFFFFFFFFFFFFFFFFFFFFFFFF AND PUSH2 0x8FC PUSH8 0xDE0B6B3A7640000 SWAP1 DUP2 ISZERO MUL SWAP1 PUSH1 0x40 MLOAD PUSH1 0x0 PUSH1 0x40 MLOAD DUP1 DUP4 SUB DUP2 DUP6 DUP9 DUP9 CALL SWAP4 POP POP POP POP ISZERO DUP1 ISZERO PUSH2 0x14B JUMPI RETURNDATASIZE PUSH1 0x0 DUP1 RETURNDATACOPY RETURNDATASIZE PUSH1 0x0 REVERT JUMPDEST POP POP JUMP JUMPDEST PUSH1 0x0 DUP2 PUSH20 0xFFFFFFFFFFFFFFFFFFFFFFFFFFFFFFFFFFFFFFFF AND PUSH2 0x8FC PUSH8 0xDE0B6B3A7640000 SWAP1 DUP2 ISZERO MUL SWAP1 PUSH1 0x40 MLOAD PUSH1 0x0 PUSH1 0x40 MLOAD DUP1 DUP4 SUB DUP2 DUP6 DUP9 DUP9 CALL SWAP4 POP POP POP POP SWAP1 POP DUP1 PUSH2 0x1D0 JUMPI PUSH1 0x40 MLOAD PUSH32 0x8C379A000000000000000000000000000000000000000000000000000000000 DUP2 MSTORE PUSH1 0x4 ADD PUSH2 0x1C7 SWAP1 PUSH2 0x3AD JUMP JUMPDEST PUSH1 0x40 MLOAD DUP1 SWAP2 SUB SWAP1 REVERT JUMPDEST POP POP JUMP JUMPDEST PUSH1 0x0 DUP2 PUSH20 0xFFFFFFFFFFFFFFFFFFFFFFFFFFFFFFFFFFFFFFFF AND PUSH8 0xDE0B6B3A7640000 PUSH1 0x40 MLOAD PUSH2 0x202 SWAP1 PUSH2 0x3FE JUMP JUMPDEST PUSH1 0x0 PUSH1 0x40 MLOAD DUP1 DUP4 SUB DUP2 DUP6 DUP8 GAS CALL SWAP3 POP POP POP RETURNDATASIZE DUP1 PUSH1 0x0 DUP2 EQ PUSH2 0x23F JUMPI PUSH1 0x40 MLOAD SWAP2 POP PUSH1 0x1F NOT PUSH1 0x3F RETURNDATASIZE ADD AND DUP3 ADD PUSH1 0x40 MSTORE RETURNDATASIZE DUP3 MSTORE RETURNDATASIZE PUSH1 0x0 PUSH1 0x20 DUP5 ADD RETURNDATACOPY PUSH2 0x244 JUMP JUMPDEST PUSH1 0x60 SWAP2 POP JUMPDEST POP POP SWAP1 POP DUP1 PUSH2 0x288 JUMPI PUSH1 0x40 MLOAD PUSH32 0x8C379A000000000000000000000000000000000000000000000000000000000 DUP2 MSTORE PUSH1 0x4 ADD PUSH2 0x27F SWAP1 PUSH2 0x45F JUMP JUMPDEST PUSH1 0x40 MLOAD DUP1 SWAP2 SUB SWAP1 REVERT JUMPDEST POP POP JUMP JUMPDEST PUSH1 0x0 DUP2 SWAP1 POP SWAP2 SWAP1 POP JUMP JUMPDEST PUSH2 0x29F DUP2 PUSH2 0x28C JUMP JUMPDEST DUP3 MSTORE POP POP JUMP JUMPDEST PUSH1 0x0 PUSH1 0x20 DUP3 ADD SWAP1 POP PUSH2 0x2BA PUSH1 0x0 DUP4 ADD DUP5 PUSH2 0x296 JUMP JUMPDEST SWAP3 SWAP2 POP POP JUMP JUMPDEST PUSH1 0x0 DUP1 REVERT JUMPDEST PUSH1 0x0 PUSH20 0xFFFFFFFFFFFFFFFFFFFFFFFFFFFFFFFFFFFFFFFF DUP3 AND SWAP1 POP SWAP2 SWAP1 POP JUMP JUMPDEST PUSH1 0x0 PUSH2 0x2F0 DUP3 PUSH2 0x2C5 JUMP JUMPDEST SWAP1 POP SWAP2 SWAP1 POP JUMP JUMPDEST PUSH2 0x300 DUP2 PUSH2 0x2E5 JUMP JUMPDEST DUP2 EQ PUSH2 0x30B JUMPI PUSH1 0x0 DUP1 REVERT JUMPDEST POP JUMP JUMPDEST PUSH1 0x0 DUP2 CALLDATALOAD SWAP1 POP PUSH2 0x31D DUP2 PUSH2 0x2F7 JUMP JUMPDEST SWAP3 SWAP2 POP POP JUMP JUMPDEST PUSH1 0x0 PUSH1 0x20 DUP3 DUP5 SUB SLT ISZERO PUSH2 0x339 JUMPI PUSH2 0x338 PUSH2 0x2C0 JUMP JUMPDEST JUMPDEST PUSH1 0x0 PUSH2 0x347 DUP5 DUP3 DUP6 ADD PUSH2 0x30E JUMP JUMPDEST SWAP2 POP POP SWAP3 SWAP2 POP POP JUMP JUMPDEST PUSH1 0x0 DUP3 DUP3 MSTORE PUSH1 0x20 DUP3 ADD SWAP1 POP SWAP3 SWAP2 POP POP JUMP JUMPDEST PUSH32 0x7472616E206973206661696C0000000000000000000000000000000000000000 PUSH1 0x0 DUP3 ADD MSTORE POP JUMP JUMPDEST PUSH1 0x0 PUSH2 0x397 PUSH1 0xC DUP4 PUSH2 0x350 JUMP JUMPDEST SWAP2 POP PUSH2 0x3A2 DUP3 PUSH2 0x361 JUMP JUMPDEST PUSH1 0x20 DUP3 ADD SWAP1 POP SWAP2 SWAP1 POP JUMP JUMPDEST PUSH1 0x0 PUSH1 0x20 DUP3 ADD SWAP1 POP DUP2 DUP2 SUB PUSH1 0x0 DUP4 ADD MSTORE PUSH2 0x3C6 DUP2 PUSH2 0x38A JUMP JUMPDEST SWAP1 POP SWAP2 SWAP1 POP JUMP JUMPDEST PUSH1 0x0 DUP2 SWAP1 POP SWAP3 SWAP2 POP POP JUMP JUMPDEST POP JUMP JUMPDEST PUSH1 0x0 PUSH2 0x3E8 PUSH1 0x0 DUP4 PUSH2 0x3CD JUMP JUMPDEST SWAP2 POP PUSH2 0x3F3 DUP3 PUSH2 0x3D8 JUMP JUMPDEST PUSH1 0x0 DUP3 ADD SWAP1 POP SWAP2 SWAP1 POP JUMP JUMPDEST PUSH1 0x0 PUSH2 0x409 DUP3 PUSH2 0x3DB JUMP JUMPDEST SWAP2 POP DUP2 SWAP1 POP SWAP2 SWAP1 POP JUMP JUMPDEST PUSH32 0x7472616E206973206661696C6564000000000000000000000000000000000000 PUSH1 0x0 DUP3 ADD MSTORE POP JUMP JUMPDEST PUSH1 0x0 PUSH2 0x449 PUSH1 0xE DUP4 PUSH2 0x350 JUMP JUMPDEST SWAP2 POP PUSH2 0x454 DUP3 PUSH2 0x413 JUMP JUMPDEST PUSH1 0x20 DUP3 ADD SWAP1 POP SWAP2 SWAP1 POP JUMP JUMPDEST PUSH1 0x0 PUSH1 0x20 DUP3 ADD SWAP1 POP DUP2 DUP2 SUB PUSH1 0x0 DUP4 ADD MSTORE PUSH2 0x478 DUP2 PUSH2 0x43C JUMP JUMPDEST SWAP1 POP SWAP2 SWAP1 POP JUMP INVALID LOG2 PUSH5 0x6970667358 0x22 SLT KECCAK256 0xA5 SLOAD 0xD2 POP PUSH21 0x1EC9580A04358A2B330BE53AFF142F09AB150470A1 MSTORE8 0xD9 NUMBER 0xE0 PUSH11 0x4664736F6C634300081200 CALLER "
				},
				"gasEstimates": {
					"creation": {
						"codeDepositCost": "241000",
						"executionCost": "281",
						"totalCost": "241281"
					},
					"external": {
						"CALL(address)": "infinite",
						"SEND(address)": "infinite",
						"TRANSFER(address)": "infinite",
						"checkBal()": "317"
					}
				},
				"methodIdentifiers": {
					"CALL(address)": "b206494b",
					"SEND(address)": "af075e0c",
					"TRANSFER(address)": "9cb4ddd0",
					"checkBal()": "2058ad6b"
				}
			},
			"storageLayout": {
				"storage": [],
				"types": null
			},
			"userdoc": {
				"kind": "user",
				"methods": {},
				"version": 1
			}
		}
	}
}