{
	"Default_Values/default_Values.sol": {
		"default_Values": {
			"abi": [
				{
					"inputs": [],
					"name": "a",
					"outputs": [
						{
							"internalType": "bytes32",
							"name": "",
							"type": "bytes32"
						}
					],
					"stateMutability": "view",
					"type": "function"
				},
				{
					"inputs": [],
					"name": "str",
					"outputs": [
						{
							"internalType": "string",
							"name": "",
							"type": "string"
						}
					],
					"stateMutability": "view",
					"type": "function"
				},
				{
					"inputs": [],
					"name": "x",
					"outputs": [
						{
							"internalType": "uint256",
							"name": "",
							"type": "uint256"
						}
					],
					"stateMutability": "view",
					"type": "function"
				},
				{
					"inputs": [],
					"name": "y",
					"outputs": [
						{
							"internalType": "bool",
							"name": "",
							"type": "bool"
						}
					],
					"stateMutability": "view",
					"type": "function"
				},
				{
					"inputs": [],
					"name": "z",
					"outputs": [
						{
							"internalType": "address",
							"name": "",
							"type": "address"
						}
					],
					"stateMutability": "view",
					"type": "function"
				}
			],
			"devdoc": {
				"kind": "dev",
				"methods": {},
				"version": 1
			},
			"evm": {
				"assembly": "    /* \"Default_Values/default_Values.sol\":62:199  contract default_Values{... */\n  mstore(0x40, 0x80)\n  callvalue\n  dup1\n  iszero\n  tag_1\n  jumpi\n  0x00\n  dup1\n  revert\ntag_1:\n  pop\n  dataSize(sub_0)\n  dup1\n  dataOffset(sub_0)\n  0x00\n  codecopy\n  0x00\n  return\nstop\n\nsub_0: assembly {\n        /* \"Default_Values/default_Values.sol\":62:199  contract default_Values{... */\n      mstore(0x40, 0x80)\n      callvalue\n      dup1\n      iszero\n      tag_1\n      jumpi\n      0x00\n      dup1\n      revert\n    tag_1:\n      pop\n      jumpi(tag_2, lt(calldatasize, 0x04))\n      shr(0xe0, calldataload(0x00))\n      dup1\n      0x0c55699c\n      eq\n      tag_3\n      jumpi\n      dup1\n      0x0dbe671f\n      eq\n      tag_4\n      jumpi\n      dup1\n      0xa56dfe4a\n      eq\n      tag_5\n      jumpi\n      dup1\n      0xc15bae84\n      eq\n      tag_6\n      jumpi\n      dup1\n      0xc5d7802e\n      eq\n      tag_7\n      jumpi\n    tag_2:\n      0x00\n      dup1\n      revert\n        /* \"Default_Values/default_Values.sol\":92:105  uint public x */\n    tag_3:\n      tag_8\n      tag_9\n      jump\t// in\n    tag_8:\n      mload(0x40)\n      tag_10\n      swap2\n      swap1\n      tag_11\n      jump\t// in\n    tag_10:\n      mload(0x40)\n      dup1\n      swap2\n      sub\n      swap1\n      return\n        /* \"Default_Values/default_Values.sol\":155:171  bytes32 public a */\n    tag_4:\n      tag_12\n      tag_13\n      jump\t// in\n    tag_12:\n      mload(0x40)\n      tag_14\n      swap2\n      swap1\n      tag_15\n      jump\t// in\n    tag_14:\n      mload(0x40)\n      dup1\n      swap2\n      sub\n      swap1\n      return\n        /* \"Default_Values/default_Values.sol\":112:125  bool public y */\n    tag_5:\n      tag_16\n      tag_17\n      jump\t// in\n    tag_16:\n      mload(0x40)\n      tag_18\n      swap2\n      swap1\n      tag_19\n      jump\t// in\n    tag_18:\n      mload(0x40)\n      dup1\n      swap2\n      sub\n      swap1\n      return\n        /* \"Default_Values/default_Values.sol\":178:195  string public str */\n    tag_6:\n      tag_20\n      tag_21\n      jump\t// in\n    tag_20:\n      mload(0x40)\n      tag_22\n      swap2\n      swap1\n      tag_23\n      jump\t// in\n    tag_22:\n      mload(0x40)\n      dup1\n      swap2\n      sub\n      swap1\n      return\n        /* \"Default_Values/default_Values.sol\":132:148  address public z */\n    tag_7:\n      tag_24\n      tag_25\n      jump\t// in\n    tag_24:\n      mload(0x40)\n      tag_26\n      swap2\n      swap1\n      tag_27\n      jump\t// in\n    tag_26:\n      mload(0x40)\n      dup1\n      swap2\n      sub\n      swap1\n      return\n        /* \"Default_Values/default_Values.sol\":92:105  uint public x */\n    tag_9:\n      sload(0x00)\n      dup2\n      jump\t// out\n        /* \"Default_Values/default_Values.sol\":155:171  bytes32 public a */\n    tag_13:\n      sload(0x02)\n      dup2\n      jump\t// out\n        /* \"Default_Values/default_Values.sol\":112:125  bool public y */\n    tag_17:\n      0x01\n      0x00\n      swap1\n      sload\n      swap1\n      0x0100\n      exp\n      swap1\n      div\n      0xff\n      and\n      dup2\n      jump\t// out\n        /* \"Default_Values/default_Values.sol\":178:195  string public str */\n    tag_21:\n      0x03\n      dup1\n      sload\n      tag_28\n      swap1\n      tag_29\n      jump\t// in\n    tag_28:\n      dup1\n      0x1f\n      add\n      0x20\n      dup1\n      swap2\n      div\n      mul\n      0x20\n      add\n      mload(0x40)\n      swap1\n      dup2\n      add\n      0x40\n      mstore\n      dup1\n      swap3\n      swap2\n      swap1\n      dup2\n      dup2\n      mstore\n      0x20\n      add\n      dup3\n      dup1\n      sload\n      tag_30\n      swap1\n      tag_29\n      jump\t// in\n    tag_30:\n      dup1\n      iszero\n      tag_31\n      jumpi\n      dup1\n      0x1f\n      lt\n      tag_32\n      jumpi\n      0x0100\n      dup1\n      dup4\n      sload\n      div\n      mul\n      dup4\n      mstore\n      swap2\n      0x20\n      add\n      swap2\n      jump(tag_31)\n    tag_32:\n      dup3\n      add\n      swap2\n      swap1\n      0x00\n      mstore\n      keccak256(0x00, 0x20)\n      swap1\n    tag_33:\n      dup2\n      sload\n      dup2\n      mstore\n      swap1\n      0x01\n      add\n      swap1\n      0x20\n      add\n      dup1\n      dup4\n      gt\n      tag_33\n      jumpi\n      dup3\n      swap1\n      sub\n      0x1f\n      and\n      dup3\n      add\n      swap2\n    tag_31:\n      pop\n      pop\n      pop\n      pop\n      pop\n      dup2\n      jump\t// out\n        /* \"Default_Values/default_Values.sol\":132:148  address public z */\n    tag_25:\n      0x01\n      dup1\n      sload\n      swap1\n      0x0100\n      exp\n      swap1\n      div\n      0xffffffffffffffffffffffffffffffffffffffff\n      and\n      dup2\n      jump\t// out\n        /* \"#utility.yul\":7:84   */\n    tag_34:\n        /* \"#utility.yul\":44:51   */\n      0x00\n        /* \"#utility.yul\":73:78   */\n      dup2\n        /* \"#utility.yul\":62:78   */\n      swap1\n      pop\n        /* \"#utility.yul\":7:84   */\n      swap2\n      swap1\n      pop\n      jump\t// out\n        /* \"#utility.yul\":90:208   */\n    tag_35:\n        /* \"#utility.yul\":177:201   */\n      tag_52\n        /* \"#utility.yul\":195:200   */\n      dup2\n        /* \"#utility.yul\":177:201   */\n      tag_34\n      jump\t// in\n    tag_52:\n        /* \"#utility.yul\":172:175   */\n      dup3\n        /* \"#utility.yul\":165:202   */\n      mstore\n        /* \"#utility.yul\":90:208   */\n      pop\n      pop\n      jump\t// out\n        /* \"#utility.yul\":214:436   */\n    tag_11:\n        /* \"#utility.yul\":307:311   */\n      0x00\n        /* \"#utility.yul\":345:347   */\n      0x20\n        /* \"#utility.yul\":334:343   */\n      dup3\n        /* \"#utility.yul\":330:348   */\n      add\n        /* \"#utility.yul\":322:348   */\n      swap1\n      pop\n        /* \"#utility.yul\":358:429   */\n      tag_54\n        /* \"#utility.yul\":426:427   */\n      0x00\n        /* \"#utility.yul\":415:424   */\n      dup4\n        /* \"#utility.yul\":411:428   */\n      add\n        /* \"#utility.yul\":402:408   */\n      dup5\n        /* \"#utility.yul\":358:429   */\n      tag_35\n      jump\t// in\n    tag_54:\n        /* \"#utility.yul\":214:436   */\n      swap3\n      swap2\n      pop\n      pop\n      jump\t// out\n        /* \"#utility.yul\":442:519   */\n    tag_36:\n        /* \"#utility.yul\":479:486   */\n      0x00\n        /* \"#utility.yul\":508:513   */\n      dup2\n        /* \"#utility.yul\":497:513   */\n      swap1\n      pop\n        /* \"#utility.yul\":442:519   */\n      swap2\n      swap1\n      pop\n      jump\t// out\n        /* \"#utility.yul\":525:643   */\n    tag_37:\n        /* \"#utility.yul\":612:636   */\n      tag_57\n        /* \"#utility.yul\":630:635   */\n      dup2\n        /* \"#utility.yul\":612:636   */\n      tag_36\n      jump\t// in\n    tag_57:\n        /* \"#utility.yul\":607:610   */\n      dup3\n        /* \"#utility.yul\":600:637   */\n      mstore\n        /* \"#utility.yul\":525:643   */\n      pop\n      pop\n      jump\t// out\n        /* \"#utility.yul\":649:871   */\n    tag_15:\n        /* \"#utility.yul\":742:746   */\n      0x00\n        /* \"#utility.yul\":780:782   */\n      0x20\n        /* \"#utility.yul\":769:778   */\n      dup3\n        /* \"#utility.yul\":765:783   */\n      add\n        /* \"#utility.yul\":757:783   */\n      swap1\n      pop\n        /* \"#utility.yul\":793:864   */\n      tag_59\n        /* \"#utility.yul\":861:862   */\n      0x00\n        /* \"#utility.yul\":850:859   */\n      dup4\n        /* \"#utility.yul\":846:863   */\n      add\n        /* \"#utility.yul\":837:843   */\n      dup5\n        /* \"#utility.yul\":793:864   */\n      tag_37\n      jump\t// in\n    tag_59:\n        /* \"#utility.yul\":649:871   */\n      swap3\n      swap2\n      pop\n      pop\n      jump\t// out\n        /* \"#utility.yul\":877:967   */\n    tag_38:\n        /* \"#utility.yul\":911:918   */\n      0x00\n        /* \"#utility.yul\":954:959   */\n      dup2\n        /* \"#utility.yul\":947:960   */\n      iszero\n        /* \"#utility.yul\":940:961   */\n      iszero\n        /* \"#utility.yul\":929:961   */\n      swap1\n      pop\n        /* \"#utility.yul\":877:967   */\n      swap2\n      swap1\n      pop\n      jump\t// out\n        /* \"#utility.yul\":973:1082   */\n    tag_39:\n        /* \"#utility.yul\":1054:1075   */\n      tag_62\n        /* \"#utility.yul\":1069:1074   */\n      dup2\n        /* \"#utility.yul\":1054:1075   */\n      tag_38\n      jump\t// in\n    tag_62:\n        /* \"#utility.yul\":1049:1052   */\n      dup3\n        /* \"#utility.yul\":1042:1076   */\n      mstore\n        /* \"#utility.yul\":973:1082   */\n      pop\n      pop\n      jump\t// out\n        /* \"#utility.yul\":1088:1298   */\n    tag_19:\n        /* \"#utility.yul\":1175:1179   */\n      0x00\n        /* \"#utility.yul\":1213:1215   */\n      0x20\n        /* \"#utility.yul\":1202:1211   */\n      dup3\n        /* \"#utility.yul\":1198:1216   */\n      add\n        /* \"#utility.yul\":1190:1216   */\n      swap1\n      pop\n        /* \"#utility.yul\":1226:1291   */\n      tag_64\n        /* \"#utility.yul\":1288:1289   */\n      0x00\n        /* \"#utility.yul\":1277:1286   */\n      dup4\n        /* \"#utility.yul\":1273:1290   */\n      add\n        /* \"#utility.yul\":1264:1270   */\n      dup5\n        /* \"#utility.yul\":1226:1291   */\n      tag_39\n      jump\t// in\n    tag_64:\n        /* \"#utility.yul\":1088:1298   */\n      swap3\n      swap2\n      pop\n      pop\n      jump\t// out\n        /* \"#utility.yul\":1304:1403   */\n    tag_40:\n        /* \"#utility.yul\":1356:1362   */\n      0x00\n        /* \"#utility.yul\":1390:1395   */\n      dup2\n        /* \"#utility.yul\":1384:1396   */\n      mload\n        /* \"#utility.yul\":1374:1396   */\n      swap1\n      pop\n        /* \"#utility.yul\":1304:1403   */\n      swap2\n      swap1\n      pop\n      jump\t// out\n        /* \"#utility.yul\":1409:1578   */\n    tag_41:\n        /* \"#utility.yul\":1493:1504   */\n      0x00\n        /* \"#utility.yul\":1527:1533   */\n      dup3\n        /* \"#utility.yul\":1522:1525   */\n      dup3\n        /* \"#utility.yul\":1515:1534   */\n      mstore\n        /* \"#utility.yul\":1567:1571   */\n      0x20\n        /* \"#utility.yul\":1562:1565   */\n      dup3\n        /* \"#utility.yul\":1558:1572   */\n      add\n        /* \"#utility.yul\":1543:1572   */\n      swap1\n      pop\n        /* \"#utility.yul\":1409:1578   */\n      swap3\n      swap2\n      pop\n      pop\n      jump\t// out\n        /* \"#utility.yul\":1584:1830   */\n    tag_42:\n        /* \"#utility.yul\":1665:1666   */\n      0x00\n        /* \"#utility.yul\":1675:1788   */\n    tag_68:\n        /* \"#utility.yul\":1689:1695   */\n      dup4\n        /* \"#utility.yul\":1686:1687   */\n      dup2\n        /* \"#utility.yul\":1683:1696   */\n      lt\n        /* \"#utility.yul\":1675:1788   */\n      iszero\n      tag_70\n      jumpi\n        /* \"#utility.yul\":1774:1775   */\n      dup1\n        /* \"#utility.yul\":1769:1772   */\n      dup3\n        /* \"#utility.yul\":1765:1776   */\n      add\n        /* \"#utility.yul\":1759:1777   */\n      mload\n        /* \"#utility.yul\":1755:1756   */\n      dup2\n        /* \"#utility.yul\":1750:1753   */\n      dup5\n        /* \"#utility.yul\":1746:1757   */\n      add\n        /* \"#utility.yul\":1739:1778   */\n      mstore\n        /* \"#utility.yul\":1711:1713   */\n      0x20\n        /* \"#utility.yul\":1708:1709   */\n      dup2\n        /* \"#utility.yul\":1704:1714   */\n      add\n        /* \"#utility.yul\":1699:1714   */\n      swap1\n      pop\n        /* \"#utility.yul\":1675:1788   */\n      jump(tag_68)\n    tag_70:\n        /* \"#utility.yul\":1822:1823   */\n      0x00\n        /* \"#utility.yul\":1813:1819   */\n      dup5\n        /* \"#utility.yul\":1808:1811   */\n      dup5\n        /* \"#utility.yul\":1804:1820   */\n      add\n        /* \"#utility.yul\":1797:1824   */\n      mstore\n        /* \"#utility.yul\":1646:1830   */\n      pop\n        /* \"#utility.yul\":1584:1830   */\n      pop\n      pop\n      pop\n      jump\t// out\n        /* \"#utility.yul\":1836:1938   */\n    tag_43:\n        /* \"#utility.yul\":1877:1883   */\n      0x00\n        /* \"#utility.yul\":1928:1930   */\n      0x1f\n        /* \"#utility.yul\":1924:1931   */\n      not\n        /* \"#utility.yul\":1919:1921   */\n      0x1f\n        /* \"#utility.yul\":1912:1917   */\n      dup4\n        /* \"#utility.yul\":1908:1922   */\n      add\n        /* \"#utility.yul\":1904:1932   */\n      and\n        /* \"#utility.yul\":1894:1932   */\n      swap1\n      pop\n        /* \"#utility.yul\":1836:1938   */\n      swap2\n      swap1\n      pop\n      jump\t// out\n        /* \"#utility.yul\":1944:2321   */\n    tag_44:\n        /* \"#utility.yul\":2032:2035   */\n      0x00\n        /* \"#utility.yul\":2060:2099   */\n      tag_73\n        /* \"#utility.yul\":2093:2098   */\n      dup3\n        /* \"#utility.yul\":2060:2099   */\n      tag_40\n      jump\t// in\n    tag_73:\n        /* \"#utility.yul\":2115:2186   */\n      tag_74\n        /* \"#utility.yul\":2179:2185   */\n      dup2\n        /* \"#utility.yul\":2174:2177   */\n      dup6\n        /* \"#utility.yul\":2115:2186   */\n      tag_41\n      jump\t// in\n    tag_74:\n        /* \"#utility.yul\":2108:2186   */\n      swap4\n      pop\n        /* \"#utility.yul\":2195:2260   */\n      tag_75\n        /* \"#utility.yul\":2253:2259   */\n      dup2\n        /* \"#utility.yul\":2248:2251   */\n      dup6\n        /* \"#utility.yul\":2241:2245   */\n      0x20\n        /* \"#utility.yul\":2234:2239   */\n      dup7\n        /* \"#utility.yul\":2230:2246   */\n      add\n        /* \"#utility.yul\":2195:2260   */\n      tag_42\n      jump\t// in\n    tag_75:\n        /* \"#utility.yul\":2285:2314   */\n      tag_76\n        /* \"#utility.yul\":2307:2313   */\n      dup2\n        /* \"#utility.yul\":2285:2314   */\n      tag_43\n      jump\t// in\n    tag_76:\n        /* \"#utility.yul\":2280:2283   */\n      dup5\n        /* \"#utility.yul\":2276:2315   */\n      add\n        /* \"#utility.yul\":2269:2315   */\n      swap2\n      pop\n        /* \"#utility.yul\":2036:2321   */\n      pop\n        /* \"#utility.yul\":1944:2321   */\n      swap3\n      swap2\n      pop\n      pop\n      jump\t// out\n        /* \"#utility.yul\":2327:2640   */\n    tag_23:\n        /* \"#utility.yul\":2440:2444   */\n      0x00\n        /* \"#utility.yul\":2478:2480   */\n      0x20\n        /* \"#utility.yul\":2467:2476   */\n      dup3\n        /* \"#utility.yul\":2463:2481   */\n      add\n        /* \"#utility.yul\":2455:2481   */\n      swap1\n      pop\n        /* \"#utility.yul\":2527:2536   */\n      dup2\n        /* \"#utility.yul\":2521:2525   */\n      dup2\n        /* \"#utility.yul\":2517:2537   */\n      sub\n        /* \"#utility.yul\":2513:2514   */\n      0x00\n        /* \"#utility.yul\":2502:2511   */\n      dup4\n        /* \"#utility.yul\":2498:2515   */\n      add\n        /* \"#utility.yul\":2491:2538   */\n      mstore\n        /* \"#utility.yul\":2555:2633   */\n      tag_78\n        /* \"#utility.yul\":2628:2632   */\n      dup2\n        /* \"#utility.yul\":2619:2625   */\n      dup5\n        /* \"#utility.yul\":2555:2633   */\n      tag_44\n      jump\t// in\n    tag_78:\n        /* \"#utility.yul\":2547:2633   */\n      swap1\n      pop\n        /* \"#utility.yul\":2327:2640   */\n      swap3\n      swap2\n      pop\n      pop\n      jump\t// out\n        /* \"#utility.yul\":2646:2772   */\n    tag_45:\n        /* \"#utility.yul\":2683:2690   */\n      0x00\n        /* \"#utility.yul\":2723:2765   */\n      0xffffffffffffffffffffffffffffffffffffffff\n        /* \"#utility.yul\":2716:2721   */\n      dup3\n        /* \"#utility.yul\":2712:2766   */\n      and\n        /* \"#utility.yul\":2701:2766   */\n      swap1\n      pop\n        /* \"#utility.yul\":2646:2772   */\n      swap2\n      swap1\n      pop\n      jump\t// out\n        /* \"#utility.yul\":2778:2874   */\n    tag_46:\n        /* \"#utility.yul\":2815:2822   */\n      0x00\n        /* \"#utility.yul\":2844:2868   */\n      tag_81\n        /* \"#utility.yul\":2862:2867   */\n      dup3\n        /* \"#utility.yul\":2844:2868   */\n      tag_45\n      jump\t// in\n    tag_81:\n        /* \"#utility.yul\":2833:2868   */\n      swap1\n      pop\n        /* \"#utility.yul\":2778:2874   */\n      swap2\n      swap1\n      pop\n      jump\t// out\n        /* \"#utility.yul\":2880:2998   */\n    tag_47:\n        /* \"#utility.yul\":2967:2991   */\n      tag_83\n        /* \"#utility.yul\":2985:2990   */\n      dup2\n        /* \"#utility.yul\":2967:2991   */\n      tag_46\n      jump\t// in\n    tag_83:\n        /* \"#utility.yul\":2962:2965   */\n      dup3\n        /* \"#utility.yul\":2955:2992   */\n      mstore\n        /* \"#utility.yul\":2880:2998   */\n      pop\n      pop\n      jump\t// out\n        /* \"#utility.yul\":3004:3226   */\n    tag_27:\n        /* \"#utility.yul\":3097:3101   */\n      0x00\n        /* \"#utility.yul\":3135:3137   */\n      0x20\n        /* \"#utility.yul\":3124:3133   */\n      dup3\n        /* \"#utility.yul\":3120:3138   */\n      add\n        /* \"#utility.yul\":3112:3138   */\n      swap1\n      pop\n        /* \"#utility.yul\":3148:3219   */\n      tag_85\n        /* \"#utility.yul\":3216:3217   */\n      0x00\n        /* \"#utility.yul\":3205:3214   */\n      dup4\n        /* \"#utility.yul\":3201:3218   */\n      add\n        /* \"#utility.yul\":3192:3198   */\n      dup5\n        /* \"#utility.yul\":3148:3219   */\n      tag_47\n      jump\t// in\n    tag_85:\n        /* \"#utility.yul\":3004:3226   */\n      swap3\n      swap2\n      pop\n      pop\n      jump\t// out\n        /* \"#utility.yul\":3232:3412   */\n    tag_48:\n        /* \"#utility.yul\":3280:3357   */\n      0x4e487b7100000000000000000000000000000000000000000000000000000000\n        /* \"#utility.yul\":3277:3278   */\n      0x00\n        /* \"#utility.yul\":3270:3358   */\n      mstore\n        /* \"#utility.yul\":3377:3381   */\n      0x22\n        /* \"#utility.yul\":3374:3375   */\n      0x04\n        /* \"#utility.yul\":3367:3382   */\n      mstore\n        /* \"#utility.yul\":3401:3405   */\n      0x24\n        /* \"#utility.yul\":3398:3399   */\n      0x00\n        /* \"#utility.yul\":3391:3406   */\n      revert\n        /* \"#utility.yul\":3418:3738   */\n    tag_29:\n        /* \"#utility.yul\":3462:3468   */\n      0x00\n        /* \"#utility.yul\":3499:3500   */\n      0x02\n        /* \"#utility.yul\":3493:3497   */\n      dup3\n        /* \"#utility.yul\":3489:3501   */\n      div\n        /* \"#utility.yul\":3479:3501   */\n      swap1\n      pop\n        /* \"#utility.yul\":3546:3547   */\n      0x01\n        /* \"#utility.yul\":3540:3544   */\n      dup3\n        /* \"#utility.yul\":3536:3548   */\n      and\n        /* \"#utility.yul\":3567:3585   */\n      dup1\n        /* \"#utility.yul\":3557:3638   */\n      tag_88\n      jumpi\n        /* \"#utility.yul\":3623:3627   */\n      0x7f\n        /* \"#utility.yul\":3615:3621   */\n      dup3\n        /* \"#utility.yul\":3611:3628   */\n      and\n        /* \"#utility.yul\":3601:3628   */\n      swap2\n      pop\n        /* \"#utility.yul\":3557:3638   */\n    tag_88:\n        /* \"#utility.yul\":3685:3687   */\n      0x20\n        /* \"#utility.yul\":3677:3683   */\n      dup3\n        /* \"#utility.yul\":3674:3688   */\n      lt\n        /* \"#utility.yul\":3654:3672   */\n      dup2\n        /* \"#utility.yul\":3651:3689   */\n      sub\n        /* \"#utility.yul\":3648:3732   */\n      tag_89\n      jumpi\n        /* \"#utility.yul\":3704:3722   */\n      tag_90\n      tag_48\n      jump\t// in\n    tag_90:\n        /* \"#utility.yul\":3648:3732   */\n    tag_89:\n        /* \"#utility.yul\":3469:3738   */\n      pop\n        /* \"#utility.yul\":3418:3738   */\n      swap2\n      swap1\n      pop\n      jump\t// out\n\n    auxdata: 0xa2646970667358221220758a2be7a5ea43266a84c65225dcb644ccaa708ee76a3a0bb477e141af89167664736f6c63430008120033\n}\n",
				"bytecode": {
					"linkReferences": {},
					"object": "608060405234801561001057600080fd5b50610405806100206000396000f3fe608060405234801561001057600080fd5b50600436106100575760003560e01c80630c55699c1461005c5780630dbe671f1461007a578063a56dfe4a14610098578063c15bae84146100b6578063c5d7802e146100d4575b600080fd5b6100646100f2565b60405161007191906101dc565b60405180910390f35b6100826100f8565b60405161008f9190610210565b60405180910390f35b6100a06100fe565b6040516100ad9190610246565b60405180910390f35b6100be610111565b6040516100cb91906102f1565b60405180910390f35b6100dc61019f565b6040516100e99190610354565b60405180910390f35b60005481565b60025481565b600160009054906101000a900460ff1681565b6003805461011e9061039e565b80601f016020809104026020016040519081016040528092919081815260200182805461014a9061039e565b80156101975780601f1061016c57610100808354040283529160200191610197565b820191906000526020600020905b81548152906001019060200180831161017a57829003601f168201915b505050505081565b60018054906101000a900473ffffffffffffffffffffffffffffffffffffffff1681565b6000819050919050565b6101d6816101c3565b82525050565b60006020820190506101f160008301846101cd565b92915050565b6000819050919050565b61020a816101f7565b82525050565b60006020820190506102256000830184610201565b92915050565b60008115159050919050565b6102408161022b565b82525050565b600060208201905061025b6000830184610237565b92915050565b600081519050919050565b600082825260208201905092915050565b60005b8381101561029b578082015181840152602081019050610280565b60008484015250505050565b6000601f19601f8301169050919050565b60006102c382610261565b6102cd818561026c565b93506102dd81856020860161027d565b6102e6816102a7565b840191505092915050565b6000602082019050818103600083015261030b81846102b8565b905092915050565b600073ffffffffffffffffffffffffffffffffffffffff82169050919050565b600061033e82610313565b9050919050565b61034e81610333565b82525050565b60006020820190506103696000830184610345565b92915050565b7f4e487b7100000000000000000000000000000000000000000000000000000000600052602260045260246000fd5b600060028204905060018216806103b657607f821691505b6020821081036103c9576103c861036f565b5b5091905056fea2646970667358221220758a2be7a5ea43266a84c65225dcb644ccaa708ee76a3a0bb477e141af89167664736f6c63430008120033",
					"opcodes": "PUSH1 0x80 PUSH1 0x40 MSTORE CALLVALUE DUP1 ISZERO PUSH2 0x10 JUMPI PUSH1 0x0 DUP1 REVERT JUMPDEST POP PUSH2 0x405 DUP1 PUSH2 0x20 PUSH1 0x0 CODECOPY PUSH1 0x0 RETURN INVALID PUSH1 0x80 PUSH1 0x40 MSTORE CALLVALUE DUP1 ISZERO PUSH2 0x10 JUMPI PUSH1 0x0 DUP1 REVERT JUMPDEST POP PUSH1 0x4 CALLDATASIZE LT PUSH2 0x57 JUMPI PUSH1 0x0 CALLDATALOAD PUSH1 0xE0 SHR DUP1 PUSH4 0xC55699C EQ PUSH2 0x5C JUMPI DUP1 PUSH4 0xDBE671F EQ PUSH2 0x7A JUMPI DUP1 PUSH4 0xA56DFE4A EQ PUSH2 0x98 JUMPI DUP1 PUSH4 0xC15BAE84 EQ PUSH2 0xB6 JUMPI DUP1 PUSH4 0xC5D7802E EQ PUSH2 0xD4 JUMPI JUMPDEST PUSH1 0x0 DUP1 REVERT JUMPDEST PUSH2 0x64 PUSH2 0xF2 JUMP JUMPDEST PUSH1 0x40 MLOAD PUSH2 0x71 SWAP2 SWAP1 PUSH2 0x1DC JUMP JUMPDEST PUSH1 0x40 MLOAD DUP1 SWAP2 SUB SWAP1 RETURN JUMPDEST PUSH2 0x82 PUSH2 0xF8 JUMP JUMPDEST PUSH1 0x40 MLOAD PUSH2 0x8F SWAP2 SWAP1 PUSH2 0x210 JUMP JUMPDEST PUSH1 0x40 MLOAD DUP1 SWAP2 SUB SWAP1 RETURN JUMPDEST PUSH2 0xA0 PUSH2 0xFE JUMP JUMPDEST PUSH1 0x40 MLOAD PUSH2 0xAD SWAP2 SWAP1 PUSH2 0x246 JUMP JUMPDEST PUSH1 0x40 MLOAD DUP1 SWAP2 SUB SWAP1 RETURN JUMPDEST PUSH2 0xBE PUSH2 0x111 JUMP JUMPDEST PUSH1 0x40 MLOAD PUSH2 0xCB SWAP2 SWAP1 PUSH2 0x2F1 JUMP JUMPDEST PUSH1 0x40 MLOAD DUP1 SWAP2 SUB SWAP1 RETURN JUMPDEST PUSH2 0xDC PUSH2 0x19F JUMP JUMPDEST PUSH1 0x40 MLOAD PUSH2 0xE9 SWAP2 SWAP1 PUSH2 0x354 JUMP JUMPDEST PUSH1 0x40 MLOAD DUP1 SWAP2 SUB SWAP1 RETURN JUMPDEST PUSH1 0x0 SLOAD DUP2 JUMP JUMPDEST PUSH1 0x2 SLOAD DUP2 JUMP JUMPDEST PUSH1 0x1 PUSH1 0x0 SWAP1 SLOAD SWAP1 PUSH2 0x100 EXP SWAP1 DIV PUSH1 0xFF AND DUP2 JUMP JUMPDEST PUSH1 0x3 DUP1 SLOAD PUSH2 0x11E SWAP1 PUSH2 0x39E JUMP JUMPDEST DUP1 PUSH1 0x1F ADD PUSH1 0x20 DUP1 SWAP2 DIV MUL PUSH1 0x20 ADD PUSH1 0x40 MLOAD SWAP1 DUP2 ADD PUSH1 0x40 MSTORE DUP1 SWAP3 SWAP2 SWAP1 DUP2 DUP2 MSTORE PUSH1 0x20 ADD DUP3 DUP1 SLOAD PUSH2 0x14A SWAP1 PUSH2 0x39E JUMP JUMPDEST DUP1 ISZERO PUSH2 0x197 JUMPI DUP1 PUSH1 0x1F LT PUSH2 0x16C JUMPI PUSH2 0x100 DUP1 DUP4 SLOAD DIV MUL DUP4 MSTORE SWAP2 PUSH1 0x20 ADD SWAP2 PUSH2 0x197 JUMP JUMPDEST DUP3 ADD SWAP2 SWAP1 PUSH1 0x0 MSTORE PUSH1 0x20 PUSH1 0x0 KECCAK256 SWAP1 JUMPDEST DUP2 SLOAD DUP2 MSTORE SWAP1 PUSH1 0x1 ADD SWAP1 PUSH1 0x20 ADD DUP1 DUP4 GT PUSH2 0x17A JUMPI DUP3 SWAP1 SUB PUSH1 0x1F AND DUP3 ADD SWAP2 JUMPDEST POP POP POP POP POP DUP2 JUMP JUMPDEST PUSH1 0x1 DUP1 SLOAD SWAP1 PUSH2 0x100 EXP SWAP1 DIV PUSH20 0xFFFFFFFFFFFFFFFFFFFFFFFFFFFFFFFFFFFFFFFF AND DUP2 JUMP JUMPDEST PUSH1 0x0 DUP2 SWAP1 POP SWAP2 SWAP1 POP JUMP JUMPDEST PUSH2 0x1D6 DUP2 PUSH2 0x1C3 JUMP JUMPDEST DUP3 MSTORE POP POP JUMP JUMPDEST PUSH1 0x0 PUSH1 0x20 DUP3 ADD SWAP1 POP PUSH2 0x1F1 PUSH1 0x0 DUP4 ADD DUP5 PUSH2 0x1CD JUMP JUMPDEST SWAP3 SWAP2 POP POP JUMP JUMPDEST PUSH1 0x0 DUP2 SWAP1 POP SWAP2 SWAP1 POP JUMP JUMPDEST PUSH2 0x20A DUP2 PUSH2 0x1F7 JUMP JUMPDEST DUP3 MSTORE POP POP JUMP JUMPDEST PUSH1 0x0 PUSH1 0x20 DUP3 ADD SWAP1 POP PUSH2 0x225 PUSH1 0x0 DUP4 ADD DUP5 PUSH2 0x201 JUMP JUMPDEST SWAP3 SWAP2 POP POP JUMP JUMPDEST PUSH1 0x0 DUP2 ISZERO ISZERO SWAP1 POP SWAP2 SWAP1 POP JUMP JUMPDEST PUSH2 0x240 DUP2 PUSH2 0x22B JUMP JUMPDEST DUP3 MSTORE POP POP JUMP JUMPDEST PUSH1 0x0 PUSH1 0x20 DUP3 ADD SWAP1 POP PUSH2 0x25B PUSH1 0x0 DUP4 ADD DUP5 PUSH2 0x237 JUMP JUMPDEST SWAP3 SWAP2 POP POP JUMP JUMPDEST PUSH1 0x0 DUP2 MLOAD SWAP1 POP SWAP2 SWAP1 POP JUMP JUMPDEST PUSH1 0x0 DUP3 DUP3 MSTORE PUSH1 0x20 DUP3 ADD SWAP1 POP SWAP3 SWAP2 POP POP JUMP JUMPDEST PUSH1 0x0 JUMPDEST DUP4 DUP2 LT ISZERO PUSH2 0x29B JUMPI DUP1 DUP3 ADD MLOAD DUP2 DUP5 ADD MSTORE PUSH1 0x20 DUP2 ADD SWAP1 POP PUSH2 0x280 JUMP JUMPDEST PUSH1 0x0 DUP5 DUP5 ADD MSTORE POP POP POP POP JUMP JUMPDEST PUSH1 0x0 PUSH1 0x1F NOT PUSH1 0x1F DUP4 ADD AND SWAP1 POP SWAP2 SWAP1 POP JUMP JUMPDEST PUSH1 0x0 PUSH2 0x2C3 DUP3 PUSH2 0x261 JUMP JUMPDEST PUSH2 0x2CD DUP2 DUP6 PUSH2 0x26C JUMP JUMPDEST SWAP4 POP PUSH2 0x2DD DUP2 DUP6 PUSH1 0x20 DUP7 ADD PUSH2 0x27D JUMP JUMPDEST PUSH2 0x2E6 DUP2 PUSH2 0x2A7 JUMP JUMPDEST DUP5 ADD SWAP2 POP POP SWAP3 SWAP2 POP POP JUMP JUMPDEST PUSH1 0x0 PUSH1 0x20 DUP3 ADD SWAP1 POP DUP2 DUP2 SUB PUSH1 0x0 DUP4 ADD MSTORE PUSH2 0x30B DUP2 DUP5 PUSH2 0x2B8 JUMP JUMPDEST SWAP1 POP SWAP3 SWAP2 POP POP JUMP JUMPDEST PUSH1 0x0 PUSH20 0xFFFFFFFFFFFFFFFFFFFFFFFFFFFFFFFFFFFFFFFF DUP3 AND SWAP1 POP SWAP2 SWAP1 POP JUMP JUMPDEST PUSH1 0x0 PUSH2 0x33E DUP3 PUSH2 0x313 JUMP JUMPDEST SWAP1 POP SWAP2 SWAP1 POP JUMP JUMPDEST PUSH2 0x34E DUP2 PUSH2 0x333 JUMP JUMPDEST DUP3 MSTORE POP POP JUMP JUMPDEST PUSH1 0x0 PUSH1 0x20 DUP3 ADD SWAP1 POP PUSH2 0x369 PUSH1 0x0 DUP4 ADD DUP5 PUSH2 0x345 JUMP JUMPDEST SWAP3 SWAP2 POP POP JUMP JUMPDEST PUSH32 0x4E487B7100000000000000000000000000000000000000000000000000000000 PUSH1 0x0 MSTORE PUSH1 0x22 PUSH1 0x4 MSTORE PUSH1 0x24 PUSH1 0x0 REVERT JUMPDEST PUSH1 0x0 PUSH1 0x2 DUP3 DIV SWAP1 POP PUSH1 0x1 DUP3 AND DUP1 PUSH2 0x3B6 JUMPI PUSH1 0x7F DUP3 AND SWAP2 POP JUMPDEST PUSH1 0x20 DUP3 LT DUP2 SUB PUSH2 0x3C9 JUMPI PUSH2 0x3C8 PUSH2 0x36F JUMP JUMPDEST JUMPDEST POP SWAP2 SWAP1 POP JUMP INVALID LOG2 PUSH5 0x6970667358 0x22 SLT KECCAK256 PUSH22 0x8A2BE7A5EA43266A84C65225DCB644CCAA708EE76A3A SIGNEXTEND 0xB4 PUSH24 0xE141AF89167664736F6C6343000812003300000000000000 "
				},
				"gasEstimates": {
					"creation": {
						"codeDepositCost": "205800",
						"executionCost": "251",
						"totalCost": "206051"
					},
					"external": {
						"a()": "2429",
						"str()": "infinite",
						"x()": "2407",
						"y()": "2493",
						"z()": "2627"
					}
				},
				"methodIdentifiers": {
					"a()": "0dbe671f",
					"str()": "c15bae84",
					"x()": "0c55699c",
					"y()": "a56dfe4a",
					"z()": "c5d7802e"
				}
			},
			"storageLayout": {
				"storage": [
					{
						"astId": 3,
						"contract": "Default_Values/default_Values.sol:default_Values",
						"label": "x",
						"offset": 0,
						"slot": "0",
						"type": "t_uint256"
					},
					{
						"astId": 5,
						"contract": "Default_Values/default_Values.sol:default_Values",
						"label": "y",
						"offset": 0,
						"slot": "1",
						"type": "t_bool"
					},
					{
						"astId": 7,
						"contract": "Default_Values/default_Values.sol:default_Values",
						"label": "z",
						"offset": 1,
						"slot": "1",
						"type": "t_address"
					},
					{
						"astId": 9,
						"contract": "Default_Values/default_Values.sol:default_Values",
						"label": "a",
						"offset": 0,
						"slot": "2",
						"type": "t_bytes32"
					},
					{
						"astId": 11,
						"contract": "Default_Values/default_Values.sol:default_Values",
						"label": "str",
						"offset": 0,
						"slot": "3",
						"type": "t_string_storage"
					}
				],
				"types": {
					"t_address": {
						"encoding": "inplace",
						"label": "address",
						"numberOfBytes": "20"
					},
					"t_bool": {
						"encoding": "inplace",
						"label": "bool",
						"numberOfBytes": "1"
					},
					"t_bytes32": {
						"encoding": "inplace",
						"label": "bytes32",
						"numberOfBytes": "32"
					},
					"t_string_storage": {
						"encoding": "bytes",
						"label": "string",
						"numberOfBytes": "32"
					},
					"t_uint256": {
						"encoding": "inplace",
						"label": "uint256",
						"numberOfBytes": "32"
					}
				}
			},
			"userdoc": {
				"kind": "user",
				"methods": {},
				"version": 1
			}
		}
	}
}