{
	"Fallback_and_Receive_In_Blockchain/fallbackReceiveBlockchain.sol": {
		"fallbackReceiveBlockchain": {
			"abi": [
				{
					"anonymous": false,
					"inputs": [
						{
							"indexed": false,
							"internalType": "string",
							"name": "_fun",
							"type": "string"
						},
						{
							"indexed": false,
							"internalType": "address",
							"name": "_sender",
							"type": "address"
						},
						{
							"indexed": false,
							"internalType": "uint256",
							"name": "_val",
							"type": "uint256"
						},
						{
							"indexed": false,
							"internalType": "bytes",
							"name": "_data",
							"type": "bytes"
						}
					],
					"name": "log",
					"type": "event"
				},
				{
					"stateMutability": "payable",
					"type": "fallback"
				},
				{
					"inputs": [],
					"name": "chechBal",
					"outputs": [
						{
							"internalType": "uint256",
							"name": "",
							"type": "uint256"
						}
					],
					"stateMutability": "view",
					"type": "function"
				},
				{
					"stateMutability": "payable",
					"type": "receive"
				}
			],
			"devdoc": {
				"kind": "dev",
				"methods": {},
				"version": 1
			},
			"evm": {
				"assembly": "    /* \"Fallback_and_Receive_In_Blockchain/fallbackReceiveBlockchain.sol\":454:1681  contract fallbackReceiveBlockchain{... */\n  mstore(0x40, 0x80)\n  callvalue\n  dup1\n  iszero\n  tag_1\n  jumpi\n  0x00\n  dup1\n  revert\ntag_1:\n  pop\n  dataSize(sub_0)\n  dup1\n  dataOffset(sub_0)\n  0x00\n  codecopy\n  0x00\n  return\nstop\n\nsub_0: assembly {\n        /* \"Fallback_and_Receive_In_Blockchain/fallbackReceiveBlockchain.sol\":454:1681  contract fallbackReceiveBlockchain{... */\n      mstore(0x40, 0x80)\n      jumpi(tag_1, lt(calldatasize, 0x04))\n      shr(0xe0, calldataload(0x00))\n      dup1\n      0xf01c6560\n      eq\n      tag_3\n      jumpi\n      jump(tag_2)\n    tag_1:\n      jumpi(tag_2, calldatasize)\n        /* \"Fallback_and_Receive_In_Blockchain/fallbackReceiveBlockchain.sol\":1229:1271  log(\"fallback\", msg.sender, msg.value, \"\") */\n      0xbb7455e1330c1ad664613f3d998bd858bae53893f04a4eb34718b211dd87c59e\n        /* \"Fallback_and_Receive_In_Blockchain/fallbackReceiveBlockchain.sol\":1245:1255  msg.sender */\n      caller\n        /* \"Fallback_and_Receive_In_Blockchain/fallbackReceiveBlockchain.sol\":1257:1266  msg.value */\n      callvalue\n        /* \"Fallback_and_Receive_In_Blockchain/fallbackReceiveBlockchain.sol\":1229:1271  log(\"fallback\", msg.sender, msg.value, \"\") */\n      mload(0x40)\n      tag_6\n      swap3\n      swap2\n      swap1\n      tag_7\n      jump\t// in\n    tag_6:\n      mload(0x40)\n      dup1\n      swap2\n      sub\n      swap1\n      log1\n        /* \"Fallback_and_Receive_In_Blockchain/fallbackReceiveBlockchain.sol\":454:1681  contract fallbackReceiveBlockchain{... */\n      stop\n    tag_2:\n        /* \"Fallback_and_Receive_In_Blockchain/fallbackReceiveBlockchain.sol\":817:865  log(\"fallback\", msg.sender, msg.value, msg.data) */\n      0xbb7455e1330c1ad664613f3d998bd858bae53893f04a4eb34718b211dd87c59e\n        /* \"Fallback_and_Receive_In_Blockchain/fallbackReceiveBlockchain.sol\":833:843  msg.sender */\n      caller\n        /* \"Fallback_and_Receive_In_Blockchain/fallbackReceiveBlockchain.sol\":845:854  msg.value */\n      callvalue\n        /* \"Fallback_and_Receive_In_Blockchain/fallbackReceiveBlockchain.sol\":856:864  msg.data */\n      0x00\n      calldatasize\n        /* \"Fallback_and_Receive_In_Blockchain/fallbackReceiveBlockchain.sol\":817:865  log(\"fallback\", msg.sender, msg.value, msg.data) */\n      mload(0x40)\n      tag_10\n      swap5\n      swap4\n      swap3\n      swap2\n      swap1\n      tag_11\n      jump\t// in\n    tag_10:\n      mload(0x40)\n      dup1\n      swap2\n      sub\n      swap1\n      log1\n        /* \"Fallback_and_Receive_In_Blockchain/fallbackReceiveBlockchain.sol\":454:1681  contract fallbackReceiveBlockchain{... */\n      stop\n        /* \"Fallback_and_Receive_In_Blockchain/fallbackReceiveBlockchain.sol\":1584:1676  function chechBal() public view returns(uint){... */\n    tag_3:\n      callvalue\n      dup1\n      iszero\n      tag_12\n      jumpi\n      0x00\n      dup1\n      revert\n    tag_12:\n      pop\n      tag_13\n      tag_14\n      jump\t// in\n    tag_13:\n      mload(0x40)\n      tag_15\n      swap2\n      swap1\n      tag_16\n      jump\t// in\n    tag_15:\n      mload(0x40)\n      dup1\n      swap2\n      sub\n      swap1\n      return\n    tag_14:\n        /* \"Fallback_and_Receive_In_Blockchain/fallbackReceiveBlockchain.sol\":1624:1628  uint */\n      0x00\n        /* \"Fallback_and_Receive_In_Blockchain/fallbackReceiveBlockchain.sol\":1647:1668  address(this).balance */\n      selfbalance\n        /* \"Fallback_and_Receive_In_Blockchain/fallbackReceiveBlockchain.sol\":1640:1668  return address(this).balance */\n      swap1\n      pop\n        /* \"Fallback_and_Receive_In_Blockchain/fallbackReceiveBlockchain.sol\":1584:1676  function chechBal() public view returns(uint){... */\n      swap1\n      jump\t// out\n        /* \"#utility.yul\":7:176   */\n    tag_18:\n        /* \"#utility.yul\":91:102   */\n      0x00\n        /* \"#utility.yul\":125:131   */\n      dup3\n        /* \"#utility.yul\":120:123   */\n      dup3\n        /* \"#utility.yul\":113:132   */\n      mstore\n        /* \"#utility.yul\":165:169   */\n      0x20\n        /* \"#utility.yul\":160:163   */\n      dup3\n        /* \"#utility.yul\":156:170   */\n      add\n        /* \"#utility.yul\":141:170   */\n      swap1\n      pop\n        /* \"#utility.yul\":7:176   */\n      swap3\n      swap2\n      pop\n      pop\n      jump\t// out\n        /* \"#utility.yul\":182:340   */\n    tag_19:\n        /* \"#utility.yul\":322:332   */\n      0x66616c6c6261636b000000000000000000000000000000000000000000000000\n        /* \"#utility.yul\":318:319   */\n      0x00\n        /* \"#utility.yul\":310:316   */\n      dup3\n        /* \"#utility.yul\":306:320   */\n      add\n        /* \"#utility.yul\":299:333   */\n      mstore\n        /* \"#utility.yul\":182:340   */\n      pop\n      jump\t// out\n        /* \"#utility.yul\":346:711   */\n    tag_20:\n        /* \"#utility.yul\":488:491   */\n      0x00\n        /* \"#utility.yul\":509:575   */\n      tag_36\n        /* \"#utility.yul\":573:574   */\n      0x08\n        /* \"#utility.yul\":568:571   */\n      dup4\n        /* \"#utility.yul\":509:575   */\n      tag_18\n      jump\t// in\n    tag_36:\n        /* \"#utility.yul\":502:575   */\n      swap2\n      pop\n        /* \"#utility.yul\":584:677   */\n      tag_37\n        /* \"#utility.yul\":673:676   */\n      dup3\n        /* \"#utility.yul\":584:677   */\n      tag_19\n      jump\t// in\n    tag_37:\n        /* \"#utility.yul\":702:704   */\n      0x20\n        /* \"#utility.yul\":697:700   */\n      dup3\n        /* \"#utility.yul\":693:705   */\n      add\n        /* \"#utility.yul\":686:705   */\n      swap1\n      pop\n        /* \"#utility.yul\":346:711   */\n      swap2\n      swap1\n      pop\n      jump\t// out\n        /* \"#utility.yul\":717:843   */\n    tag_21:\n        /* \"#utility.yul\":754:761   */\n      0x00\n        /* \"#utility.yul\":794:836   */\n      0xffffffffffffffffffffffffffffffffffffffff\n        /* \"#utility.yul\":787:792   */\n      dup3\n        /* \"#utility.yul\":783:837   */\n      and\n        /* \"#utility.yul\":772:837   */\n      swap1\n      pop\n        /* \"#utility.yul\":717:843   */\n      swap2\n      swap1\n      pop\n      jump\t// out\n        /* \"#utility.yul\":849:945   */\n    tag_22:\n        /* \"#utility.yul\":886:893   */\n      0x00\n        /* \"#utility.yul\":915:939   */\n      tag_40\n        /* \"#utility.yul\":933:938   */\n      dup3\n        /* \"#utility.yul\":915:939   */\n      tag_21\n      jump\t// in\n    tag_40:\n        /* \"#utility.yul\":904:939   */\n      swap1\n      pop\n        /* \"#utility.yul\":849:945   */\n      swap2\n      swap1\n      pop\n      jump\t// out\n        /* \"#utility.yul\":951:1069   */\n    tag_23:\n        /* \"#utility.yul\":1038:1062   */\n      tag_42\n        /* \"#utility.yul\":1056:1061   */\n      dup2\n        /* \"#utility.yul\":1038:1062   */\n      tag_22\n      jump\t// in\n    tag_42:\n        /* \"#utility.yul\":1033:1036   */\n      dup3\n        /* \"#utility.yul\":1026:1063   */\n      mstore\n        /* \"#utility.yul\":951:1069   */\n      pop\n      pop\n      jump\t// out\n        /* \"#utility.yul\":1075:1152   */\n    tag_24:\n        /* \"#utility.yul\":1112:1119   */\n      0x00\n        /* \"#utility.yul\":1141:1146   */\n      dup2\n        /* \"#utility.yul\":1130:1146   */\n      swap1\n      pop\n        /* \"#utility.yul\":1075:1152   */\n      swap2\n      swap1\n      pop\n      jump\t// out\n        /* \"#utility.yul\":1158:1276   */\n    tag_25:\n        /* \"#utility.yul\":1245:1269   */\n      tag_45\n        /* \"#utility.yul\":1263:1268   */\n      dup2\n        /* \"#utility.yul\":1245:1269   */\n      tag_24\n      jump\t// in\n    tag_45:\n        /* \"#utility.yul\":1240:1243   */\n      dup3\n        /* \"#utility.yul\":1233:1270   */\n      mstore\n        /* \"#utility.yul\":1158:1276   */\n      pop\n      pop\n      jump\t// out\n        /* \"#utility.yul\":1282:1450   */\n    tag_26:\n        /* \"#utility.yul\":1365:1376   */\n      0x00\n        /* \"#utility.yul\":1399:1405   */\n      dup3\n        /* \"#utility.yul\":1394:1397   */\n      dup3\n        /* \"#utility.yul\":1387:1406   */\n      mstore\n        /* \"#utility.yul\":1439:1443   */\n      0x20\n        /* \"#utility.yul\":1434:1437   */\n      dup3\n        /* \"#utility.yul\":1430:1444   */\n      add\n        /* \"#utility.yul\":1415:1444   */\n      swap1\n      pop\n        /* \"#utility.yul\":1282:1450   */\n      swap3\n      swap2\n      pop\n      pop\n      jump\t// out\n        /* \"#utility.yul\":1456:1570   */\n    tag_27:\n      pop\n      jump\t// out\n        /* \"#utility.yul\":1576:1938   */\n    tag_28:\n        /* \"#utility.yul\":1717:1720   */\n      0x00\n        /* \"#utility.yul\":1738:1803   */\n      tag_49\n        /* \"#utility.yul\":1801:1802   */\n      0x00\n        /* \"#utility.yul\":1796:1799   */\n      dup4\n        /* \"#utility.yul\":1738:1803   */\n      tag_26\n      jump\t// in\n    tag_49:\n        /* \"#utility.yul\":1731:1803   */\n      swap2\n      pop\n        /* \"#utility.yul\":1812:1905   */\n      tag_50\n        /* \"#utility.yul\":1901:1904   */\n      dup3\n        /* \"#utility.yul\":1812:1905   */\n      tag_27\n      jump\t// in\n    tag_50:\n        /* \"#utility.yul\":1930:1931   */\n      0x00\n        /* \"#utility.yul\":1925:1928   */\n      dup3\n        /* \"#utility.yul\":1921:1932   */\n      add\n        /* \"#utility.yul\":1914:1932   */\n      swap1\n      pop\n        /* \"#utility.yul\":1576:1938   */\n      swap2\n      swap1\n      pop\n      jump\t// out\n        /* \"#utility.yul\":1944:2889   */\n    tag_7:\n        /* \"#utility.yul\":2266:2270   */\n      0x00\n        /* \"#utility.yul\":2304:2307   */\n      0x80\n        /* \"#utility.yul\":2293:2302   */\n      dup3\n        /* \"#utility.yul\":2289:2308   */\n      add\n        /* \"#utility.yul\":2281:2308   */\n      swap1\n      pop\n        /* \"#utility.yul\":2354:2363   */\n      dup2\n        /* \"#utility.yul\":2348:2352   */\n      dup2\n        /* \"#utility.yul\":2344:2364   */\n      sub\n        /* \"#utility.yul\":2340:2341   */\n      0x00\n        /* \"#utility.yul\":2329:2338   */\n      dup4\n        /* \"#utility.yul\":2325:2342   */\n      add\n        /* \"#utility.yul\":2318:2365   */\n      mstore\n        /* \"#utility.yul\":2382:2513   */\n      tag_52\n        /* \"#utility.yul\":2508:2512   */\n      dup2\n        /* \"#utility.yul\":2382:2513   */\n      tag_20\n      jump\t// in\n    tag_52:\n        /* \"#utility.yul\":2374:2513   */\n      swap1\n      pop\n        /* \"#utility.yul\":2523:2595   */\n      tag_53\n        /* \"#utility.yul\":2591:2593   */\n      0x20\n        /* \"#utility.yul\":2580:2589   */\n      dup4\n        /* \"#utility.yul\":2576:2594   */\n      add\n        /* \"#utility.yul\":2567:2573   */\n      dup6\n        /* \"#utility.yul\":2523:2595   */\n      tag_23\n      jump\t// in\n    tag_53:\n        /* \"#utility.yul\":2605:2677   */\n      tag_54\n        /* \"#utility.yul\":2673:2675   */\n      0x40\n        /* \"#utility.yul\":2662:2671   */\n      dup4\n        /* \"#utility.yul\":2658:2676   */\n      add\n        /* \"#utility.yul\":2649:2655   */\n      dup5\n        /* \"#utility.yul\":2605:2677   */\n      tag_25\n      jump\t// in\n    tag_54:\n        /* \"#utility.yul\":2724:2733   */\n      dup2\n        /* \"#utility.yul\":2718:2722   */\n      dup2\n        /* \"#utility.yul\":2714:2734   */\n      sub\n        /* \"#utility.yul\":2709:2711   */\n      0x60\n        /* \"#utility.yul\":2698:2707   */\n      dup4\n        /* \"#utility.yul\":2694:2712   */\n      add\n        /* \"#utility.yul\":2687:2735   */\n      mstore\n        /* \"#utility.yul\":2752:2882   */\n      tag_55\n        /* \"#utility.yul\":2877:2881   */\n      dup2\n        /* \"#utility.yul\":2752:2882   */\n      tag_28\n      jump\t// in\n    tag_55:\n        /* \"#utility.yul\":2744:2882   */\n      swap1\n      pop\n        /* \"#utility.yul\":1944:2889   */\n      swap4\n      swap3\n      pop\n      pop\n      pop\n      jump\t// out\n        /* \"#utility.yul\":2895:3041   */\n    tag_29:\n        /* \"#utility.yul\":2992:2998   */\n      dup3\n        /* \"#utility.yul\":2987:2990   */\n      dup2\n        /* \"#utility.yul\":2982:2985   */\n      dup4\n        /* \"#utility.yul\":2969:2999   */\n      calldatacopy\n        /* \"#utility.yul\":3033:3034   */\n      0x00\n        /* \"#utility.yul\":3024:3030   */\n      dup4\n        /* \"#utility.yul\":3019:3022   */\n      dup4\n        /* \"#utility.yul\":3015:3031   */\n      add\n        /* \"#utility.yul\":3008:3035   */\n      mstore\n        /* \"#utility.yul\":2895:3041   */\n      pop\n      pop\n      pop\n      jump\t// out\n        /* \"#utility.yul\":3047:3149   */\n    tag_30:\n        /* \"#utility.yul\":3088:3094   */\n      0x00\n        /* \"#utility.yul\":3139:3141   */\n      0x1f\n        /* \"#utility.yul\":3135:3142   */\n      not\n        /* \"#utility.yul\":3130:3132   */\n      0x1f\n        /* \"#utility.yul\":3123:3128   */\n      dup4\n        /* \"#utility.yul\":3119:3133   */\n      add\n        /* \"#utility.yul\":3115:3143   */\n      and\n        /* \"#utility.yul\":3105:3143   */\n      swap1\n      pop\n        /* \"#utility.yul\":3047:3149   */\n      swap2\n      swap1\n      pop\n      jump\t// out\n        /* \"#utility.yul\":3177:3491   */\n    tag_31:\n        /* \"#utility.yul\":3273:3276   */\n      0x00\n        /* \"#utility.yul\":3294:3364   */\n      tag_59\n        /* \"#utility.yul\":3357:3363   */\n      dup4\n        /* \"#utility.yul\":3352:3355   */\n      dup6\n        /* \"#utility.yul\":3294:3364   */\n      tag_26\n      jump\t// in\n    tag_59:\n        /* \"#utility.yul\":3287:3364   */\n      swap4\n      pop\n        /* \"#utility.yul\":3374:3430   */\n      tag_60\n        /* \"#utility.yul\":3423:3429   */\n      dup4\n        /* \"#utility.yul\":3418:3421   */\n      dup6\n        /* \"#utility.yul\":3411:3416   */\n      dup5\n        /* \"#utility.yul\":3374:3430   */\n      tag_29\n      jump\t// in\n    tag_60:\n        /* \"#utility.yul\":3455:3484   */\n      tag_61\n        /* \"#utility.yul\":3477:3483   */\n      dup4\n        /* \"#utility.yul\":3455:3484   */\n      tag_30\n      jump\t// in\n    tag_61:\n        /* \"#utility.yul\":3450:3453   */\n      dup5\n        /* \"#utility.yul\":3446:3485   */\n      add\n        /* \"#utility.yul\":3439:3485   */\n      swap1\n      pop\n        /* \"#utility.yul\":3177:3491   */\n      swap4\n      swap3\n      pop\n      pop\n      pop\n      jump\t// out\n        /* \"#utility.yul\":3497:4354   */\n    tag_11:\n        /* \"#utility.yul\":3775:3779   */\n      0x00\n        /* \"#utility.yul\":3813:3816   */\n      0x80\n        /* \"#utility.yul\":3802:3811   */\n      dup3\n        /* \"#utility.yul\":3798:3817   */\n      add\n        /* \"#utility.yul\":3790:3817   */\n      swap1\n      pop\n        /* \"#utility.yul\":3863:3872   */\n      dup2\n        /* \"#utility.yul\":3857:3861   */\n      dup2\n        /* \"#utility.yul\":3853:3873   */\n      sub\n        /* \"#utility.yul\":3849:3850   */\n      0x00\n        /* \"#utility.yul\":3838:3847   */\n      dup4\n        /* \"#utility.yul\":3834:3851   */\n      add\n        /* \"#utility.yul\":3827:3874   */\n      mstore\n        /* \"#utility.yul\":3891:4022   */\n      tag_63\n        /* \"#utility.yul\":4017:4021   */\n      dup2\n        /* \"#utility.yul\":3891:4022   */\n      tag_20\n      jump\t// in\n    tag_63:\n        /* \"#utility.yul\":3883:4022   */\n      swap1\n      pop\n        /* \"#utility.yul\":4032:4104   */\n      tag_64\n        /* \"#utility.yul\":4100:4102   */\n      0x20\n        /* \"#utility.yul\":4089:4098   */\n      dup4\n        /* \"#utility.yul\":4085:4103   */\n      add\n        /* \"#utility.yul\":4076:4082   */\n      dup8\n        /* \"#utility.yul\":4032:4104   */\n      tag_23\n      jump\t// in\n    tag_64:\n        /* \"#utility.yul\":4114:4186   */\n      tag_65\n        /* \"#utility.yul\":4182:4184   */\n      0x40\n        /* \"#utility.yul\":4171:4180   */\n      dup4\n        /* \"#utility.yul\":4167:4185   */\n      add\n        /* \"#utility.yul\":4158:4164   */\n      dup7\n        /* \"#utility.yul\":4114:4186   */\n      tag_25\n      jump\t// in\n    tag_65:\n        /* \"#utility.yul\":4233:4242   */\n      dup2\n        /* \"#utility.yul\":4227:4231   */\n      dup2\n        /* \"#utility.yul\":4223:4243   */\n      sub\n        /* \"#utility.yul\":4218:4220   */\n      0x60\n        /* \"#utility.yul\":4207:4216   */\n      dup4\n        /* \"#utility.yul\":4203:4221   */\n      add\n        /* \"#utility.yul\":4196:4244   */\n      mstore\n        /* \"#utility.yul\":4261:4347   */\n      tag_66\n        /* \"#utility.yul\":4342:4346   */\n      dup2\n        /* \"#utility.yul\":4333:4339   */\n      dup5\n        /* \"#utility.yul\":4325:4331   */\n      dup7\n        /* \"#utility.yul\":4261:4347   */\n      tag_31\n      jump\t// in\n    tag_66:\n        /* \"#utility.yul\":4253:4347   */\n      swap1\n      pop\n        /* \"#utility.yul\":3497:4354   */\n      swap6\n      swap5\n      pop\n      pop\n      pop\n      pop\n      pop\n      jump\t// out\n        /* \"#utility.yul\":4360:4582   */\n    tag_16:\n        /* \"#utility.yul\":4453:4457   */\n      0x00\n        /* \"#utility.yul\":4491:4493   */\n      0x20\n        /* \"#utility.yul\":4480:4489   */\n      dup3\n        /* \"#utility.yul\":4476:4494   */\n      add\n        /* \"#utility.yul\":4468:4494   */\n      swap1\n      pop\n        /* \"#utility.yul\":4504:4575   */\n      tag_68\n        /* \"#utility.yul\":4572:4573   */\n      0x00\n        /* \"#utility.yul\":4561:4570   */\n      dup4\n        /* \"#utility.yul\":4557:4574   */\n      add\n        /* \"#utility.yul\":4548:4554   */\n      dup5\n        /* \"#utility.yul\":4504:4575   */\n      tag_25\n      jump\t// in\n    tag_68:\n        /* \"#utility.yul\":4360:4582   */\n      swap3\n      swap2\n      pop\n      pop\n      jump\t// out\n\n    auxdata: 0xa2646970667358221220a17842274b718b1cdecebb897dc4abbd44644f4121fc3001e9dfcc927495ec3b64736f6c63430008120033\n}\n",
				"bytecode": {
					"linkReferences": {},
					"object": "608060405234801561001057600080fd5b50610303806100206000396000f3fe6080604052600436106100225760003560e01c8063f01c6560146100a257610062565b36610062577fbb7455e1330c1ad664613f3d998bd858bae53893f04a4eb34718b211dd87c59e33346040516100589291906101c3565b60405180910390a1005b7fbb7455e1330c1ad664613f3d998bd858bae53893f04a4eb34718b211dd87c59e3334600036604051610098949392919061025f565b60405180910390a1005b3480156100ae57600080fd5b506100b76100cd565b6040516100c491906102b2565b60405180910390f35b600047905090565b600082825260208201905092915050565b7f66616c6c6261636b000000000000000000000000000000000000000000000000600082015250565b600061011c6008836100d5565b9150610127826100e6565b602082019050919050565b600073ffffffffffffffffffffffffffffffffffffffff82169050919050565b600061015d82610132565b9050919050565b61016d81610152565b82525050565b6000819050919050565b61018681610173565b82525050565b600082825260208201905092915050565b50565b60006101ad60008361018c565b91506101b88261019d565b600082019050919050565b600060808201905081810360008301526101dc8161010f565b90506101eb6020830185610164565b6101f8604083018461017d565b8181036060830152610209816101a0565b90509392505050565b82818337600083830152505050565b6000601f19601f8301169050919050565b600061023e838561018c565b935061024b838584610212565b61025483610221565b840190509392505050565b600060808201905081810360008301526102788161010f565b90506102876020830187610164565b610294604083018661017d565b81810360608301526102a7818486610232565b905095945050505050565b60006020820190506102c7600083018461017d565b9291505056fea2646970667358221220a17842274b718b1cdecebb897dc4abbd44644f4121fc3001e9dfcc927495ec3b64736f6c63430008120033",
					"opcodes": "PUSH1 0x80 PUSH1 0x40 MSTORE CALLVALUE DUP1 ISZERO PUSH2 0x10 JUMPI PUSH1 0x0 DUP1 REVERT JUMPDEST POP PUSH2 0x303 DUP1 PUSH2 0x20 PUSH1 0x0 CODECOPY PUSH1 0x0 RETURN INVALID PUSH1 0x80 PUSH1 0x40 MSTORE PUSH1 0x4 CALLDATASIZE LT PUSH2 0x22 JUMPI PUSH1 0x0 CALLDATALOAD PUSH1 0xE0 SHR DUP1 PUSH4 0xF01C6560 EQ PUSH2 0xA2 JUMPI PUSH2 0x62 JUMP JUMPDEST CALLDATASIZE PUSH2 0x62 JUMPI PUSH32 0xBB7455E1330C1AD664613F3D998BD858BAE53893F04A4EB34718B211DD87C59E CALLER CALLVALUE PUSH1 0x40 MLOAD PUSH2 0x58 SWAP3 SWAP2 SWAP1 PUSH2 0x1C3 JUMP JUMPDEST PUSH1 0x40 MLOAD DUP1 SWAP2 SUB SWAP1 LOG1 STOP JUMPDEST PUSH32 0xBB7455E1330C1AD664613F3D998BD858BAE53893F04A4EB34718B211DD87C59E CALLER CALLVALUE PUSH1 0x0 CALLDATASIZE PUSH1 0x40 MLOAD PUSH2 0x98 SWAP5 SWAP4 SWAP3 SWAP2 SWAP1 PUSH2 0x25F JUMP JUMPDEST PUSH1 0x40 MLOAD DUP1 SWAP2 SUB SWAP1 LOG1 STOP JUMPDEST CALLVALUE DUP1 ISZERO PUSH2 0xAE JUMPI PUSH1 0x0 DUP1 REVERT JUMPDEST POP PUSH2 0xB7 PUSH2 0xCD JUMP JUMPDEST PUSH1 0x40 MLOAD PUSH2 0xC4 SWAP2 SWAP1 PUSH2 0x2B2 JUMP JUMPDEST PUSH1 0x40 MLOAD DUP1 SWAP2 SUB SWAP1 RETURN JUMPDEST PUSH1 0x0 SELFBALANCE SWAP1 POP SWAP1 JUMP JUMPDEST PUSH1 0x0 DUP3 DUP3 MSTORE PUSH1 0x20 DUP3 ADD SWAP1 POP SWAP3 SWAP2 POP POP JUMP JUMPDEST PUSH32 0x66616C6C6261636B000000000000000000000000000000000000000000000000 PUSH1 0x0 DUP3 ADD MSTORE POP JUMP JUMPDEST PUSH1 0x0 PUSH2 0x11C PUSH1 0x8 DUP4 PUSH2 0xD5 JUMP JUMPDEST SWAP2 POP PUSH2 0x127 DUP3 PUSH2 0xE6 JUMP JUMPDEST PUSH1 0x20 DUP3 ADD SWAP1 POP SWAP2 SWAP1 POP JUMP JUMPDEST PUSH1 0x0 PUSH20 0xFFFFFFFFFFFFFFFFFFFFFFFFFFFFFFFFFFFFFFFF DUP3 AND SWAP1 POP SWAP2 SWAP1 POP JUMP JUMPDEST PUSH1 0x0 PUSH2 0x15D DUP3 PUSH2 0x132 JUMP JUMPDEST SWAP1 POP SWAP2 SWAP1 POP JUMP JUMPDEST PUSH2 0x16D DUP2 PUSH2 0x152 JUMP JUMPDEST DUP3 MSTORE POP POP JUMP JUMPDEST PUSH1 0x0 DUP2 SWAP1 POP SWAP2 SWAP1 POP JUMP JUMPDEST PUSH2 0x186 DUP2 PUSH2 0x173 JUMP JUMPDEST DUP3 MSTORE POP POP JUMP JUMPDEST PUSH1 0x0 DUP3 DUP3 MSTORE PUSH1 0x20 DUP3 ADD SWAP1 POP SWAP3 SWAP2 POP POP JUMP JUMPDEST POP JUMP JUMPDEST PUSH1 0x0 PUSH2 0x1AD PUSH1 0x0 DUP4 PUSH2 0x18C JUMP JUMPDEST SWAP2 POP PUSH2 0x1B8 DUP3 PUSH2 0x19D JUMP JUMPDEST PUSH1 0x0 DUP3 ADD SWAP1 POP SWAP2 SWAP1 POP JUMP JUMPDEST PUSH1 0x0 PUSH1 0x80 DUP3 ADD SWAP1 POP DUP2 DUP2 SUB PUSH1 0x0 DUP4 ADD MSTORE PUSH2 0x1DC DUP2 PUSH2 0x10F JUMP JUMPDEST SWAP1 POP PUSH2 0x1EB PUSH1 0x20 DUP4 ADD DUP6 PUSH2 0x164 JUMP JUMPDEST PUSH2 0x1F8 PUSH1 0x40 DUP4 ADD DUP5 PUSH2 0x17D JUMP JUMPDEST DUP2 DUP2 SUB PUSH1 0x60 DUP4 ADD MSTORE PUSH2 0x209 DUP2 PUSH2 0x1A0 JUMP JUMPDEST SWAP1 POP SWAP4 SWAP3 POP POP POP JUMP JUMPDEST DUP3 DUP2 DUP4 CALLDATACOPY PUSH1 0x0 DUP4 DUP4 ADD MSTORE POP POP POP JUMP JUMPDEST PUSH1 0x0 PUSH1 0x1F NOT PUSH1 0x1F DUP4 ADD AND SWAP1 POP SWAP2 SWAP1 POP JUMP JUMPDEST PUSH1 0x0 PUSH2 0x23E DUP4 DUP6 PUSH2 0x18C JUMP JUMPDEST SWAP4 POP PUSH2 0x24B DUP4 DUP6 DUP5 PUSH2 0x212 JUMP JUMPDEST PUSH2 0x254 DUP4 PUSH2 0x221 JUMP JUMPDEST DUP5 ADD SWAP1 POP SWAP4 SWAP3 POP POP POP JUMP JUMPDEST PUSH1 0x0 PUSH1 0x80 DUP3 ADD SWAP1 POP DUP2 DUP2 SUB PUSH1 0x0 DUP4 ADD MSTORE PUSH2 0x278 DUP2 PUSH2 0x10F JUMP JUMPDEST SWAP1 POP PUSH2 0x287 PUSH1 0x20 DUP4 ADD DUP8 PUSH2 0x164 JUMP JUMPDEST PUSH2 0x294 PUSH1 0x40 DUP4 ADD DUP7 PUSH2 0x17D JUMP JUMPDEST DUP2 DUP2 SUB PUSH1 0x60 DUP4 ADD MSTORE PUSH2 0x2A7 DUP2 DUP5 DUP7 PUSH2 0x232 JUMP JUMPDEST SWAP1 POP SWAP6 SWAP5 POP POP POP POP POP JUMP JUMPDEST PUSH1 0x0 PUSH1 0x20 DUP3 ADD SWAP1 POP PUSH2 0x2C7 PUSH1 0x0 DUP4 ADD DUP5 PUSH2 0x17D JUMP JUMPDEST SWAP3 SWAP2 POP POP JUMP INVALID LOG2 PUSH5 0x6970667358 0x22 SLT KECCAK256 LOG1 PUSH25 0x42274B718B1CDECEBB897DC4ABBD44644F4121FC3001E9DFCC SWAP3 PUSH21 0x95EC3B64736F6C6343000812003300000000000000 "
				},
				"gasEstimates": {
					"creation": {
						"codeDepositCost": "154200",
						"executionCost": "202",
						"totalCost": "154402"
					},
					"external": {
						"": "infinite",
						"chechBal()": "317"
					}
				},
				"methodIdentifiers": {
					"chechBal()": "f01c6560"
				}
			},
			"storageLayout": {
				"storage": [],
				"types": null
			},
			"userdoc": {
				"kind": "user",
				"methods": {},
				"version": 1
			}
		}
	}
}