{
	"Lottery_Smart_Contract/lotterySmartContract.sol": {
		"lotterySmartContract": {
			"abi": [
				{
					"inputs": [],
					"stateMutability": "nonpayable",
					"type": "constructor"
				},
				{
					"inputs": [],
					"name": "enter",
					"outputs": [],
					"stateMutability": "payable",
					"type": "function"
				},
				{
					"inputs": [],
					"name": "getPlayers",
					"outputs": [
						{
							"internalType": "address payable[]",
							"name": "",
							"type": "address[]"
						}
					],
					"stateMutability": "view",
					"type": "function"
				},
				{
					"inputs": [],
					"name": "manager",
					"outputs": [
						{
							"internalType": "address",
							"name": "",
							"type": "address"
						}
					],
					"stateMutability": "view",
					"type": "function"
				},
				{
					"inputs": [],
					"name": "pickwinner",
					"outputs": [],
					"stateMutability": "nonpayable",
					"type": "function"
				},
				{
					"inputs": [
						{
							"internalType": "uint256",
							"name": "",
							"type": "uint256"
						}
					],
					"name": "players",
					"outputs": [
						{
							"internalType": "address payable",
							"name": "",
							"type": "address"
						}
					],
					"stateMutability": "view",
					"type": "function"
				}
			],
			"devdoc": {
				"kind": "dev",
				"methods": {},
				"version": 1
			},
			"evm": {
				"assembly": "    /* \"Lottery_Smart_Contract/lotterySmartContract.sol\":62:1404  contract lotterySmartContract{... */\n  mstore(0x40, 0x80)\n    /* \"Lottery_Smart_Contract/lotterySmartContract.sol\":168:220  constructor(){... */\n  callvalue\n  dup1\n  iszero\n  tag_1\n  jumpi\n  0x00\n  dup1\n  revert\ntag_1:\n  pop\n    /* \"Lottery_Smart_Contract/lotterySmartContract.sol\":202:212  msg.sender */\n  caller\n    /* \"Lottery_Smart_Contract/lotterySmartContract.sol\":192:199  manager */\n  0x00\n  dup1\n    /* \"Lottery_Smart_Contract/lotterySmartContract.sol\":192:212  manager = msg.sender */\n  0x0100\n  exp\n  dup2\n  sload\n  dup2\n  0xffffffffffffffffffffffffffffffffffffffff\n  mul\n  not\n  and\n  swap1\n  dup4\n  0xffffffffffffffffffffffffffffffffffffffff\n  and\n  mul\n  or\n  swap1\n  sstore\n  pop\n    /* \"Lottery_Smart_Contract/lotterySmartContract.sol\":62:1404  contract lotterySmartContract{... */\n  dataSize(sub_0)\n  dup1\n  dataOffset(sub_0)\n  0x00\n  codecopy\n  0x00\n  return\nstop\n\nsub_0: assembly {\n        /* \"Lottery_Smart_Contract/lotterySmartContract.sol\":62:1404  contract lotterySmartContract{... */\n      mstore(0x40, 0x80)\n      jumpi(tag_1, lt(calldatasize, 0x04))\n      shr(0xe0, calldataload(0x00))\n      dup1\n      0x481c6a75\n      eq\n      tag_2\n      jumpi\n      dup1\n      0x71b80060\n      eq\n      tag_3\n      jumpi\n      dup1\n      0x8b5b9ccc\n      eq\n      tag_4\n      jumpi\n      dup1\n      0xe97dcb62\n      eq\n      tag_5\n      jumpi\n      dup1\n      0xf71d96cb\n      eq\n      tag_6\n      jumpi\n    tag_1:\n      0x00\n      dup1\n      revert\n        /* \"Lottery_Smart_Contract/lotterySmartContract.sol\":98:120  address public manager */\n    tag_2:\n      callvalue\n      dup1\n      iszero\n      tag_7\n      jumpi\n      0x00\n      dup1\n      revert\n    tag_7:\n      pop\n      tag_8\n      tag_9\n      jump\t// in\n    tag_8:\n      mload(0x40)\n      tag_10\n      swap2\n      swap1\n      tag_11\n      jump\t// in\n    tag_10:\n      mload(0x40)\n      dup1\n      swap2\n      sub\n      swap1\n      return\n        /* \"Lottery_Smart_Contract/lotterySmartContract.sol\":887:1293  function pickwinner() public{... */\n    tag_3:\n      callvalue\n      dup1\n      iszero\n      tag_12\n      jumpi\n      0x00\n      dup1\n      revert\n    tag_12:\n      pop\n      tag_13\n      tag_14\n      jump\t// in\n    tag_13:\n      stop\n        /* \"Lottery_Smart_Contract/lotterySmartContract.sol\":1301:1401  function getPlayers() view public returns(address payable[] memory){... */\n    tag_4:\n      callvalue\n      dup1\n      iszero\n      tag_15\n      jumpi\n      0x00\n      dup1\n      revert\n    tag_15:\n      pop\n      tag_16\n      tag_17\n      jump\t// in\n    tag_16:\n      mload(0x40)\n      tag_18\n      swap2\n      swap1\n      tag_19\n      jump\t// in\n    tag_18:\n      mload(0x40)\n      dup1\n      swap2\n      sub\n      swap1\n      return\n        /* \"Lottery_Smart_Contract/lotterySmartContract.sol\":445:732  function enter() payable public{... */\n    tag_5:\n      tag_20\n      tag_21\n      jump\t// in\n    tag_20:\n      stop\n        /* \"Lottery_Smart_Contract/lotterySmartContract.sol\":127:159  address payable[] public players */\n    tag_6:\n      callvalue\n      dup1\n      iszero\n      tag_22\n      jumpi\n      0x00\n      dup1\n      revert\n    tag_22:\n      pop\n      tag_23\n      0x04\n      dup1\n      calldatasize\n      sub\n      dup2\n      add\n      swap1\n      tag_24\n      swap2\n      swap1\n      tag_25\n      jump\t// in\n    tag_24:\n      tag_26\n      jump\t// in\n    tag_23:\n      mload(0x40)\n      tag_27\n      swap2\n      swap1\n      tag_28\n      jump\t// in\n    tag_27:\n      mload(0x40)\n      dup1\n      swap2\n      sub\n      swap1\n      return\n        /* \"Lottery_Smart_Contract/lotterySmartContract.sol\":98:120  address public manager */\n    tag_9:\n      0x00\n      dup1\n      sload\n      swap1\n      0x0100\n      exp\n      swap1\n      div\n      0xffffffffffffffffffffffffffffffffffffffff\n      and\n      dup2\n      jump\t// out\n        /* \"Lottery_Smart_Contract/lotterySmartContract.sol\":887:1293  function pickwinner() public{... */\n    tag_14:\n        /* \"Lottery_Smart_Contract/lotterySmartContract.sol\":948:955  manager */\n      0x00\n      dup1\n      sload\n      swap1\n      0x0100\n      exp\n      swap1\n      div\n      0xffffffffffffffffffffffffffffffffffffffff\n      and\n        /* \"Lottery_Smart_Contract/lotterySmartContract.sol\":934:955  msg.sender == manager */\n      0xffffffffffffffffffffffffffffffffffffffff\n      and\n        /* \"Lottery_Smart_Contract/lotterySmartContract.sol\":934:944  msg.sender */\n      caller\n        /* \"Lottery_Smart_Contract/lotterySmartContract.sol\":934:955  msg.sender == manager */\n      0xffffffffffffffffffffffffffffffffffffffff\n      and\n      eq\n        /* \"Lottery_Smart_Contract/lotterySmartContract.sol\":926:991  require(msg.sender == manager,\"Only manager can pick the winner\") */\n      tag_30\n      jumpi\n      mload(0x40)\n      0x08c379a000000000000000000000000000000000000000000000000000000000\n      dup2\n      mstore\n      0x04\n      add\n      tag_31\n      swap1\n      tag_32\n      jump\t// in\n    tag_31:\n      mload(0x40)\n      dup1\n      swap2\n      sub\n      swap1\n      revert\n    tag_30:\n        /* \"Lottery_Smart_Contract/lotterySmartContract.sol\":1002:1012  uint index */\n      0x00\n        /* \"Lottery_Smart_Contract/lotterySmartContract.sol\":1024:1031  players */\n      0x01\n        /* \"Lottery_Smart_Contract/lotterySmartContract.sol\":1024:1038  players.length */\n      dup1\n      sload\n      swap1\n      pop\n        /* \"Lottery_Smart_Contract/lotterySmartContract.sol\":1015:1023  random() */\n      tag_33\n        /* \"Lottery_Smart_Contract/lotterySmartContract.sol\":1015:1021  random */\n      tag_34\n        /* \"Lottery_Smart_Contract/lotterySmartContract.sol\":1015:1023  random() */\n      jump\t// in\n    tag_33:\n        /* \"Lottery_Smart_Contract/lotterySmartContract.sol\":1015:1038  random()%players.length */\n      tag_35\n      swap2\n      swap1\n      tag_36\n      jump\t// in\n    tag_35:\n        /* \"Lottery_Smart_Contract/lotterySmartContract.sol\":1002:1038  uint index = random()%players.length */\n      swap1\n      pop\n        /* \"Lottery_Smart_Contract/lotterySmartContract.sol\":1065:1088  address contractAddress */\n      0x00\n        /* \"Lottery_Smart_Contract/lotterySmartContract.sol\":1099:1103  this */\n      address\n        /* \"Lottery_Smart_Contract/lotterySmartContract.sol\":1065:1104  address contractAddress = address(this) */\n      swap1\n      pop\n        /* \"Lottery_Smart_Contract/lotterySmartContract.sol\":1115:1122  players */\n      0x01\n        /* \"Lottery_Smart_Contract/lotterySmartContract.sol\":1123:1128  index */\n      dup3\n        /* \"Lottery_Smart_Contract/lotterySmartContract.sol\":1115:1129  players[index] */\n      dup2\n      sload\n      dup2\n      lt\n      tag_37\n      jumpi\n      tag_38\n      tag_39\n      jump\t// in\n    tag_38:\n    tag_37:\n      swap1\n      0x00\n      mstore\n      keccak256(0x00, 0x20)\n      add\n      0x00\n      swap1\n      sload\n      swap1\n      0x0100\n      exp\n      swap1\n      div\n      0xffffffffffffffffffffffffffffffffffffffff\n      and\n        /* \"Lottery_Smart_Contract/lotterySmartContract.sol\":1115:1138  players[index].transfer */\n      0xffffffffffffffffffffffffffffffffffffffff\n      and\n        /* \"Lottery_Smart_Contract/lotterySmartContract.sol\":1115:1163  players[index].transfer(contractAddress.balance) */\n      0x08fc\n        /* \"Lottery_Smart_Contract/lotterySmartContract.sol\":1139:1154  contractAddress */\n      dup3\n        /* \"Lottery_Smart_Contract/lotterySmartContract.sol\":1139:1162  contractAddress.balance */\n      0xffffffffffffffffffffffffffffffffffffffff\n      and\n      balance\n        /* \"Lottery_Smart_Contract/lotterySmartContract.sol\":1115:1163  players[index].transfer(contractAddress.balance) */\n      swap1\n      dup2\n      iszero\n      mul\n      swap1\n      mload(0x40)\n      0x00\n      mload(0x40)\n      dup1\n      dup4\n      sub\n      dup2\n      dup6\n      dup9\n      dup9\n      call\n      swap4\n      pop\n      pop\n      pop\n      pop\n      iszero\n      dup1\n      iszero\n      tag_42\n      jumpi\n      returndatasize\n      0x00\n      dup1\n      returndatacopy\n      revert(0x00, returndatasize)\n    tag_42:\n      pop\n        /* \"Lottery_Smart_Contract/lotterySmartContract.sol\":1206:1207  0 */\n      0x00\n        /* \"Lottery_Smart_Contract/lotterySmartContract.sol\":1184:1208  new address payable[](0) */\n      0xffffffffffffffff\n      dup2\n      gt\n      iszero\n      tag_43\n      jumpi\n      tag_44\n      tag_45\n      jump\t// in\n    tag_44:\n    tag_43:\n      mload(0x40)\n      swap1\n      dup1\n      dup3\n      mstore\n      dup1\n      0x20\n      mul\n      0x20\n      add\n      dup3\n      add\n      0x40\n      mstore\n      dup1\n      iszero\n      tag_46\n      jumpi\n      dup2\n      0x20\n      add\n      0x20\n      dup3\n      mul\n      dup1\n      calldatasize\n      dup4\n      calldatacopy\n      dup1\n      dup3\n      add\n      swap2\n      pop\n      pop\n      swap1\n      pop\n    tag_46:\n      pop\n        /* \"Lottery_Smart_Contract/lotterySmartContract.sol\":1174:1181  players */\n      0x01\n        /* \"Lottery_Smart_Contract/lotterySmartContract.sol\":1174:1208  players = new address payable[](0) */\n      swap1\n      dup1\n      mload\n      swap1\n      0x20\n      add\n      swap1\n      tag_47\n      swap3\n      swap2\n      swap1\n      tag_48\n      jump\t// in\n    tag_47:\n      pop\n        /* \"Lottery_Smart_Contract/lotterySmartContract.sol\":915:1293  {... */\n      pop\n      pop\n        /* \"Lottery_Smart_Contract/lotterySmartContract.sol\":887:1293  function pickwinner() public{... */\n      jump\t// out\n        /* \"Lottery_Smart_Contract/lotterySmartContract.sol\":1301:1401  function getPlayers() view public returns(address payable[] memory){... */\n    tag_17:\n        /* \"Lottery_Smart_Contract/lotterySmartContract.sol\":1343:1367  address payable[] memory */\n      0x60\n        /* \"Lottery_Smart_Contract/lotterySmartContract.sol\":1386:1393  players */\n      0x01\n        /* \"Lottery_Smart_Contract/lotterySmartContract.sol\":1379:1393  return players */\n      dup1\n      sload\n      dup1\n      0x20\n      mul\n      0x20\n      add\n      mload(0x40)\n      swap1\n      dup2\n      add\n      0x40\n      mstore\n      dup1\n      swap3\n      swap2\n      swap1\n      dup2\n      dup2\n      mstore\n      0x20\n      add\n      dup3\n      dup1\n      sload\n      dup1\n      iszero\n      tag_50\n      jumpi\n      0x20\n      mul\n      dup3\n      add\n      swap2\n      swap1\n      0x00\n      mstore\n      keccak256(0x00, 0x20)\n      swap1\n    tag_51:\n      dup2\n      0x00\n      swap1\n      sload\n      swap1\n      0x0100\n      exp\n      swap1\n      div\n      0xffffffffffffffffffffffffffffffffffffffff\n      and\n      0xffffffffffffffffffffffffffffffffffffffff\n      and\n      dup2\n      mstore\n      0x20\n      add\n      swap1\n      0x01\n      add\n      swap1\n      dup1\n      dup4\n      gt\n      tag_51\n      jumpi\n    tag_50:\n      pop\n      pop\n      pop\n      pop\n      pop\n      swap1\n      pop\n        /* \"Lottery_Smart_Contract/lotterySmartContract.sol\":1301:1401  function getPlayers() view public returns(address payable[] memory){... */\n      swap1\n      jump\t// out\n        /* \"Lottery_Smart_Contract/lotterySmartContract.sol\":445:732  function enter() payable public{... */\n    tag_21:\n        /* \"Lottery_Smart_Contract/lotterySmartContract.sol\":507:514  manager */\n      0x00\n      dup1\n      sload\n      swap1\n      0x0100\n      exp\n      swap1\n      div\n      0xffffffffffffffffffffffffffffffffffffffff\n      and\n        /* \"Lottery_Smart_Contract/lotterySmartContract.sol\":495:514  msg.sender!=manager */\n      0xffffffffffffffffffffffffffffffffffffffff\n      and\n        /* \"Lottery_Smart_Contract/lotterySmartContract.sol\":495:505  msg.sender */\n      caller\n        /* \"Lottery_Smart_Contract/lotterySmartContract.sol\":495:514  msg.sender!=manager */\n      0xffffffffffffffffffffffffffffffffffffffff\n      and\n      sub\n        /* \"Lottery_Smart_Contract/lotterySmartContract.sol\":487:538  require(msg.sender!=manager,\"Manager cannot enter\") */\n      tag_53\n      jumpi\n      mload(0x40)\n      0x08c379a000000000000000000000000000000000000000000000000000000000\n      dup2\n      mstore\n      0x04\n      add\n      tag_54\n      swap1\n      tag_55\n      jump\t// in\n    tag_54:\n      mload(0x40)\n      dup1\n      swap2\n      sub\n      swap1\n      revert\n    tag_53:\n        /* \"Lottery_Smart_Contract/lotterySmartContract.sol\":577:582  false */\n      0x00\n        /* \"Lottery_Smart_Contract/lotterySmartContract.sol\":557:582  alreadyEntered() == false */\n      iszero\n      iszero\n        /* \"Lottery_Smart_Contract/lotterySmartContract.sol\":557:573  alreadyEntered() */\n      tag_56\n        /* \"Lottery_Smart_Contract/lotterySmartContract.sol\":557:571  alreadyEntered */\n      tag_57\n        /* \"Lottery_Smart_Contract/lotterySmartContract.sol\":557:573  alreadyEntered() */\n      jump\t// in\n    tag_56:\n        /* \"Lottery_Smart_Contract/lotterySmartContract.sol\":557:582  alreadyEntered() == false */\n      iszero\n      iszero\n      eq\n        /* \"Lottery_Smart_Contract/lotterySmartContract.sol\":549:608  require(alreadyEntered() == false,\"Player already entered\") */\n      tag_58\n      jumpi\n      mload(0x40)\n      0x08c379a000000000000000000000000000000000000000000000000000000000\n      dup2\n      mstore\n      0x04\n      add\n      tag_59\n      swap1\n      tag_60\n      jump\t// in\n    tag_59:\n      mload(0x40)\n      dup1\n      swap2\n      sub\n      swap1\n      revert\n    tag_58:\n        /* \"Lottery_Smart_Contract/lotterySmartContract.sol\":638:645  1 ether */\n      0x0de0b6b3a7640000\n        /* \"Lottery_Smart_Contract/lotterySmartContract.sol\":627:636  msg.value */\n      callvalue\n        /* \"Lottery_Smart_Contract/lotterySmartContract.sol\":627:645  msg.value>=1 ether */\n      lt\n      iszero\n        /* \"Lottery_Smart_Contract/lotterySmartContract.sol\":619:678  require(msg.value>=1 ether, \"Minimun amount must be payed\") */\n      tag_61\n      jumpi\n      mload(0x40)\n      0x08c379a000000000000000000000000000000000000000000000000000000000\n      dup2\n      mstore\n      0x04\n      add\n      tag_62\n      swap1\n      tag_63\n      jump\t// in\n    tag_62:\n      mload(0x40)\n      dup1\n      swap2\n      sub\n      swap1\n      revert\n    tag_61:\n        /* \"Lottery_Smart_Contract/lotterySmartContract.sol\":691:698  players */\n      0x01\n        /* \"Lottery_Smart_Contract/lotterySmartContract.sol\":712:722  msg.sender */\n      caller\n        /* \"Lottery_Smart_Contract/lotterySmartContract.sol\":691:724  players.push(payable(msg.sender)) */\n      swap1\n      dup1\n      0x01\n      dup2\n      sload\n      add\n      dup1\n      dup3\n      sstore\n      dup1\n      swap2\n      pop\n      pop\n      0x01\n      swap1\n      sub\n      swap1\n      0x00\n      mstore\n      keccak256(0x00, 0x20)\n      add\n      0x00\n      swap1\n      swap2\n      swap1\n      swap2\n      swap1\n      swap2\n      0x0100\n      exp\n      dup2\n      sload\n      dup2\n      0xffffffffffffffffffffffffffffffffffffffff\n      mul\n      not\n      and\n      swap1\n      dup4\n      0xffffffffffffffffffffffffffffffffffffffff\n      and\n      mul\n      or\n      swap1\n      sstore\n      pop\n        /* \"Lottery_Smart_Contract/lotterySmartContract.sol\":445:732  function enter() payable public{... */\n      jump\t// out\n        /* \"Lottery_Smart_Contract/lotterySmartContract.sol\":127:159  address payable[] public players */\n    tag_26:\n      0x01\n      dup2\n      dup2\n      sload\n      dup2\n      lt\n      tag_65\n      jumpi\n      0x00\n      dup1\n      revert\n    tag_65:\n      swap1\n      0x00\n      mstore\n      keccak256(0x00, 0x20)\n      add\n      0x00\n      swap2\n      pop\n      sload\n      swap1\n      0x0100\n      exp\n      swap1\n      div\n      0xffffffffffffffffffffffffffffffffffffffff\n      and\n      dup2\n      jump\t// out\n        /* \"Lottery_Smart_Contract/lotterySmartContract.sol\":740:879  function random() view private returns(uint){... */\n    tag_34:\n        /* \"Lottery_Smart_Contract/lotterySmartContract.sol\":779:783  uint */\n      0x00\n        /* \"Lottery_Smart_Contract/lotterySmartContract.sol\":807:870  sha256(abi.encodePacked(block.difficulty,block.number,players)) */\n      0x02\n        /* \"Lottery_Smart_Contract/lotterySmartContract.sol\":831:847  block.difficulty */\n      prevrandao\n        /* \"Lottery_Smart_Contract/lotterySmartContract.sol\":848:860  block.number */\n      number\n        /* \"Lottery_Smart_Contract/lotterySmartContract.sol\":861:868  players */\n      0x01\n        /* \"Lottery_Smart_Contract/lotterySmartContract.sol\":814:869  abi.encodePacked(block.difficulty,block.number,players) */\n      add(0x20, mload(0x40))\n      tag_68\n      swap4\n      swap3\n      swap2\n      swap1\n      tag_69\n      jump\t// in\n    tag_68:\n      mload(0x40)\n      0x20\n      dup2\n      dup4\n      sub\n      sub\n      dup2\n      mstore\n      swap1\n      0x40\n      mstore\n        /* \"Lottery_Smart_Contract/lotterySmartContract.sol\":807:870  sha256(abi.encodePacked(block.difficulty,block.number,players)) */\n      mload(0x40)\n      tag_70\n      swap2\n      swap1\n      tag_71\n      jump\t// in\n    tag_70:\n      0x20\n      mload(0x40)\n      dup1\n      dup4\n      sub\n      dup2\n      dup6\n      gas\n      staticcall\n      iszero\n      dup1\n      iszero\n      tag_73\n      jumpi\n      returndatasize\n      0x00\n      dup1\n      returndatacopy\n      revert(0x00, returndatasize)\n    tag_73:\n      pop\n      pop\n      pop\n      mload(0x40)\n      returndatasize\n      not(0x1f)\n      0x1f\n      dup3\n      add\n      and\n      dup3\n      add\n      dup1\n      0x40\n      mstore\n      pop\n      dup2\n      add\n      swap1\n      tag_74\n      swap2\n      swap1\n      tag_75\n      jump\t// in\n    tag_74:\n        /* \"Lottery_Smart_Contract/lotterySmartContract.sol\":802:871  uint(sha256(abi.encodePacked(block.difficulty,block.number,players))) */\n      0x00\n      shr\n        /* \"Lottery_Smart_Contract/lotterySmartContract.sol\":795:871  return uint(sha256(abi.encodePacked(block.difficulty,block.number,players))) */\n      swap1\n      pop\n        /* \"Lottery_Smart_Contract/lotterySmartContract.sol\":740:879  function random() view private returns(uint){... */\n      swap1\n      jump\t// out\n        /* \"Lottery_Smart_Contract/lotterySmartContract.sol\":228:437  function alreadyEntered() view private returns(bool){... */\n    tag_57:\n        /* \"Lottery_Smart_Contract/lotterySmartContract.sol\":275:279  bool */\n      0x00\n        /* \"Lottery_Smart_Contract/lotterySmartContract.sol\":295:301  uint i */\n      dup1\n        /* \"Lottery_Smart_Contract/lotterySmartContract.sol\":302:303  0 */\n      0x00\n        /* \"Lottery_Smart_Contract/lotterySmartContract.sol\":295:303  uint i=0 */\n      swap1\n      pop\n        /* \"Lottery_Smart_Contract/lotterySmartContract.sol\":291:407  for(uint i=0; i<players.length; i++){... */\n    tag_77:\n        /* \"Lottery_Smart_Contract/lotterySmartContract.sol\":307:314  players */\n      0x01\n        /* \"Lottery_Smart_Contract/lotterySmartContract.sol\":307:321  players.length */\n      dup1\n      sload\n      swap1\n      pop\n        /* \"Lottery_Smart_Contract/lotterySmartContract.sol\":305:306  i */\n      dup2\n        /* \"Lottery_Smart_Contract/lotterySmartContract.sol\":305:321  i<players.length */\n      lt\n        /* \"Lottery_Smart_Contract/lotterySmartContract.sol\":291:407  for(uint i=0; i<players.length; i++){... */\n      iszero\n      tag_78\n      jumpi\n        /* \"Lottery_Smart_Contract/lotterySmartContract.sol\":359:369  msg.sender */\n      caller\n        /* \"Lottery_Smart_Contract/lotterySmartContract.sol\":345:369  players[i] == msg.sender */\n      0xffffffffffffffffffffffffffffffffffffffff\n      and\n        /* \"Lottery_Smart_Contract/lotterySmartContract.sol\":345:352  players */\n      0x01\n        /* \"Lottery_Smart_Contract/lotterySmartContract.sol\":353:354  i */\n      dup3\n        /* \"Lottery_Smart_Contract/lotterySmartContract.sol\":345:355  players[i] */\n      dup2\n      sload\n      dup2\n      lt\n      tag_80\n      jumpi\n      tag_81\n      tag_39\n      jump\t// in\n    tag_81:\n    tag_80:\n      swap1\n      0x00\n      mstore\n      keccak256(0x00, 0x20)\n      add\n      0x00\n      swap1\n      sload\n      swap1\n      0x0100\n      exp\n      swap1\n      div\n      0xffffffffffffffffffffffffffffffffffffffff\n      and\n        /* \"Lottery_Smart_Contract/lotterySmartContract.sol\":345:369  players[i] == msg.sender */\n      0xffffffffffffffffffffffffffffffffffffffff\n      and\n      sub\n        /* \"Lottery_Smart_Contract/lotterySmartContract.sol\":342:395  if(players[i] == msg.sender)... */\n      tag_83\n      jumpi\n        /* \"Lottery_Smart_Contract/lotterySmartContract.sol\":391:395  true */\n      0x01\n        /* \"Lottery_Smart_Contract/lotterySmartContract.sol\":384:395  return true */\n      swap2\n      pop\n      pop\n      jump(tag_76)\n        /* \"Lottery_Smart_Contract/lotterySmartContract.sol\":342:395  if(players[i] == msg.sender)... */\n    tag_83:\n        /* \"Lottery_Smart_Contract/lotterySmartContract.sol\":323:326  i++ */\n      dup1\n      dup1\n      tag_84\n      swap1\n      tag_85\n      jump\t// in\n    tag_84:\n      swap2\n      pop\n      pop\n        /* \"Lottery_Smart_Contract/lotterySmartContract.sol\":291:407  for(uint i=0; i<players.length; i++){... */\n      jump(tag_77)\n    tag_78:\n      pop\n        /* \"Lottery_Smart_Contract/lotterySmartContract.sol\":424:429  false */\n      0x00\n        /* \"Lottery_Smart_Contract/lotterySmartContract.sol\":417:429  return false */\n      swap1\n      pop\n        /* \"Lottery_Smart_Contract/lotterySmartContract.sol\":228:437  function alreadyEntered() view private returns(bool){... */\n    tag_76:\n      swap1\n      jump\t// out\n    tag_48:\n      dup3\n      dup1\n      sload\n      dup3\n      dup3\n      sstore\n      swap1\n      0x00\n      mstore\n      keccak256(0x00, 0x20)\n      swap1\n      dup2\n      add\n      swap3\n      dup3\n      iszero\n      tag_86\n      jumpi\n      swap2\n      0x20\n      mul\n      dup3\n      add\n    tag_87:\n      dup3\n      dup2\n      gt\n      iszero\n      tag_88\n      jumpi\n      dup3\n      mload\n      dup3\n      exp(0x0100, 0x00)\n      dup2\n      sload\n      dup2\n      0xffffffffffffffffffffffffffffffffffffffff\n      mul\n      not\n      and\n      swap1\n      dup4\n      0xffffffffffffffffffffffffffffffffffffffff\n      and\n      mul\n      or\n      swap1\n      sstore\n      pop\n      swap2\n      0x20\n      add\n      swap2\n      swap1\n      0x01\n      add\n      swap1\n      jump(tag_87)\n    tag_88:\n    tag_86:\n      pop\n      swap1\n      pop\n      tag_89\n      swap2\n      swap1\n      tag_90\n      jump\t// in\n    tag_89:\n      pop\n      swap1\n      jump\t// out\n    tag_90:\n    tag_91:\n      dup1\n      dup3\n      gt\n      iszero\n      tag_92\n      jumpi\n      0x00\n      dup2\n      0x00\n      swap1\n      sstore\n      pop\n      0x01\n      add\n      jump(tag_91)\n    tag_92:\n      pop\n      swap1\n      jump\t// out\n        /* \"#utility.yul\":7:133   */\n    tag_93:\n        /* \"#utility.yul\":44:51   */\n      0x00\n        /* \"#utility.yul\":84:126   */\n      0xffffffffffffffffffffffffffffffffffffffff\n        /* \"#utility.yul\":77:82   */\n      dup3\n        /* \"#utility.yul\":73:127   */\n      and\n        /* \"#utility.yul\":62:127   */\n      swap1\n      pop\n        /* \"#utility.yul\":7:133   */\n      swap2\n      swap1\n      pop\n      jump\t// out\n        /* \"#utility.yul\":139:235   */\n    tag_94:\n        /* \"#utility.yul\":176:183   */\n      0x00\n        /* \"#utility.yul\":205:229   */\n      tag_145\n        /* \"#utility.yul\":223:228   */\n      dup3\n        /* \"#utility.yul\":205:229   */\n      tag_93\n      jump\t// in\n    tag_145:\n        /* \"#utility.yul\":194:229   */\n      swap1\n      pop\n        /* \"#utility.yul\":139:235   */\n      swap2\n      swap1\n      pop\n      jump\t// out\n        /* \"#utility.yul\":241:359   */\n    tag_95:\n        /* \"#utility.yul\":328:352   */\n      tag_147\n        /* \"#utility.yul\":346:351   */\n      dup2\n        /* \"#utility.yul\":328:352   */\n      tag_94\n      jump\t// in\n    tag_147:\n        /* \"#utility.yul\":323:326   */\n      dup3\n        /* \"#utility.yul\":316:353   */\n      mstore\n        /* \"#utility.yul\":241:359   */\n      pop\n      pop\n      jump\t// out\n        /* \"#utility.yul\":365:587   */\n    tag_11:\n        /* \"#utility.yul\":458:462   */\n      0x00\n        /* \"#utility.yul\":496:498   */\n      0x20\n        /* \"#utility.yul\":485:494   */\n      dup3\n        /* \"#utility.yul\":481:499   */\n      add\n        /* \"#utility.yul\":473:499   */\n      swap1\n      pop\n        /* \"#utility.yul\":509:580   */\n      tag_149\n        /* \"#utility.yul\":577:578   */\n      0x00\n        /* \"#utility.yul\":566:575   */\n      dup4\n        /* \"#utility.yul\":562:579   */\n      add\n        /* \"#utility.yul\":553:559   */\n      dup5\n        /* \"#utility.yul\":509:580   */\n      tag_95\n      jump\t// in\n    tag_149:\n        /* \"#utility.yul\":365:587   */\n      swap3\n      swap2\n      pop\n      pop\n      jump\t// out\n        /* \"#utility.yul\":593:715   */\n    tag_96:\n        /* \"#utility.yul\":668:674   */\n      0x00\n        /* \"#utility.yul\":702:707   */\n      dup2\n        /* \"#utility.yul\":696:708   */\n      mload\n        /* \"#utility.yul\":686:708   */\n      swap1\n      pop\n        /* \"#utility.yul\":593:715   */\n      swap2\n      swap1\n      pop\n      jump\t// out\n        /* \"#utility.yul\":721:913   */\n    tag_97:\n        /* \"#utility.yul\":828:839   */\n      0x00\n        /* \"#utility.yul\":862:868   */\n      dup3\n        /* \"#utility.yul\":857:860   */\n      dup3\n        /* \"#utility.yul\":850:869   */\n      mstore\n        /* \"#utility.yul\":902:906   */\n      0x20\n        /* \"#utility.yul\":897:900   */\n      dup3\n        /* \"#utility.yul\":893:907   */\n      add\n        /* \"#utility.yul\":878:907   */\n      swap1\n      pop\n        /* \"#utility.yul\":721:913   */\n      swap3\n      swap2\n      pop\n      pop\n      jump\t// out\n        /* \"#utility.yul\":919:1059   */\n    tag_98:\n        /* \"#utility.yul\":994:998   */\n      0x00\n        /* \"#utility.yul\":1017:1020   */\n      dup2\n        /* \"#utility.yul\":1009:1020   */\n      swap1\n      pop\n        /* \"#utility.yul\":1047:1051   */\n      0x20\n        /* \"#utility.yul\":1042:1045   */\n      dup3\n        /* \"#utility.yul\":1038:1052   */\n      add\n        /* \"#utility.yul\":1030:1052   */\n      swap1\n      pop\n        /* \"#utility.yul\":919:1059   */\n      swap2\n      swap1\n      pop\n      jump\t// out\n        /* \"#utility.yul\":1065:1169   */\n    tag_99:\n        /* \"#utility.yul\":1110:1117   */\n      0x00\n        /* \"#utility.yul\":1139:1163   */\n      tag_154\n        /* \"#utility.yul\":1157:1162   */\n      dup3\n        /* \"#utility.yul\":1139:1163   */\n      tag_93\n      jump\t// in\n    tag_154:\n        /* \"#utility.yul\":1128:1163   */\n      swap1\n      pop\n        /* \"#utility.yul\":1065:1169   */\n      swap2\n      swap1\n      pop\n      jump\t// out\n        /* \"#utility.yul\":1175:1307   */\n    tag_100:\n        /* \"#utility.yul\":1268:1300   */\n      tag_156\n        /* \"#utility.yul\":1294:1299   */\n      dup2\n        /* \"#utility.yul\":1268:1300   */\n      tag_99\n      jump\t// in\n    tag_156:\n        /* \"#utility.yul\":1263:1266   */\n      dup3\n        /* \"#utility.yul\":1256:1301   */\n      mstore\n        /* \"#utility.yul\":1175:1307   */\n      pop\n      pop\n      jump\t// out\n        /* \"#utility.yul\":1313:1524   */\n    tag_101:\n        /* \"#utility.yul\":1398:1408   */\n      0x00\n        /* \"#utility.yul\":1419:1481   */\n      tag_158\n        /* \"#utility.yul\":1477:1480   */\n      dup4\n        /* \"#utility.yul\":1469:1475   */\n      dup4\n        /* \"#utility.yul\":1419:1481   */\n      tag_100\n      jump\t// in\n    tag_158:\n        /* \"#utility.yul\":1513:1517   */\n      0x20\n        /* \"#utility.yul\":1508:1511   */\n      dup4\n        /* \"#utility.yul\":1504:1518   */\n      add\n        /* \"#utility.yul\":1490:1518   */\n      swap1\n      pop\n        /* \"#utility.yul\":1313:1524   */\n      swap3\n      swap2\n      pop\n      pop\n      jump\t// out\n        /* \"#utility.yul\":1530:1651   */\n    tag_102:\n        /* \"#utility.yul\":1608:1612   */\n      0x00\n        /* \"#utility.yul\":1640:1644   */\n      0x20\n        /* \"#utility.yul\":1635:1638   */\n      dup3\n        /* \"#utility.yul\":1631:1645   */\n      add\n        /* \"#utility.yul\":1623:1645   */\n      swap1\n      pop\n        /* \"#utility.yul\":1530:1651   */\n      swap2\n      swap1\n      pop\n      jump\t// out\n        /* \"#utility.yul\":1703:2499   */\n    tag_103:\n        /* \"#utility.yul\":1838:1841   */\n      0x00\n        /* \"#utility.yul\":1867:1929   */\n      tag_161\n        /* \"#utility.yul\":1923:1928   */\n      dup3\n        /* \"#utility.yul\":1867:1929   */\n      tag_96\n      jump\t// in\n    tag_161:\n        /* \"#utility.yul\":1945:2039   */\n      tag_162\n        /* \"#utility.yul\":2032:2038   */\n      dup2\n        /* \"#utility.yul\":2027:2030   */\n      dup6\n        /* \"#utility.yul\":1945:2039   */\n      tag_97\n      jump\t// in\n    tag_162:\n        /* \"#utility.yul\":1938:2039   */\n      swap4\n      pop\n        /* \"#utility.yul\":2063:2127   */\n      tag_163\n        /* \"#utility.yul\":2121:2126   */\n      dup4\n        /* \"#utility.yul\":2063:2127   */\n      tag_98\n      jump\t// in\n    tag_163:\n        /* \"#utility.yul\":2150:2157   */\n      dup1\n        /* \"#utility.yul\":2181:2182   */\n      0x00\n        /* \"#utility.yul\":2166:2474   */\n    tag_164:\n        /* \"#utility.yul\":2191:2197   */\n      dup4\n        /* \"#utility.yul\":2188:2189   */\n      dup2\n        /* \"#utility.yul\":2185:2198   */\n      lt\n        /* \"#utility.yul\":2166:2474   */\n      iszero\n      tag_166\n      jumpi\n        /* \"#utility.yul\":2267:2273   */\n      dup2\n        /* \"#utility.yul\":2261:2274   */\n      mload\n        /* \"#utility.yul\":2294:2373   */\n      tag_167\n        /* \"#utility.yul\":2369:2372   */\n      dup9\n        /* \"#utility.yul\":2354:2367   */\n      dup3\n        /* \"#utility.yul\":2294:2373   */\n      tag_101\n      jump\t// in\n    tag_167:\n        /* \"#utility.yul\":2287:2373   */\n      swap8\n      pop\n        /* \"#utility.yul\":2396:2464   */\n      tag_168\n        /* \"#utility.yul\":2457:2463   */\n      dup4\n        /* \"#utility.yul\":2396:2464   */\n      tag_102\n      jump\t// in\n    tag_168:\n        /* \"#utility.yul\":2386:2464   */\n      swap3\n      pop\n        /* \"#utility.yul\":2226:2474   */\n      pop\n        /* \"#utility.yul\":2213:2214   */\n      0x01\n        /* \"#utility.yul\":2210:2211   */\n      dup2\n        /* \"#utility.yul\":2206:2215   */\n      add\n        /* \"#utility.yul\":2201:2215   */\n      swap1\n      pop\n        /* \"#utility.yul\":2166:2474   */\n      jump(tag_164)\n    tag_166:\n        /* \"#utility.yul\":2170:2184   */\n      pop\n        /* \"#utility.yul\":2490:2493   */\n      dup6\n        /* \"#utility.yul\":2483:2493   */\n      swap4\n      pop\n        /* \"#utility.yul\":1843:2499   */\n      pop\n      pop\n      pop\n        /* \"#utility.yul\":1703:2499   */\n      swap3\n      swap2\n      pop\n      pop\n      jump\t// out\n        /* \"#utility.yul\":2505:2910   */\n    tag_19:\n        /* \"#utility.yul\":2664:2668   */\n      0x00\n        /* \"#utility.yul\":2702:2704   */\n      0x20\n        /* \"#utility.yul\":2691:2700   */\n      dup3\n        /* \"#utility.yul\":2687:2705   */\n      add\n        /* \"#utility.yul\":2679:2705   */\n      swap1\n      pop\n        /* \"#utility.yul\":2751:2760   */\n      dup2\n        /* \"#utility.yul\":2745:2749   */\n      dup2\n        /* \"#utility.yul\":2741:2761   */\n      sub\n        /* \"#utility.yul\":2737:2738   */\n      0x00\n        /* \"#utility.yul\":2726:2735   */\n      dup4\n        /* \"#utility.yul\":2722:2739   */\n      add\n        /* \"#utility.yul\":2715:2762   */\n      mstore\n        /* \"#utility.yul\":2779:2903   */\n      tag_170\n        /* \"#utility.yul\":2898:2902   */\n      dup2\n        /* \"#utility.yul\":2889:2895   */\n      dup5\n        /* \"#utility.yul\":2779:2903   */\n      tag_103\n      jump\t// in\n    tag_170:\n        /* \"#utility.yul\":2771:2903   */\n      swap1\n      pop\n        /* \"#utility.yul\":2505:2910   */\n      swap3\n      swap2\n      pop\n      pop\n      jump\t// out\n        /* \"#utility.yul\":2997:3114   */\n    tag_105:\n        /* \"#utility.yul\":3106:3107   */\n      0x00\n        /* \"#utility.yul\":3103:3104   */\n      dup1\n        /* \"#utility.yul\":3096:3108   */\n      revert\n        /* \"#utility.yul\":3243:3320   */\n    tag_107:\n        /* \"#utility.yul\":3280:3287   */\n      0x00\n        /* \"#utility.yul\":3309:3314   */\n      dup2\n        /* \"#utility.yul\":3298:3314   */\n      swap1\n      pop\n        /* \"#utility.yul\":3243:3320   */\n      swap2\n      swap1\n      pop\n      jump\t// out\n        /* \"#utility.yul\":3326:3448   */\n    tag_108:\n        /* \"#utility.yul\":3399:3423   */\n      tag_176\n        /* \"#utility.yul\":3417:3422   */\n      dup2\n        /* \"#utility.yul\":3399:3423   */\n      tag_107\n      jump\t// in\n    tag_176:\n        /* \"#utility.yul\":3392:3397   */\n      dup2\n        /* \"#utility.yul\":3389:3424   */\n      eq\n        /* \"#utility.yul\":3379:3442   */\n      tag_177\n      jumpi\n        /* \"#utility.yul\":3438:3439   */\n      0x00\n        /* \"#utility.yul\":3435:3436   */\n      dup1\n        /* \"#utility.yul\":3428:3440   */\n      revert\n        /* \"#utility.yul\":3379:3442   */\n    tag_177:\n        /* \"#utility.yul\":3326:3448   */\n      pop\n      jump\t// out\n        /* \"#utility.yul\":3454:3593   */\n    tag_109:\n        /* \"#utility.yul\":3500:3505   */\n      0x00\n        /* \"#utility.yul\":3538:3544   */\n      dup2\n        /* \"#utility.yul\":3525:3545   */\n      calldataload\n        /* \"#utility.yul\":3516:3545   */\n      swap1\n      pop\n        /* \"#utility.yul\":3554:3587   */\n      tag_179\n        /* \"#utility.yul\":3581:3586   */\n      dup2\n        /* \"#utility.yul\":3554:3587   */\n      tag_108\n      jump\t// in\n    tag_179:\n        /* \"#utility.yul\":3454:3593   */\n      swap3\n      swap2\n      pop\n      pop\n      jump\t// out\n        /* \"#utility.yul\":3599:3928   */\n    tag_25:\n        /* \"#utility.yul\":3658:3664   */\n      0x00\n        /* \"#utility.yul\":3707:3709   */\n      0x20\n        /* \"#utility.yul\":3695:3704   */\n      dup3\n        /* \"#utility.yul\":3686:3693   */\n      dup5\n        /* \"#utility.yul\":3682:3705   */\n      sub\n        /* \"#utility.yul\":3678:3710   */\n      slt\n        /* \"#utility.yul\":3675:3794   */\n      iszero\n      tag_181\n      jumpi\n        /* \"#utility.yul\":3713:3792   */\n      tag_182\n      tag_105\n      jump\t// in\n    tag_182:\n        /* \"#utility.yul\":3675:3794   */\n    tag_181:\n        /* \"#utility.yul\":3833:3834   */\n      0x00\n        /* \"#utility.yul\":3858:3911   */\n      tag_183\n        /* \"#utility.yul\":3903:3910   */\n      dup5\n        /* \"#utility.yul\":3894:3900   */\n      dup3\n        /* \"#utility.yul\":3883:3892   */\n      dup6\n        /* \"#utility.yul\":3879:3901   */\n      add\n        /* \"#utility.yul\":3858:3911   */\n      tag_109\n      jump\t// in\n    tag_183:\n        /* \"#utility.yul\":3848:3911   */\n      swap2\n      pop\n        /* \"#utility.yul\":3804:3921   */\n      pop\n        /* \"#utility.yul\":3599:3928   */\n      swap3\n      swap2\n      pop\n      pop\n      jump\t// out\n        /* \"#utility.yul\":3934:4076   */\n    tag_110:\n        /* \"#utility.yul\":4037:4069   */\n      tag_185\n        /* \"#utility.yul\":4063:4068   */\n      dup2\n        /* \"#utility.yul\":4037:4069   */\n      tag_99\n      jump\t// in\n    tag_185:\n        /* \"#utility.yul\":4032:4035   */\n      dup3\n        /* \"#utility.yul\":4025:4070   */\n      mstore\n        /* \"#utility.yul\":3934:4076   */\n      pop\n      pop\n      jump\t// out\n        /* \"#utility.yul\":4082:4336   */\n    tag_28:\n        /* \"#utility.yul\":4191:4195   */\n      0x00\n        /* \"#utility.yul\":4229:4231   */\n      0x20\n        /* \"#utility.yul\":4218:4227   */\n      dup3\n        /* \"#utility.yul\":4214:4232   */\n      add\n        /* \"#utility.yul\":4206:4232   */\n      swap1\n      pop\n        /* \"#utility.yul\":4242:4329   */\n      tag_187\n        /* \"#utility.yul\":4326:4327   */\n      0x00\n        /* \"#utility.yul\":4315:4324   */\n      dup4\n        /* \"#utility.yul\":4311:4328   */\n      add\n        /* \"#utility.yul\":4302:4308   */\n      dup5\n        /* \"#utility.yul\":4242:4329   */\n      tag_110\n      jump\t// in\n    tag_187:\n        /* \"#utility.yul\":4082:4336   */\n      swap3\n      swap2\n      pop\n      pop\n      jump\t// out\n        /* \"#utility.yul\":4342:4511   */\n    tag_111:\n        /* \"#utility.yul\":4426:4437   */\n      0x00\n        /* \"#utility.yul\":4460:4466   */\n      dup3\n        /* \"#utility.yul\":4455:4458   */\n      dup3\n        /* \"#utility.yul\":4448:4467   */\n      mstore\n        /* \"#utility.yul\":4500:4504   */\n      0x20\n        /* \"#utility.yul\":4495:4498   */\n      dup3\n        /* \"#utility.yul\":4491:4505   */\n      add\n        /* \"#utility.yul\":4476:4505   */\n      swap1\n      pop\n        /* \"#utility.yul\":4342:4511   */\n      swap3\n      swap2\n      pop\n      pop\n      jump\t// out\n        /* \"#utility.yul\":4517:4699   */\n    tag_112:\n        /* \"#utility.yul\":4657:4691   */\n      0x4f6e6c79206d616e616765722063616e207069636b207468652077696e6e6572\n        /* \"#utility.yul\":4653:4654   */\n      0x00\n        /* \"#utility.yul\":4645:4651   */\n      dup3\n        /* \"#utility.yul\":4641:4655   */\n      add\n        /* \"#utility.yul\":4634:4692   */\n      mstore\n        /* \"#utility.yul\":4517:4699   */\n      pop\n      jump\t// out\n        /* \"#utility.yul\":4705:5071   */\n    tag_113:\n        /* \"#utility.yul\":4847:4850   */\n      0x00\n        /* \"#utility.yul\":4868:4935   */\n      tag_191\n        /* \"#utility.yul\":4932:4934   */\n      0x20\n        /* \"#utility.yul\":4927:4930   */\n      dup4\n        /* \"#utility.yul\":4868:4935   */\n      tag_111\n      jump\t// in\n    tag_191:\n        /* \"#utility.yul\":4861:4935   */\n      swap2\n      pop\n        /* \"#utility.yul\":4944:5037   */\n      tag_192\n        /* \"#utility.yul\":5033:5036   */\n      dup3\n        /* \"#utility.yul\":4944:5037   */\n      tag_112\n      jump\t// in\n    tag_192:\n        /* \"#utility.yul\":5062:5064   */\n      0x20\n        /* \"#utility.yul\":5057:5060   */\n      dup3\n        /* \"#utility.yul\":5053:5065   */\n      add\n        /* \"#utility.yul\":5046:5065   */\n      swap1\n      pop\n        /* \"#utility.yul\":4705:5071   */\n      swap2\n      swap1\n      pop\n      jump\t// out\n        /* \"#utility.yul\":5077:5496   */\n    tag_32:\n        /* \"#utility.yul\":5243:5247   */\n      0x00\n        /* \"#utility.yul\":5281:5283   */\n      0x20\n        /* \"#utility.yul\":5270:5279   */\n      dup3\n        /* \"#utility.yul\":5266:5284   */\n      add\n        /* \"#utility.yul\":5258:5284   */\n      swap1\n      pop\n        /* \"#utility.yul\":5330:5339   */\n      dup2\n        /* \"#utility.yul\":5324:5328   */\n      dup2\n        /* \"#utility.yul\":5320:5340   */\n      sub\n        /* \"#utility.yul\":5316:5317   */\n      0x00\n        /* \"#utility.yul\":5305:5314   */\n      dup4\n        /* \"#utility.yul\":5301:5318   */\n      add\n        /* \"#utility.yul\":5294:5341   */\n      mstore\n        /* \"#utility.yul\":5358:5489   */\n      tag_194\n        /* \"#utility.yul\":5484:5488   */\n      dup2\n        /* \"#utility.yul\":5358:5489   */\n      tag_113\n      jump\t// in\n    tag_194:\n        /* \"#utility.yul\":5350:5489   */\n      swap1\n      pop\n        /* \"#utility.yul\":5077:5496   */\n      swap2\n      swap1\n      pop\n      jump\t// out\n        /* \"#utility.yul\":5502:5682   */\n    tag_114:\n        /* \"#utility.yul\":5550:5627   */\n      0x4e487b7100000000000000000000000000000000000000000000000000000000\n        /* \"#utility.yul\":5547:5548   */\n      0x00\n        /* \"#utility.yul\":5540:5628   */\n      mstore\n        /* \"#utility.yul\":5647:5651   */\n      0x12\n        /* \"#utility.yul\":5644:5645   */\n      0x04\n        /* \"#utility.yul\":5637:5652   */\n      mstore\n        /* \"#utility.yul\":5671:5675   */\n      0x24\n        /* \"#utility.yul\":5668:5669   */\n      0x00\n        /* \"#utility.yul\":5661:5676   */\n      revert\n        /* \"#utility.yul\":5688:5864   */\n    tag_36:\n        /* \"#utility.yul\":5720:5721   */\n      0x00\n        /* \"#utility.yul\":5737:5757   */\n      tag_197\n        /* \"#utility.yul\":5755:5756   */\n      dup3\n        /* \"#utility.yul\":5737:5757   */\n      tag_107\n      jump\t// in\n    tag_197:\n        /* \"#utility.yul\":5732:5757   */\n      swap2\n      pop\n        /* \"#utility.yul\":5771:5791   */\n      tag_198\n        /* \"#utility.yul\":5789:5790   */\n      dup4\n        /* \"#utility.yul\":5771:5791   */\n      tag_107\n      jump\t// in\n    tag_198:\n        /* \"#utility.yul\":5766:5791   */\n      swap3\n      pop\n        /* \"#utility.yul\":5810:5811   */\n      dup3\n        /* \"#utility.yul\":5800:5835   */\n      tag_199\n      jumpi\n        /* \"#utility.yul\":5815:5833   */\n      tag_200\n      tag_114\n      jump\t// in\n    tag_200:\n        /* \"#utility.yul\":5800:5835   */\n    tag_199:\n        /* \"#utility.yul\":5856:5857   */\n      dup3\n        /* \"#utility.yul\":5853:5854   */\n      dup3\n        /* \"#utility.yul\":5849:5858   */\n      mod\n        /* \"#utility.yul\":5844:5858   */\n      swap1\n      pop\n        /* \"#utility.yul\":5688:5864   */\n      swap3\n      swap2\n      pop\n      pop\n      jump\t// out\n        /* \"#utility.yul\":5870:6050   */\n    tag_39:\n        /* \"#utility.yul\":5918:5995   */\n      0x4e487b7100000000000000000000000000000000000000000000000000000000\n        /* \"#utility.yul\":5915:5916   */\n      0x00\n        /* \"#utility.yul\":5908:5996   */\n      mstore\n        /* \"#utility.yul\":6015:6019   */\n      0x32\n        /* \"#utility.yul\":6012:6013   */\n      0x04\n        /* \"#utility.yul\":6005:6020   */\n      mstore\n        /* \"#utility.yul\":6039:6043   */\n      0x24\n        /* \"#utility.yul\":6036:6037   */\n      0x00\n        /* \"#utility.yul\":6029:6044   */\n      revert\n        /* \"#utility.yul\":6056:6236   */\n    tag_45:\n        /* \"#utility.yul\":6104:6181   */\n      0x4e487b7100000000000000000000000000000000000000000000000000000000\n        /* \"#utility.yul\":6101:6102   */\n      0x00\n        /* \"#utility.yul\":6094:6182   */\n      mstore\n        /* \"#utility.yul\":6201:6205   */\n      0x41\n        /* \"#utility.yul\":6198:6199   */\n      0x04\n        /* \"#utility.yul\":6191:6206   */\n      mstore\n        /* \"#utility.yul\":6225:6229   */\n      0x24\n        /* \"#utility.yul\":6222:6223   */\n      0x00\n        /* \"#utility.yul\":6215:6230   */\n      revert\n        /* \"#utility.yul\":6242:6412   */\n    tag_115:\n        /* \"#utility.yul\":6382:6404   */\n      0x4d616e616765722063616e6e6f7420656e746572000000000000000000000000\n        /* \"#utility.yul\":6378:6379   */\n      0x00\n        /* \"#utility.yul\":6370:6376   */\n      dup3\n        /* \"#utility.yul\":6366:6380   */\n      add\n        /* \"#utility.yul\":6359:6405   */\n      mstore\n        /* \"#utility.yul\":6242:6412   */\n      pop\n      jump\t// out\n        /* \"#utility.yul\":6418:6784   */\n    tag_116:\n        /* \"#utility.yul\":6560:6563   */\n      0x00\n        /* \"#utility.yul\":6581:6648   */\n      tag_205\n        /* \"#utility.yul\":6645:6647   */\n      0x14\n        /* \"#utility.yul\":6640:6643   */\n      dup4\n        /* \"#utility.yul\":6581:6648   */\n      tag_111\n      jump\t// in\n    tag_205:\n        /* \"#utility.yul\":6574:6648   */\n      swap2\n      pop\n        /* \"#utility.yul\":6657:6750   */\n      tag_206\n        /* \"#utility.yul\":6746:6749   */\n      dup3\n        /* \"#utility.yul\":6657:6750   */\n      tag_115\n      jump\t// in\n    tag_206:\n        /* \"#utility.yul\":6775:6777   */\n      0x20\n        /* \"#utility.yul\":6770:6773   */\n      dup3\n        /* \"#utility.yul\":6766:6778   */\n      add\n        /* \"#utility.yul\":6759:6778   */\n      swap1\n      pop\n        /* \"#utility.yul\":6418:6784   */\n      swap2\n      swap1\n      pop\n      jump\t// out\n        /* \"#utility.yul\":6790:7209   */\n    tag_55:\n        /* \"#utility.yul\":6956:6960   */\n      0x00\n        /* \"#utility.yul\":6994:6996   */\n      0x20\n        /* \"#utility.yul\":6983:6992   */\n      dup3\n        /* \"#utility.yul\":6979:6997   */\n      add\n        /* \"#utility.yul\":6971:6997   */\n      swap1\n      pop\n        /* \"#utility.yul\":7043:7052   */\n      dup2\n        /* \"#utility.yul\":7037:7041   */\n      dup2\n        /* \"#utility.yul\":7033:7053   */\n      sub\n        /* \"#utility.yul\":7029:7030   */\n      0x00\n        /* \"#utility.yul\":7018:7027   */\n      dup4\n        /* \"#utility.yul\":7014:7031   */\n      add\n        /* \"#utility.yul\":7007:7054   */\n      mstore\n        /* \"#utility.yul\":7071:7202   */\n      tag_208\n        /* \"#utility.yul\":7197:7201   */\n      dup2\n        /* \"#utility.yul\":7071:7202   */\n      tag_116\n      jump\t// in\n    tag_208:\n        /* \"#utility.yul\":7063:7202   */\n      swap1\n      pop\n        /* \"#utility.yul\":6790:7209   */\n      swap2\n      swap1\n      pop\n      jump\t// out\n        /* \"#utility.yul\":7215:7387   */\n    tag_117:\n        /* \"#utility.yul\":7355:7379   */\n      0x506c6179657220616c726561647920656e746572656400000000000000000000\n        /* \"#utility.yul\":7351:7352   */\n      0x00\n        /* \"#utility.yul\":7343:7349   */\n      dup3\n        /* \"#utility.yul\":7339:7353   */\n      add\n        /* \"#utility.yul\":7332:7380   */\n      mstore\n        /* \"#utility.yul\":7215:7387   */\n      pop\n      jump\t// out\n        /* \"#utility.yul\":7393:7759   */\n    tag_118:\n        /* \"#utility.yul\":7535:7538   */\n      0x00\n        /* \"#utility.yul\":7556:7623   */\n      tag_211\n        /* \"#utility.yul\":7620:7622   */\n      0x16\n        /* \"#utility.yul\":7615:7618   */\n      dup4\n        /* \"#utility.yul\":7556:7623   */\n      tag_111\n      jump\t// in\n    tag_211:\n        /* \"#utility.yul\":7549:7623   */\n      swap2\n      pop\n        /* \"#utility.yul\":7632:7725   */\n      tag_212\n        /* \"#utility.yul\":7721:7724   */\n      dup3\n        /* \"#utility.yul\":7632:7725   */\n      tag_117\n      jump\t// in\n    tag_212:\n        /* \"#utility.yul\":7750:7752   */\n      0x20\n        /* \"#utility.yul\":7745:7748   */\n      dup3\n        /* \"#utility.yul\":7741:7753   */\n      add\n        /* \"#utility.yul\":7734:7753   */\n      swap1\n      pop\n        /* \"#utility.yul\":7393:7759   */\n      swap2\n      swap1\n      pop\n      jump\t// out\n        /* \"#utility.yul\":7765:8184   */\n    tag_60:\n        /* \"#utility.yul\":7931:7935   */\n      0x00\n        /* \"#utility.yul\":7969:7971   */\n      0x20\n        /* \"#utility.yul\":7958:7967   */\n      dup3\n        /* \"#utility.yul\":7954:7972   */\n      add\n        /* \"#utility.yul\":7946:7972   */\n      swap1\n      pop\n        /* \"#utility.yul\":8018:8027   */\n      dup2\n        /* \"#utility.yul\":8012:8016   */\n      dup2\n        /* \"#utility.yul\":8008:8028   */\n      sub\n        /* \"#utility.yul\":8004:8005   */\n      0x00\n        /* \"#utility.yul\":7993:8002   */\n      dup4\n        /* \"#utility.yul\":7989:8006   */\n      add\n        /* \"#utility.yul\":7982:8029   */\n      mstore\n        /* \"#utility.yul\":8046:8177   */\n      tag_214\n        /* \"#utility.yul\":8172:8176   */\n      dup2\n        /* \"#utility.yul\":8046:8177   */\n      tag_118\n      jump\t// in\n    tag_214:\n        /* \"#utility.yul\":8038:8177   */\n      swap1\n      pop\n        /* \"#utility.yul\":7765:8184   */\n      swap2\n      swap1\n      pop\n      jump\t// out\n        /* \"#utility.yul\":8190:8368   */\n    tag_119:\n        /* \"#utility.yul\":8330:8360   */\n      0x4d696e696d756e20616d6f756e74206d75737420626520706179656400000000\n        /* \"#utility.yul\":8326:8327   */\n      0x00\n        /* \"#utility.yul\":8318:8324   */\n      dup3\n        /* \"#utility.yul\":8314:8328   */\n      add\n        /* \"#utility.yul\":8307:8361   */\n      mstore\n        /* \"#utility.yul\":8190:8368   */\n      pop\n      jump\t// out\n        /* \"#utility.yul\":8374:8740   */\n    tag_120:\n        /* \"#utility.yul\":8516:8519   */\n      0x00\n        /* \"#utility.yul\":8537:8604   */\n      tag_217\n        /* \"#utility.yul\":8601:8603   */\n      0x1c\n        /* \"#utility.yul\":8596:8599   */\n      dup4\n        /* \"#utility.yul\":8537:8604   */\n      tag_111\n      jump\t// in\n    tag_217:\n        /* \"#utility.yul\":8530:8604   */\n      swap2\n      pop\n        /* \"#utility.yul\":8613:8706   */\n      tag_218\n        /* \"#utility.yul\":8702:8705   */\n      dup3\n        /* \"#utility.yul\":8613:8706   */\n      tag_119\n      jump\t// in\n    tag_218:\n        /* \"#utility.yul\":8731:8733   */\n      0x20\n        /* \"#utility.yul\":8726:8729   */\n      dup3\n        /* \"#utility.yul\":8722:8734   */\n      add\n        /* \"#utility.yul\":8715:8734   */\n      swap1\n      pop\n        /* \"#utility.yul\":8374:8740   */\n      swap2\n      swap1\n      pop\n      jump\t// out\n        /* \"#utility.yul\":8746:9165   */\n    tag_63:\n        /* \"#utility.yul\":8912:8916   */\n      0x00\n        /* \"#utility.yul\":8950:8952   */\n      0x20\n        /* \"#utility.yul\":8939:8948   */\n      dup3\n        /* \"#utility.yul\":8935:8953   */\n      add\n        /* \"#utility.yul\":8927:8953   */\n      swap1\n      pop\n        /* \"#utility.yul\":8999:9008   */\n      dup2\n        /* \"#utility.yul\":8993:8997   */\n      dup2\n        /* \"#utility.yul\":8989:9009   */\n      sub\n        /* \"#utility.yul\":8985:8986   */\n      0x00\n        /* \"#utility.yul\":8974:8983   */\n      dup4\n        /* \"#utility.yul\":8970:8987   */\n      add\n        /* \"#utility.yul\":8963:9010   */\n      mstore\n        /* \"#utility.yul\":9027:9158   */\n      tag_220\n        /* \"#utility.yul\":9153:9157   */\n      dup2\n        /* \"#utility.yul\":9027:9158   */\n      tag_120\n      jump\t// in\n    tag_220:\n        /* \"#utility.yul\":9019:9158   */\n      swap1\n      pop\n        /* \"#utility.yul\":8746:9165   */\n      swap2\n      swap1\n      pop\n      jump\t// out\n        /* \"#utility.yul\":9171:9250   */\n    tag_121:\n        /* \"#utility.yul\":9210:9217   */\n      0x00\n        /* \"#utility.yul\":9239:9244   */\n      dup2\n        /* \"#utility.yul\":9228:9244   */\n      swap1\n      pop\n        /* \"#utility.yul\":9171:9250   */\n      swap2\n      swap1\n      pop\n      jump\t// out\n        /* \"#utility.yul\":9256:9413   */\n    tag_122:\n        /* \"#utility.yul\":9361:9406   */\n      tag_223\n        /* \"#utility.yul\":9381:9405   */\n      tag_224\n        /* \"#utility.yul\":9399:9404   */\n      dup3\n        /* \"#utility.yul\":9381:9405   */\n      tag_107\n      jump\t// in\n    tag_224:\n        /* \"#utility.yul\":9361:9406   */\n      tag_121\n      jump\t// in\n    tag_223:\n        /* \"#utility.yul\":9356:9359   */\n      dup3\n        /* \"#utility.yul\":9349:9407   */\n      mstore\n        /* \"#utility.yul\":9256:9413   */\n      pop\n      pop\n      jump\t// out\n        /* \"#utility.yul\":9419:9538   */\n    tag_123:\n        /* \"#utility.yul\":9491:9497   */\n      0x00\n        /* \"#utility.yul\":9525:9530   */\n      dup2\n        /* \"#utility.yul\":9519:9531   */\n      sload\n        /* \"#utility.yul\":9509:9531   */\n      swap1\n      pop\n        /* \"#utility.yul\":9419:9538   */\n      swap2\n      swap1\n      pop\n      jump\t// out\n        /* \"#utility.yul\":9544:9715   */\n    tag_124:\n        /* \"#utility.yul\":9669:9680   */\n      0x00\n        /* \"#utility.yul\":9706:9709   */\n      dup2\n        /* \"#utility.yul\":9691:9709   */\n      swap1\n      pop\n        /* \"#utility.yul\":9544:9715   */\n      swap3\n      swap2\n      pop\n      pop\n      jump\t// out\n        /* \"#utility.yul\":9721:9885   */\n    tag_125:\n        /* \"#utility.yul\":9793:9797   */\n      0x00\n        /* \"#utility.yul\":9816:9819   */\n      dup2\n        /* \"#utility.yul\":9808:9819   */\n      swap1\n      pop\n        /* \"#utility.yul\":9839:9842   */\n      dup2\n        /* \"#utility.yul\":9836:9837   */\n      0x00\n        /* \"#utility.yul\":9829:9843   */\n      mstore\n        /* \"#utility.yul\":9873:9877   */\n      0x20\n        /* \"#utility.yul\":9870:9871   */\n      0x00\n        /* \"#utility.yul\":9860:9878   */\n      keccak256\n        /* \"#utility.yul\":9852:9878   */\n      swap1\n      pop\n        /* \"#utility.yul\":9721:9885   */\n      swap2\n      swap1\n      pop\n      jump\t// out\n        /* \"#utility.yul\":9891:10031   */\n    tag_126:\n        /* \"#utility.yul\":9992:10024   */\n      tag_229\n        /* \"#utility.yul\":10018:10023   */\n      dup2\n        /* \"#utility.yul\":9992:10024   */\n      tag_99\n      jump\t// in\n    tag_229:\n        /* \"#utility.yul\":9987:9990   */\n      dup3\n        /* \"#utility.yul\":9980:10025   */\n      mstore\n        /* \"#utility.yul\":9891:10031   */\n      pop\n      pop\n      jump\t// out\n        /* \"#utility.yul\":10037:10264   */\n    tag_127:\n        /* \"#utility.yul\":10130:10140   */\n      0x00\n        /* \"#utility.yul\":10151:10221   */\n      tag_231\n        /* \"#utility.yul\":10217:10220   */\n      dup4\n        /* \"#utility.yul\":10209:10215   */\n      dup4\n        /* \"#utility.yul\":10151:10221   */\n      tag_126\n      jump\t// in\n    tag_231:\n        /* \"#utility.yul\":10253:10257   */\n      0x20\n        /* \"#utility.yul\":10248:10251   */\n      dup4\n        /* \"#utility.yul\":10244:10258   */\n      add\n        /* \"#utility.yul\":10230:10258   */\n      swap1\n      pop\n        /* \"#utility.yul\":10037:10264   */\n      swap3\n      swap2\n      pop\n      pop\n      jump\t// out\n        /* \"#utility.yul\":10270:10372   */\n    tag_128:\n        /* \"#utility.yul\":10312:10320   */\n      0x00\n        /* \"#utility.yul\":10359:10364   */\n      dup2\n        /* \"#utility.yul\":10356:10357   */\n      0x00\n        /* \"#utility.yul\":10352:10365   */\n      shr\n        /* \"#utility.yul\":10331:10365   */\n      swap1\n      pop\n        /* \"#utility.yul\":10270:10372   */\n      swap2\n      swap1\n      pop\n      jump\t// out\n        /* \"#utility.yul\":10378:10525   */\n    tag_129:\n        /* \"#utility.yul\":10436:10443   */\n      0x00\n        /* \"#utility.yul\":10476:10518   */\n      0xffffffffffffffffffffffffffffffffffffffff\n        /* \"#utility.yul\":10469:10474   */\n      dup3\n        /* \"#utility.yul\":10465:10519   */\n      and\n        /* \"#utility.yul\":10454:10519   */\n      swap1\n      pop\n        /* \"#utility.yul\":10378:10525   */\n      swap2\n      swap1\n      pop\n      jump\t// out\n        /* \"#utility.yul\":10531:10713   */\n    tag_130:\n        /* \"#utility.yul\":10608:10613   */\n      0x00\n        /* \"#utility.yul\":10633:10707   */\n      tag_235\n        /* \"#utility.yul\":10672:10706   */\n      tag_236\n        /* \"#utility.yul\":10695:10705   */\n      dup4\n        /* \"#utility.yul\":10672:10706   */\n      tag_128\n      jump\t// in\n    tag_236:\n        /* \"#utility.yul\":10633:10707   */\n      tag_129\n      jump\t// in\n    tag_235:\n        /* \"#utility.yul\":10624:10707   */\n      swap1\n      pop\n        /* \"#utility.yul\":10531:10713   */\n      swap2\n      swap1\n      pop\n      jump\t// out\n        /* \"#utility.yul\":10719:10879   */\n    tag_131:\n        /* \"#utility.yul\":10782:10787   */\n      0x00\n        /* \"#utility.yul\":10807:10872   */\n      tag_238\n        /* \"#utility.yul\":10866:10870   */\n      dup3\n        /* \"#utility.yul\":10860:10871   */\n      sload\n        /* \"#utility.yul\":10807:10872   */\n      tag_130\n      jump\t// in\n    tag_238:\n        /* \"#utility.yul\":10798:10872   */\n      swap1\n      pop\n        /* \"#utility.yul\":10719:10879   */\n      swap2\n      swap1\n      pop\n      jump\t// out\n        /* \"#utility.yul\":10885:11003   */\n    tag_132:\n        /* \"#utility.yul\":10960:10964   */\n      0x00\n        /* \"#utility.yul\":10992:10996   */\n      0x01\n        /* \"#utility.yul\":10987:10990   */\n      dup3\n        /* \"#utility.yul\":10983:10997   */\n      add\n        /* \"#utility.yul\":10975:10997   */\n      swap1\n      pop\n        /* \"#utility.yul\":10885:11003   */\n      swap2\n      swap1\n      pop\n      jump\t// out\n        /* \"#utility.yul\":11055:11922   */\n    tag_133:\n        /* \"#utility.yul\":11205:11208   */\n      0x00\n        /* \"#utility.yul\":11234:11293   */\n      tag_241\n        /* \"#utility.yul\":11287:11292   */\n      dup3\n        /* \"#utility.yul\":11234:11293   */\n      tag_123\n      jump\t// in\n    tag_241:\n        /* \"#utility.yul\":11309:11421   */\n      tag_242\n        /* \"#utility.yul\":11414:11420   */\n      dup2\n        /* \"#utility.yul\":11409:11412   */\n      dup6\n        /* \"#utility.yul\":11309:11421   */\n      tag_124\n      jump\t// in\n    tag_242:\n        /* \"#utility.yul\":11302:11421   */\n      swap4\n      pop\n        /* \"#utility.yul\":11445:11506   */\n      tag_243\n        /* \"#utility.yul\":11500:11505   */\n      dup4\n        /* \"#utility.yul\":11445:11506   */\n      tag_125\n      jump\t// in\n    tag_243:\n        /* \"#utility.yul\":11529:11536   */\n      dup1\n        /* \"#utility.yul\":11560:11561   */\n      0x00\n        /* \"#utility.yul\":11545:11897   */\n    tag_244:\n        /* \"#utility.yul\":11570:11576   */\n      dup4\n        /* \"#utility.yul\":11567:11568   */\n      dup2\n        /* \"#utility.yul\":11564:11577   */\n      lt\n        /* \"#utility.yul\":11545:11897   */\n      iszero\n      tag_246\n      jumpi\n        /* \"#utility.yul\":11640:11692   */\n      tag_247\n        /* \"#utility.yul\":11685:11691   */\n      dup3\n        /* \"#utility.yul\":11640:11692   */\n      tag_131\n      jump\t// in\n    tag_247:\n        /* \"#utility.yul\":11712:11799   */\n      tag_248\n        /* \"#utility.yul\":11795:11798   */\n      dup9\n        /* \"#utility.yul\":11780:11793   */\n      dup3\n        /* \"#utility.yul\":11712:11799   */\n      tag_127\n      jump\t// in\n    tag_248:\n        /* \"#utility.yul\":11705:11799   */\n      swap8\n      pop\n        /* \"#utility.yul\":11822:11887   */\n      tag_249\n        /* \"#utility.yul\":11880:11886   */\n      dup4\n        /* \"#utility.yul\":11822:11887   */\n      tag_132\n      jump\t// in\n    tag_249:\n        /* \"#utility.yul\":11812:11887   */\n      swap3\n      pop\n        /* \"#utility.yul\":11605:11897   */\n      pop\n        /* \"#utility.yul\":11592:11593   */\n      0x01\n        /* \"#utility.yul\":11589:11590   */\n      dup2\n        /* \"#utility.yul\":11585:11594   */\n      add\n        /* \"#utility.yul\":11580:11594   */\n      swap1\n      pop\n        /* \"#utility.yul\":11545:11897   */\n      jump(tag_244)\n    tag_246:\n        /* \"#utility.yul\":11549:11563   */\n      pop\n        /* \"#utility.yul\":11913:11916   */\n      dup6\n        /* \"#utility.yul\":11906:11916   */\n      swap4\n      pop\n        /* \"#utility.yul\":11210:11922   */\n      pop\n      pop\n      pop\n        /* \"#utility.yul\":11055:11922   */\n      swap3\n      swap2\n      pop\n      pop\n      jump\t// out\n        /* \"#utility.yul\":11928:12571   */\n    tag_69:\n        /* \"#utility.yul\":12159:12162   */\n      0x00\n        /* \"#utility.yul\":12174:12249   */\n      tag_251\n        /* \"#utility.yul\":12245:12248   */\n      dup3\n        /* \"#utility.yul\":12236:12242   */\n      dup7\n        /* \"#utility.yul\":12174:12249   */\n      tag_122\n      jump\t// in\n    tag_251:\n        /* \"#utility.yul\":12274:12276   */\n      0x20\n        /* \"#utility.yul\":12269:12272   */\n      dup3\n        /* \"#utility.yul\":12265:12277   */\n      add\n        /* \"#utility.yul\":12258:12277   */\n      swap2\n      pop\n        /* \"#utility.yul\":12287:12362   */\n      tag_252\n        /* \"#utility.yul\":12358:12361   */\n      dup3\n        /* \"#utility.yul\":12349:12355   */\n      dup6\n        /* \"#utility.yul\":12287:12362   */\n      tag_122\n      jump\t// in\n    tag_252:\n        /* \"#utility.yul\":12387:12389   */\n      0x20\n        /* \"#utility.yul\":12382:12385   */\n      dup3\n        /* \"#utility.yul\":12378:12390   */\n      add\n        /* \"#utility.yul\":12371:12390   */\n      swap2\n      pop\n        /* \"#utility.yul\":12407:12545   */\n      tag_253\n        /* \"#utility.yul\":12541:12544   */\n      dup3\n        /* \"#utility.yul\":12532:12538   */\n      dup5\n        /* \"#utility.yul\":12407:12545   */\n      tag_133\n      jump\t// in\n    tag_253:\n        /* \"#utility.yul\":12400:12545   */\n      swap2\n      pop\n        /* \"#utility.yul\":12562:12565   */\n      dup2\n        /* \"#utility.yul\":12555:12565   */\n      swap1\n      pop\n        /* \"#utility.yul\":11928:12571   */\n      swap5\n      swap4\n      pop\n      pop\n      pop\n      pop\n      jump\t// out\n        /* \"#utility.yul\":12577:12675   */\n    tag_134:\n        /* \"#utility.yul\":12628:12634   */\n      0x00\n        /* \"#utility.yul\":12662:12667   */\n      dup2\n        /* \"#utility.yul\":12656:12668   */\n      mload\n        /* \"#utility.yul\":12646:12668   */\n      swap1\n      pop\n        /* \"#utility.yul\":12577:12675   */\n      swap2\n      swap1\n      pop\n      jump\t// out\n        /* \"#utility.yul\":12681:12828   */\n    tag_135:\n        /* \"#utility.yul\":12782:12793   */\n      0x00\n        /* \"#utility.yul\":12819:12822   */\n      dup2\n        /* \"#utility.yul\":12804:12822   */\n      swap1\n      pop\n        /* \"#utility.yul\":12681:12828   */\n      swap3\n      swap2\n      pop\n      pop\n      jump\t// out\n        /* \"#utility.yul\":12834:13080   */\n    tag_136:\n        /* \"#utility.yul\":12915:12916   */\n      0x00\n        /* \"#utility.yul\":12925:13038   */\n    tag_257:\n        /* \"#utility.yul\":12939:12945   */\n      dup4\n        /* \"#utility.yul\":12936:12937   */\n      dup2\n        /* \"#utility.yul\":12933:12946   */\n      lt\n        /* \"#utility.yul\":12925:13038   */\n      iszero\n      tag_259\n      jumpi\n        /* \"#utility.yul\":13024:13025   */\n      dup1\n        /* \"#utility.yul\":13019:13022   */\n      dup3\n        /* \"#utility.yul\":13015:13026   */\n      add\n        /* \"#utility.yul\":13009:13027   */\n      mload\n        /* \"#utility.yul\":13005:13006   */\n      dup2\n        /* \"#utility.yul\":13000:13003   */\n      dup5\n        /* \"#utility.yul\":12996:13007   */\n      add\n        /* \"#utility.yul\":12989:13028   */\n      mstore\n        /* \"#utility.yul\":12961:12963   */\n      0x20\n        /* \"#utility.yul\":12958:12959   */\n      dup2\n        /* \"#utility.yul\":12954:12964   */\n      add\n        /* \"#utility.yul\":12949:12964   */\n      swap1\n      pop\n        /* \"#utility.yul\":12925:13038   */\n      jump(tag_257)\n    tag_259:\n        /* \"#utility.yul\":13072:13073   */\n      0x00\n        /* \"#utility.yul\":13063:13069   */\n      dup5\n        /* \"#utility.yul\":13058:13061   */\n      dup5\n        /* \"#utility.yul\":13054:13070   */\n      add\n        /* \"#utility.yul\":13047:13074   */\n      mstore\n        /* \"#utility.yul\":12896:13080   */\n      pop\n        /* \"#utility.yul\":12834:13080   */\n      pop\n      pop\n      pop\n      jump\t// out\n        /* \"#utility.yul\":13086:13472   */\n    tag_137:\n        /* \"#utility.yul\":13190:13193   */\n      0x00\n        /* \"#utility.yul\":13218:13256   */\n      tag_261\n        /* \"#utility.yul\":13250:13255   */\n      dup3\n        /* \"#utility.yul\":13218:13256   */\n      tag_134\n      jump\t// in\n    tag_261:\n        /* \"#utility.yul\":13272:13360   */\n      tag_262\n        /* \"#utility.yul\":13353:13359   */\n      dup2\n        /* \"#utility.yul\":13348:13351   */\n      dup6\n        /* \"#utility.yul\":13272:13360   */\n      tag_135\n      jump\t// in\n    tag_262:\n        /* \"#utility.yul\":13265:13360   */\n      swap4\n      pop\n        /* \"#utility.yul\":13369:13434   */\n      tag_263\n        /* \"#utility.yul\":13427:13433   */\n      dup2\n        /* \"#utility.yul\":13422:13425   */\n      dup6\n        /* \"#utility.yul\":13415:13419   */\n      0x20\n        /* \"#utility.yul\":13408:13413   */\n      dup7\n        /* \"#utility.yul\":13404:13420   */\n      add\n        /* \"#utility.yul\":13369:13434   */\n      tag_136\n      jump\t// in\n    tag_263:\n        /* \"#utility.yul\":13459:13465   */\n      dup1\n        /* \"#utility.yul\":13454:13457   */\n      dup5\n        /* \"#utility.yul\":13450:13466   */\n      add\n        /* \"#utility.yul\":13443:13466   */\n      swap2\n      pop\n        /* \"#utility.yul\":13194:13472   */\n      pop\n        /* \"#utility.yul\":13086:13472   */\n      swap3\n      swap2\n      pop\n      pop\n      jump\t// out\n        /* \"#utility.yul\":13478:13749   */\n    tag_71:\n        /* \"#utility.yul\":13608:13611   */\n      0x00\n        /* \"#utility.yul\":13630:13723   */\n      tag_265\n        /* \"#utility.yul\":13719:13722   */\n      dup3\n        /* \"#utility.yul\":13710:13716   */\n      dup5\n        /* \"#utility.yul\":13630:13723   */\n      tag_137\n      jump\t// in\n    tag_265:\n        /* \"#utility.yul\":13623:13723   */\n      swap2\n      pop\n        /* \"#utility.yul\":13740:13743   */\n      dup2\n        /* \"#utility.yul\":13733:13743   */\n      swap1\n      pop\n        /* \"#utility.yul\":13478:13749   */\n      swap3\n      swap2\n      pop\n      pop\n      jump\t// out\n        /* \"#utility.yul\":13755:13832   */\n    tag_138:\n        /* \"#utility.yul\":13792:13799   */\n      0x00\n        /* \"#utility.yul\":13821:13826   */\n      dup2\n        /* \"#utility.yul\":13810:13826   */\n      swap1\n      pop\n        /* \"#utility.yul\":13755:13832   */\n      swap2\n      swap1\n      pop\n      jump\t// out\n        /* \"#utility.yul\":13838:13960   */\n    tag_139:\n        /* \"#utility.yul\":13911:13935   */\n      tag_268\n        /* \"#utility.yul\":13929:13934   */\n      dup2\n        /* \"#utility.yul\":13911:13935   */\n      tag_138\n      jump\t// in\n    tag_268:\n        /* \"#utility.yul\":13904:13909   */\n      dup2\n        /* \"#utility.yul\":13901:13936   */\n      eq\n        /* \"#utility.yul\":13891:13954   */\n      tag_269\n      jumpi\n        /* \"#utility.yul\":13950:13951   */\n      0x00\n        /* \"#utility.yul\":13947:13948   */\n      dup1\n        /* \"#utility.yul\":13940:13952   */\n      revert\n        /* \"#utility.yul\":13891:13954   */\n    tag_269:\n        /* \"#utility.yul\":13838:13960   */\n      pop\n      jump\t// out\n        /* \"#utility.yul\":13966:14109   */\n    tag_140:\n        /* \"#utility.yul\":14023:14028   */\n      0x00\n        /* \"#utility.yul\":14054:14060   */\n      dup2\n        /* \"#utility.yul\":14048:14061   */\n      mload\n        /* \"#utility.yul\":14039:14061   */\n      swap1\n      pop\n        /* \"#utility.yul\":14070:14103   */\n      tag_271\n        /* \"#utility.yul\":14097:14102   */\n      dup2\n        /* \"#utility.yul\":14070:14103   */\n      tag_139\n      jump\t// in\n    tag_271:\n        /* \"#utility.yul\":13966:14109   */\n      swap3\n      swap2\n      pop\n      pop\n      jump\t// out\n        /* \"#utility.yul\":14115:14466   */\n    tag_75:\n        /* \"#utility.yul\":14185:14191   */\n      0x00\n        /* \"#utility.yul\":14234:14236   */\n      0x20\n        /* \"#utility.yul\":14222:14231   */\n      dup3\n        /* \"#utility.yul\":14213:14220   */\n      dup5\n        /* \"#utility.yul\":14209:14232   */\n      sub\n        /* \"#utility.yul\":14205:14237   */\n      slt\n        /* \"#utility.yul\":14202:14321   */\n      iszero\n      tag_273\n      jumpi\n        /* \"#utility.yul\":14240:14319   */\n      tag_274\n      tag_105\n      jump\t// in\n    tag_274:\n        /* \"#utility.yul\":14202:14321   */\n    tag_273:\n        /* \"#utility.yul\":14360:14361   */\n      0x00\n        /* \"#utility.yul\":14385:14449   */\n      tag_275\n        /* \"#utility.yul\":14441:14448   */\n      dup5\n        /* \"#utility.yul\":14432:14438   */\n      dup3\n        /* \"#utility.yul\":14421:14430   */\n      dup6\n        /* \"#utility.yul\":14417:14439   */\n      add\n        /* \"#utility.yul\":14385:14449   */\n      tag_140\n      jump\t// in\n    tag_275:\n        /* \"#utility.yul\":14375:14449   */\n      swap2\n      pop\n        /* \"#utility.yul\":14331:14459   */\n      pop\n        /* \"#utility.yul\":14115:14466   */\n      swap3\n      swap2\n      pop\n      pop\n      jump\t// out\n        /* \"#utility.yul\":14472:14652   */\n    tag_141:\n        /* \"#utility.yul\":14520:14597   */\n      0x4e487b7100000000000000000000000000000000000000000000000000000000\n        /* \"#utility.yul\":14517:14518   */\n      0x00\n        /* \"#utility.yul\":14510:14598   */\n      mstore\n        /* \"#utility.yul\":14617:14621   */\n      0x11\n        /* \"#utility.yul\":14614:14615   */\n      0x04\n        /* \"#utility.yul\":14607:14622   */\n      mstore\n        /* \"#utility.yul\":14641:14645   */\n      0x24\n        /* \"#utility.yul\":14638:14639   */\n      0x00\n        /* \"#utility.yul\":14631:14646   */\n      revert\n        /* \"#utility.yul\":14658:14891   */\n    tag_85:\n        /* \"#utility.yul\":14697:14700   */\n      0x00\n        /* \"#utility.yul\":14720:14744   */\n      tag_278\n        /* \"#utility.yul\":14738:14743   */\n      dup3\n        /* \"#utility.yul\":14720:14744   */\n      tag_107\n      jump\t// in\n    tag_278:\n        /* \"#utility.yul\":14711:14744   */\n      swap2\n      pop\n        /* \"#utility.yul\":14766:14832   */\n      0xffffffffffffffffffffffffffffffffffffffffffffffffffffffffffffffff\n        /* \"#utility.yul\":14759:14764   */\n      dup3\n        /* \"#utility.yul\":14756:14833   */\n      sub\n        /* \"#utility.yul\":14753:14856   */\n      tag_279\n      jumpi\n        /* \"#utility.yul\":14836:14854   */\n      tag_280\n      tag_141\n      jump\t// in\n    tag_280:\n        /* \"#utility.yul\":14753:14856   */\n    tag_279:\n        /* \"#utility.yul\":14883:14884   */\n      0x01\n        /* \"#utility.yul\":14876:14881   */\n      dup3\n        /* \"#utility.yul\":14872:14885   */\n      add\n        /* \"#utility.yul\":14865:14885   */\n      swap1\n      pop\n        /* \"#utility.yul\":14658:14891   */\n      swap2\n      swap1\n      pop\n      jump\t// out\n\n    auxdata: 0xa26469706673582212205ce0f39f3f747e41f56531e716faf74f6a544c0d97d4f83ef790a97257dbe38864736f6c63430008120033\n}\n",
				"bytecode": {
					"linkReferences": {},
					"object": "608060405234801561001057600080fd5b50336000806101000a81548173ffffffffffffffffffffffffffffffffffffffff021916908373ffffffffffffffffffffffffffffffffffffffff160217905550610e6f806100606000396000f3fe60806040526004361061004a5760003560e01c8063481c6a751461004f57806371b800601461007a5780638b5b9ccc14610091578063e97dcb62146100bc578063f71d96cb146100c6575b600080fd5b34801561005b57600080fd5b50610064610103565b6040516100719190610741565b60405180910390f35b34801561008657600080fd5b5061008f610127565b005b34801561009d57600080fd5b506100a66102d6565b6040516100b3919061082c565b60405180910390f35b6100c4610364565b005b3480156100d257600080fd5b506100ed60048036038101906100e89190610889565b6104f0565b6040516100fa91906108c5565b60405180910390f35b60008054906101000a900473ffffffffffffffffffffffffffffffffffffffff1681565b60008054906101000a900473ffffffffffffffffffffffffffffffffffffffff1673ffffffffffffffffffffffffffffffffffffffff163373ffffffffffffffffffffffffffffffffffffffff16146101b5576040517f08c379a00000000000000000000000000000000000000000000000000000000081526004016101ac9061093d565b60405180910390fd5b60006001805490506101c561052f565b6101cf919061098c565b90506000309050600182815481106101ea576101e96109bd565b5b9060005260206000200160009054906101000a900473ffffffffffffffffffffffffffffffffffffffff1673ffffffffffffffffffffffffffffffffffffffff166108fc8273ffffffffffffffffffffffffffffffffffffffff16319081150290604051600060405180830381858888f19350505050158015610271573d6000803e3d6000fd5b50600067ffffffffffffffff81111561028d5761028c6109ec565b5b6040519080825280602002602001820160405280156102bb5781602001602082028036833780820191505090505b50600190805190602001906102d1929190610659565b505050565b6060600180548060200260200160405190810160405280929190818152602001828054801561035a57602002820191906000526020600020905b8160009054906101000a900473ffffffffffffffffffffffffffffffffffffffff1673ffffffffffffffffffffffffffffffffffffffff1681526020019060010190808311610310575b5050505050905090565b60008054906101000a900473ffffffffffffffffffffffffffffffffffffffff1673ffffffffffffffffffffffffffffffffffffffff163373ffffffffffffffffffffffffffffffffffffffff16036103f2576040517f08c379a00000000000000000000000000000000000000000000000000000000081526004016103e990610a67565b60405180910390fd5b600015156103fe6105ad565b151514610440576040517f08c379a000000000000000000000000000000000000000000000000000000000815260040161043790610ad3565b60405180910390fd5b670de0b6b3a764000034101561048b576040517f08c379a000000000000000000000000000000000000000000000000000000000815260040161048290610b3f565b60405180910390fd5b6001339080600181540180825580915050600190039060005260206000200160009091909190916101000a81548173ffffffffffffffffffffffffffffffffffffffff021916908373ffffffffffffffffffffffffffffffffffffffff160217905550565b6001818154811061050057600080fd5b906000526020600020016000915054906101000a900473ffffffffffffffffffffffffffffffffffffffff1681565b600060024443600160405160200161054993929190610c9e565b6040516020818303038152906040526040516105659190610d48565b602060405180830381855afa158015610582573d6000803e3d6000fd5b5050506040513d601f19601f820116820180604052508101906105a59190610d95565b60001c905090565b600080600090505b600180549050811015610650573373ffffffffffffffffffffffffffffffffffffffff16600182815481106105ed576105ec6109bd565b5b9060005260206000200160009054906101000a900473ffffffffffffffffffffffffffffffffffffffff1673ffffffffffffffffffffffffffffffffffffffff160361063d576001915050610656565b808061064890610df1565b9150506105b5565b50600090505b90565b8280548282559060005260206000209081019282156106d2579160200282015b828111156106d15782518260006101000a81548173ffffffffffffffffffffffffffffffffffffffff021916908373ffffffffffffffffffffffffffffffffffffffff16021790555091602001919060010190610679565b5b5090506106df91906106e3565b5090565b5b808211156106fc5760008160009055506001016106e4565b5090565b600073ffffffffffffffffffffffffffffffffffffffff82169050919050565b600061072b82610700565b9050919050565b61073b81610720565b82525050565b60006020820190506107566000830184610732565b92915050565b600081519050919050565b600082825260208201905092915050565b6000819050602082019050919050565b600061079382610700565b9050919050565b6107a381610788565b82525050565b60006107b5838361079a565b60208301905092915050565b6000602082019050919050565b60006107d98261075c565b6107e38185610767565b93506107ee83610778565b8060005b8381101561081f57815161080688826107a9565b9750610811836107c1565b9250506001810190506107f2565b5085935050505092915050565b6000602082019050818103600083015261084681846107ce565b905092915050565b600080fd5b6000819050919050565b61086681610853565b811461087157600080fd5b50565b6000813590506108838161085d565b92915050565b60006020828403121561089f5761089e61084e565b5b60006108ad84828501610874565b91505092915050565b6108bf81610788565b82525050565b60006020820190506108da60008301846108b6565b92915050565b600082825260208201905092915050565b7f4f6e6c79206d616e616765722063616e207069636b207468652077696e6e6572600082015250565b60006109276020836108e0565b9150610932826108f1565b602082019050919050565b600060208201905081810360008301526109568161091a565b9050919050565b7f4e487b7100000000000000000000000000000000000000000000000000000000600052601260045260246000fd5b600061099782610853565b91506109a283610853565b9250826109b2576109b161095d565b5b828206905092915050565b7f4e487b7100000000000000000000000000000000000000000000000000000000600052603260045260246000fd5b7f4e487b7100000000000000000000000000000000000000000000000000000000600052604160045260246000fd5b7f4d616e616765722063616e6e6f7420656e746572000000000000000000000000600082015250565b6000610a516014836108e0565b9150610a5c82610a1b565b602082019050919050565b60006020820190508181036000830152610a8081610a44565b9050919050565b7f506c6179657220616c726561647920656e746572656400000000000000000000600082015250565b6000610abd6016836108e0565b9150610ac882610a87565b602082019050919050565b60006020820190508181036000830152610aec81610ab0565b9050919050565b7f4d696e696d756e20616d6f756e74206d75737420626520706179656400000000600082015250565b6000610b29601c836108e0565b9150610b3482610af3565b602082019050919050565b60006020820190508181036000830152610b5881610b1c565b9050919050565b6000819050919050565b610b7a610b7582610853565b610b5f565b82525050565b600081549050919050565b600081905092915050565b60008190508160005260206000209050919050565b610bb481610788565b82525050565b6000610bc68383610bab565b60208301905092915050565b60008160001c9050919050565b600073ffffffffffffffffffffffffffffffffffffffff82169050919050565b6000610c12610c0d83610bd2565b610bdf565b9050919050565b6000610c258254610bff565b9050919050565b6000600182019050919050565b6000610c4482610b80565b610c4e8185610b8b565b9350610c5983610b96565b8060005b83811015610c9157610c6e82610c19565b610c788882610bba565b9750610c8383610c2c565b925050600181019050610c5d565b5085935050505092915050565b6000610caa8286610b69565b602082019150610cba8285610b69565b602082019150610cca8284610c39565b9150819050949350505050565b600081519050919050565b600081905092915050565b60005b83811015610d0b578082015181840152602081019050610cf0565b60008484015250505050565b6000610d2282610cd7565b610d2c8185610ce2565b9350610d3c818560208601610ced565b80840191505092915050565b6000610d548284610d17565b915081905092915050565b6000819050919050565b610d7281610d5f565b8114610d7d57600080fd5b50565b600081519050610d8f81610d69565b92915050565b600060208284031215610dab57610daa61084e565b5b6000610db984828501610d80565b91505092915050565b7f4e487b7100000000000000000000000000000000000000000000000000000000600052601160045260246000fd5b6000610dfc82610853565b91507fffffffffffffffffffffffffffffffffffffffffffffffffffffffffffffffff8203610e2e57610e2d610dc2565b5b60018201905091905056fea26469706673582212205ce0f39f3f747e41f56531e716faf74f6a544c0d97d4f83ef790a97257dbe38864736f6c63430008120033",
					"opcodes": "PUSH1 0x80 PUSH1 0x40 MSTORE CALLVALUE DUP1 ISZERO PUSH2 0x10 JUMPI PUSH1 0x0 DUP1 REVERT JUMPDEST POP CALLER PUSH1 0x0 DUP1 PUSH2 0x100 EXP DUP2 SLOAD DUP2 PUSH20 0xFFFFFFFFFFFFFFFFFFFFFFFFFFFFFFFFFFFFFFFF MUL NOT AND SWAP1 DUP4 PUSH20 0xFFFFFFFFFFFFFFFFFFFFFFFFFFFFFFFFFFFFFFFF AND MUL OR SWAP1 SSTORE POP PUSH2 0xE6F DUP1 PUSH2 0x60 PUSH1 0x0 CODECOPY PUSH1 0x0 RETURN INVALID PUSH1 0x80 PUSH1 0x40 MSTORE PUSH1 0x4 CALLDATASIZE LT PUSH2 0x4A JUMPI PUSH1 0x0 CALLDATALOAD PUSH1 0xE0 SHR DUP1 PUSH4 0x481C6A75 EQ PUSH2 0x4F JUMPI DUP1 PUSH4 0x71B80060 EQ PUSH2 0x7A JUMPI DUP1 PUSH4 0x8B5B9CCC EQ PUSH2 0x91 JUMPI DUP1 PUSH4 0xE97DCB62 EQ PUSH2 0xBC JUMPI DUP1 PUSH4 0xF71D96CB EQ PUSH2 0xC6 JUMPI JUMPDEST PUSH1 0x0 DUP1 REVERT JUMPDEST CALLVALUE DUP1 ISZERO PUSH2 0x5B JUMPI PUSH1 0x0 DUP1 REVERT JUMPDEST POP PUSH2 0x64 PUSH2 0x103 JUMP JUMPDEST PUSH1 0x40 MLOAD PUSH2 0x71 SWAP2 SWAP1 PUSH2 0x741 JUMP JUMPDEST PUSH1 0x40 MLOAD DUP1 SWAP2 SUB SWAP1 RETURN JUMPDEST CALLVALUE DUP1 ISZERO PUSH2 0x86 JUMPI PUSH1 0x0 DUP1 REVERT JUMPDEST POP PUSH2 0x8F PUSH2 0x127 JUMP JUMPDEST STOP JUMPDEST CALLVALUE DUP1 ISZERO PUSH2 0x9D JUMPI PUSH1 0x0 DUP1 REVERT JUMPDEST POP PUSH2 0xA6 PUSH2 0x2D6 JUMP JUMPDEST PUSH1 0x40 MLOAD PUSH2 0xB3 SWAP2 SWAP1 PUSH2 0x82C JUMP JUMPDEST PUSH1 0x40 MLOAD DUP1 SWAP2 SUB SWAP1 RETURN JUMPDEST PUSH2 0xC4 PUSH2 0x364 JUMP JUMPDEST STOP JUMPDEST CALLVALUE DUP1 ISZERO PUSH2 0xD2 JUMPI PUSH1 0x0 DUP1 REVERT JUMPDEST POP PUSH2 0xED PUSH1 0x4 DUP1 CALLDATASIZE SUB DUP2 ADD SWAP1 PUSH2 0xE8 SWAP2 SWAP1 PUSH2 0x889 JUMP JUMPDEST PUSH2 0x4F0 JUMP JUMPDEST PUSH1 0x40 MLOAD PUSH2 0xFA SWAP2 SWAP1 PUSH2 0x8C5 JUMP JUMPDEST PUSH1 0x40 MLOAD DUP1 SWAP2 SUB SWAP1 RETURN JUMPDEST PUSH1 0x0 DUP1 SLOAD SWAP1 PUSH2 0x100 EXP SWAP1 DIV PUSH20 0xFFFFFFFFFFFFFFFFFFFFFFFFFFFFFFFFFFFFFFFF AND DUP2 JUMP JUMPDEST PUSH1 0x0 DUP1 SLOAD SWAP1 PUSH2 0x100 EXP SWAP1 DIV PUSH20 0xFFFFFFFFFFFFFFFFFFFFFFFFFFFFFFFFFFFFFFFF AND PUSH20 0xFFFFFFFFFFFFFFFFFFFFFFFFFFFFFFFFFFFFFFFF AND CALLER PUSH20 0xFFFFFFFFFFFFFFFFFFFFFFFFFFFFFFFFFFFFFFFF AND EQ PUSH2 0x1B5 JUMPI PUSH1 0x40 MLOAD PUSH32 0x8C379A000000000000000000000000000000000000000000000000000000000 DUP2 MSTORE PUSH1 0x4 ADD PUSH2 0x1AC SWAP1 PUSH2 0x93D JUMP JUMPDEST PUSH1 0x40 MLOAD DUP1 SWAP2 SUB SWAP1 REVERT JUMPDEST PUSH1 0x0 PUSH1 0x1 DUP1 SLOAD SWAP1 POP PUSH2 0x1C5 PUSH2 0x52F JUMP JUMPDEST PUSH2 0x1CF SWAP2 SWAP1 PUSH2 0x98C JUMP JUMPDEST SWAP1 POP PUSH1 0x0 ADDRESS SWAP1 POP PUSH1 0x1 DUP3 DUP2 SLOAD DUP2 LT PUSH2 0x1EA JUMPI PUSH2 0x1E9 PUSH2 0x9BD JUMP JUMPDEST JUMPDEST SWAP1 PUSH1 0x0 MSTORE PUSH1 0x20 PUSH1 0x0 KECCAK256 ADD PUSH1 0x0 SWAP1 SLOAD SWAP1 PUSH2 0x100 EXP SWAP1 DIV PUSH20 0xFFFFFFFFFFFFFFFFFFFFFFFFFFFFFFFFFFFFFFFF AND PUSH20 0xFFFFFFFFFFFFFFFFFFFFFFFFFFFFFFFFFFFFFFFF AND PUSH2 0x8FC DUP3 PUSH20 0xFFFFFFFFFFFFFFFFFFFFFFFFFFFFFFFFFFFFFFFF AND BALANCE SWAP1 DUP2 ISZERO MUL SWAP1 PUSH1 0x40 MLOAD PUSH1 0x0 PUSH1 0x40 MLOAD DUP1 DUP4 SUB DUP2 DUP6 DUP9 DUP9 CALL SWAP4 POP POP POP POP ISZERO DUP1 ISZERO PUSH2 0x271 JUMPI RETURNDATASIZE PUSH1 0x0 DUP1 RETURNDATACOPY RETURNDATASIZE PUSH1 0x0 REVERT JUMPDEST POP PUSH1 0x0 PUSH8 0xFFFFFFFFFFFFFFFF DUP2 GT ISZERO PUSH2 0x28D JUMPI PUSH2 0x28C PUSH2 0x9EC JUMP JUMPDEST JUMPDEST PUSH1 0x40 MLOAD SWAP1 DUP1 DUP3 MSTORE DUP1 PUSH1 0x20 MUL PUSH1 0x20 ADD DUP3 ADD PUSH1 0x40 MSTORE DUP1 ISZERO PUSH2 0x2BB JUMPI DUP2 PUSH1 0x20 ADD PUSH1 0x20 DUP3 MUL DUP1 CALLDATASIZE DUP4 CALLDATACOPY DUP1 DUP3 ADD SWAP2 POP POP SWAP1 POP JUMPDEST POP PUSH1 0x1 SWAP1 DUP1 MLOAD SWAP1 PUSH1 0x20 ADD SWAP1 PUSH2 0x2D1 SWAP3 SWAP2 SWAP1 PUSH2 0x659 JUMP JUMPDEST POP POP POP JUMP JUMPDEST PUSH1 0x60 PUSH1 0x1 DUP1 SLOAD DUP1 PUSH1 0x20 MUL PUSH1 0x20 ADD PUSH1 0x40 MLOAD SWAP1 DUP2 ADD PUSH1 0x40 MSTORE DUP1 SWAP3 SWAP2 SWAP1 DUP2 DUP2 MSTORE PUSH1 0x20 ADD DUP3 DUP1 SLOAD DUP1 ISZERO PUSH2 0x35A JUMPI PUSH1 0x20 MUL DUP3 ADD SWAP2 SWAP1 PUSH1 0x0 MSTORE PUSH1 0x20 PUSH1 0x0 KECCAK256 SWAP1 JUMPDEST DUP2 PUSH1 0x0 SWAP1 SLOAD SWAP1 PUSH2 0x100 EXP SWAP1 DIV PUSH20 0xFFFFFFFFFFFFFFFFFFFFFFFFFFFFFFFFFFFFFFFF AND PUSH20 0xFFFFFFFFFFFFFFFFFFFFFFFFFFFFFFFFFFFFFFFF AND DUP2 MSTORE PUSH1 0x20 ADD SWAP1 PUSH1 0x1 ADD SWAP1 DUP1 DUP4 GT PUSH2 0x310 JUMPI JUMPDEST POP POP POP POP POP SWAP1 POP SWAP1 JUMP JUMPDEST PUSH1 0x0 DUP1 SLOAD SWAP1 PUSH2 0x100 EXP SWAP1 DIV PUSH20 0xFFFFFFFFFFFFFFFFFFFFFFFFFFFFFFFFFFFFFFFF AND PUSH20 0xFFFFFFFFFFFFFFFFFFFFFFFFFFFFFFFFFFFFFFFF AND CALLER PUSH20 0xFFFFFFFFFFFFFFFFFFFFFFFFFFFFFFFFFFFFFFFF AND SUB PUSH2 0x3F2 JUMPI PUSH1 0x40 MLOAD PUSH32 0x8C379A000000000000000000000000000000000000000000000000000000000 DUP2 MSTORE PUSH1 0x4 ADD PUSH2 0x3E9 SWAP1 PUSH2 0xA67 JUMP JUMPDEST PUSH1 0x40 MLOAD DUP1 SWAP2 SUB SWAP1 REVERT JUMPDEST PUSH1 0x0 ISZERO ISZERO PUSH2 0x3FE PUSH2 0x5AD JUMP JUMPDEST ISZERO ISZERO EQ PUSH2 0x440 JUMPI PUSH1 0x40 MLOAD PUSH32 0x8C379A000000000000000000000000000000000000000000000000000000000 DUP2 MSTORE PUSH1 0x4 ADD PUSH2 0x437 SWAP1 PUSH2 0xAD3 JUMP JUMPDEST PUSH1 0x40 MLOAD DUP1 SWAP2 SUB SWAP1 REVERT JUMPDEST PUSH8 0xDE0B6B3A7640000 CALLVALUE LT ISZERO PUSH2 0x48B JUMPI PUSH1 0x40 MLOAD PUSH32 0x8C379A000000000000000000000000000000000000000000000000000000000 DUP2 MSTORE PUSH1 0x4 ADD PUSH2 0x482 SWAP1 PUSH2 0xB3F JUMP JUMPDEST PUSH1 0x40 MLOAD DUP1 SWAP2 SUB SWAP1 REVERT JUMPDEST PUSH1 0x1 CALLER SWAP1 DUP1 PUSH1 0x1 DUP2 SLOAD ADD DUP1 DUP3 SSTORE DUP1 SWAP2 POP POP PUSH1 0x1 SWAP1 SUB SWAP1 PUSH1 0x0 MSTORE PUSH1 0x20 PUSH1 0x0 KECCAK256 ADD PUSH1 0x0 SWAP1 SWAP2 SWAP1 SWAP2 SWAP1 SWAP2 PUSH2 0x100 EXP DUP2 SLOAD DUP2 PUSH20 0xFFFFFFFFFFFFFFFFFFFFFFFFFFFFFFFFFFFFFFFF MUL NOT AND SWAP1 DUP4 PUSH20 0xFFFFFFFFFFFFFFFFFFFFFFFFFFFFFFFFFFFFFFFF AND MUL OR SWAP1 SSTORE POP JUMP JUMPDEST PUSH1 0x1 DUP2 DUP2 SLOAD DUP2 LT PUSH2 0x500 JUMPI PUSH1 0x0 DUP1 REVERT JUMPDEST SWAP1 PUSH1 0x0 MSTORE PUSH1 0x20 PUSH1 0x0 KECCAK256 ADD PUSH1 0x0 SWAP2 POP SLOAD SWAP1 PUSH2 0x100 EXP SWAP1 DIV PUSH20 0xFFFFFFFFFFFFFFFFFFFFFFFFFFFFFFFFFFFFFFFF AND DUP2 JUMP JUMPDEST PUSH1 0x0 PUSH1 0x2 PREVRANDAO NUMBER PUSH1 0x1 PUSH1 0x40 MLOAD PUSH1 0x20 ADD PUSH2 0x549 SWAP4 SWAP3 SWAP2 SWAP1 PUSH2 0xC9E JUMP JUMPDEST PUSH1 0x40 MLOAD PUSH1 0x20 DUP2 DUP4 SUB SUB DUP2 MSTORE SWAP1 PUSH1 0x40 MSTORE PUSH1 0x40 MLOAD PUSH2 0x565 SWAP2 SWAP1 PUSH2 0xD48 JUMP JUMPDEST PUSH1 0x20 PUSH1 0x40 MLOAD DUP1 DUP4 SUB DUP2 DUP6 GAS STATICCALL ISZERO DUP1 ISZERO PUSH2 0x582 JUMPI RETURNDATASIZE PUSH1 0x0 DUP1 RETURNDATACOPY RETURNDATASIZE PUSH1 0x0 REVERT JUMPDEST POP POP POP PUSH1 0x40 MLOAD RETURNDATASIZE PUSH1 0x1F NOT PUSH1 0x1F DUP3 ADD AND DUP3 ADD DUP1 PUSH1 0x40 MSTORE POP DUP2 ADD SWAP1 PUSH2 0x5A5 SWAP2 SWAP1 PUSH2 0xD95 JUMP JUMPDEST PUSH1 0x0 SHR SWAP1 POP SWAP1 JUMP JUMPDEST PUSH1 0x0 DUP1 PUSH1 0x0 SWAP1 POP JUMPDEST PUSH1 0x1 DUP1 SLOAD SWAP1 POP DUP2 LT ISZERO PUSH2 0x650 JUMPI CALLER PUSH20 0xFFFFFFFFFFFFFFFFFFFFFFFFFFFFFFFFFFFFFFFF AND PUSH1 0x1 DUP3 DUP2 SLOAD DUP2 LT PUSH2 0x5ED JUMPI PUSH2 0x5EC PUSH2 0x9BD JUMP JUMPDEST JUMPDEST SWAP1 PUSH1 0x0 MSTORE PUSH1 0x20 PUSH1 0x0 KECCAK256 ADD PUSH1 0x0 SWAP1 SLOAD SWAP1 PUSH2 0x100 EXP SWAP1 DIV PUSH20 0xFFFFFFFFFFFFFFFFFFFFFFFFFFFFFFFFFFFFFFFF AND PUSH20 0xFFFFFFFFFFFFFFFFFFFFFFFFFFFFFFFFFFFFFFFF AND SUB PUSH2 0x63D JUMPI PUSH1 0x1 SWAP2 POP POP PUSH2 0x656 JUMP JUMPDEST DUP1 DUP1 PUSH2 0x648 SWAP1 PUSH2 0xDF1 JUMP JUMPDEST SWAP2 POP POP PUSH2 0x5B5 JUMP JUMPDEST POP PUSH1 0x0 SWAP1 POP JUMPDEST SWAP1 JUMP JUMPDEST DUP3 DUP1 SLOAD DUP3 DUP3 SSTORE SWAP1 PUSH1 0x0 MSTORE PUSH1 0x20 PUSH1 0x0 KECCAK256 SWAP1 DUP2 ADD SWAP3 DUP3 ISZERO PUSH2 0x6D2 JUMPI SWAP2 PUSH1 0x20 MUL DUP3 ADD JUMPDEST DUP3 DUP2 GT ISZERO PUSH2 0x6D1 JUMPI DUP3 MLOAD DUP3 PUSH1 0x0 PUSH2 0x100 EXP DUP2 SLOAD DUP2 PUSH20 0xFFFFFFFFFFFFFFFFFFFFFFFFFFFFFFFFFFFFFFFF MUL NOT AND SWAP1 DUP4 PUSH20 0xFFFFFFFFFFFFFFFFFFFFFFFFFFFFFFFFFFFFFFFF AND MUL OR SWAP1 SSTORE POP SWAP2 PUSH1 0x20 ADD SWAP2 SWAP1 PUSH1 0x1 ADD SWAP1 PUSH2 0x679 JUMP JUMPDEST JUMPDEST POP SWAP1 POP PUSH2 0x6DF SWAP2 SWAP1 PUSH2 0x6E3 JUMP JUMPDEST POP SWAP1 JUMP JUMPDEST JUMPDEST DUP1 DUP3 GT ISZERO PUSH2 0x6FC JUMPI PUSH1 0x0 DUP2 PUSH1 0x0 SWAP1 SSTORE POP PUSH1 0x1 ADD PUSH2 0x6E4 JUMP JUMPDEST POP SWAP1 JUMP JUMPDEST PUSH1 0x0 PUSH20 0xFFFFFFFFFFFFFFFFFFFFFFFFFFFFFFFFFFFFFFFF DUP3 AND SWAP1 POP SWAP2 SWAP1 POP JUMP JUMPDEST PUSH1 0x0 PUSH2 0x72B DUP3 PUSH2 0x700 JUMP JUMPDEST SWAP1 POP SWAP2 SWAP1 POP JUMP JUMPDEST PUSH2 0x73B DUP2 PUSH2 0x720 JUMP JUMPDEST DUP3 MSTORE POP POP JUMP JUMPDEST PUSH1 0x0 PUSH1 0x20 DUP3 ADD SWAP1 POP PUSH2 0x756 PUSH1 0x0 DUP4 ADD DUP5 PUSH2 0x732 JUMP JUMPDEST SWAP3 SWAP2 POP POP JUMP JUMPDEST PUSH1 0x0 DUP2 MLOAD SWAP1 POP SWAP2 SWAP1 POP JUMP JUMPDEST PUSH1 0x0 DUP3 DUP3 MSTORE PUSH1 0x20 DUP3 ADD SWAP1 POP SWAP3 SWAP2 POP POP JUMP JUMPDEST PUSH1 0x0 DUP2 SWAP1 POP PUSH1 0x20 DUP3 ADD SWAP1 POP SWAP2 SWAP1 POP JUMP JUMPDEST PUSH1 0x0 PUSH2 0x793 DUP3 PUSH2 0x700 JUMP JUMPDEST SWAP1 POP SWAP2 SWAP1 POP JUMP JUMPDEST PUSH2 0x7A3 DUP2 PUSH2 0x788 JUMP JUMPDEST DUP3 MSTORE POP POP JUMP JUMPDEST PUSH1 0x0 PUSH2 0x7B5 DUP4 DUP4 PUSH2 0x79A JUMP JUMPDEST PUSH1 0x20 DUP4 ADD SWAP1 POP SWAP3 SWAP2 POP POP JUMP JUMPDEST PUSH1 0x0 PUSH1 0x20 DUP3 ADD SWAP1 POP SWAP2 SWAP1 POP JUMP JUMPDEST PUSH1 0x0 PUSH2 0x7D9 DUP3 PUSH2 0x75C JUMP JUMPDEST PUSH2 0x7E3 DUP2 DUP6 PUSH2 0x767 JUMP JUMPDEST SWAP4 POP PUSH2 0x7EE DUP4 PUSH2 0x778 JUMP JUMPDEST DUP1 PUSH1 0x0 JUMPDEST DUP4 DUP2 LT ISZERO PUSH2 0x81F JUMPI DUP2 MLOAD PUSH2 0x806 DUP9 DUP3 PUSH2 0x7A9 JUMP JUMPDEST SWAP8 POP PUSH2 0x811 DUP4 PUSH2 0x7C1 JUMP JUMPDEST SWAP3 POP POP PUSH1 0x1 DUP2 ADD SWAP1 POP PUSH2 0x7F2 JUMP JUMPDEST POP DUP6 SWAP4 POP POP POP POP SWAP3 SWAP2 POP POP JUMP JUMPDEST PUSH1 0x0 PUSH1 0x20 DUP3 ADD SWAP1 POP DUP2 DUP2 SUB PUSH1 0x0 DUP4 ADD MSTORE PUSH2 0x846 DUP2 DUP5 PUSH2 0x7CE JUMP JUMPDEST SWAP1 POP SWAP3 SWAP2 POP POP JUMP JUMPDEST PUSH1 0x0 DUP1 REVERT JUMPDEST PUSH1 0x0 DUP2 SWAP1 POP SWAP2 SWAP1 POP JUMP JUMPDEST PUSH2 0x866 DUP2 PUSH2 0x853 JUMP JUMPDEST DUP2 EQ PUSH2 0x871 JUMPI PUSH1 0x0 DUP1 REVERT JUMPDEST POP JUMP JUMPDEST PUSH1 0x0 DUP2 CALLDATALOAD SWAP1 POP PUSH2 0x883 DUP2 PUSH2 0x85D JUMP JUMPDEST SWAP3 SWAP2 POP POP JUMP JUMPDEST PUSH1 0x0 PUSH1 0x20 DUP3 DUP5 SUB SLT ISZERO PUSH2 0x89F JUMPI PUSH2 0x89E PUSH2 0x84E JUMP JUMPDEST JUMPDEST PUSH1 0x0 PUSH2 0x8AD DUP5 DUP3 DUP6 ADD PUSH2 0x874 JUMP JUMPDEST SWAP2 POP POP SWAP3 SWAP2 POP POP JUMP JUMPDEST PUSH2 0x8BF DUP2 PUSH2 0x788 JUMP JUMPDEST DUP3 MSTORE POP POP JUMP JUMPDEST PUSH1 0x0 PUSH1 0x20 DUP3 ADD SWAP1 POP PUSH2 0x8DA PUSH1 0x0 DUP4 ADD DUP5 PUSH2 0x8B6 JUMP JUMPDEST SWAP3 SWAP2 POP POP JUMP JUMPDEST PUSH1 0x0 DUP3 DUP3 MSTORE PUSH1 0x20 DUP3 ADD SWAP1 POP SWAP3 SWAP2 POP POP JUMP JUMPDEST PUSH32 0x4F6E6C79206D616E616765722063616E207069636B207468652077696E6E6572 PUSH1 0x0 DUP3 ADD MSTORE POP JUMP JUMPDEST PUSH1 0x0 PUSH2 0x927 PUSH1 0x20 DUP4 PUSH2 0x8E0 JUMP JUMPDEST SWAP2 POP PUSH2 0x932 DUP3 PUSH2 0x8F1 JUMP JUMPDEST PUSH1 0x20 DUP3 ADD SWAP1 POP SWAP2 SWAP1 POP JUMP JUMPDEST PUSH1 0x0 PUSH1 0x20 DUP3 ADD SWAP1 POP DUP2 DUP2 SUB PUSH1 0x0 DUP4 ADD MSTORE PUSH2 0x956 DUP2 PUSH2 0x91A JUMP JUMPDEST SWAP1 POP SWAP2 SWAP1 POP JUMP JUMPDEST PUSH32 0x4E487B7100000000000000000000000000000000000000000000000000000000 PUSH1 0x0 MSTORE PUSH1 0x12 PUSH1 0x4 MSTORE PUSH1 0x24 PUSH1 0x0 REVERT JUMPDEST PUSH1 0x0 PUSH2 0x997 DUP3 PUSH2 0x853 JUMP JUMPDEST SWAP2 POP PUSH2 0x9A2 DUP4 PUSH2 0x853 JUMP JUMPDEST SWAP3 POP DUP3 PUSH2 0x9B2 JUMPI PUSH2 0x9B1 PUSH2 0x95D JUMP JUMPDEST JUMPDEST DUP3 DUP3 MOD SWAP1 POP SWAP3 SWAP2 POP POP JUMP JUMPDEST PUSH32 0x4E487B7100000000000000000000000000000000000000000000000000000000 PUSH1 0x0 MSTORE PUSH1 0x32 PUSH1 0x4 MSTORE PUSH1 0x24 PUSH1 0x0 REVERT JUMPDEST PUSH32 0x4E487B7100000000000000000000000000000000000000000000000000000000 PUSH1 0x0 MSTORE PUSH1 0x41 PUSH1 0x4 MSTORE PUSH1 0x24 PUSH1 0x0 REVERT JUMPDEST PUSH32 0x4D616E616765722063616E6E6F7420656E746572000000000000000000000000 PUSH1 0x0 DUP3 ADD MSTORE POP JUMP JUMPDEST PUSH1 0x0 PUSH2 0xA51 PUSH1 0x14 DUP4 PUSH2 0x8E0 JUMP JUMPDEST SWAP2 POP PUSH2 0xA5C DUP3 PUSH2 0xA1B JUMP JUMPDEST PUSH1 0x20 DUP3 ADD SWAP1 POP SWAP2 SWAP1 POP JUMP JUMPDEST PUSH1 0x0 PUSH1 0x20 DUP3 ADD SWAP1 POP DUP2 DUP2 SUB PUSH1 0x0 DUP4 ADD MSTORE PUSH2 0xA80 DUP2 PUSH2 0xA44 JUMP JUMPDEST SWAP1 POP SWAP2 SWAP1 POP JUMP JUMPDEST PUSH32 0x506C6179657220616C726561647920656E746572656400000000000000000000 PUSH1 0x0 DUP3 ADD MSTORE POP JUMP JUMPDEST PUSH1 0x0 PUSH2 0xABD PUSH1 0x16 DUP4 PUSH2 0x8E0 JUMP JUMPDEST SWAP2 POP PUSH2 0xAC8 DUP3 PUSH2 0xA87 JUMP JUMPDEST PUSH1 0x20 DUP3 ADD SWAP1 POP SWAP2 SWAP1 POP JUMP JUMPDEST PUSH1 0x0 PUSH1 0x20 DUP3 ADD SWAP1 POP DUP2 DUP2 SUB PUSH1 0x0 DUP4 ADD MSTORE PUSH2 0xAEC DUP2 PUSH2 0xAB0 JUMP JUMPDEST SWAP1 POP SWAP2 SWAP1 POP JUMP JUMPDEST PUSH32 0x4D696E696D756E20616D6F756E74206D75737420626520706179656400000000 PUSH1 0x0 DUP3 ADD MSTORE POP JUMP JUMPDEST PUSH1 0x0 PUSH2 0xB29 PUSH1 0x1C DUP4 PUSH2 0x8E0 JUMP JUMPDEST SWAP2 POP PUSH2 0xB34 DUP3 PUSH2 0xAF3 JUMP JUMPDEST PUSH1 0x20 DUP3 ADD SWAP1 POP SWAP2 SWAP1 POP JUMP JUMPDEST PUSH1 0x0 PUSH1 0x20 DUP3 ADD SWAP1 POP DUP2 DUP2 SUB PUSH1 0x0 DUP4 ADD MSTORE PUSH2 0xB58 DUP2 PUSH2 0xB1C JUMP JUMPDEST SWAP1 POP SWAP2 SWAP1 POP JUMP JUMPDEST PUSH1 0x0 DUP2 SWAP1 POP SWAP2 SWAP1 POP JUMP JUMPDEST PUSH2 0xB7A PUSH2 0xB75 DUP3 PUSH2 0x853 JUMP JUMPDEST PUSH2 0xB5F JUMP JUMPDEST DUP3 MSTORE POP POP JUMP JUMPDEST PUSH1 0x0 DUP2 SLOAD SWAP1 POP SWAP2 SWAP1 POP JUMP JUMPDEST PUSH1 0x0 DUP2 SWAP1 POP SWAP3 SWAP2 POP POP JUMP JUMPDEST PUSH1 0x0 DUP2 SWAP1 POP DUP2 PUSH1 0x0 MSTORE PUSH1 0x20 PUSH1 0x0 KECCAK256 SWAP1 POP SWAP2 SWAP1 POP JUMP JUMPDEST PUSH2 0xBB4 DUP2 PUSH2 0x788 JUMP JUMPDEST DUP3 MSTORE POP POP JUMP JUMPDEST PUSH1 0x0 PUSH2 0xBC6 DUP4 DUP4 PUSH2 0xBAB JUMP JUMPDEST PUSH1 0x20 DUP4 ADD SWAP1 POP SWAP3 SWAP2 POP POP JUMP JUMPDEST PUSH1 0x0 DUP2 PUSH1 0x0 SHR SWAP1 POP SWAP2 SWAP1 POP JUMP JUMPDEST PUSH1 0x0 PUSH20 0xFFFFFFFFFFFFFFFFFFFFFFFFFFFFFFFFFFFFFFFF DUP3 AND SWAP1 POP SWAP2 SWAP1 POP JUMP JUMPDEST PUSH1 0x0 PUSH2 0xC12 PUSH2 0xC0D DUP4 PUSH2 0xBD2 JUMP JUMPDEST PUSH2 0xBDF JUMP JUMPDEST SWAP1 POP SWAP2 SWAP1 POP JUMP JUMPDEST PUSH1 0x0 PUSH2 0xC25 DUP3 SLOAD PUSH2 0xBFF JUMP JUMPDEST SWAP1 POP SWAP2 SWAP1 POP JUMP JUMPDEST PUSH1 0x0 PUSH1 0x1 DUP3 ADD SWAP1 POP SWAP2 SWAP1 POP JUMP JUMPDEST PUSH1 0x0 PUSH2 0xC44 DUP3 PUSH2 0xB80 JUMP JUMPDEST PUSH2 0xC4E DUP2 DUP6 PUSH2 0xB8B JUMP JUMPDEST SWAP4 POP PUSH2 0xC59 DUP4 PUSH2 0xB96 JUMP JUMPDEST DUP1 PUSH1 0x0 JUMPDEST DUP4 DUP2 LT ISZERO PUSH2 0xC91 JUMPI PUSH2 0xC6E DUP3 PUSH2 0xC19 JUMP JUMPDEST PUSH2 0xC78 DUP9 DUP3 PUSH2 0xBBA JUMP JUMPDEST SWAP8 POP PUSH2 0xC83 DUP4 PUSH2 0xC2C JUMP JUMPDEST SWAP3 POP POP PUSH1 0x1 DUP2 ADD SWAP1 POP PUSH2 0xC5D JUMP JUMPDEST POP DUP6 SWAP4 POP POP POP POP SWAP3 SWAP2 POP POP JUMP JUMPDEST PUSH1 0x0 PUSH2 0xCAA DUP3 DUP7 PUSH2 0xB69 JUMP JUMPDEST PUSH1 0x20 DUP3 ADD SWAP2 POP PUSH2 0xCBA DUP3 DUP6 PUSH2 0xB69 JUMP JUMPDEST PUSH1 0x20 DUP3 ADD SWAP2 POP PUSH2 0xCCA DUP3 DUP5 PUSH2 0xC39 JUMP JUMPDEST SWAP2 POP DUP2 SWAP1 POP SWAP5 SWAP4 POP POP POP POP JUMP JUMPDEST PUSH1 0x0 DUP2 MLOAD SWAP1 POP SWAP2 SWAP1 POP JUMP JUMPDEST PUSH1 0x0 DUP2 SWAP1 POP SWAP3 SWAP2 POP POP JUMP JUMPDEST PUSH1 0x0 JUMPDEST DUP4 DUP2 LT ISZERO PUSH2 0xD0B JUMPI DUP1 DUP3 ADD MLOAD DUP2 DUP5 ADD MSTORE PUSH1 0x20 DUP2 ADD SWAP1 POP PUSH2 0xCF0 JUMP JUMPDEST PUSH1 0x0 DUP5 DUP5 ADD MSTORE POP POP POP POP JUMP JUMPDEST PUSH1 0x0 PUSH2 0xD22 DUP3 PUSH2 0xCD7 JUMP JUMPDEST PUSH2 0xD2C DUP2 DUP6 PUSH2 0xCE2 JUMP JUMPDEST SWAP4 POP PUSH2 0xD3C DUP2 DUP6 PUSH1 0x20 DUP7 ADD PUSH2 0xCED JUMP JUMPDEST DUP1 DUP5 ADD SWAP2 POP POP SWAP3 SWAP2 POP POP JUMP JUMPDEST PUSH1 0x0 PUSH2 0xD54 DUP3 DUP5 PUSH2 0xD17 JUMP JUMPDEST SWAP2 POP DUP2 SWAP1 POP SWAP3 SWAP2 POP POP JUMP JUMPDEST PUSH1 0x0 DUP2 SWAP1 POP SWAP2 SWAP1 POP JUMP JUMPDEST PUSH2 0xD72 DUP2 PUSH2 0xD5F JUMP JUMPDEST DUP2 EQ PUSH2 0xD7D JUMPI PUSH1 0x0 DUP1 REVERT JUMPDEST POP JUMP JUMPDEST PUSH1 0x0 DUP2 MLOAD SWAP1 POP PUSH2 0xD8F DUP2 PUSH2 0xD69 JUMP JUMPDEST SWAP3 SWAP2 POP POP JUMP JUMPDEST PUSH1 0x0 PUSH1 0x20 DUP3 DUP5 SUB SLT ISZERO PUSH2 0xDAB JUMPI PUSH2 0xDAA PUSH2 0x84E JUMP JUMPDEST JUMPDEST PUSH1 0x0 PUSH2 0xDB9 DUP5 DUP3 DUP6 ADD PUSH2 0xD80 JUMP JUMPDEST SWAP2 POP POP SWAP3 SWAP2 POP POP JUMP JUMPDEST PUSH32 0x4E487B7100000000000000000000000000000000000000000000000000000000 PUSH1 0x0 MSTORE PUSH1 0x11 PUSH1 0x4 MSTORE PUSH1 0x24 PUSH1 0x0 REVERT JUMPDEST PUSH1 0x0 PUSH2 0xDFC DUP3 PUSH2 0x853 JUMP JUMPDEST SWAP2 POP PUSH32 0xFFFFFFFFFFFFFFFFFFFFFFFFFFFFFFFFFFFFFFFFFFFFFFFFFFFFFFFFFFFFFFFF DUP3 SUB PUSH2 0xE2E JUMPI PUSH2 0xE2D PUSH2 0xDC2 JUMP JUMPDEST JUMPDEST PUSH1 0x1 DUP3 ADD SWAP1 POP SWAP2 SWAP1 POP JUMP INVALID LOG2 PUSH5 0x6970667358 0x22 SLT KECCAK256 0x5C 0xE0 RETURN SWAP16 EXTCODEHASH PUSH21 0x7E41F56531E716FAF74F6A544C0D97D4F83EF790A9 PUSH19 0x57DBE38864736F6C6343000812003300000000 "
				},
				"gasEstimates": {
					"creation": {
						"codeDepositCost": "739000",
						"executionCost": "25039",
						"totalCost": "764039"
					},
					"external": {
						"enter()": "infinite",
						"getPlayers()": "infinite",
						"manager()": "2489",
						"pickwinner()": "infinite",
						"players(uint256)": "5022"
					},
					"internal": {
						"alreadyEntered()": "infinite",
						"random()": "infinite"
					}
				},
				"methodIdentifiers": {
					"enter()": "e97dcb62",
					"getPlayers()": "8b5b9ccc",
					"manager()": "481c6a75",
					"pickwinner()": "71b80060",
					"players(uint256)": "f71d96cb"
				}
			},
			"storageLayout": {
				"storage": [
					{
						"astId": 3,
						"contract": "Lottery_Smart_Contract/lotterySmartContract.sol:lotterySmartContract",
						"label": "manager",
						"offset": 0,
						"slot": "0",
						"type": "t_address"
					},
					{
						"astId": 6,
						"contract": "Lottery_Smart_Contract/lotterySmartContract.sol:lotterySmartContract",
						"label": "players",
						"offset": 0,
						"slot": "1",
						"type": "t_array(t_address_payable)dyn_storage"
					}
				],
				"types": {
					"t_address": {
						"encoding": "inplace",
						"label": "address",
						"numberOfBytes": "20"
					},
					"t_address_payable": {
						"encoding": "inplace",
						"label": "address payable",
						"numberOfBytes": "20"
					},
					"t_array(t_address_payable)dyn_storage": {
						"base": "t_address_payable",
						"encoding": "dynamic_array",
						"label": "address payable[]",
						"numberOfBytes": "32"
					}
				}
			},
			"userdoc": {
				"kind": "user",
				"methods": {},
				"version": 1
			}
		}
	}
}