{
	"Fixed_Size_Array_in_Blockchain/fixedSizeArray.sol": {
		"fixedSizeArray": {
			"abi": [
				{
					"inputs": [],
					"stateMutability": "nonpayable",
					"type": "constructor"
				},
				{
					"inputs": [
						{
							"internalType": "uint256",
							"name": "",
							"type": "uint256"
						}
					],
					"name": "arr",
					"outputs": [
						{
							"internalType": "uint256",
							"name": "",
							"type": "uint256"
						}
					],
					"stateMutability": "view",
					"type": "function"
				},
				{
					"inputs": [
						{
							"internalType": "uint256",
							"name": "",
							"type": "uint256"
						}
					],
					"name": "arr1",
					"outputs": [
						{
							"internalType": "uint256",
							"name": "",
							"type": "uint256"
						}
					],
					"stateMutability": "view",
					"type": "function"
				},
				{
					"inputs": [],
					"name": "array",
					"outputs": [
						{
							"internalType": "uint256",
							"name": "",
							"type": "uint256"
						}
					],
					"stateMutability": "view",
					"type": "function"
				},
				{
					"inputs": [
						{
							"internalType": "uint256",
							"name": "_x",
							"type": "uint256"
						}
					],
					"name": "arrayWithLoop",
					"outputs": [],
					"stateMutability": "nonpayable",
					"type": "function"
				},
				{
					"inputs": [],
					"name": "createArray",
					"outputs": [
						{
							"internalType": "uint256",
							"name": "",
							"type": "uint256"
						}
					],
					"stateMutability": "pure",
					"type": "function"
				},
				{
					"inputs": [],
					"name": "returnArray",
					"outputs": [
						{
							"internalType": "uint256[5]",
							"name": "",
							"type": "uint256[5]"
						}
					],
					"stateMutability": "view",
					"type": "function"
				}
			],
			"devdoc": {
				"kind": "dev",
				"methods": {},
				"version": 1
			},
			"evm": {
				"assembly": "    /* \"Fixed_Size_Array_in_Blockchain/fixedSizeArray.sol\":62:1885  contract fixedSizeArray{... */\n  mstore(0x40, 0x80)\n    /* \"Fixed_Size_Array_in_Blockchain/fixedSizeArray.sol\":92:129  uint[5] public arr = [10,20,30,40,50] */\n  mload(0x40)\n  dup1\n  0xa0\n  add\n  0x40\n  mstore\n  dup1\n    /* \"Fixed_Size_Array_in_Blockchain/fixedSizeArray.sol\":114:116  10 */\n  0x0a\n    /* \"Fixed_Size_Array_in_Blockchain/fixedSizeArray.sol\":92:129  uint[5] public arr = [10,20,30,40,50] */\n  0xff\n  and\n  dup2\n  mstore\n  0x20\n  add\n    /* \"Fixed_Size_Array_in_Blockchain/fixedSizeArray.sol\":117:119  20 */\n  0x14\n    /* \"Fixed_Size_Array_in_Blockchain/fixedSizeArray.sol\":92:129  uint[5] public arr = [10,20,30,40,50] */\n  0xff\n  and\n  dup2\n  mstore\n  0x20\n  add\n    /* \"Fixed_Size_Array_in_Blockchain/fixedSizeArray.sol\":120:122  30 */\n  0x1e\n    /* \"Fixed_Size_Array_in_Blockchain/fixedSizeArray.sol\":92:129  uint[5] public arr = [10,20,30,40,50] */\n  0xff\n  and\n  dup2\n  mstore\n  0x20\n  add\n    /* \"Fixed_Size_Array_in_Blockchain/fixedSizeArray.sol\":123:125  40 */\n  0x28\n    /* \"Fixed_Size_Array_in_Blockchain/fixedSizeArray.sol\":92:129  uint[5] public arr = [10,20,30,40,50] */\n  0xff\n  and\n  dup2\n  mstore\n  0x20\n  add\n    /* \"Fixed_Size_Array_in_Blockchain/fixedSizeArray.sol\":126:128  50 */\n  0x32\n    /* \"Fixed_Size_Array_in_Blockchain/fixedSizeArray.sol\":92:129  uint[5] public arr = [10,20,30,40,50] */\n  0xff\n  and\n  dup2\n  mstore\n  pop\n  0x00\n  swap1\n  0x05\n  tag_1\n  swap3\n  swap2\n  swap1\n  tag_2\n  jump\t// in\ntag_1:\n  pop\n    /* \"Fixed_Size_Array_in_Blockchain/fixedSizeArray.sol\":183:238  constructor(){... */\n  callvalue\n  dup1\n  iszero\n  tag_3\n  jumpi\n  0x00\n  dup1\n  revert\ntag_3:\n  pop\n    /* \"Fixed_Size_Array_in_Blockchain/fixedSizeArray.sol\":207:230  arr2 = [10,20,30,40,50] */\n  mload(0x40)\n  dup1\n  0xa0\n  add\n  0x40\n  mstore\n  dup1\n    /* \"Fixed_Size_Array_in_Blockchain/fixedSizeArray.sol\":215:217  10 */\n  0x0a\n    /* \"Fixed_Size_Array_in_Blockchain/fixedSizeArray.sol\":207:230  arr2 = [10,20,30,40,50] */\n  0xff\n  and\n  dup2\n  mstore\n  0x20\n  add\n    /* \"Fixed_Size_Array_in_Blockchain/fixedSizeArray.sol\":218:220  20 */\n  0x14\n    /* \"Fixed_Size_Array_in_Blockchain/fixedSizeArray.sol\":207:230  arr2 = [10,20,30,40,50] */\n  0xff\n  and\n  dup2\n  mstore\n  0x20\n  add\n    /* \"Fixed_Size_Array_in_Blockchain/fixedSizeArray.sol\":221:223  30 */\n  0x1e\n    /* \"Fixed_Size_Array_in_Blockchain/fixedSizeArray.sol\":207:230  arr2 = [10,20,30,40,50] */\n  0xff\n  and\n  dup2\n  mstore\n  0x20\n  add\n    /* \"Fixed_Size_Array_in_Blockchain/fixedSizeArray.sol\":224:226  40 */\n  0x28\n    /* \"Fixed_Size_Array_in_Blockchain/fixedSizeArray.sol\":207:230  arr2 = [10,20,30,40,50] */\n  0xff\n  and\n  dup2\n  mstore\n  0x20\n  add\n    /* \"Fixed_Size_Array_in_Blockchain/fixedSizeArray.sol\":227:229  50 */\n  0x32\n    /* \"Fixed_Size_Array_in_Blockchain/fixedSizeArray.sol\":207:230  arr2 = [10,20,30,40,50] */\n  0xff\n  and\n  dup2\n  mstore\n  pop\n    /* \"Fixed_Size_Array_in_Blockchain/fixedSizeArray.sol\":207:211  arr2 */\n  0x0a\n    /* \"Fixed_Size_Array_in_Blockchain/fixedSizeArray.sol\":207:230  arr2 = [10,20,30,40,50] */\n  swap1\n  0x05\n  tag_6\n  swap3\n  swap2\n  swap1\n  tag_2\n  jump\t// in\ntag_6:\n  pop\n    /* \"Fixed_Size_Array_in_Blockchain/fixedSizeArray.sol\":62:1885  contract fixedSizeArray{... */\n  jump(tag_7)\ntag_2:\n  dup3\n  0x05\n  dup2\n  add\n  swap3\n  dup3\n  iszero\n  tag_8\n  jumpi\n  swap2\n  0x20\n  mul\n  dup3\n  add\ntag_9:\n  dup3\n  dup2\n  gt\n  iszero\n  tag_10\n  jumpi\n  dup3\n  mload\n  dup3\n  swap1\n  0xff\n  and\n  swap1\n  sstore\n  swap2\n  0x20\n  add\n  swap2\n  swap1\n  0x01\n  add\n  swap1\n  jump(tag_9)\ntag_10:\ntag_8:\n  pop\n  swap1\n  pop\n  tag_11\n  swap2\n  swap1\n  tag_12\n  jump\t// in\ntag_11:\n  pop\n  swap1\n  jump\t// out\ntag_12:\ntag_13:\n  dup1\n  dup3\n  gt\n  iszero\n  tag_14\n  jumpi\n  0x00\n  dup2\n  0x00\n  swap1\n  sstore\n  pop\n  0x01\n  add\n  jump(tag_13)\ntag_14:\n  pop\n  swap1\n  jump\t// out\ntag_7:\n  dataSize(sub_0)\n  dup1\n  dataOffset(sub_0)\n  0x00\n  codecopy\n  0x00\n  return\nstop\n\nsub_0: assembly {\n        /* \"Fixed_Size_Array_in_Blockchain/fixedSizeArray.sol\":62:1885  contract fixedSizeArray{... */\n      mstore(0x40, 0x80)\n      callvalue\n      dup1\n      iszero\n      tag_1\n      jumpi\n      0x00\n      dup1\n      revert\n    tag_1:\n      pop\n      jumpi(tag_2, lt(calldatasize, 0x04))\n      shr(0xe0, calldataload(0x00))\n      dup1\n      0x38469409\n      eq\n      tag_3\n      jumpi\n      dup1\n      0x3cac14c8\n      eq\n      tag_4\n      jumpi\n      dup1\n      0x3f017e40\n      eq\n      tag_5\n      jumpi\n      dup1\n      0x6987b1fb\n      eq\n      tag_6\n      jumpi\n      dup1\n      0x71e5ee5f\n      eq\n      tag_7\n      jumpi\n      dup1\n      0xb0ec2ae1\n      eq\n      tag_8\n      jumpi\n    tag_2:\n      0x00\n      dup1\n      revert\n        /* \"Fixed_Size_Array_in_Blockchain/fixedSizeArray.sol\":1361:1878  function createArray() public pure returns(uint){... */\n    tag_3:\n      tag_9\n      tag_10\n      jump\t// in\n    tag_9:\n      mload(0x40)\n      tag_11\n      swap2\n      swap1\n      tag_12\n      jump\t// in\n    tag_11:\n      mload(0x40)\n      dup1\n      swap2\n      sub\n      swap1\n      return\n        /* \"Fixed_Size_Array_in_Blockchain/fixedSizeArray.sol\":246:507  function returnArray() public view returns(uint[5] memory){... */\n    tag_4:\n      tag_13\n      tag_14\n      jump\t// in\n    tag_13:\n      mload(0x40)\n      tag_15\n      swap2\n      swap1\n      tag_16\n      jump\t// in\n    tag_15:\n      mload(0x40)\n      dup1\n      swap2\n      sub\n      swap1\n      return\n        /* \"Fixed_Size_Array_in_Blockchain/fixedSizeArray.sol\":1223:1353  function arrayWithLoop(uint _x) public {... */\n    tag_5:\n      tag_17\n      0x04\n      dup1\n      calldatasize\n      sub\n      dup2\n      add\n      swap1\n      tag_18\n      swap2\n      swap1\n      tag_19\n      jump\t// in\n    tag_18:\n      tag_20\n      jump\t// in\n    tag_17:\n      stop\n        /* \"Fixed_Size_Array_in_Blockchain/fixedSizeArray.sol\":136:155  uint[5] public arr1 */\n    tag_6:\n      tag_21\n      0x04\n      dup1\n      calldatasize\n      sub\n      dup2\n      add\n      swap1\n      tag_22\n      swap2\n      swap1\n      tag_19\n      jump\t// in\n    tag_22:\n      tag_23\n      jump\t// in\n    tag_21:\n      mload(0x40)\n      tag_24\n      swap2\n      swap1\n      tag_12\n      jump\t// in\n    tag_24:\n      mload(0x40)\n      dup1\n      swap2\n      sub\n      swap1\n      return\n        /* \"Fixed_Size_Array_in_Blockchain/fixedSizeArray.sol\":92:129  uint[5] public arr = [10,20,30,40,50] */\n    tag_7:\n      tag_25\n      0x04\n      dup1\n      calldatasize\n      sub\n      dup2\n      add\n      swap1\n      tag_26\n      swap2\n      swap1\n      tag_19\n      jump\t// in\n    tag_26:\n      tag_27\n      jump\t// in\n    tag_25:\n      mload(0x40)\n      tag_28\n      swap2\n      swap1\n      tag_12\n      jump\t// in\n    tag_28:\n      mload(0x40)\n      dup1\n      swap2\n      sub\n      swap1\n      return\n        /* \"Fixed_Size_Array_in_Blockchain/fixedSizeArray.sol\":917:1215  function array() public view returns(uint){... */\n    tag_8:\n      tag_29\n      tag_30\n      jump\t// in\n    tag_29:\n      mload(0x40)\n      tag_31\n      swap2\n      swap1\n      tag_12\n      jump\t// in\n    tag_31:\n      mload(0x40)\n      dup1\n      swap2\n      sub\n      swap1\n      return\n        /* \"Fixed_Size_Array_in_Blockchain/fixedSizeArray.sol\":1361:1878  function createArray() public pure returns(uint){... */\n    tag_10:\n        /* \"Fixed_Size_Array_in_Blockchain/fixedSizeArray.sol\":1404:1408  uint */\n      0x00\n        /* \"Fixed_Size_Array_in_Blockchain/fixedSizeArray.sol\":1420:1440  uint[] memory arrMem */\n      dup1\n        /* \"Fixed_Size_Array_in_Blockchain/fixedSizeArray.sol\":1454:1455  3 */\n      0x03\n        /* \"Fixed_Size_Array_in_Blockchain/fixedSizeArray.sol\":1443:1456  new uint[](3) */\n      0xffffffffffffffff\n      dup2\n      gt\n      iszero\n      tag_33\n      jumpi\n      tag_34\n      tag_35\n      jump\t// in\n    tag_34:\n    tag_33:\n      mload(0x40)\n      swap1\n      dup1\n      dup3\n      mstore\n      dup1\n      0x20\n      mul\n      0x20\n      add\n      dup3\n      add\n      0x40\n      mstore\n      dup1\n      iszero\n      tag_36\n      jumpi\n      dup2\n      0x20\n      add\n      0x20\n      dup3\n      mul\n      dup1\n      calldatasize\n      dup4\n      calldatacopy\n      dup1\n      dup3\n      add\n      swap2\n      pop\n      pop\n      swap1\n      pop\n    tag_36:\n      pop\n        /* \"Fixed_Size_Array_in_Blockchain/fixedSizeArray.sol\":1420:1456  uint[] memory arrMem = new uint[](3) */\n      swap1\n      pop\n        /* \"Fixed_Size_Array_in_Blockchain/fixedSizeArray.sol\":1655:1657  33 */\n      0x21\n        /* \"Fixed_Size_Array_in_Blockchain/fixedSizeArray.sol\":1643:1649  arrMem */\n      dup2\n        /* \"Fixed_Size_Array_in_Blockchain/fixedSizeArray.sol\":1650:1651  0 */\n      0x00\n        /* \"Fixed_Size_Array_in_Blockchain/fixedSizeArray.sol\":1643:1652  arrMem[0] */\n      dup2\n      mload\n      dup2\n      lt\n      tag_37\n      jumpi\n      tag_38\n      tag_39\n      jump\t// in\n    tag_38:\n    tag_37:\n      0x20\n      mul\n      0x20\n      add\n      add\n        /* \"Fixed_Size_Array_in_Blockchain/fixedSizeArray.sol\":1643:1657  arrMem[0] = 33 */\n      dup2\n      dup2\n      mstore\n      pop\n      pop\n        /* \"Fixed_Size_Array_in_Blockchain/fixedSizeArray.sol\":1680:1682  35 */\n      0x23\n        /* \"Fixed_Size_Array_in_Blockchain/fixedSizeArray.sol\":1668:1674  arrMem */\n      dup2\n        /* \"Fixed_Size_Array_in_Blockchain/fixedSizeArray.sol\":1675:1676  1 */\n      0x01\n        /* \"Fixed_Size_Array_in_Blockchain/fixedSizeArray.sol\":1668:1677  arrMem[1] */\n      dup2\n      mload\n      dup2\n      lt\n      tag_40\n      jumpi\n      tag_41\n      tag_39\n      jump\t// in\n    tag_41:\n    tag_40:\n      0x20\n      mul\n      0x20\n      add\n      add\n        /* \"Fixed_Size_Array_in_Blockchain/fixedSizeArray.sol\":1668:1682  arrMem[1] = 35 */\n      dup2\n      dup2\n      mstore\n      pop\n      pop\n        /* \"Fixed_Size_Array_in_Blockchain/fixedSizeArray.sol\":1705:1707  40 */\n      0x28\n        /* \"Fixed_Size_Array_in_Blockchain/fixedSizeArray.sol\":1693:1699  arrMem */\n      dup2\n        /* \"Fixed_Size_Array_in_Blockchain/fixedSizeArray.sol\":1700:1701  2 */\n      0x02\n        /* \"Fixed_Size_Array_in_Blockchain/fixedSizeArray.sol\":1693:1702  arrMem[2] */\n      dup2\n      mload\n      dup2\n      lt\n      tag_42\n      jumpi\n      tag_43\n      tag_39\n      jump\t// in\n    tag_43:\n    tag_42:\n      0x20\n      mul\n      0x20\n      add\n      add\n        /* \"Fixed_Size_Array_in_Blockchain/fixedSizeArray.sol\":1693:1707  arrMem[2] = 40 */\n      dup2\n      dup2\n      mstore\n      pop\n      pop\n        /* \"Fixed_Size_Array_in_Blockchain/fixedSizeArray.sol\":1735:1741  arrMem */\n      dup1\n        /* \"Fixed_Size_Array_in_Blockchain/fixedSizeArray.sol\":1742:1743  0 */\n      0x00\n        /* \"Fixed_Size_Array_in_Blockchain/fixedSizeArray.sol\":1735:1744  arrMem[0] */\n      dup2\n      mload\n      dup2\n      lt\n      tag_44\n      jumpi\n      tag_45\n      tag_39\n      jump\t// in\n    tag_45:\n    tag_44:\n      0x20\n      mul\n      0x20\n      add\n      add\n      mload\n        /* \"Fixed_Size_Array_in_Blockchain/fixedSizeArray.sol\":1728:1744  return arrMem[0] */\n      swap2\n      pop\n      pop\n        /* \"Fixed_Size_Array_in_Blockchain/fixedSizeArray.sol\":1361:1878  function createArray() public pure returns(uint){... */\n      swap1\n      jump\t// out\n        /* \"Fixed_Size_Array_in_Blockchain/fixedSizeArray.sol\":246:507  function returnArray() public view returns(uint[5] memory){... */\n    tag_14:\n        /* \"Fixed_Size_Array_in_Blockchain/fixedSizeArray.sol\":289:303  uint[5] memory */\n      tag_46\n      tag_47\n      jump\t// in\n    tag_46:\n        /* \"Fixed_Size_Array_in_Blockchain/fixedSizeArray.sol\":322:326  arr2 */\n      0x0a\n        /* \"Fixed_Size_Array_in_Blockchain/fixedSizeArray.sol\":315:326  return arr2 */\n      0x05\n      dup1\n      0x20\n      mul\n      mload(0x40)\n      swap1\n      dup2\n      add\n      0x40\n      mstore\n      dup1\n      swap3\n      swap2\n      swap1\n      dup3\n      0x05\n      dup1\n      iszero\n      tag_49\n      jumpi\n      0x20\n      mul\n      dup3\n      add\n      swap2\n    tag_50:\n      dup2\n      sload\n      dup2\n      mstore\n      0x20\n      add\n      swap1\n      0x01\n      add\n      swap1\n      dup1\n      dup4\n      gt\n      tag_50\n      jumpi\n    tag_49:\n      pop\n      pop\n      pop\n      pop\n      pop\n      swap1\n      pop\n        /* \"Fixed_Size_Array_in_Blockchain/fixedSizeArray.sol\":246:507  function returnArray() public view returns(uint[5] memory){... */\n      swap1\n      jump\t// out\n        /* \"Fixed_Size_Array_in_Blockchain/fixedSizeArray.sol\":1223:1353  function arrayWithLoop(uint _x) public {... */\n    tag_20:\n        /* \"Fixed_Size_Array_in_Blockchain/fixedSizeArray.sol\":1277:1283  uint i */\n      0x00\n        /* \"Fixed_Size_Array_in_Blockchain/fixedSizeArray.sol\":1273:1346  for(uint i=0; i<arr.length; i++){... */\n    tag_52:\n        /* \"Fixed_Size_Array_in_Blockchain/fixedSizeArray.sol\":1289:1299  arr.length */\n      0x05\n        /* \"Fixed_Size_Array_in_Blockchain/fixedSizeArray.sol\":1287:1288  i */\n      dup2\n        /* \"Fixed_Size_Array_in_Blockchain/fixedSizeArray.sol\":1287:1299  i<arr.length */\n      lt\n        /* \"Fixed_Size_Array_in_Blockchain/fixedSizeArray.sol\":1273:1346  for(uint i=0; i<arr.length; i++){... */\n      iszero\n      tag_53\n      jumpi\n        /* \"Fixed_Size_Array_in_Blockchain/fixedSizeArray.sol\":1333:1334  i */\n      dup1\n        /* \"Fixed_Size_Array_in_Blockchain/fixedSizeArray.sol\":1330:1332  _x */\n      dup3\n        /* \"Fixed_Size_Array_in_Blockchain/fixedSizeArray.sol\":1330:1334  _x+i */\n      tag_55\n      swap2\n      swap1\n      tag_56\n      jump\t// in\n    tag_55:\n        /* \"Fixed_Size_Array_in_Blockchain/fixedSizeArray.sol\":1320:1324  arr1 */\n      0x05\n        /* \"Fixed_Size_Array_in_Blockchain/fixedSizeArray.sol\":1325:1326  i */\n      dup3\n        /* \"Fixed_Size_Array_in_Blockchain/fixedSizeArray.sol\":1320:1327  arr1[i] */\n      0x05\n      dup2\n      lt\n      tag_57\n      jumpi\n      tag_58\n      tag_39\n      jump\t// in\n    tag_58:\n    tag_57:\n      add\n        /* \"Fixed_Size_Array_in_Blockchain/fixedSizeArray.sol\":1320:1334  arr1[i] = _x+i */\n      dup2\n      swap1\n      sstore\n      pop\n        /* \"Fixed_Size_Array_in_Blockchain/fixedSizeArray.sol\":1301:1304  i++ */\n      dup1\n      dup1\n      tag_60\n      swap1\n      tag_61\n      jump\t// in\n    tag_60:\n      swap2\n      pop\n      pop\n        /* \"Fixed_Size_Array_in_Blockchain/fixedSizeArray.sol\":1273:1346  for(uint i=0; i<arr.length; i++){... */\n      jump(tag_52)\n    tag_53:\n      pop\n        /* \"Fixed_Size_Array_in_Blockchain/fixedSizeArray.sol\":1223:1353  function arrayWithLoop(uint _x) public {... */\n      pop\n      jump\t// out\n        /* \"Fixed_Size_Array_in_Blockchain/fixedSizeArray.sol\":136:155  uint[5] public arr1 */\n    tag_23:\n      0x05\n      dup2\n      0x05\n      dup2\n      lt\n      tag_62\n      jumpi\n      0x00\n      dup1\n      revert\n    tag_62:\n      add\n      0x00\n      swap2\n      pop\n      swap1\n      pop\n      sload\n      dup2\n      jump\t// out\n        /* \"Fixed_Size_Array_in_Blockchain/fixedSizeArray.sol\":92:129  uint[5] public arr = [10,20,30,40,50] */\n    tag_27:\n      0x00\n      dup2\n      0x05\n      dup2\n      lt\n      tag_64\n      jumpi\n      0x00\n      dup1\n      revert\n    tag_64:\n      add\n      0x00\n      swap2\n      pop\n      swap1\n      pop\n      sload\n      dup2\n      jump\t// out\n        /* \"Fixed_Size_Array_in_Blockchain/fixedSizeArray.sol\":917:1215  function array() public view returns(uint){... */\n    tag_30:\n        /* \"Fixed_Size_Array_in_Blockchain/fixedSizeArray.sol\":954:958  uint */\n      0x00\n        /* \"Fixed_Size_Array_in_Blockchain/fixedSizeArray.sol\":986:995  uint temp */\n      dup1\n        /* \"Fixed_Size_Array_in_Blockchain/fixedSizeArray.sol\":1013:1016  arr */\n      0x00\n        /* \"Fixed_Size_Array_in_Blockchain/fixedSizeArray.sol\":1017:1018  3 */\n      0x03\n        /* \"Fixed_Size_Array_in_Blockchain/fixedSizeArray.sol\":1013:1019  arr[3] */\n      0x05\n      dup2\n      lt\n      tag_67\n      jumpi\n      tag_68\n      tag_39\n      jump\t// in\n    tag_68:\n    tag_67:\n      add\n      sload\n        /* \"Fixed_Size_Array_in_Blockchain/fixedSizeArray.sol\":1006:1019  temp = arr[3] */\n      swap1\n      pop\n        /* \"Fixed_Size_Array_in_Blockchain/fixedSizeArray.sol\":1155:1163  uint len */\n      0x00\n        /* \"Fixed_Size_Array_in_Blockchain/fixedSizeArray.sol\":1166:1176  arr.length */\n      0x05\n        /* \"Fixed_Size_Array_in_Blockchain/fixedSizeArray.sol\":1155:1176  uint len = arr.length */\n      swap1\n      pop\n        /* \"Fixed_Size_Array_in_Blockchain/fixedSizeArray.sol\":1194:1197  len */\n      dup1\n        /* \"Fixed_Size_Array_in_Blockchain/fixedSizeArray.sol\":1187:1197  return len */\n      swap3\n      pop\n      pop\n      pop\n        /* \"Fixed_Size_Array_in_Blockchain/fixedSizeArray.sol\":917:1215  function array() public view returns(uint){... */\n      swap1\n      jump\t// out\n    tag_47:\n      mload(0x40)\n      dup1\n      0xa0\n      add\n      0x40\n      mstore\n      dup1\n      0x05\n      swap1\n      0x20\n      dup3\n      mul\n      dup1\n      calldatasize\n      dup4\n      calldatacopy\n      dup1\n      dup3\n      add\n      swap2\n      pop\n      pop\n      swap1\n      pop\n      pop\n      swap1\n      jump\t// out\n        /* \"#utility.yul\":7:84   */\n    tag_70:\n        /* \"#utility.yul\":44:51   */\n      0x00\n        /* \"#utility.yul\":73:78   */\n      dup2\n        /* \"#utility.yul\":62:78   */\n      swap1\n      pop\n        /* \"#utility.yul\":7:84   */\n      swap2\n      swap1\n      pop\n      jump\t// out\n        /* \"#utility.yul\":90:208   */\n    tag_71:\n        /* \"#utility.yul\":177:201   */\n      tag_88\n        /* \"#utility.yul\":195:200   */\n      dup2\n        /* \"#utility.yul\":177:201   */\n      tag_70\n      jump\t// in\n    tag_88:\n        /* \"#utility.yul\":172:175   */\n      dup3\n        /* \"#utility.yul\":165:202   */\n      mstore\n        /* \"#utility.yul\":90:208   */\n      pop\n      pop\n      jump\t// out\n        /* \"#utility.yul\":214:436   */\n    tag_12:\n        /* \"#utility.yul\":307:311   */\n      0x00\n        /* \"#utility.yul\":345:347   */\n      0x20\n        /* \"#utility.yul\":334:343   */\n      dup3\n        /* \"#utility.yul\":330:348   */\n      add\n        /* \"#utility.yul\":322:348   */\n      swap1\n      pop\n        /* \"#utility.yul\":358:429   */\n      tag_90\n        /* \"#utility.yul\":426:427   */\n      0x00\n        /* \"#utility.yul\":415:424   */\n      dup4\n        /* \"#utility.yul\":411:428   */\n      add\n        /* \"#utility.yul\":402:408   */\n      dup5\n        /* \"#utility.yul\":358:429   */\n      tag_71\n      jump\t// in\n    tag_90:\n        /* \"#utility.yul\":214:436   */\n      swap3\n      swap2\n      pop\n      pop\n      jump\t// out\n        /* \"#utility.yul\":442:546   */\n    tag_72:\n        /* \"#utility.yul\":507:513   */\n      0x00\n        /* \"#utility.yul\":535:539   */\n      0x05\n        /* \"#utility.yul\":525:539   */\n      swap1\n      pop\n        /* \"#utility.yul\":442:546   */\n      swap2\n      swap1\n      pop\n      jump\t// out\n        /* \"#utility.yul\":552:695   */\n    tag_73:\n        /* \"#utility.yul\":649:660   */\n      0x00\n        /* \"#utility.yul\":686:689   */\n      dup2\n        /* \"#utility.yul\":671:689   */\n      swap1\n      pop\n        /* \"#utility.yul\":552:695   */\n      swap3\n      swap2\n      pop\n      pop\n      jump\t// out\n        /* \"#utility.yul\":701:799   */\n    tag_74:\n        /* \"#utility.yul\":766:770   */\n      0x00\n        /* \"#utility.yul\":789:792   */\n      dup2\n        /* \"#utility.yul\":781:792   */\n      swap1\n      pop\n        /* \"#utility.yul\":701:799   */\n      swap2\n      swap1\n      pop\n      jump\t// out\n        /* \"#utility.yul\":805:913   */\n    tag_75:\n        /* \"#utility.yul\":882:906   */\n      tag_95\n        /* \"#utility.yul\":900:905   */\n      dup2\n        /* \"#utility.yul\":882:906   */\n      tag_70\n      jump\t// in\n    tag_95:\n        /* \"#utility.yul\":877:880   */\n      dup3\n        /* \"#utility.yul\":870:907   */\n      mstore\n        /* \"#utility.yul\":805:913   */\n      pop\n      pop\n      jump\t// out\n        /* \"#utility.yul\":919:1098   */\n    tag_76:\n        /* \"#utility.yul\":988:998   */\n      0x00\n        /* \"#utility.yul\":1009:1055   */\n      tag_97\n        /* \"#utility.yul\":1051:1054   */\n      dup4\n        /* \"#utility.yul\":1043:1049   */\n      dup4\n        /* \"#utility.yul\":1009:1055   */\n      tag_75\n      jump\t// in\n    tag_97:\n        /* \"#utility.yul\":1087:1091   */\n      0x20\n        /* \"#utility.yul\":1082:1085   */\n      dup4\n        /* \"#utility.yul\":1078:1092   */\n      add\n        /* \"#utility.yul\":1064:1092   */\n      swap1\n      pop\n        /* \"#utility.yul\":919:1098   */\n      swap3\n      swap2\n      pop\n      pop\n      jump\t// out\n        /* \"#utility.yul\":1104:1215   */\n    tag_77:\n        /* \"#utility.yul\":1172:1176   */\n      0x00\n        /* \"#utility.yul\":1204:1208   */\n      0x20\n        /* \"#utility.yul\":1199:1202   */\n      dup3\n        /* \"#utility.yul\":1195:1209   */\n      add\n        /* \"#utility.yul\":1187:1209   */\n      swap1\n      pop\n        /* \"#utility.yul\":1104:1215   */\n      swap2\n      swap1\n      pop\n      jump\t// out\n        /* \"#utility.yul\":1253:1947   */\n    tag_78:\n        /* \"#utility.yul\":1389:1441   */\n      tag_100\n        /* \"#utility.yul\":1435:1440   */\n      dup2\n        /* \"#utility.yul\":1389:1441   */\n      tag_72\n      jump\t// in\n    tag_100:\n        /* \"#utility.yul\":1457:1541   */\n      tag_101\n        /* \"#utility.yul\":1534:1540   */\n      dup2\n        /* \"#utility.yul\":1529:1532   */\n      dup5\n        /* \"#utility.yul\":1457:1541   */\n      tag_73\n      jump\t// in\n    tag_101:\n        /* \"#utility.yul\":1450:1541   */\n      swap3\n      pop\n        /* \"#utility.yul\":1565:1619   */\n      tag_102\n        /* \"#utility.yul\":1613:1618   */\n      dup3\n        /* \"#utility.yul\":1565:1619   */\n      tag_74\n      jump\t// in\n    tag_102:\n        /* \"#utility.yul\":1642:1649   */\n      dup1\n        /* \"#utility.yul\":1673:1674   */\n      0x00\n        /* \"#utility.yul\":1658:1940   */\n    tag_103:\n        /* \"#utility.yul\":1683:1689   */\n      dup4\n        /* \"#utility.yul\":1680:1681   */\n      dup2\n        /* \"#utility.yul\":1677:1690   */\n      lt\n        /* \"#utility.yul\":1658:1940   */\n      iszero\n      tag_105\n      jumpi\n        /* \"#utility.yul\":1759:1765   */\n      dup2\n        /* \"#utility.yul\":1753:1766   */\n      mload\n        /* \"#utility.yul\":1786:1849   */\n      tag_106\n        /* \"#utility.yul\":1845:1848   */\n      dup8\n        /* \"#utility.yul\":1830:1843   */\n      dup3\n        /* \"#utility.yul\":1786:1849   */\n      tag_76\n      jump\t// in\n    tag_106:\n        /* \"#utility.yul\":1779:1849   */\n      swap7\n      pop\n        /* \"#utility.yul\":1872:1930   */\n      tag_107\n        /* \"#utility.yul\":1923:1929   */\n      dup4\n        /* \"#utility.yul\":1872:1930   */\n      tag_77\n      jump\t// in\n    tag_107:\n        /* \"#utility.yul\":1862:1930   */\n      swap3\n      pop\n        /* \"#utility.yul\":1718:1940   */\n      pop\n        /* \"#utility.yul\":1705:1706   */\n      0x01\n        /* \"#utility.yul\":1702:1703   */\n      dup2\n        /* \"#utility.yul\":1698:1707   */\n      add\n        /* \"#utility.yul\":1693:1707   */\n      swap1\n      pop\n        /* \"#utility.yul\":1658:1940   */\n      jump(tag_103)\n    tag_105:\n        /* \"#utility.yul\":1662:1676   */\n      pop\n        /* \"#utility.yul\":1365:1947   */\n      pop\n      pop\n      pop\n        /* \"#utility.yul\":1253:1947   */\n      pop\n      pop\n      jump\t// out\n        /* \"#utility.yul\":1953:2268   */\n    tag_16:\n        /* \"#utility.yul\":2092:2096   */\n      0x00\n        /* \"#utility.yul\":2130:2133   */\n      0xa0\n        /* \"#utility.yul\":2119:2128   */\n      dup3\n        /* \"#utility.yul\":2115:2134   */\n      add\n        /* \"#utility.yul\":2107:2134   */\n      swap1\n      pop\n        /* \"#utility.yul\":2144:2261   */\n      tag_109\n        /* \"#utility.yul\":2258:2259   */\n      0x00\n        /* \"#utility.yul\":2247:2256   */\n      dup4\n        /* \"#utility.yul\":2243:2260   */\n      add\n        /* \"#utility.yul\":2234:2240   */\n      dup5\n        /* \"#utility.yul\":2144:2261   */\n      tag_78\n      jump\t// in\n    tag_109:\n        /* \"#utility.yul\":1953:2268   */\n      swap3\n      swap2\n      pop\n      pop\n      jump\t// out\n        /* \"#utility.yul\":2355:2472   */\n    tag_80:\n        /* \"#utility.yul\":2464:2465   */\n      0x00\n        /* \"#utility.yul\":2461:2462   */\n      dup1\n        /* \"#utility.yul\":2454:2466   */\n      revert\n        /* \"#utility.yul\":2601:2723   */\n    tag_82:\n        /* \"#utility.yul\":2674:2698   */\n      tag_114\n        /* \"#utility.yul\":2692:2697   */\n      dup2\n        /* \"#utility.yul\":2674:2698   */\n      tag_70\n      jump\t// in\n    tag_114:\n        /* \"#utility.yul\":2667:2672   */\n      dup2\n        /* \"#utility.yul\":2664:2699   */\n      eq\n        /* \"#utility.yul\":2654:2717   */\n      tag_115\n      jumpi\n        /* \"#utility.yul\":2713:2714   */\n      0x00\n        /* \"#utility.yul\":2710:2711   */\n      dup1\n        /* \"#utility.yul\":2703:2715   */\n      revert\n        /* \"#utility.yul\":2654:2717   */\n    tag_115:\n        /* \"#utility.yul\":2601:2723   */\n      pop\n      jump\t// out\n        /* \"#utility.yul\":2729:2868   */\n    tag_83:\n        /* \"#utility.yul\":2775:2780   */\n      0x00\n        /* \"#utility.yul\":2813:2819   */\n      dup2\n        /* \"#utility.yul\":2800:2820   */\n      calldataload\n        /* \"#utility.yul\":2791:2820   */\n      swap1\n      pop\n        /* \"#utility.yul\":2829:2862   */\n      tag_117\n        /* \"#utility.yul\":2856:2861   */\n      dup2\n        /* \"#utility.yul\":2829:2862   */\n      tag_82\n      jump\t// in\n    tag_117:\n        /* \"#utility.yul\":2729:2868   */\n      swap3\n      swap2\n      pop\n      pop\n      jump\t// out\n        /* \"#utility.yul\":2874:3203   */\n    tag_19:\n        /* \"#utility.yul\":2933:2939   */\n      0x00\n        /* \"#utility.yul\":2982:2984   */\n      0x20\n        /* \"#utility.yul\":2970:2979   */\n      dup3\n        /* \"#utility.yul\":2961:2968   */\n      dup5\n        /* \"#utility.yul\":2957:2980   */\n      sub\n        /* \"#utility.yul\":2953:2985   */\n      slt\n        /* \"#utility.yul\":2950:3069   */\n      iszero\n      tag_119\n      jumpi\n        /* \"#utility.yul\":2988:3067   */\n      tag_120\n      tag_80\n      jump\t// in\n    tag_120:\n        /* \"#utility.yul\":2950:3069   */\n    tag_119:\n        /* \"#utility.yul\":3108:3109   */\n      0x00\n        /* \"#utility.yul\":3133:3186   */\n      tag_121\n        /* \"#utility.yul\":3178:3185   */\n      dup5\n        /* \"#utility.yul\":3169:3175   */\n      dup3\n        /* \"#utility.yul\":3158:3167   */\n      dup6\n        /* \"#utility.yul\":3154:3176   */\n      add\n        /* \"#utility.yul\":3133:3186   */\n      tag_83\n      jump\t// in\n    tag_121:\n        /* \"#utility.yul\":3123:3186   */\n      swap2\n      pop\n        /* \"#utility.yul\":3079:3196   */\n      pop\n        /* \"#utility.yul\":2874:3203   */\n      swap3\n      swap2\n      pop\n      pop\n      jump\t// out\n        /* \"#utility.yul\":3209:3389   */\n    tag_35:\n        /* \"#utility.yul\":3257:3334   */\n      0x4e487b7100000000000000000000000000000000000000000000000000000000\n        /* \"#utility.yul\":3254:3255   */\n      0x00\n        /* \"#utility.yul\":3247:3335   */\n      mstore\n        /* \"#utility.yul\":3354:3358   */\n      0x41\n        /* \"#utility.yul\":3351:3352   */\n      0x04\n        /* \"#utility.yul\":3344:3359   */\n      mstore\n        /* \"#utility.yul\":3378:3382   */\n      0x24\n        /* \"#utility.yul\":3375:3376   */\n      0x00\n        /* \"#utility.yul\":3368:3383   */\n      revert\n        /* \"#utility.yul\":3395:3575   */\n    tag_39:\n        /* \"#utility.yul\":3443:3520   */\n      0x4e487b7100000000000000000000000000000000000000000000000000000000\n        /* \"#utility.yul\":3440:3441   */\n      0x00\n        /* \"#utility.yul\":3433:3521   */\n      mstore\n        /* \"#utility.yul\":3540:3544   */\n      0x32\n        /* \"#utility.yul\":3537:3538   */\n      0x04\n        /* \"#utility.yul\":3530:3545   */\n      mstore\n        /* \"#utility.yul\":3564:3568   */\n      0x24\n        /* \"#utility.yul\":3561:3562   */\n      0x00\n        /* \"#utility.yul\":3554:3569   */\n      revert\n        /* \"#utility.yul\":3581:3761   */\n    tag_84:\n        /* \"#utility.yul\":3629:3706   */\n      0x4e487b7100000000000000000000000000000000000000000000000000000000\n        /* \"#utility.yul\":3626:3627   */\n      0x00\n        /* \"#utility.yul\":3619:3707   */\n      mstore\n        /* \"#utility.yul\":3726:3730   */\n      0x11\n        /* \"#utility.yul\":3723:3724   */\n      0x04\n        /* \"#utility.yul\":3716:3731   */\n      mstore\n        /* \"#utility.yul\":3750:3754   */\n      0x24\n        /* \"#utility.yul\":3747:3748   */\n      0x00\n        /* \"#utility.yul\":3740:3755   */\n      revert\n        /* \"#utility.yul\":3767:3958   */\n    tag_56:\n        /* \"#utility.yul\":3807:3810   */\n      0x00\n        /* \"#utility.yul\":3826:3846   */\n      tag_126\n        /* \"#utility.yul\":3844:3845   */\n      dup3\n        /* \"#utility.yul\":3826:3846   */\n      tag_70\n      jump\t// in\n    tag_126:\n        /* \"#utility.yul\":3821:3846   */\n      swap2\n      pop\n        /* \"#utility.yul\":3860:3880   */\n      tag_127\n        /* \"#utility.yul\":3878:3879   */\n      dup4\n        /* \"#utility.yul\":3860:3880   */\n      tag_70\n      jump\t// in\n    tag_127:\n        /* \"#utility.yul\":3855:3880   */\n      swap3\n      pop\n        /* \"#utility.yul\":3903:3904   */\n      dup3\n        /* \"#utility.yul\":3900:3901   */\n      dup3\n        /* \"#utility.yul\":3896:3905   */\n      add\n        /* \"#utility.yul\":3889:3905   */\n      swap1\n      pop\n        /* \"#utility.yul\":3924:3927   */\n      dup1\n        /* \"#utility.yul\":3921:3922   */\n      dup3\n        /* \"#utility.yul\":3918:3928   */\n      gt\n        /* \"#utility.yul\":3915:3951   */\n      iszero\n      tag_128\n      jumpi\n        /* \"#utility.yul\":3931:3949   */\n      tag_129\n      tag_84\n      jump\t// in\n    tag_129:\n        /* \"#utility.yul\":3915:3951   */\n    tag_128:\n        /* \"#utility.yul\":3767:3958   */\n      swap3\n      swap2\n      pop\n      pop\n      jump\t// out\n        /* \"#utility.yul\":3964:4197   */\n    tag_61:\n        /* \"#utility.yul\":4003:4006   */\n      0x00\n        /* \"#utility.yul\":4026:4050   */\n      tag_131\n        /* \"#utility.yul\":4044:4049   */\n      dup3\n        /* \"#utility.yul\":4026:4050   */\n      tag_70\n      jump\t// in\n    tag_131:\n        /* \"#utility.yul\":4017:4050   */\n      swap2\n      pop\n        /* \"#utility.yul\":4072:4138   */\n      0xffffffffffffffffffffffffffffffffffffffffffffffffffffffffffffffff\n        /* \"#utility.yul\":4065:4070   */\n      dup3\n        /* \"#utility.yul\":4062:4139   */\n      sub\n        /* \"#utility.yul\":4059:4162   */\n      tag_132\n      jumpi\n        /* \"#utility.yul\":4142:4160   */\n      tag_133\n      tag_84\n      jump\t// in\n    tag_133:\n        /* \"#utility.yul\":4059:4162   */\n    tag_132:\n        /* \"#utility.yul\":4189:4190   */\n      0x01\n        /* \"#utility.yul\":4182:4187   */\n      dup3\n        /* \"#utility.yul\":4178:4191   */\n      add\n        /* \"#utility.yul\":4171:4191   */\n      swap1\n      pop\n        /* \"#utility.yul\":3964:4197   */\n      swap2\n      swap1\n      pop\n      jump\t// out\n\n    auxdata: 0xa26469706673582212208989188aca133b1989a01729d676e0ead0e7b762df045dd8afc39b6fb7fed7ba64736f6c63430008120033\n}\n",
				"bytecode": {
					"linkReferences": {},
					"object": "60806040526040518060a00160405280600a60ff168152602001601460ff168152602001601e60ff168152602001602860ff168152602001603260ff16815250600090600561004f9291906100ae565b5034801561005c57600080fd5b506040518060a00160405280600a60ff168152602001601460ff168152602001601e60ff168152602001602860ff168152602001603260ff16815250600a9060056100a89291906100ae565b50610110565b82600581019282156100e2579160200282015b828111156100e1578251829060ff169055916020019190600101906100c1565b5b5090506100ef91906100f3565b5090565b5b8082111561010c5760008160009055506001016100f4565b5090565b6105c08061011f6000396000f3fe608060405234801561001057600080fd5b50600436106100625760003560e01c806338469409146100675780633cac14c8146100855780633f017e40146100a35780636987b1fb146100bf57806371e5ee5f146100ef578063b0ec2ae11461011f575b600080fd5b61006f61013d565b60405161007c9190610342565b60405180910390f35b61008d610214565b60405161009a9190610408565b60405180910390f35b6100bd60048036038101906100b89190610454565b61025f565b005b6100d960048036038101906100d49190610454565b6102a7565b6040516100e69190610342565b60405180910390f35b61010960048036038101906101049190610454565b6102c2565b6040516101169190610342565b60405180910390f35b6101276102dd565b6040516101349190610342565b60405180910390f35b600080600367ffffffffffffffff81111561015b5761015a610481565b5b6040519080825280602002602001820160405280156101895781602001602082028036833780820191505090505b5090506021816000815181106101a2576101a16104b0565b5b6020026020010181815250506023816001815181106101c4576101c36104b0565b5b6020026020010181815250506028816002815181106101e6576101e56104b0565b5b60200260200101818152505080600081518110610206576102056104b0565b5b602002602001015191505090565b61021c610307565b600a600580602002604051908101604052809291908260058015610255576020028201915b815481526020019060010190808311610241575b5050505050905090565b60005b60058110156102a3578082610277919061050e565b6005826005811061028b5761028a6104b0565b5b0181905550808061029b90610542565b915050610262565b5050565b600581600581106102b757600080fd5b016000915090505481565b600081600581106102d257600080fd5b016000915090505481565b60008060006003600581106102f5576102f46104b0565b5b01549050600060059050809250505090565b6040518060a00160405280600590602082028036833780820191505090505090565b6000819050919050565b61033c81610329565b82525050565b60006020820190506103576000830184610333565b92915050565b600060059050919050565b600081905092915050565b6000819050919050565b61038681610329565b82525050565b6000610398838361037d565b60208301905092915050565b6000602082019050919050565b6103ba8161035d565b6103c48184610368565b92506103cf82610373565b8060005b838110156104005781516103e7878261038c565b96506103f2836103a4565b9250506001810190506103d3565b505050505050565b600060a08201905061041d60008301846103b1565b92915050565b600080fd5b61043181610329565b811461043c57600080fd5b50565b60008135905061044e81610428565b92915050565b60006020828403121561046a57610469610423565b5b60006104788482850161043f565b91505092915050565b7f4e487b7100000000000000000000000000000000000000000000000000000000600052604160045260246000fd5b7f4e487b7100000000000000000000000000000000000000000000000000000000600052603260045260246000fd5b7f4e487b7100000000000000000000000000000000000000000000000000000000600052601160045260246000fd5b600061051982610329565b915061052483610329565b925082820190508082111561053c5761053b6104df565b5b92915050565b600061054d82610329565b91507fffffffffffffffffffffffffffffffffffffffffffffffffffffffffffffffff820361057f5761057e6104df565b5b60018201905091905056fea26469706673582212208989188aca133b1989a01729d676e0ead0e7b762df045dd8afc39b6fb7fed7ba64736f6c63430008120033",
					"opcodes": "PUSH1 0x80 PUSH1 0x40 MSTORE PUSH1 0x40 MLOAD DUP1 PUSH1 0xA0 ADD PUSH1 0x40 MSTORE DUP1 PUSH1 0xA PUSH1 0xFF AND DUP2 MSTORE PUSH1 0x20 ADD PUSH1 0x14 PUSH1 0xFF AND DUP2 MSTORE PUSH1 0x20 ADD PUSH1 0x1E PUSH1 0xFF AND DUP2 MSTORE PUSH1 0x20 ADD PUSH1 0x28 PUSH1 0xFF AND DUP2 MSTORE PUSH1 0x20 ADD PUSH1 0x32 PUSH1 0xFF AND DUP2 MSTORE POP PUSH1 0x0 SWAP1 PUSH1 0x5 PUSH2 0x4F SWAP3 SWAP2 SWAP1 PUSH2 0xAE JUMP JUMPDEST POP CALLVALUE DUP1 ISZERO PUSH2 0x5C JUMPI PUSH1 0x0 DUP1 REVERT JUMPDEST POP PUSH1 0x40 MLOAD DUP1 PUSH1 0xA0 ADD PUSH1 0x40 MSTORE DUP1 PUSH1 0xA PUSH1 0xFF AND DUP2 MSTORE PUSH1 0x20 ADD PUSH1 0x14 PUSH1 0xFF AND DUP2 MSTORE PUSH1 0x20 ADD PUSH1 0x1E PUSH1 0xFF AND DUP2 MSTORE PUSH1 0x20 ADD PUSH1 0x28 PUSH1 0xFF AND DUP2 MSTORE PUSH1 0x20 ADD PUSH1 0x32 PUSH1 0xFF AND DUP2 MSTORE POP PUSH1 0xA SWAP1 PUSH1 0x5 PUSH2 0xA8 SWAP3 SWAP2 SWAP1 PUSH2 0xAE JUMP JUMPDEST POP PUSH2 0x110 JUMP JUMPDEST DUP3 PUSH1 0x5 DUP2 ADD SWAP3 DUP3 ISZERO PUSH2 0xE2 JUMPI SWAP2 PUSH1 0x20 MUL DUP3 ADD JUMPDEST DUP3 DUP2 GT ISZERO PUSH2 0xE1 JUMPI DUP3 MLOAD DUP3 SWAP1 PUSH1 0xFF AND SWAP1 SSTORE SWAP2 PUSH1 0x20 ADD SWAP2 SWAP1 PUSH1 0x1 ADD SWAP1 PUSH2 0xC1 JUMP JUMPDEST JUMPDEST POP SWAP1 POP PUSH2 0xEF SWAP2 SWAP1 PUSH2 0xF3 JUMP JUMPDEST POP SWAP1 JUMP JUMPDEST JUMPDEST DUP1 DUP3 GT ISZERO PUSH2 0x10C JUMPI PUSH1 0x0 DUP2 PUSH1 0x0 SWAP1 SSTORE POP PUSH1 0x1 ADD PUSH2 0xF4 JUMP JUMPDEST POP SWAP1 JUMP JUMPDEST PUSH2 0x5C0 DUP1 PUSH2 0x11F PUSH1 0x0 CODECOPY PUSH1 0x0 RETURN INVALID PUSH1 0x80 PUSH1 0x40 MSTORE CALLVALUE DUP1 ISZERO PUSH2 0x10 JUMPI PUSH1 0x0 DUP1 REVERT JUMPDEST POP PUSH1 0x4 CALLDATASIZE LT PUSH2 0x62 JUMPI PUSH1 0x0 CALLDATALOAD PUSH1 0xE0 SHR DUP1 PUSH4 0x38469409 EQ PUSH2 0x67 JUMPI DUP1 PUSH4 0x3CAC14C8 EQ PUSH2 0x85 JUMPI DUP1 PUSH4 0x3F017E40 EQ PUSH2 0xA3 JUMPI DUP1 PUSH4 0x6987B1FB EQ PUSH2 0xBF JUMPI DUP1 PUSH4 0x71E5EE5F EQ PUSH2 0xEF JUMPI DUP1 PUSH4 0xB0EC2AE1 EQ PUSH2 0x11F JUMPI JUMPDEST PUSH1 0x0 DUP1 REVERT JUMPDEST PUSH2 0x6F PUSH2 0x13D JUMP JUMPDEST PUSH1 0x40 MLOAD PUSH2 0x7C SWAP2 SWAP1 PUSH2 0x342 JUMP JUMPDEST PUSH1 0x40 MLOAD DUP1 SWAP2 SUB SWAP1 RETURN JUMPDEST PUSH2 0x8D PUSH2 0x214 JUMP JUMPDEST PUSH1 0x40 MLOAD PUSH2 0x9A SWAP2 SWAP1 PUSH2 0x408 JUMP JUMPDEST PUSH1 0x40 MLOAD DUP1 SWAP2 SUB SWAP1 RETURN JUMPDEST PUSH2 0xBD PUSH1 0x4 DUP1 CALLDATASIZE SUB DUP2 ADD SWAP1 PUSH2 0xB8 SWAP2 SWAP1 PUSH2 0x454 JUMP JUMPDEST PUSH2 0x25F JUMP JUMPDEST STOP JUMPDEST PUSH2 0xD9 PUSH1 0x4 DUP1 CALLDATASIZE SUB DUP2 ADD SWAP1 PUSH2 0xD4 SWAP2 SWAP1 PUSH2 0x454 JUMP JUMPDEST PUSH2 0x2A7 JUMP JUMPDEST PUSH1 0x40 MLOAD PUSH2 0xE6 SWAP2 SWAP1 PUSH2 0x342 JUMP JUMPDEST PUSH1 0x40 MLOAD DUP1 SWAP2 SUB SWAP1 RETURN JUMPDEST PUSH2 0x109 PUSH1 0x4 DUP1 CALLDATASIZE SUB DUP2 ADD SWAP1 PUSH2 0x104 SWAP2 SWAP1 PUSH2 0x454 JUMP JUMPDEST PUSH2 0x2C2 JUMP JUMPDEST PUSH1 0x40 MLOAD PUSH2 0x116 SWAP2 SWAP1 PUSH2 0x342 JUMP JUMPDEST PUSH1 0x40 MLOAD DUP1 SWAP2 SUB SWAP1 RETURN JUMPDEST PUSH2 0x127 PUSH2 0x2DD JUMP JUMPDEST PUSH1 0x40 MLOAD PUSH2 0x134 SWAP2 SWAP1 PUSH2 0x342 JUMP JUMPDEST PUSH1 0x40 MLOAD DUP1 SWAP2 SUB SWAP1 RETURN JUMPDEST PUSH1 0x0 DUP1 PUSH1 0x3 PUSH8 0xFFFFFFFFFFFFFFFF DUP2 GT ISZERO PUSH2 0x15B JUMPI PUSH2 0x15A PUSH2 0x481 JUMP JUMPDEST JUMPDEST PUSH1 0x40 MLOAD SWAP1 DUP1 DUP3 MSTORE DUP1 PUSH1 0x20 MUL PUSH1 0x20 ADD DUP3 ADD PUSH1 0x40 MSTORE DUP1 ISZERO PUSH2 0x189 JUMPI DUP2 PUSH1 0x20 ADD PUSH1 0x20 DUP3 MUL DUP1 CALLDATASIZE DUP4 CALLDATACOPY DUP1 DUP3 ADD SWAP2 POP POP SWAP1 POP JUMPDEST POP SWAP1 POP PUSH1 0x21 DUP2 PUSH1 0x0 DUP2 MLOAD DUP2 LT PUSH2 0x1A2 JUMPI PUSH2 0x1A1 PUSH2 0x4B0 JUMP JUMPDEST JUMPDEST PUSH1 0x20 MUL PUSH1 0x20 ADD ADD DUP2 DUP2 MSTORE POP POP PUSH1 0x23 DUP2 PUSH1 0x1 DUP2 MLOAD DUP2 LT PUSH2 0x1C4 JUMPI PUSH2 0x1C3 PUSH2 0x4B0 JUMP JUMPDEST JUMPDEST PUSH1 0x20 MUL PUSH1 0x20 ADD ADD DUP2 DUP2 MSTORE POP POP PUSH1 0x28 DUP2 PUSH1 0x2 DUP2 MLOAD DUP2 LT PUSH2 0x1E6 JUMPI PUSH2 0x1E5 PUSH2 0x4B0 JUMP JUMPDEST JUMPDEST PUSH1 0x20 MUL PUSH1 0x20 ADD ADD DUP2 DUP2 MSTORE POP POP DUP1 PUSH1 0x0 DUP2 MLOAD DUP2 LT PUSH2 0x206 JUMPI PUSH2 0x205 PUSH2 0x4B0 JUMP JUMPDEST JUMPDEST PUSH1 0x20 MUL PUSH1 0x20 ADD ADD MLOAD SWAP2 POP POP SWAP1 JUMP JUMPDEST PUSH2 0x21C PUSH2 0x307 JUMP JUMPDEST PUSH1 0xA PUSH1 0x5 DUP1 PUSH1 0x20 MUL PUSH1 0x40 MLOAD SWAP1 DUP2 ADD PUSH1 0x40 MSTORE DUP1 SWAP3 SWAP2 SWAP1 DUP3 PUSH1 0x5 DUP1 ISZERO PUSH2 0x255 JUMPI PUSH1 0x20 MUL DUP3 ADD SWAP2 JUMPDEST DUP2 SLOAD DUP2 MSTORE PUSH1 0x20 ADD SWAP1 PUSH1 0x1 ADD SWAP1 DUP1 DUP4 GT PUSH2 0x241 JUMPI JUMPDEST POP POP POP POP POP SWAP1 POP SWAP1 JUMP JUMPDEST PUSH1 0x0 JUMPDEST PUSH1 0x5 DUP2 LT ISZERO PUSH2 0x2A3 JUMPI DUP1 DUP3 PUSH2 0x277 SWAP2 SWAP1 PUSH2 0x50E JUMP JUMPDEST PUSH1 0x5 DUP3 PUSH1 0x5 DUP2 LT PUSH2 0x28B JUMPI PUSH2 0x28A PUSH2 0x4B0 JUMP JUMPDEST JUMPDEST ADD DUP2 SWAP1 SSTORE POP DUP1 DUP1 PUSH2 0x29B SWAP1 PUSH2 0x542 JUMP JUMPDEST SWAP2 POP POP PUSH2 0x262 JUMP JUMPDEST POP POP JUMP JUMPDEST PUSH1 0x5 DUP2 PUSH1 0x5 DUP2 LT PUSH2 0x2B7 JUMPI PUSH1 0x0 DUP1 REVERT JUMPDEST ADD PUSH1 0x0 SWAP2 POP SWAP1 POP SLOAD DUP2 JUMP JUMPDEST PUSH1 0x0 DUP2 PUSH1 0x5 DUP2 LT PUSH2 0x2D2 JUMPI PUSH1 0x0 DUP1 REVERT JUMPDEST ADD PUSH1 0x0 SWAP2 POP SWAP1 POP SLOAD DUP2 JUMP JUMPDEST PUSH1 0x0 DUP1 PUSH1 0x0 PUSH1 0x3 PUSH1 0x5 DUP2 LT PUSH2 0x2F5 JUMPI PUSH2 0x2F4 PUSH2 0x4B0 JUMP JUMPDEST JUMPDEST ADD SLOAD SWAP1 POP PUSH1 0x0 PUSH1 0x5 SWAP1 POP DUP1 SWAP3 POP POP POP SWAP1 JUMP JUMPDEST PUSH1 0x40 MLOAD DUP1 PUSH1 0xA0 ADD PUSH1 0x40 MSTORE DUP1 PUSH1 0x5 SWAP1 PUSH1 0x20 DUP3 MUL DUP1 CALLDATASIZE DUP4 CALLDATACOPY DUP1 DUP3 ADD SWAP2 POP POP SWAP1 POP POP SWAP1 JUMP JUMPDEST PUSH1 0x0 DUP2 SWAP1 POP SWAP2 SWAP1 POP JUMP JUMPDEST PUSH2 0x33C DUP2 PUSH2 0x329 JUMP JUMPDEST DUP3 MSTORE POP POP JUMP JUMPDEST PUSH1 0x0 PUSH1 0x20 DUP3 ADD SWAP1 POP PUSH2 0x357 PUSH1 0x0 DUP4 ADD DUP5 PUSH2 0x333 JUMP JUMPDEST SWAP3 SWAP2 POP POP JUMP JUMPDEST PUSH1 0x0 PUSH1 0x5 SWAP1 POP SWAP2 SWAP1 POP JUMP JUMPDEST PUSH1 0x0 DUP2 SWAP1 POP SWAP3 SWAP2 POP POP JUMP JUMPDEST PUSH1 0x0 DUP2 SWAP1 POP SWAP2 SWAP1 POP JUMP JUMPDEST PUSH2 0x386 DUP2 PUSH2 0x329 JUMP JUMPDEST DUP3 MSTORE POP POP JUMP JUMPDEST PUSH1 0x0 PUSH2 0x398 DUP4 DUP4 PUSH2 0x37D JUMP JUMPDEST PUSH1 0x20 DUP4 ADD SWAP1 POP SWAP3 SWAP2 POP POP JUMP JUMPDEST PUSH1 0x0 PUSH1 0x20 DUP3 ADD SWAP1 POP SWAP2 SWAP1 POP JUMP JUMPDEST PUSH2 0x3BA DUP2 PUSH2 0x35D JUMP JUMPDEST PUSH2 0x3C4 DUP2 DUP5 PUSH2 0x368 JUMP JUMPDEST SWAP3 POP PUSH2 0x3CF DUP3 PUSH2 0x373 JUMP JUMPDEST DUP1 PUSH1 0x0 JUMPDEST DUP4 DUP2 LT ISZERO PUSH2 0x400 JUMPI DUP2 MLOAD PUSH2 0x3E7 DUP8 DUP3 PUSH2 0x38C JUMP JUMPDEST SWAP7 POP PUSH2 0x3F2 DUP4 PUSH2 0x3A4 JUMP JUMPDEST SWAP3 POP POP PUSH1 0x1 DUP2 ADD SWAP1 POP PUSH2 0x3D3 JUMP JUMPDEST POP POP POP POP POP POP JUMP JUMPDEST PUSH1 0x0 PUSH1 0xA0 DUP3 ADD SWAP1 POP PUSH2 0x41D PUSH1 0x0 DUP4 ADD DUP5 PUSH2 0x3B1 JUMP JUMPDEST SWAP3 SWAP2 POP POP JUMP JUMPDEST PUSH1 0x0 DUP1 REVERT JUMPDEST PUSH2 0x431 DUP2 PUSH2 0x329 JUMP JUMPDEST DUP2 EQ PUSH2 0x43C JUMPI PUSH1 0x0 DUP1 REVERT JUMPDEST POP JUMP JUMPDEST PUSH1 0x0 DUP2 CALLDATALOAD SWAP1 POP PUSH2 0x44E DUP2 PUSH2 0x428 JUMP JUMPDEST SWAP3 SWAP2 POP POP JUMP JUMPDEST PUSH1 0x0 PUSH1 0x20 DUP3 DUP5 SUB SLT ISZERO PUSH2 0x46A JUMPI PUSH2 0x469 PUSH2 0x423 JUMP JUMPDEST JUMPDEST PUSH1 0x0 PUSH2 0x478 DUP5 DUP3 DUP6 ADD PUSH2 0x43F JUMP JUMPDEST SWAP2 POP POP SWAP3 SWAP2 POP POP JUMP JUMPDEST PUSH32 0x4E487B7100000000000000000000000000000000000000000000000000000000 PUSH1 0x0 MSTORE PUSH1 0x41 PUSH1 0x4 MSTORE PUSH1 0x24 PUSH1 0x0 REVERT JUMPDEST PUSH32 0x4E487B7100000000000000000000000000000000000000000000000000000000 PUSH1 0x0 MSTORE PUSH1 0x32 PUSH1 0x4 MSTORE PUSH1 0x24 PUSH1 0x0 REVERT JUMPDEST PUSH32 0x4E487B7100000000000000000000000000000000000000000000000000000000 PUSH1 0x0 MSTORE PUSH1 0x11 PUSH1 0x4 MSTORE PUSH1 0x24 PUSH1 0x0 REVERT JUMPDEST PUSH1 0x0 PUSH2 0x519 DUP3 PUSH2 0x329 JUMP JUMPDEST SWAP2 POP PUSH2 0x524 DUP4 PUSH2 0x329 JUMP JUMPDEST SWAP3 POP DUP3 DUP3 ADD SWAP1 POP DUP1 DUP3 GT ISZERO PUSH2 0x53C JUMPI PUSH2 0x53B PUSH2 0x4DF JUMP JUMPDEST JUMPDEST SWAP3 SWAP2 POP POP JUMP JUMPDEST PUSH1 0x0 PUSH2 0x54D DUP3 PUSH2 0x329 JUMP JUMPDEST SWAP2 POP PUSH32 0xFFFFFFFFFFFFFFFFFFFFFFFFFFFFFFFFFFFFFFFFFFFFFFFFFFFFFFFFFFFFFFFF DUP3 SUB PUSH2 0x57F JUMPI PUSH2 0x57E PUSH2 0x4DF JUMP JUMPDEST JUMPDEST PUSH1 0x1 DUP3 ADD SWAP1 POP SWAP2 SWAP1 POP JUMP INVALID LOG2 PUSH5 0x6970667358 0x22 SLT KECCAK256 DUP10 DUP10 XOR DUP11 0xCA SGT EXTCODESIZE NOT DUP10 LOG0 OR 0x29 0xD6 PUSH23 0xE0EAD0E7B762DF045DD8AFC39B6FB7FED7BA64736F6C63 NUMBER STOP ADDMOD SLT STOP CALLER "
				},
				"gasEstimates": {
					"creation": {
						"codeDepositCost": "294400",
						"executionCost": "infinite",
						"totalCost": "infinite"
					},
					"external": {
						"arr(uint256)": "infinite",
						"arr1(uint256)": "infinite",
						"array()": "2580",
						"arrayWithLoop(uint256)": "infinite",
						"createArray()": "infinite",
						"returnArray()": "infinite"
					}
				},
				"methodIdentifiers": {
					"arr(uint256)": "71e5ee5f",
					"arr1(uint256)": "6987b1fb",
					"array()": "b0ec2ae1",
					"arrayWithLoop(uint256)": "3f017e40",
					"createArray()": "38469409",
					"returnArray()": "3cac14c8"
				}
			},
			"storageLayout": {
				"storage": [
					{
						"astId": 11,
						"contract": "Fixed_Size_Array_in_Blockchain/fixedSizeArray.sol:fixedSizeArray",
						"label": "arr",
						"offset": 0,
						"slot": "0",
						"type": "t_array(t_uint256)5_storage"
					},
					{
						"astId": 15,
						"contract": "Fixed_Size_Array_in_Blockchain/fixedSizeArray.sol:fixedSizeArray",
						"label": "arr1",
						"offset": 0,
						"slot": "5",
						"type": "t_array(t_uint256)5_storage"
					},
					{
						"astId": 19,
						"contract": "Fixed_Size_Array_in_Blockchain/fixedSizeArray.sol:fixedSizeArray",
						"label": "arr2",
						"offset": 0,
						"slot": "10",
						"type": "t_array(t_uint256)5_storage"
					}
				],
				"types": {
					"t_array(t_uint256)5_storage": {
						"base": "t_uint256",
						"encoding": "inplace",
						"label": "uint256[5]",
						"numberOfBytes": "160"
					},
					"t_uint256": {
						"encoding": "inplace",
						"label": "uint256",
						"numberOfBytes": "32"
					}
				}
			},
			"userdoc": {
				"kind": "user",
				"methods": {},
				"version": 1
			}
		}
	}
}