{
	"Multiple_Inheritence_in_Blockchain/multipleInheritence.sol": {
		"multipleInheritence2": {
			"abi": [
				{
					"inputs": [],
					"stateMutability": "nonpayable",
					"type": "constructor"
				},
				{
					"inputs": [],
					"name": "b",
					"outputs": [
						{
							"internalType": "uint256",
							"name": "",
							"type": "uint256"
						}
					],
					"stateMutability": "view",
					"type": "function"
				},
				{
					"inputs": [],
					"name": "fun1",
					"outputs": [],
					"stateMutability": "nonpayable",
					"type": "function"
				}
			],
			"devdoc": {
				"kind": "dev",
				"methods": {},
				"version": 1
			},
			"evm": {
				"assembly": "    /* \"Multiple_Inheritence_in_Blockchain/multipleInheritence.sol\":221:376  contract multipleInheritence2{... */\n  mstore(0x40, 0x80)\n    /* \"Multiple_Inheritence_in_Blockchain/multipleInheritence.sol\":279:318  constructor(){... */\n  callvalue\n  dup1\n  iszero\n  tag_1\n  jumpi\n  0x00\n  dup1\n  revert\ntag_1:\n  pop\n    /* \"Multiple_Inheritence_in_Blockchain/multipleInheritence.sol\":307:310  200 */\n  0xc8\n    /* \"Multiple_Inheritence_in_Blockchain/multipleInheritence.sol\":303:304  b */\n  0x00\n    /* \"Multiple_Inheritence_in_Blockchain/multipleInheritence.sol\":303:310  b = 200 */\n  dup2\n  swap1\n  sstore\n  pop\n    /* \"Multiple_Inheritence_in_Blockchain/multipleInheritence.sol\":221:376  contract multipleInheritence2{... */\n  dataSize(sub_0)\n  dup1\n  dataOffset(sub_0)\n  0x00\n  codecopy\n  0x00\n  return\nstop\n\nsub_0: assembly {\n        /* \"Multiple_Inheritence_in_Blockchain/multipleInheritence.sol\":221:376  contract multipleInheritence2{... */\n      mstore(0x40, 0x80)\n      callvalue\n      dup1\n      iszero\n      tag_1\n      jumpi\n      0x00\n      dup1\n      revert\n    tag_1:\n      pop\n      jumpi(tag_2, lt(calldatasize, 0x04))\n      shr(0xe0, calldataload(0x00))\n      dup1\n      0x446a45b7\n      eq\n      tag_3\n      jumpi\n      dup1\n      0x4df7e3d0\n      eq\n      tag_4\n      jumpi\n    tag_2:\n      0x00\n      dup1\n      revert\n        /* \"Multiple_Inheritence_in_Blockchain/multipleInheritence.sol\":326:373  function fun1() public{... */\n    tag_3:\n      tag_5\n      tag_6\n      jump\t// in\n    tag_5:\n      stop\n        /* \"Multiple_Inheritence_in_Blockchain/multipleInheritence.sol\":257:270  uint public b */\n    tag_4:\n      tag_7\n      tag_8\n      jump\t// in\n    tag_7:\n      mload(0x40)\n      tag_9\n      swap2\n      swap1\n      tag_10\n      jump\t// in\n    tag_9:\n      mload(0x40)\n      dup1\n      swap2\n      sub\n      swap1\n      return\n        /* \"Multiple_Inheritence_in_Blockchain/multipleInheritence.sol\":326:373  function fun1() public{... */\n    tag_6:\n        /* \"Multiple_Inheritence_in_Blockchain/multipleInheritence.sol\":363:365  20 */\n      0x14\n        /* \"Multiple_Inheritence_in_Blockchain/multipleInheritence.sol\":359:360  b */\n      0x00\n        /* \"Multiple_Inheritence_in_Blockchain/multipleInheritence.sol\":359:365  b = 20 */\n      dup2\n      swap1\n      sstore\n      pop\n        /* \"Multiple_Inheritence_in_Blockchain/multipleInheritence.sol\":326:373  function fun1() public{... */\n      jump\t// out\n        /* \"Multiple_Inheritence_in_Blockchain/multipleInheritence.sol\":257:270  uint public b */\n    tag_8:\n      sload(0x00)\n      dup2\n      jump\t// out\n        /* \"#utility.yul\":7:84   */\n    tag_12:\n        /* \"#utility.yul\":44:51   */\n      0x00\n        /* \"#utility.yul\":73:78   */\n      dup2\n        /* \"#utility.yul\":62:78   */\n      swap1\n      pop\n        /* \"#utility.yul\":7:84   */\n      swap2\n      swap1\n      pop\n      jump\t// out\n        /* \"#utility.yul\":90:208   */\n    tag_13:\n        /* \"#utility.yul\":177:201   */\n      tag_17\n        /* \"#utility.yul\":195:200   */\n      dup2\n        /* \"#utility.yul\":177:201   */\n      tag_12\n      jump\t// in\n    tag_17:\n        /* \"#utility.yul\":172:175   */\n      dup3\n        /* \"#utility.yul\":165:202   */\n      mstore\n        /* \"#utility.yul\":90:208   */\n      pop\n      pop\n      jump\t// out\n        /* \"#utility.yul\":214:436   */\n    tag_10:\n        /* \"#utility.yul\":307:311   */\n      0x00\n        /* \"#utility.yul\":345:347   */\n      0x20\n        /* \"#utility.yul\":334:343   */\n      dup3\n        /* \"#utility.yul\":330:348   */\n      add\n        /* \"#utility.yul\":322:348   */\n      swap1\n      pop\n        /* \"#utility.yul\":358:429   */\n      tag_19\n        /* \"#utility.yul\":426:427   */\n      0x00\n        /* \"#utility.yul\":415:424   */\n      dup4\n        /* \"#utility.yul\":411:428   */\n      add\n        /* \"#utility.yul\":402:408   */\n      dup5\n        /* \"#utility.yul\":358:429   */\n      tag_13\n      jump\t// in\n    tag_19:\n        /* \"#utility.yul\":214:436   */\n      swap3\n      swap2\n      pop\n      pop\n      jump\t// out\n\n    auxdata: 0xa26469706673582212206acf6d2974b2f3f972d36f7bc1e4d14a15a772cf56a7b5a5e5cf1c84ef0b314664736f6c63430008120033\n}\n",
				"bytecode": {
					"linkReferences": {},
					"object": "608060405234801561001057600080fd5b5060c860008190555060cf806100276000396000f3fe6080604052348015600f57600080fd5b506004361060325760003560e01c8063446a45b71460375780634df7e3d014603f575b600080fd5b603d6059565b005b60456063565b604051605091906080565b60405180910390f35b6014600081905550565b60005481565b6000819050919050565b607a816069565b82525050565b6000602082019050609360008301846073565b9291505056fea26469706673582212206acf6d2974b2f3f972d36f7bc1e4d14a15a772cf56a7b5a5e5cf1c84ef0b314664736f6c63430008120033",
					"opcodes": "PUSH1 0x80 PUSH1 0x40 MSTORE CALLVALUE DUP1 ISZERO PUSH2 0x10 JUMPI PUSH1 0x0 DUP1 REVERT JUMPDEST POP PUSH1 0xC8 PUSH1 0x0 DUP2 SWAP1 SSTORE POP PUSH1 0xCF DUP1 PUSH2 0x27 PUSH1 0x0 CODECOPY PUSH1 0x0 RETURN INVALID PUSH1 0x80 PUSH1 0x40 MSTORE CALLVALUE DUP1 ISZERO PUSH1 0xF JUMPI PUSH1 0x0 DUP1 REVERT JUMPDEST POP PUSH1 0x4 CALLDATASIZE LT PUSH1 0x32 JUMPI PUSH1 0x0 CALLDATALOAD PUSH1 0xE0 SHR DUP1 PUSH4 0x446A45B7 EQ PUSH1 0x37 JUMPI DUP1 PUSH4 0x4DF7E3D0 EQ PUSH1 0x3F JUMPI JUMPDEST PUSH1 0x0 DUP1 REVERT JUMPDEST PUSH1 0x3D PUSH1 0x59 JUMP JUMPDEST STOP JUMPDEST PUSH1 0x45 PUSH1 0x63 JUMP JUMPDEST PUSH1 0x40 MLOAD PUSH1 0x50 SWAP2 SWAP1 PUSH1 0x80 JUMP JUMPDEST PUSH1 0x40 MLOAD DUP1 SWAP2 SUB SWAP1 RETURN JUMPDEST PUSH1 0x14 PUSH1 0x0 DUP2 SWAP1 SSTORE POP JUMP JUMPDEST PUSH1 0x0 SLOAD DUP2 JUMP JUMPDEST PUSH1 0x0 DUP2 SWAP1 POP SWAP2 SWAP1 POP JUMP JUMPDEST PUSH1 0x7A DUP2 PUSH1 0x69 JUMP JUMPDEST DUP3 MSTORE POP POP JUMP JUMPDEST PUSH1 0x0 PUSH1 0x20 DUP3 ADD SWAP1 POP PUSH1 0x93 PUSH1 0x0 DUP4 ADD DUP5 PUSH1 0x73 JUMP JUMPDEST SWAP3 SWAP2 POP POP JUMP INVALID LOG2 PUSH5 0x6970667358 0x22 SLT KECCAK256 PUSH11 0xCF6D2974B2F3F972D36F7B 0xC1 0xE4 0xD1 0x4A ISZERO 0xA7 PUSH19 0xCF56A7B5A5E5CF1C84EF0B314664736F6C6343 STOP ADDMOD SLT STOP CALLER "
				},
				"gasEstimates": {
					"creation": {
						"codeDepositCost": "41400",
						"executionCost": "22207",
						"totalCost": "63607"
					},
					"external": {
						"b()": "2429",
						"fun1()": "22236"
					}
				},
				"methodIdentifiers": {
					"b()": "4df7e3d0",
					"fun1()": "446a45b7"
				}
			},
			"storageLayout": {
				"storage": [
					{
						"astId": 22,
						"contract": "Multiple_Inheritence_in_Blockchain/multipleInheritence.sol:multipleInheritence2",
						"label": "b",
						"offset": 0,
						"slot": "0",
						"type": "t_uint256"
					}
				],
				"types": {
					"t_uint256": {
						"encoding": "inplace",
						"label": "uint256",
						"numberOfBytes": "32"
					}
				}
			},
			"userdoc": {
				"kind": "user",
				"methods": {},
				"version": 1
			}
		}
	}
}